:100000000C94F7010C94BE160C94E5160C941F0288
:100010000C941F020C941F020C941F020C941F02DC
:100020000C941F020C941F020C941F020C940B14CE
:100030000C941F020C941F020C941F020C941F02BC
:100040000C940C170C941F020C94921A0C94C41A62
:100050000C941F020C941F020C941F020C941F029C
:100060000C941F020C941F024572726F723A207238
:1000700065637646726F6D41636B004572726F7295
:100080002073656E64696E6720726573706F6E733E
:1000900065287329004572726F722073656E6469FA
:1000A0006E6720726573706F6E73652873290052D6
:1000B0006573706F6E64696E672E2E2E0054656DC9
:1000C0007065726174757265733A00646F6E652E47
:1000D0000052657175657374696E672074656D7023
:1000E00065726174757265732E2E2E00207C20540B
:1000F0007970653A00207C20526573703A00207C4C
:100100002069643A00476F74206D65737361676599
:100110002066726F6D203A2030780050726F6365F0
:100120007373696E67207265636569766564206DB7
:100130006573736167652E004572726F723A207540
:100140006E61626C6520746F20636F6D6D756E6992
:100150006361746520776974682073656E736F726C
:10016000200020430030002062757420636F756C9E
:1001700064206E6F742064657465637420616464C8
:10018000726573732E20436865636B20706F7765AB
:100190007220616E64206361626C696E6700466FF5
:1001A000756E642067686F73742064657669636533
:1001B00020617420005265736F6C7574696F6E20D6
:1001C00061637475616C6C792073657420746F3A27
:1001D000200053657474696E67207265736F6C7567
:1001E00074696F6E20746F200020776974682061D5
:1001F0006464726573733A2000466F756E642064A0
:10020000657669636520004F4646004F4E00506199
:1002100072617369746520706F7765722069733AD3
:100220002000204F6E6557697265206465766963AA
:1002300065732E00466F756E642000496E746961A7
:100240006C697A696E672074656D7065726174752A
:1002500072652073656E736F72732E2E2E00646F3D
:100260006E652E00526164696F20696E6974206644
:1002700061696C656400496E697469616C697A6969
:100280006E6720726164696F2E2E2E00005EBCE2E4
:10029000613FDD83C29C7E20A3FD1F419DC3217F62
:1002A000FCA2401E5F01E3BD3E6082DC237D9FC156
:1002B000421CFEA0E1BF5D0380DE3C62BEE0025C4A
:1002C000DF81633D7C22C09E1D43A1FF4618FAA436
:1002D00027799BC584DA3866E5BB5907DB85673922
:1002E000BAE406581947A5FB7826C49A653BD98716
:1002F000045AB8E6A7F91B45C6987A24F8A6441A0A
:1003000099C7257B3A6486D85B05E7B98CD2306EF5
:10031000EDB3510F4E10F2AC2F7193CD114FADF3E1
:10032000702ECC92D38D6F31B2EC0E50AFF1134DD5
:10033000CE90722C6D33D18F0C52B0EE326C8ED0C9
:10034000530DEFB1F0AE4C1291CF2D73CA947628B5
:10035000ABF517490856B4EA6937D58B5709EBB5A1
:1003600036688AD495CB2977F4AA4816E9B7550B95
:1003700088D6346A2B7597C94A14F6A8742AC89689
:10038000154BA9F7B6E80A54D7896B350000000869
:10039000000201000003040700000000000000004C
:1003A000010204081020408001020408102001020C
:1003B00004081020040404040404040402020202D9
:1003C00002020303030303030000000023002600CE
:1003D000290000000000250028002B00000000007C
:1003E000240027002A00D6048A0FF41A02051124DB
:1003F0001FBECFEFD8E0DEBFCDBF12E0A0E0B1E07E
:10040000EAEBFDE402C005900D92AC33B107D9F7D9
:1004100024E0ACE3B2E001C01D92A938B207E1F7D5
:1004200013E0CCEED3E004C02297FE010E94AD237E
:10043000C63ED107C9F70E94381B0C94D0260C94F5
:100440000000CF93C82FE091E203F091E303019005
:10045000F081E02D682F82EE93E009958C2F99278B
:1004600087FD9095CF9108950F931F93CF93DF93BE
:1004700010923C0226E040E052EC61E070E082EE37
:1004800093E00E942A1A60E070E081E292E00E940C
:10049000232666E772E082EE93E00E947B1B8DE3E9
:1004A00092E00E94630D882309F4E7C043E050E026
:1004B00062E070E088E493E00E942E1668E288E42F
:1004C00093E00E9427166EE572E082EE93E00E94B0
:1004D0002B1D6BE372E082EE93E00E942B1D8CEAF1
:1004E00093E00E94D4058CEA93E00E948A0690E093
:1004F0009093AB038093AA0364E372E082EE93E0EF
:100500000E947B1B6091AA037091AB034AE050E00C
:1005100082EE93E00E94311C62E272E082EE93E090
:100520000E942B1D6EE072E082EE93E00E947B1B26
:100530008CEA93E00E943209811145C067E072E0C5
:1005400082EE93E00E942B1D8091AA039091AB0351
:10055000181619060CF05BC000E010E0402F62EAAC
:1005600073E08CEA93E00E948D06882399F169EF8D
:1005700071E082EE93E00E947B1B4AE050E0B801FC
:1005800082EE93E00E94311C69EE71E082EE93E00E
:100590000E947B1BC2EAD3E00BC040E150E082EE38
:1005A00093E00E94B71B219683E0CA3AD807A1F1D5
:1005B0006881603190F765E671E082EE93E00E9419
:1005C0007B1B6881EACF6BE072E082EE93E00E94D1
:1005D0002B1DBACF6EE971E082EE93E00E947B1B87
:1005E0004AE050E0B80182EE93E00E94311C67E6D9
:1005F00071E082EE93E00E942B1D0F5F1F4F8091F0
:10060000AA039091AB03081719070CF4A7CFDF9149
:10061000CF911F910F91089582EE93E00E945F1D8C
:1006200062ED71E082EE93E00E947B1B4AE050E0B5
:100630006CE070E082EE93E00E94AD1D4CE062EA57
:1006400073E08CEA93E00E946D0765EB71E082EE47
:1006500093E00E947B1B62EA73E08CEA93E00E94C5
:10066000EE074AE050E0682F82EE93E00E94B71B4D
:1006700082EE93E00E945F1DC0CF64E672E082EEDE
:1006800093E0DF91CF911F910F910C942B1DAF92AE
:10069000BF92CF92DF92EF92FF920F931F93CF936F
:1006A000DF93CDB7DEB760970FB6F894DEBF0FBE0D
:1006B000CDBF8DE392E00E941A0E811117C064E64F
:1006C00070E080E090E00E94621760960FB6F894A8
:1006D000DEBF0FBECDBFDF91CF911F910F91FF9075
:1006E000EF90DF90CF90BF90AF9008956BE171E0F5
:1006F00082EE93E00E942B1D87E08F87C12CD12CC6
:10070000E12CF12C00E010E09E01205F3F4FAE0194
:10071000415F5F4FBE01685F7F4F8DE392E00E94B3
:100720001D12882309F4B9C065E071E082EE93E000
:100730000E947B1B40E150E0688982EE93E00E94BA
:10074000B71B6EEF70E082EE93E00E947B1B6A8520
:1007500082EE93E00E94B01B65EF70E082EE93E0C2
:100760000E947B1B4AE050E0688582EE93E00E9485
:10077000B71B6CEE70E082EE93E00E947B1B6985F4
:1007800082EE93E00E948F1D61ED70E082EE93E0B7
:100790000E947B1B8CEA93E00E9460086BEC70E087
:1007A00082EE93E00E942B1D6DEB70E082EE93E0F1
:1007B0000E942B1D8091AA039091AB031816190675
:1007C0000CF072C000E010E040C0B7018CEA93E08A
:1007D0000E9492086B017C01011108C026E636E6F2
:1007E00046E65FE30E9419216B017C01F501EE0FE3
:1007F000FF1FEE0FFF1FEC57FC4FC082D182E28239
:10080000F382B501660F771F6A0D7B1D660F771F98
:1008100060577C4F82EE93E00E94A21B22E030E002
:10082000B701A60182EE93E00E94912062E671E09A
:1008300082EE93E00E942B1D0F5F1F4F8091AA0351
:100840009091AB03081719077CF55801BB2475017B
:10085000EE0CFF1CEE0CFF1CEE0CFF1CC701865FAC
:100860009E4F7C01BC018CEA93E00E94BA06811184
:10087000ACCF68E371E082EE93E00E947B1BB50190
:10088000660F771F6A0D7B1D660F771F60577C4FC1
:1008900082EE93E00E946A1DCFCF68E670E082EEA0
:1008A00093E00E942B1D0BCF8885811122C01985F2
:1008B000143509F181E089831A838AE58B8380E00E
:1008C00090E0A0ECBFE78C839D83AE83BF83288933
:1008D00047E0BE016F5F7F4F8DE392E00E941111F0
:1008E0008111EDCE6BE770E082EE93E00E942B1D4C
:1008F000E6CE1985DFCF6FEA70E082EE93E00E94CA
:100900002B1D81E089831A83809184039091850354
:10091000A0918603B09187038C839D83AE83BF83B0
:100920008CE48B83288947E0BE016F5F7F4F8DE3A6
:1009300092E00E941111182F409188035091890371
:1009400060918A0370918B034C835D836E837F83F8
:100950008FE48B83288947E0BE016F5F7F4F8DE373
:1009600092E00E941111182340918C0350918D0345
:1009700060918E0370918F034C835D836E837F83C0
:1009800089E48B83288947E0BE016F5F7F4F8DE349
:1009900092E00E941111112311F0811190CE65E9AE
:1009A00070E082EE93E00E942B1D89CE67E08FEB12
:1009B00093E00E94A3096FEB73E08CEA93E00E943E
:1009C000C50566E271E080E993E00E94C82063E318
:1009D00071E086E993E00E94C82061E471E08CE94F
:1009E00093E00E94C8202FEC33E04AE068E088E4FE
:1009F00093E00E94121640E768E473E08DE392E012
:100A00000C94FE108CE993E00E94132186E993E098
:100A10000E94132180E993E00C941321CF93CFB768
:100A2000F8948091CE03811125C0EEEBF3E0849120
:100A3000EAEAF3E09491E82FF0E0EE0FFF1FE452B2
:100A4000FC4FA591B4918C918923D1F061E08AE0AB
:100A50000E943B188CB580618CBD8CB580648CBDC8
:100A600061E08DE00E943B1861E08BE00E943B1842
:100A70008091CE038F5F8093CE03CFBFCF91089537
:100A800061E08AE00E947918E1CF9FB7F8948091E5
:100A9000CE03882339F081508093CE03882311F050
:100AA0009FBF08958CB58F7B8CBD1092CD039FBFE7
:100AB00008950895CF92DF92EF92FF920F931F93C4
:100AC000CF93DF93CDB7DEB729970FB6F894DEBF8B
:100AD0000FBECDBF7C018B01FC01858196810E94F8
:100AE000CE09811110C080E029960FB6F894DEBFC0
:100AF0000FBECDBFDF91CF911F910F91FF90EF906F
:100B0000DF90CF900895B801F701858196810E940A
:100B1000EE0A40E06EEBF701858196810E943A0A69
:100B20008E010F5F1F4F6E01FAE0CF0ED11CF7014F
:100B3000858196810E94AD0AF80181938F01EC15A1
:100B4000FD05A9F7F701858196810E94CE098130C4
:100B500051F668E0CE0101960E944C0D99858913EB
:100B6000C2CF8D818F3379F048F08F3529F08F37E0
:100B700009F0B9CF8CE0B8CF8BE0B6CF8F3109F058
:100B8000B2CF89E0B1CF8AE0AFCFFC0189E595E033
:100B9000928B818B768365831482108289E08183B6
:100BA00081E0828383830895AF92BF92CF92DF92D8
:100BB000EF92FF920F931F93CF93DF93CDB7DEB7E2
:100BC00061970FB6F894DEBF0FBECDBF7C01FC016C
:100BD000858196810E94F20BF70114828E01065FD7
:100BE0001F4F580107C067E0C8010E944C0D99894A
:100BF0008917D1F041E0B801F701858196810E9403
:100C0000FE0B8111F0CF61960FB6F894DEBF0FBED8
:100C1000CDBFDF91CF911F910F91FF90EF90DF90AB
:100C2000CF90BF90AF900895F7018081882309F499
:100C300048C0F701858196810E94CE0981111FC0AD
:100C4000F701D1808A85803171F0B801C7010E9417
:100C50005A058D1558F4F7018181F701818384814C
:100C60008F5F8483C7CF8CE08D15A8F38A85803190
:100C700009F448C0B801C7010E945A05EECFB80177
:100C8000F701858196810E94EE0A40E06EEBF70144
:100C9000858196810E943A0ACE0101966C018501F8
:100CA000F701858196810E94AD0AF60181936F015B
:100CB000EA15FB05A9F7F701858196810E94CE0907
:100CC000BFCF858196810E94CE09B801F701858149
:100CD00096810E94EE0A40E064EBF70185819681DF
:100CE0000E943A0AF701858196810E940F0A8111BC
:100CF0000BC0F701858196810E94CE0981E0F70142
:100D0000808397CF8CE0A9CFF701858196810E94DF
:100D1000CE098FCFFC0184810895EF92FF920F934B
:100D20001F93CF93DF93EC018B01E42E8D819E8185
:100D30000E94F20BF12C41E0B8018D819E810E944E
:100D4000FE0B882329F0FE1459F0F394EF1498F762
:100D500080E0DF91CF911F910F91FF90EF90089568
:100D600067E0C8010E944C0DF80197818913EDCF0F
:100D700081E0EFCFCF92DF92EF92FF920F931F931C
:100D8000CF93DF93CDB7DEB729970FB6F894DEBFC8
:100D90000FBECDBF7C018B01FC01858196810E9435
:100DA000CE09811110C080E029960FB6F894DEBFFD
:100DB0000FBECDBFDF91CF911F910F91FF90EF90AC
:100DC000DF90CF900895B801F701858196810E9448
:100DD000EE0A40E06EEBF701858196810E943A0AA7
:100DE0008E010F5F1F4F6E01FAE0CF0ED11CF7018D
:100DF000858196810E94AD0AF80181938F01EC15DF
:100E0000FD05A9F7F701858196810E94CE09813001
:100E100051F668E0CE0101960E944C0D91E02985C3
:100E2000821390E0892FC0CFEF92FF920F931F9310
:100E3000CF93DF93EC018B017A018D819E810E941B
:100E4000CE09B8018D819E810E94EE0A40E06EE4D9
:100E50008D819E810E943A0A40E0F70162818D8176
:100E60009E810E943A0A40E0F70163818D819E8154
:100E70000E943A0AF8018081803139F040E0F701A0
:100E800064818D819E810E943A0A8D819E810E949B
:100E9000CE09B8018D819E810E94EE0A488168E4E6
:100EA0008D819E810E943A0A64E170E080E090E0CA
:100EB0000E9462178881882331F06AE070E080E048
:100EC00090E00E9462178D819E81DF91CF911F91EA
:100ED0000F91FF90EF900C94CE099F92AF92BF922A
:100EE000CF92DF92EF92FF920F931F93CF93DF93F6
:100EF000CDB7DEB729970FB6F894DEBF0FBECDBFD2
:100F00007C015B01942EFC01858196810E94CE09B3
:100F1000811113C080E029960FB6F894DEBF0FBE92
:100F2000CDBFDF91CF911F910F91FF90EF90DF9098
:100F3000CF90BF90AF909F900895B501F701858144
:100F400096810E94EE0A40E06EEBF7018581968162
:100F50000E943A0A8E010F5F1F4F6E01FAE0CF0E1A
:100F6000D11CF701858196810E94AD0AF801819319
:100F70008F01EC15FD05A9F7F701858196810E9487
:100F8000CE09813039F668E0CE0101960E944C0D01
:100F900099858913BFCFF50180818031E9F0FBE0AD
:100FA0009F16B9F08CE0981689F0EAE09E1659F089
:100FB0008FE18D83AE014F5F5F4FB501C7010E9486
:100FC000140781E0A8CF8FE38D83F4CF8FE78D8363
:100FD000F1CF8FE58D83EECF81E09DCFCF92DF9271
:100FE000EF92FF920F931F93CF93DF93CDB7DEB7AE
:100FF0002B970FB6F894DEBF0FBECDBF7C01FB016F
:101000008081803181F48CE02B960FB6F894DEBF9E
:101010000FBECDBFDF91CF911F910F91FF90EF9049
:10102000DF90CF900895F701858196816A877B874D
:101030000E94CE096A857B85811102C080E0E4CFE1
:10104000F701858196810E94EE0A40E06EEBF70180
:10105000858196810E943A0A8E010F5F1F4F6E01B3
:10106000FAE0CF0ED11CF701858196810E94AD0A6E
:10107000F80181938F01EC15FD05A9F7F701858132
:1010800096810E94CE098130C9F668E0CE010196B2
:101090000E944C0D99858913D1CF8D818F3371F0CA
:1010A00038F08F3549F08F3709F4ADCF80E0ACCF01
:1010B0008F3121F689E0A8CF8BE0A6CF8AE0A4CFBC
:1010C000CF93DF93EC018D819E810E94CE098D81AB
:1010D0009E810E94870B488164E48D819E810E94DD
:1010E0003A0A8A81811103C0DF91CF910895E98185
:1010F000E950E33078F4F0E0EE0FFF1FEC5AFE4FBA
:1011000060817181882777FD8095982FDF91CF913D
:101110000C9462176EEE72E080E090E0DF91CF9168
:101120000C946217AF92BF92CF92DF92EF92FF9230
:101130000F931F93CF93DF93CDB7DEB729970FB6E9
:10114000F894DEBF0FBECDBF7C015B01FC01858141
:1011500096810E94CE09811115C060E070E08EEF8B
:1011600092EC29960FB6F894DEBF0FBECDBFDF918B
:10117000CF911F910F91FF90EF90DF90CF90BF9094
:10118000AF900895B501F701858196810E94EE0A1E
:1011900040E06EEBF701858196810E943A0A8E014C
:1011A0000F5F1F4F6E01FAE0CF0ED11CF701858152
:1011B00096810E94AD0AF80181938F01EC15FD051F
:1011C000A9F7F701858196810E94CE09813029F621
:1011D00068E0CE0101960E944C0D99858913BDCF20
:1011E000298130E0220F331F220F331F220F331FBC
:1011F0008A8190E0982F8827990F990F990F282BB3
:10120000392BF5018081803199F0B901613854EEB4
:1012100075070CF4A2CF882777FD8095982F0E9440
:101220001C2220E030E040E05CE30E94D02299CF15
:10123000688570E08F81AB01481B5109CA01969502
:10124000982F8827979587950E94372360517109B9
:10125000207F220F331F220F331F220F331F620FF5
:10126000731FD4CFFC0180810895BF92CF92DF928B
:10127000EF92FF920F931F93CF93DF937C01B62ED3
:1012800008E010E0DD24D3941FC0D701CC90119664
:10129000CD91DC911297F8949A818C2D80958923B9
:1012A0008A8389818C2989838AE090E00E94F517DE
:1012B0008A818C298A83789487E390E00E94F517CD
:1012C000DD0C0150110901F18D2D8B21F1F6F70193
:1012D000C080C181D281F8949A818C2D8095892318
:1012E0008A8389818C29898381E490E00E94F517A3
:1012F0008A818C298A83789485E090E00E94F51792
:10130000DD0C0150110901F7F894D7011196ED9108
:10131000FC91129791818C918095892381831196FC
:10132000ED91FC91129792818C9180958923828313
:101330007894DF91CF911F910F91FF90EF90DF9004
:10134000CF90BF9008951F93CF93DF93EC01162F9A
:1013500060E0812F0E943B18612F70E0FB01E05696
:10136000FC4FE491E883FB01EC54FC4FE491F0E086
:10137000EE0FFF1FE853FC4F859194919A83898368
:101380001B861D861C861A86239687E0FE01119215
:101390008A95E9F7DF91CF911F910895FF920F93FE
:1013A0001F93CF93DF93FC010081C181D281F89418
:1013B0008981F02EF0948F21898378941CE702C0F4
:1013C000115021F182E090E00E94F517988190235E
:1013D000B9F3F8948A818F218A838981802B89834C
:1013E000789480EE91E00E94F517F89489818F211E
:1013F000898386E490E00E94F5178881802311E0BC
:1014000061F478948AE991E00E94F517812FDF91C9
:10141000CF911F910F91FF90089510E0F2CF0F939D
:101420001F93CF93DF93FC011081C181D281F89487
:101430008981812B89838A81012F009580238A836A
:1014400083E090E00E94F5178981802389838AE0F8
:1014500090E00E94F517C881789485E390E00E949F
:10146000F5171C2381E009F480E0DF91CF911F91F3
:101470000F910895AF92BF92CF92DF92EF92FF92B9
:101480000F931F93CF93DF937C01A62EB42E08E019
:1014900010E0DD24D3941FC0D701CC901196CD91DC
:1014A000DC911297F8949A818C2D809589238A83F8
:1014B00089818C2989838AE090E00E94F5178A81CE
:1014C0008C298A83789487E390E00E94F517DD0CDD
:1014D0000150110901F18D2D8A21F1F6F701C0802B
:1014E000C181D281F8949A818C2D809589238A8339
:1014F00089818C29898381E490E00E94F5178A8193
:101500008C298A83789485E090E00E94F517DD0CA1
:101510000150110901F7B11015C0F894D7011196C7
:10152000ED91FC91129791818C9180958923818313
:101530001196ED91FC91129792818C91809589235F
:1015400082837894DF91CF911F910F91FF90EF905C
:10155000DF90CF90BF90AF900895AF92BF92CF929F
:10156000DF92EF92FF920F931F93CF93DF937C0153
:1015700008E010E0A12CBB24B394F701D080C18116
:10158000D281F89499819D2999839A81CD2CC09418
:101590009C219A8383E090E00E94F51799819C2119
:1015A00099838AE090E00E94F517C881CD21789454
:1015B00085E390E00E94F517C111AB28BB0C0150E8
:1015C0001109D9F68A2DDF91CF911F910F91FF90CC
:1015D000EF90DF90CF90BF90AF9008956F927F9281
:1015E0008F929F92AF92BF92CF92DF92EF92FF9233
:1015F0000F931F93CF93DF931F92CDB7DEB77C017C
:10160000162F65E579830E943509C12E7981D72E81
:1016100098E0992ED6018D906D0108E010E0BB2472
:10162000B39426C0F701A08061807280F894D30142
:1016300012969C9112978A2D8095892312968C93ED
:10164000129711968C9111978A2911968C938AE0A2
:1016500090E00E94F517F30182818A2982837894B1
:1016600087E390E00E94F517BB0C0150110939F196
:101670008B2D8821B9F6D701AC9011966D907C9096
:101680001297F894F30192818A2D809589238283A1
:1016900081818A29818381E490E00E94F517D3013A
:1016A00012968C9112978A2912968C93789485E0E1
:1016B00090E00E94F517BB0C01501109C9F6F8948F
:1016C000D7011196ED91FC91129791818C918095A3
:1016D000892381831196ED91FC91129792818C91CF
:1016E00080958923828378949A9409F093CF0F9000
:1016F000DF91CF911F910F91FF90EF90DF90CF90EE
:10170000BF90AF909F908F907F906F900895CF92F1
:10171000DF92EF92FF920F931F93CF93DF937C01A1
:1017200008E010E0DD24D3941FC0D701CC901196BF
:10173000CD91DC911297F8949A818C2D8095892314
:101740008A8389818C2989838AE090E00E94F51739
:101750008A818C298A83789487E390E00E94F51728
:10176000DD0C0150110901F18D2D8C7CF1F6F70192
:10177000C080C181D281F8949A818C2D8095892373
:101780008A8389818C29898381E490E00E94F517FE
:101790008A818C298A83789485E090E00E94F517ED
:1017A000DD0C0150110901F7F894D7011196ED9164
:1017B000FC91129791818C91809589238183119658
:1017C000ED91FC91129792818C918095892382836F
:1017D0007894DF91CF911F910F91FF90EF90DF9060
:1017E000CF900895FC0113861586148612863396D1
:1017F00087E0DF011D928A95E9F708957F928F9225
:101800009F92AF92BF92CF92DF92EF92FF920F938F
:101810001F93CF93DF93EC017B01B42E8D8588233A
:1018200091F01B861D861C8680E0DF91CF911F9171
:101830000F91FF90EF90DF90CF90BF90AF909F906F
:101840008F907F900895C88009811A81F894F801DB
:101850008181AC2CA0948A21818378942CE7D22EAC
:1018600002C0DA94F1F282E090E00E94F517F801EC
:1018700080818C21B1F3F894F80182818A218283DE
:1018800081818C298183789480EE91E00E94F51704
:10189000F894F80181818A21818386E490E00E9496
:1018A000F517F80110811C2178948AE991E00E94D3
:1018B000F5171111B6CFBB2009F4E9C060EFCE01D6
:1018C0000E943509DD24D394C12CA12CBB24B394F0
:1018D00034C0882009F4A3C0E72DE1708E2EFE01EC
:1018E000EC0DF11D83819D2D909589238383988034
:1018F00009811A8181107BC0F894F8019281892DA9
:1019000080958923828381818929818381E490E084
:101910000E94F517F801828189298283789485E0F5
:1019200090E00E94F517B394DD0C19F4C394DD2404
:10193000D394F7E0FC1508F48BC0988009811A81D4
:10194000F894F8018181892981838281892C80948E
:101950008821828383E090E00E94F517F80181815D
:10196000882181838AE090E00E94F517F801808148
:10197000892177247394811101C0712C789485E3B7
:1019800090E00E94F517988009811A81F894F80177
:101990008181892981838281892C80948821828315
:1019A00083E090E00E94F517F8018181882181830E
:1019B0008AE090E00E94F517F8018081892188244F
:1019C0008394811101C0812C789485E390E00E947A
:1019D000F517F1E07F127DCF8F16D1F1FE01EC0DEE
:1019E000F11D83818D298383988009811A81F89460
:1019F000F8019281892D80958923828381818929AB
:101A000081838AE090E00E94F517F801828189299C
:101A10008283789487E390E00E94F51784CF8B85CA
:101A2000B81660F4FE01EC0DF11D83818D21C9F61D
:101A300088E08B1508F0BC86AB2C54CF91E0B8122F
:101A400090E0EC2DF0E0EC0FFD1F992389F3C9CF56
:101A500080E48B1508F0E5CEAB86A11002C081E0D2
:101A60008D878B81882309F4DCCEF70180838C81FC
:101A700081838D8182838E8183838F818483888516
:101A80008583898586838A85878381E0CECE6CEEC7
:101A9000CE010E94350916CF2FEF260F662361F085
:101AA000DC0180E09D919827E92FF0E0E457FD4F9D
:101AB00084912150B8F7089580E00895FC01718366
:101AC0006083428308950F931F93CF93DF93EC01BC
:101AD00088819981DC01ED91FC910190F081E02DEC
:101AE0000995182F8823B1F00A8188819981DC013A
:101AF000ED91FC910288F389E02D602F0995888192
:101B00009981DC01ED91FC910688F789E02D602F29
:101B100009950A83812FDF91CF911F910F9108952D
:101B2000EF92FF920F931F93CF93DF931F92CDB746
:101B3000DEB77C018B01DC018D919C91DC01ED9184
:101B4000FC910488F589E02D622F49830995F701FE
:101B500080819181DC01ED91FC910680F781E02D7F
:101B60004981B8010F90DF91CF911F910F91FF90A4
:101B7000EF900994AF92BF92CF92DF92EF92FF92D3
:101B80000F931F93CF93DF93EC01590188819981C3
:101B9000DC01ED91FC910480F581E02D099588230D
:101BA00009F444C0A114B10459F088819981DC0181
:101BB000ED91FC9100A0F1A1E02D0995F501808344
:101BC0000115110559F088819981DC01ED91FC9195
:101BD000068CF78DE02D0995F8018083E114F1045E
:101BE00059F088819981DC01ED91FC9102A0F3A16B
:101BF000E02D0995F7018083C114D104C9F08881D3
:101C00009981DC01ED91FC9104A0F5A1E02D0995ED
:101C1000F601808381E0DF91CF911F910F91FF90BA
:101C2000EF90DF90CF90BF90AF90089580E0F3CF1A
:101C300081E0F1CFDC018D919C91DC01ED91FC9173
:101C40000280F381E02D0994DC018D919C91DC01EF
:101C5000ED91FC910484F585E02D0994DC018D91D2
:101C60009C91DC01ED91FC910088F189E02D0994B3
:101C7000DC018D919C91DC01ED91FC91008CF18D4A
:101C8000E02D0994DC018D919C91DC01ED91FC919A
:101C9000028CF38DE02D099481E00895FC016583A9
:101CA0000895FC0164830895FC0162870895FC0196
:101CB00063870895FC01648708954095FC0125859C
:101CC0004223462B45870895FC0186810895FC0137
:101CD00087810895FC0180850895FC018185089520
:101CE00080E00895CF93DF93EC0102C00E94BC1600
:101CF000E881F9810280F381E02DCE0109958823E6
:101D0000A9F3DF91CF910895CF93DF93EC018A81FE
:101D10009B81039739F40E94BC162A813B812330B2
:101D20003105C9F381E0DF91CF9108958F929F92A1
:101D3000AF92BF92CF92DF92EF92FF92CF93DF9359
:101D4000EC016B010E9456174B015C01E12CF12C58
:101D50000BC0E881F9810280F381E02DCE01099565
:101D6000811119C00E94BC160E9456176819790982
:101D70008A099B096C157D058E059F0550F380E04F
:101D8000DF91CF91FF90EF90DF90CF90BF90AF9019
:101D90009F908F90089581E0F3CF8F929F92AF92A2
:101DA000BF92CF92DF92EF92FF92CF93DF93EC013D
:101DB0006B010E9456174B015C01E12CF12C06C00F
:101DC0008A819B810397C9F40E94BC160E94561712
:101DD000681979098A099B096C157D058E059F058F
:101DE00078F380E0DF91CF91FF90EF90DF90CF907C
:101DF000BF90AF909F908F90089581E0F3CFFC014A
:101E00008EE591E091838083138212828FEF848329
:101E10008287838714861586108A1786128A118A0C
:101E2000148A138A089508950895FC0175836483C4
:101E30000895FC01778366830895FC0173836283B0
:101E40000895FC018AE891E0918380837383628323
:101E5000558344833783268308956EBD00000DB4F7
:101E600007FEFDCF8EB508958CB580688CBD0895B2
:101E70008CB58F778CBD0895CF93DF93FC0186815D
:101E80009781009741F081309105E1F18230910511
:101E9000E9F10397C9F190E08CB5837F892B8CBD64
:101EA00084819581019751F18CB58F7D8CBD8281A4
:101EB0009381019784309105F0F4FC01E656FE4FC2
:101EC000C081DC2FD370C2FBCC27C0F98CB58C7FCE
:101ED0008D2B8CBD8DB58E7F8C2B8DBD0E940E05FC
:101EE0008CB58C7F8D2B8CBD8DB58E7F8C2B8DBD55
:101EF000DF91CF910895C0E0D1E0E8CF8CB580624A
:101F00008CBDD5CF94E0C8CF9CE0C6CF98E0C4CFBD
:101F10000C94450520E030E040E050E060E070E0E7
:101F20008FEC93E00E94210F82EA91E09093D0031E
:101F30008093CF030895CF93DF93EC018D899E8921
:101F4000DC01ED91FC910680F781E02D099561E0BF
:101F50008F890E943B1861E08F890E94791864E69E
:101F600070E080E090E00E94621781E0DF91CF9105
:101F70000895EF92FF920F931F93CF93DF931F92D9
:101F8000CDB7DEB77C018A0169830E94FF0E86EB24
:101F900091E0F70191838083168B058B6981678BB4
:101FA0000F90DF91CF911F910F91FF90EF900895C7
:101FB0000F931F93CF93DF93EC01062F1FB7F89475
:101FC00060E08F890E9479188D899E89DC01ED91EE
:101FD000FC910190F081E02D602F0995082F61E0C0
:101FE0008F890E9479181FBF802FDF91CF911F9199
:101FF0000F9108950F931F93CF93DF93EC01062F5A
:102000001FB7F89460E08F890E9479188D899E89A6
:10201000DC01ED91FC910190F081E02D602F09959C
:102020008D899E89DC01ED91FC910190F081E02D7C
:1020300060E00995082F61E08F890E9479181FBF21
:10204000802FDF91CF911F910F910895EF92FF9212
:102050000F931F93CF93DF931F92CDB7DEB77C0111
:10206000162F0FB7F89460E0DC0157968C914983E6
:102070000E947918F70185899689DC01ED91FC9120
:102080000190F081E02D612F0995182FF7018589C6
:102090009689DC01ED91FC910190F081E02D498160
:1020A000642F099561E0F70187890E9479180FBFB5
:1020B000812F0F90DF91CF911F910F91FF90EF90A3
:1020C0000895AF92BF92DF92EF92FF920F931F930A
:1020D000CF93DF9300D0CDB7DEB78C01D62EF22E92
:1020E000EFB6F89460E0DC0157968C9149835A83EF
:1020F0000E947918F80185899689DC01ED91FC919F
:102100000190F081E02D6D2D0995D82E49815A81DD
:10211000FF2099F05A01D80155968D919C915697C0
:10212000DC01ED91FC910190F081E02D60E00995DA
:10213000F50181935F01FA9471F761E0F8018789F5
:102140000E947918EFBE8D2D0F900F90DF91CF91E7
:102150001F910F91FF90EF90DF90BF90AF90089587
:10216000AF92BF92DF92EF92FF920F931F93CF93A4
:10217000DF9300D0CDB7DEB78C01D62EF22EEFB6AE
:10218000F89460E0DC0157968C9149835A830E9451
:102190007918F80185899689DC01ED91FC9101900F
:1021A000F081E02D6D2D0995D82E49815A81FF20AF
:1021B00091F05A01D80155968D919C915697F50151
:1021C00061915F01DC01ED91FC910190F081E02DC6
:1021D0000995FA9479F761E0F80187890E947918E6
:1021E000EFBE8D2D0F900F90DF91CF911F910F912A
:1021F000FF90EF90DF90BF90AF900895CF93DF9363
:10220000EC010E945E0D1B821C821D821E821F82B9
:1022100088EC90E09987888783E08A87DF91CF9167
:1022200008952F923F924F925F926F927F928F927A
:102230009F92AF92BF92CF92DF92EF92FF920F9355
:102240001F93CF93DF93CDB7DEB728970FB6F894DF
:10225000DEBF0FBECDBF5C014B014F83322EFC01B0
:10226000F781FF5FFE832F2FFC012783622F0E94DF
:10227000380E40E860E0C5010E94420E232D4F81D8
:10228000B401C5010E94900DC5010E94240E3FEFCC
:10229000331609F470C0222423940E9456176B0150
:1022A0007C01F5016084718420E031E040E050E081
:1022B00060E070E0CB010E9493209B01AC01D30150
:1022C0000E948C2397FDB2C0BB2797FDBA95A92F1A
:1022D000982F872FB301680F791F26013701460E0B
:1022E000571E611C711C0DC08A8187FD08C0F50155
:1022F000E20FF11D63858B81681709F480C00E948D
:10230000BC160E945617A3019201261B370B480BDF
:10231000590BCA01B90112161306140615060CF062
:1023200044C0C5010E942E0E882349F39E012E5FF2
:102330003F4F6901AE014D5F5F4F7A018E010C5F27
:102340001F4F2D5F3F4F40E050E060E070E0C5015F
:102350000E94BA0D882399F22D812311C5CFF50172
:1023600092818C819813C0CF8A8187FFC0CF8B81E7
:10237000FE81F813C4CF81E028960FB6F894DEBF33
:102380000FBECDBFDF91CF911F910F91FF90EF90C6
:10239000DF90CF90BF90AF909F908F907F906F9085
:1023A0005F904F903F902F9008950E94BC1611E0CF
:1023B000120DF50182858215F0F16E81C5010E9432
:1023C000380E40E860E0C5010E94420E232D4F8187
:1023D000B401C5010E94900DC5010E94240E123067
:1023E00060F0F50183819481A581B6810196A11DDC
:1023F000B11D83839483A583B683212E4ECFC5015F
:1024000028870E94380E40E060E8C5010E94420E15
:1024100031E23983288541E0BE016F5F7F4FC501FE
:102420000E94900DC5010E94240E69CF61507F4F1C
:102430008F4F9F4F49CF80E09FCF2F923F924F9277
:102440005F926F927F928F929F92AF92BF92CF9244
:10245000DF92EF92FF920F931F93CF93DF93CDB74D
:10246000DEB729970FB6F894DEBF0FBECDBF5C0173
:102470001901280147013601488759876E837F83F8
:102480000E941A0E488559856E817F8181111BC07B
:1024900010E0812F29960FB6F894DEBF0FBECDBF96
:1024A000DF91CF911F910F91FF90EF90DF90CF9030
:1024B000BF90AF909F908F907F906F905F904F9064
:1024C0003F902F900895CE0102966C01DE01139685
:1024D0007D018E010C5F1F4F9E012B5F3F4FC50199
:1024E0000E94BA0D182F882399F28A8187FDD0CFD8
:1024F0008C818F3FC1F02D816B81C5012E830E949D
:10250000380E40E060E8C5010E94420E81E28983F6
:102510002E8141E0BE016F5F7F4FC5010E94900D8B
:10252000C5010E94240E9D818B81F501E90FF11DEB
:102530002385281709F4ACCF2114310411F0D101FF
:102540009C934114510419F09C81D2019C938114F5
:10255000910411F0D4018C936114710419F09A81E3
:10256000D3019C93838795CFCF93DF93EC018F8921
:102570000E94CD1831E0892B09F430E02A8D232701
:1025800019F08F8D8F5F8F8F8E8D821709F424C184
:1025900088A1803508F40FC18DE190E038A1830F48
:1025A000911D88A32E8F88A1803A08F401C18AA1C9
:1025B0009BA1969587959BA38AA38F8D853028F044
:1025C0008AA19BA198609BA38AA388A1805A88A313
:1025D0001F8E89A1882309F4F1C08CA18F5F8CA381
:1025E0008C3008F4E5C08AA19BA1582F5F73452F5A
:1025F000469546954870242F30E0F901E252FE4F8F
:102600008081581709F403C181E0840F90E0FC0138
:10261000E252FE4F2081521709F4F6C082E0840F87
:1026200090E0FC01E252FE4F2081521709F4ECC009
:1026300083E0840F90E0FC01E252FE4F20815217AC
:1026400009F4E2C084E0840F90E0FC01E252FE4F06
:102650002081521709F4D8C085E0840F90E0FC0176
:10266000E252FE4F2081521709F4CEC086E0840F5B
:1026700090E0FC01E252FE4F2081521709F4C4C0E1
:10268000495F842F90E0FC01E252FE4F20815217F7
:1026900009F4BAC080E02AA13BA10024220F331F15
:1026A000001C220F331F001C232F302D422F369584
:1026B0002795369527952870E22FF0E0E252FE4FDD
:1026C0003081431709F447C091E0920FE92FF0E001
:1026D000E252FE4F3081431709F494C092E0920F0A
:1026E000E92FF0E0E252FE4F3081431709F48AC02F
:1026F00093E0920FE92FF0E0E252FE4F3081431752
:1027000009F480C094E0920FE92FF0E0E252FE4F0E
:102710003081431709F476C095E0920FE92FF0E07D
:10272000E252FE4F3081431709F46CC096E0920FDD
:10273000E92FF0E0E252FE4F3081431709F462C006
:1027400097E0920FE92FF0E0E252FE4F208142170E
:1027500009F458C020E0282BFE01E759FF4F808183
:10276000BE018823E9F168597F4F808191E0980F7D
:102770009083AE01480F511DDA0195962C939081FC
:10278000FB018081981798F019A281E08C8F8A81D3
:102790009B81029761F06B8D898D0E94791860E0B2
:1027A000888D0E94791882E090E09B838A831CA226
:1027B000DF91CF9108958BE090E0F0CE8AA19BA1AC
:1027C00088339B40A9F781E089A31CA2C759DF4F3A
:1027D0001882DF91CF91089588A18C5E88A3E3CE03
:1027E00068597F4FDB012C938C91873038F419A204
:1027F0008F8598890196988B8F87DACF8C91843456
:10280000B0F7B3CF292FA7CF8295807F44CF842FF5
:102810008295807F40CF1F920F920FB60F921124A6
:10282000CF92DF92EF92FF920F931F932F933F93DC
:102830004F935F936F937F938F939F93AF93BF93C8
:10284000CF93DF93EF93FF93C091D703D091D80339
:102850008A819B81049709F44AC08A819B810397EE
:10286000C9F0FF91EF91DF91CF91BF91AF919F910F
:102870008F917F916F915F914F913F912F911F9118
:102880000F91FF90EF90DF90CF900F900FBE0F90C1
:102890001F9018958E0104591F4FF801808191E017
:1028A000980F9083811127C07E01FAE6EF0EF11C8C
:1028B000F7018081EF56FF4F9081891728F18A81B7
:1028C0009B810297F9F06B8D898D0E94791860E0E9
:1028D000888D0E94791882E090E09B838A83F801BA
:1028E00020818B899C8901969C8B8B8B05C0CE01A6
:1028F0000E94B412B6CF292F283008F4B2CFF801C5
:102900001082AFCF21E0EDCFFE01E80FF11DE359BA
:10291000FF4F608170E06E01FBE6CF0ED11CF60127
:10292000808191E0980F908302C0759567958A9594
:10293000E2F761707727888D0E947918F60180810F
:10294000863030F0F6011082F70180818F5F80833E
:10295000F8012081D1CF8CE10895CF93DF93EC0172
:102960008A819B81019781F040E060E2CE010E9464
:10297000261060E0898D0E94791881E090E09B83A9
:102980008A83DF91CF91089580E0DF91CF91089500
:10299000DF92EF92FF920F931F93CF93DF93EC019F
:1029A0007B018A01E881F9810280F381E02D09959C
:1029B000D82E8823F1F0E114F104C9F001151105B6
:1029C000B1F08A8DF8014081282F30E02350310981
:1029D000642F70E0621773071CF04CEF480F4083C0
:1029E00050E0BE01615E7F4FC7010E9413261BAEFF
:1029F0001A8E8D2DDF91CF911F910F91FF90EF9047
:102A0000DF9008951F93CF93DF93EC01142F4D3186
:102A100028F080E0DF91CF911F9108958A858B8FF8
:102A20008B858C8F8C858D8F8D858E8F50E0CE0120
:102A30004F960E94132624E0210FAE01455E5F4FA2
:102A400060EBCE010E94B0108A819B810397B9F0A0
:102A500060E0898D0E94791840E367E2CE010E9410
:102A60002610488D426060E2CE010E94261061E08F
:102A7000898D0E94791883E090E09B838A838B89FB
:102A80009C8901969C8B8B8B81E0DF91CF911F916C
:102A900008951F93CF93DF93EC018A819B81039765
:102AA00039F080E0DF91CF911F9108950E94BC160C
:102AB0006FEFCE010E94D80F182F8073B9F314FD69
:102AC0001EC02A813B812230310569F0488D60E2C9
:102AD000CE010E94261060E0898D0E94791822E0C4
:102AE00030E03B832A8340E367E2CE010E94261058
:102AF00015FB882780F9DF91CF911F91089561EE32
:102B0000CE010E94D80FDDCF0F931F93CF93DF9399
:102B1000EC011BAD11111DC02A813B812330310511
:102B2000C1F02A813B812430310569F0488D436032
:102B300060E20E94261061E0898D0E94791824E0ED
:102B400030E03B832A8367E1CE010E94FA0F80FFC9
:102B500006C0812FDF91CF911F910F91089560E6FC
:102B6000CE010E94FA0F082F8132C8F062EECE012A
:102B70000E94D80F1BAE1A8E2A813B81223031056C
:102B800041F3488D60E2CE010E94261060E0898DFD
:102B90000E94791822E030E03B832A83DACF40E4B8
:102BA00067E2CE010E942610202FAE01455E5F4FE6
:102BB00061E6CE010E9461100A8F043090F08B8D87
:102BC0008E838C8D8F838D8D88878E8D89878D8167
:102BD00081111EC09E818C819817D1F08E818F3F0C
:102BE000B9F01BAD112309F4B4CF8A819B81029700
:102BF000B9F0488D60E2CE010E94261060E0898D18
:102C00000E94791882E090E09B838A831BADA1CF5C
:102C100089899A8901969A8B898B81E08BAFE5CF60
:102C200011E097CF1F93CF93DF93EC01162F642F02
:102C3000A9010E94B90F82EF91E0998388831BAEAE
:102C40008CE0888F198FDF91CF911F910895462FC7
:102C50004F7765E20E94261081E00895440F551FCA
:102C600046706230710581F06130710531F041606C
:102C700066E20E94261081E008954860416066E2A5
:102C80000E94261081E008954062416066E20E9441
:102C9000261081E008951F93CF93DF93EC018D8977
:102CA0009E89DC01ED91FC910684F785E02D60E0C2
:102CB00070E00995CE010E949B0F182F811106C06C
:102CC00010E0812FDF91CF911F91089561E0898DF0
:102CD0000E943B1860E0898D0E94791840E767E206
:102CE000CE010E9426104FE36CE3CE010E94261015
:102CF00045E06DE3CE010E9426106DE1CE010E94F9
:102D0000FA0F853081F043E760E5CE010E9426107E
:102D100045E06DE3CE010E9426106DE1CE010E94D8
:102D2000FA0F853069F62A813B812230310569F03E
:102D3000488D60E2CE010E94261060E0898D0E94DD
:102D4000791822E030E03B832A8361EECE010E94B5
:102D5000D80F62EECE010E94D80F42E065E2CE01AC
:102D60000E9426104FE066E2CE010E942610812FBD
:102D7000DF91CF911F910895089508951F920F92AA
:102D80000FB60F9211242F933F934F935F936F933E
:102D90007F938F939F93AF93BF93EF93FF93E091B4
:102DA0002201F09123010995FF91EF91BF91AF911D
:102DB0009F918F917F916F915F914F913F912F9153
:102DC0000F900FBE0F901F9018951F920F920FB685
:102DD0000F9211242F933F934F935F936F937F93A1
:102DE0008F939F93AF93BF93EF93FF93E091240151
:102DF000F09125010995FF91EF91BF91AF919F91BE
:102E00008F917F916F915F914F913F912F910F9093
:102E10000FBE0F901F9018951F920F920FB60F9232
:102E200011242F933F938F939F93AF93BF938091E0
:102E3000DA039091DB03A091DC03B091DD033091C4
:102E4000D90323E0230F2D3768F126E8230F0296DC
:102E5000A11DB11D2093D9038093DA039093DB0366
:102E6000A093DC03B093DD038091DE039091DF0338
:102E7000A091E003B091E1030196A11DB11D8093E3
:102E8000DE039093DF03A093E003B093E103BF91CF
:102E9000AF919F918F913F912F910F900FBE0F9007
:102EA0001F9018950196A11DB11DD4CF2FB7F8948E
:102EB0006091DA037091DB038091DC039091DD0374
:102EC0002FBF08958F929F92AF92BF92CF92DF92C1
:102ED000EF92FF92CF93DF9300D000D0CDB7DEB753
:102EE0003FB7F894C090DE03D090DF03E090E0039A
:102EF000F090E10326B5A89B07C02F3F29F04FEFC4
:102F0000C41AD40AE40AF40A3FBFFE2CED2CDC2CD0
:102F1000CC24C20ED11CE11CF11CCC0CDD1CEE1C1F
:102F2000FF1CCC0CDD1CEE1CFF1C6115710581051E
:102F3000910509F44BC069837A838B839C830E943B
:102F4000BC1669817A818B819C813FB7F89480900F
:102F5000DE039090DF03A090E003B090E10326B57C
:102F6000A89B07C02F3F29F0FFEF8F1A9F0AAF0AD7
:102F7000BF0A3FBFBA2CA92C982C8824820E911C22
:102F8000A11CB11C880C991CAA1CBB1C880C991C88
:102F9000AA1CBB1C8C189D08AE08BF0828EE821620
:102FA00023E09206A104B10408F4BFCF6150710977
:102FB00081099109E8EECE0EE3E0DE1EE11CF11C72
:102FC000611571058105910509F0BFCF0F900F9034
:102FD0000F900F90DF91CF91FF90EF90DF90CF9007
:102FE000BF90AF909F908F9008958230910538F0F8
:102FF000880F991F880F991F05970197F1F708957A
:10300000789484B5826084BD84B5816084BD85B5C3
:10301000826085BD85B5816085BDEEE6F0E080818A
:1030200081608083E1E8F0E01082808182608083AB
:10303000808181608083E0E8F0E08081816080832E
:10304000E1EBF0E0808184608083E0EBF0E0808160
:1030500081608083EAE7F0E0808184608083808102
:1030600082608083808181608083808180688083AA
:103070001092C1000895CF93DF9390E0FC01E056D9
:10308000FC4F2491FC01EC54FC4F84918823B9F04F
:1030900090E0880F991FFC01E452FC4FA591B49178
:1030A0008E529C4FFC01C591D4919FB7662351F07D
:1030B0006230A1F0F8948C91822B8C939FBFDF91AA
:1030C000CF910895F8948C91209582238C938881D8
:1030D000822388839FBFDF91CF910895F8948C91CC
:1030E000322F309583238C938881822B88839FBFD6
:1030F000E6CF90E0FC01E457FC4F2491FC01E05640
:10310000FC4F3491FC01EC54FC4F8491882399F0DE
:10311000211116C0E82FF0E0EE0FFF1FEE52FC4F1A
:10312000A591B4918FB7F8949C91611105C0309529
:1031300093239C938FBF0895932B9C938FBFFBCFBA
:10314000233029F160F02730E1F02830A1F024305D
:1031500009F7909180009F7D90938000DBCF213014
:1031600031F02230B9F694B59F7D94BDD3CF94B59C
:103170009F7794BDCFCF9091B0009F7D9093B0008A
:10318000C9CF9091B0009F779093B000C3CF90913A
:1031900080009F7790938000BDCF90E0FC01E457C2
:1031A000FC4F2491FC01E056FC4F3491FC01EC549F
:1031B000FC4F8491882391F0211113C0E82FF0E097
:1031C000EE0FFF1FE853FC4FA591B4912C912323E0
:1031D00081E090E009F0089580E0089580E090E0BB
:1031E0000895233029F160F02730E1F02830A1F074
:1031F000243021F7909180009F7D90938000DECF56
:10320000213031F02230D1F694B59F7D94BDD6CFD8
:1032100094B59F7794BDD2CF9091B0009F7D90934D
:10322000B000CCCF9091B0009F779093B000C6CF04
:10323000909180009F7790938000C0CF0E940E26CF
:10324000FC01818D228D90E0805C9F4F821B910953
:103250008F7399270895FC01918D828D981731F015
:10326000828DE80FF11D858D90E008958FEF9FEF1F
:103270000895FC01918D828D981761F0828DDF0198
:10328000A80FB11D5D968C91928D9F5F9F73928F59
:1032900090E008958FEF9FEF0895FC0181E0808F0B
:1032A000938D848D981709F443C0838D90E0019627
:1032B0008F739927482F03C00FB607FE14C0248DC3
:1032C0004217D1F3938DDF01A90FB11DA35ABF4F50
:1032D0006C93838F0288F389E02D808180628083E4
:1032E00081E090E00895A089B1892C9125FFE7CF76
:1032F000248DDF01A20FB11DA35ABF4F5C91248D15
:1033000030E02F5F3F4F2F733327248FA689B78973
:103310005C93A089B1892C9120642C93338D248DEA
:103320003213CDCFA289B3892C912F7D2C93C7CF97
:10333000A089B1898C9185FFB8CFA689B7896C9394
:103340000088F189E02D80818064808381E090E0B5
:103350000895CF93DF93DC0158968C91589788237A
:1033600009F446C05296ED91FC9153975096CD9139
:10337000DC915197808185FF38C00FB607FCFACFEA
:10338000808185FFF7CF888185FFF4CF5C968C9193
:103390005C97FD01E80FF11DE35AFF4F20815C9619
:1033A0008C915C9790E001968F7399275C968C9333
:1033B0005C975696ED91FC91579720835096ED912E
:1033C000FC9151978081806480835B969C915B9790
:1033D0005C968C915C979813C5CF5296ED91FC91B9
:1033E000539780818F7D8083BDCF888186FFC5CF35
:1033F000DF91CF9108958AEE9AE1892B49F080E020
:1034000090E0892B29F00E94EA1A81110C940000A7
:103410000895FC01848DDF01A80FB11DA35ABF4F91
:103420002C91848D90E001968F739927848FA689C3
:10343000B7892C93A089B1898C9180648C93938DEA
:10344000848D981308950288F389E02D80818F7D03
:1034500080830895BF92CF92DF92EF92FF920F93F5
:103460001F93CF93DF93EC016A017B01B22EE889B1
:10347000F98982E08083411581EE58076105710565
:10348000A9F060E079E08DE390E0A70196010E9449
:103490004B232150310941095109569547953795DC
:1034A00027958901211580E13807A0F0E889F9897D
:1034B000108260E874E88EE190E0A70196010E9416
:1034C0004B232150310941095109569547953795AC
:1034D00027958901EC85FD851083EE85FF850083A6
:1034E000188EEC89FD89B082EA89FB898081806130
:1034F0008083EA89FB89808188608083EA89FB89EF
:10350000808180688083EA89FB8980818F7D8083C8
:10351000DF91CF911F910F91FF90EF90DF90CF90AF
:10352000BF9008951F920F920FB60F9211242F9300
:103530008F939F93EF93FF93E091F203F091F30346
:103540008081E091F803F091F90382FD1BC0208196
:103550008091FB038F5F8F739091FC03891741F07B
:10356000E091FB03F0E0EE51FC4F258F8093FB03CD
:10357000FF91EF919F918F912F910F900FBE0F9020
:103580001F9018958081F4CF1F920F920FB60F9263
:1035900011242F933F934F935F936F937F938F9358
:1035A0009F93AF93BF93EF93FF9382EE93E00E94BC
:1035B000091AFF91EF91BF91AF919F918F917F91E8
:1035C0006F915F914F913F912F910F900FBE0F9090
:1035D0001F90189582EE93E00E94201921E0892B1C
:1035E00009F420E0822F08951092E5031092E4037D
:1035F00088EE93E0A0E0B0E08093E6039093E703C9
:10360000A093E803B093E9038EE192E09093E30383
:103610008093E20385EC90E09093EF038093EE03B8
:1036200084EC90E09093F1038093F00380EC90E0C1
:103630009093F3038093F20381EC90E09093F50371
:103640008093F40382EC90E09093F7038093F60369
:1036500086EC90E09093F9038093F8031092FB03BB
:103660001092FC031092FD031092FE03089508953A
:103670000E9400180E94371B0E9434028BEF99E1D0
:10368000892B29F00E9447030E94FB19FBCF0E945F
:1036900047030E944703FBCFCF92DF92EF92FF9246
:1036A0000F931F93CF93DF937C016A01411551055E
:1036B000F9F08B01C0E0D0E004C02196CC16DD0605
:1036C00069F0D8016D918D01D701ED91FC910190C8
:1036D000F081E02DC7010995892B79F7CE01DF91A3
:1036E000CF911F910F91FF90EF90DF90CF900895B1
:1036F000C0E0D0E0F3CFEF92FF920F931F93CF93F0
:10370000DF938C017B01FB016491C0E0D0E061118B
:1037100008C010C02196FE01EE0DFF1D64916623C6
:1037200049F0F801A081B181ED91FC91C8010995A2
:10373000892B81F7CE01DF91CF911F910F91FF90DF
:10374000EF900895DC01ED91FC91DB0114964D9111
:103750005C9115976D917C910280F381E02D099425
:10376000DC01ED91FC910190F081E02D09948F92A4
:103770009F92AF92BF92EF92FF920F931F93CF93BE
:10378000DF93CDB7DEB7A1970FB6F894DEBF0FBEBB
:10379000CDBF7C014115510509F452C019A2423038
:1037A00008F456C0842E912CA12CB12C70E080E03E
:1037B00090E08E010F5D1F4F07C0EA2FD801EC93F8
:1037C000232B242B252BB1F0A50194010E944B2320
:1037D000E62FCA01B90101501109A0E3AE0FF7E3CA
:1037E000FE0FEA3054F3EF2FD801EC93232B242B58
:1037F000252B51F70115110589F1F80101900020E1
:10380000E9F7AF0141505109401B510BD701ED9130
:10381000FC910280F381E02DB801C7010995A196C2
:103820000FB6F894DEBF0FBECDBFDF91CF911F91D1
:103830000F91FF90EF90BF90AF909F908F90089561
:10384000DC01ED91FC910190F081E02D0995E7CF2D
:103850008AE0882E912CA12CB12CA8CF80E090E09A
:10386000DECF4F925F926F927F928F929F92AF9234
:10387000BF92CF92DF92EF92FF920F931F93CF935D
:10388000DF93CDB7DEB7A1970FB6F894DEBF0FBEBA
:10389000CDBF8C014115510509F489C04A3051054D
:1038A000C9F1882777FD8095982F19A2423008F436
:1038B00089C0842E912CA12CB12C7E01B1E2EB0E9B
:1038C000F11C07C0EA2FD701EC93232B242B252BC7
:1038D000B9F0A50194010E944B23E62FCA01B9015A
:1038E000F1E0EF1AF108A0E3AE0FF7E3FE0FEA30C4
:1038F0004CF3EF2FD701EC93232B242B252B49F7E7
:10390000E114F10409F45BC0F70101900020E9F72C
:10391000AF0129C06B01EE24D7FCE094FE2CF7FC2C
:1039200057C0A701960119A27E01B1E2EB0EF11C6E
:103930006AE0862E912CA12CB12CCA01B901A501F7
:1039400094010E944B23605DF70162937F01211572
:1039500031054105510589F7309789F1DF010D9057
:103960000020E9F7AD01415051094E195F09D80116
:10397000ED91FC910280F381E02DB701C80109951A
:10398000A1960FB6F894DEBF0FBECDBFDF91CF91E9
:103990001F910F91FF90EF90DF90CF90BF90AF906D
:1039A0009F908F907F906F905F904F900895DC0173
:1039B000ED91FC910190F081E02D0995E1CF80E03F
:1039C00090E0DECF2AE0822E912CA12CB12C75CF75
:1039D000DC01ED91FC910190F081E02D6DE2099503
:1039E0005C0122273327A9012C193D094E095F09E3
:1039F00019A27E01B1E2EB0EF11C7AE0472E512CA8
:103A0000612C712CCA01B901A30192010E944B23C0
:103A1000605DF70162937F01211531054105510574
:103A200089F73097A9F0DF010D900020E9F7AD018B
:103A3000415051094E1B5F0BD801ED91FC91028062
:103A4000F381E02DB701C80109958A0D9B1D98CF20
:103A500080E090E0FACFEF92FF920F931F93CF9305
:103A6000DF938C017B01FB016491C0E0D0E0611128
:103A700008C010C02196FE01EE0DFF1D6491662363
:103A800049F0F801A081B181ED91FC91C80109953F
:103A9000892B81F7D801ED91FC910280F381E02D13
:103AA00042E050E06AE272E0C80109958C0F9D1F68
:103AB000DF91CF911F910F91FF90EF900895DC015E
:103AC000ED91FC910280F381E02D42E050E06AE24A
:103AD00072E009940F931F93CF93DF93EC01E88179
:103AE000F981DB0114964D915C9115976D917C9154
:103AF0000280F381E02D09958C01E881F981028033
:103B0000F381E02D42E050E06AE272E0CE010995D7
:103B1000800F911FDF91CF911F910F9108950F9307
:103B20001F93CF93DF93EC01E881F9810190F0813D
:103B3000E02D09958C01E881F9810280F381E02D67
:103B400042E050E06AE272E0CE010995800F911FD9
:103B5000DF91CF911F910F9108954F925F926F92D5
:103B60007F928F929F92AF92BF92CF92DF92EF920D
:103B7000FF920F931F93CF93DF93CDB7DEB7A1973B
:103B80000FB6F894DEBF0FBECDBF8C0141155105B5
:103B900009F499C04A305105C9F1882777FD80950D
:103BA000982F19A2423008F49AC0842E912CA12C8F
:103BB000B12C7E01B1E2EB0EF11C07C0EA2FD70158
:103BC000EC93232B242B252BB9F0A50194010E9403
:103BD0004B23E62FCA01B901F1E0EF1AF108A0E387
:103BE000AE0FF7E3FE0FEA304CF3EF2FD701EC9363
:103BF000232B242B252B49F7E114F10409F46CC085
:103C0000F70101900020E9F7AF012AC06B01EE2413
:103C1000D7FCE094FE2CF7FC68C0A701960119A21E
:103C20007E01B1E2EB0EF11C6AE0862E912CA12CF4
:103C3000B12CCA01B901A50194010E944B23605D1A
:103C4000F70162937F01211531054105510589F77F
:103C5000309709F441C0DF010D900020E9F7AD0174
:103C6000415051094E195F09D801ED91FC91028034
:103C7000F381E02DB701C80109955C01D801ED91F0
:103C8000FC910280F381E02D42E050E06AE272E0B4
:103C9000C80109958A0D9B1DA1960FB6F894DEBF49
:103CA0000FBECDBFDF91CF911F910F91FF90EF908D
:103CB000DF90CF90BF90AF909F908F907F906F904C
:103CC0005F904F900895DC01ED91FC910190F0819F
:103CD000E02D09955C01D2CFA12CB12CCFCF2AE0E9
:103CE000822E912CA12CB12C64CFDC01ED91FC91A2
:103CF0000190F081E02D6DE209955C0122273327C8
:103D0000A9012C193D094E095F0919A27E01B1E2F2
:103D1000EB0EF11C7AE0472E512C612C712CCA015C
:103D2000B901A30192010E944B23605DF7016293E8
:103D30007F01211531054105510589F73097A9F01B
:103D4000DF010D900020E9F7AD01415051094E1BF4
:103D50005F0BD801ED91FC910280F381E02DB7015A
:103D6000C8010995A80EB91E89CF80E090E0FACF6E
:103D70002F923F924F925F926F927F928F929F927B
:103D8000AF92BF92CF92DF92EF92FF920F931F9369
:103D9000CF93DF93CDB7DEB7A7970FB6F894DEBF0A
:103DA0000FBECDBF9DA38CA36A017B01722E9A0129
:103DB000AB01C701B6010E9433238111A3C14601A3
:103DC0005701E894B7F82FEF3FEF4FE75FE7C501E2
:103DD000B4010E943323882309F4A1C02FEF3FEFE1
:103DE0004FE75FE4C701B6010E94CC2218160CF41D
:103DF00087C02FEF3FEF4FE75FECC701B6010E948E
:103E00007D2187FD7DC020E030E0A901C701B6011A
:103E10000E947D2187FD5FC11BA21AA2772009F4B1
:103E20006CC110E060E070E080E09FE320E030E0F3
:103E300040E251E40E9481211F5F1711F7CF9B01DF
:103E4000AC01C701B6010E9419216B017C010E94DF
:103E5000EE21962EA72EB82E892E19A2262F372FA7
:103E6000482F592F8E010F5D1F4F9AE0292E312CBC
:103E7000412C512CCA01B901A20191010E944B238E
:103E8000605DF80162938F012115310541055105EF
:103E900089F7309709F41CC1DF010D900020E9F784
:103EA000AD01415051094E1B5F0BACA1BDA1ED917D
:103EB000FC9111970280F381E02DB801CD010995A5
:103EC0000AA11BA1080F191F711043C0C801A796B2
:103ED0000FB6F894DEBF0FBECDBFDF91CF911F911B
:103EE0000F91FF90EF90DF90CF90BF90AF909F9099
:103EF0008F907F906F905F904F903F902F9008959C
:103F0000ACA1BDA1ED91FC9111970280F381E02D50
:103F100043E050E065E372E0CD010995D8CF2FEF83
:103F20003FEF4FE75FE7C501B4010E947D211816FE
:103F30000CF054CFACA1BDA1ED91FC911197028082
:103F4000F381E02D43E050E061E372E0CD0109959B
:103F5000BECF692D7A2D8B2D982D0E941A229B01A0
:103F6000AC01C701B6010E9418214B015C01ACA154
:103F7000BDA1ED91FC9111970280F381E02D41E00C
:103F800050E069E372E0CD0109951C01200E311E5D
:103F90007AA28AE0C82ED12CE12CF12CC501B40103
:103FA00020E030E040E251E40E94D0222B013C01AD
:103FB0000E94E9214B01AA2497FCA094BA2CB7FCDB
:103FC0003FC0A501940119A28E010F5D1F4FCA01C8
:103FD000B901A70196010E944B23605DD8016E9341
:103FE0008D01211531054105510589F7109709F417
:103FF00069C0FD0101900020E9F7AF01415051096E
:104000004A1B5B0BACA1BDA1ED91FC911197028005
:10401000F381E02DB801CD010995280E391EC501A7
:10402000B4010E941C229B01AC01C301B2010E9499
:104030001821BAA1B150BAA3B111B2CFC10147CF73
:10404000ACA1BDA1ED91FC9111970190F081E02D03
:104050006DE2CD0109959FA38EA322273327A901E5
:10406000281939094A095B0919A28E010F5D1F4FF2
:10407000CA01B901A70196010E944B23605DF801B6
:1040800062938F01211531054105510589F730975C
:10409000E1F0DF010D900020E9F7AD014150510939
:1040A0004E1B5F0BACA1BDA1ED91FC91119702805D
:1040B000F381E02DB801CD010995EEA1FFA18E0F8E
:1040C0009F1FABCF80E090E0A8CF80E090E0F5CFDD
:1040D00080E090E0F5CEACA1BDA1ED91FC911197EF
:1040E0000190F081E02D6DE2CD0109959BA38AA39B
:1040F000F7FAF094F7F8F09491CE60E070E080E089
:104100009FE39DCEACA1BDA1ED91FC9111970280E2
:10411000F381E02D43E050E06DE272E0CD010995BE
:10412000D6CE0C94B81ECF92DF92EF92FF92CF932F
:10413000DF9300D000D0CDB7DEB76B017C016217F2
:1041400073078407950764F4261B370B480B590B3C
:1041500091F460E070E0CB016C0D7D1D8E1D9F1D04
:104160000F900F900F900F90DF91CF91FF90EF90F5
:10417000DF90CF90089529833A834B835C830E941C
:10418000362529813A814B815C810E946D23E4CFE1
:10419000EF92FF920F931F93CF93DF93EC017B017C
:1041A000198218821B821A821D821C826115710578
:1041B00099F1FB0101900020E9F78F0101501109ED
:1041C000061B170BB8016F5F7F4F80E090E00E94E5
:1041D00044250097A9F0998388831B830A832C8147
:1041E0003D81232B11F4FC0110821D830C83B70148
:1041F000DF91CF911F910F91FF90EF900C941C26AF
:1042000088819981009711F00E94582419821882A0
:104210001D821C821B821A82DF91CF911F910F9108
:10422000FF90EF900895FC01808191810C945824B7
:104230005058BB27AA270ED075C166D130F06BD17C
:1042400020F031F49F3F11F41EF45BC10EF4E095B1
:10425000E7FB51C1E92F77D180F3BA1762077307E3
:104260008407950718F071F49EF58FC10EF4E09560
:104270000B2EBA2FA02D0B01B90190010C01CA0120
:10428000A0011124FF27591B99F0593F50F4503ECB
:1042900068F11A16F040A22F232F342F4427585FBD
:1042A000F3CF469537952795A795F0405395C9F7D5
:1042B0007EF41F16BA0B620B730B840BBAF091508D
:1042C000A1F0FF0FBB1F661F771F881FC2F70EC02C
:1042D000BA0F621F731F841F48F4879577956795FF
:1042E000B795F7959E3F08F0B3CF9395880F08F0E8
:1042F0009927EE0F979587950895D9D008F481E016
:1043000008950CD00FC107D140F0FED030F021F459
:104310005F3F19F0F0C0511139C1F3C014D198F3C7
:104320009923C9F35523B1F3951B550BBB27AA2736
:1043300062177307840738F09F5F5F4F220F331FA8
:10434000441FAA1FA9F333D00E2E3AF0E0E830D074
:1043500091505040E695001CCAF729D0FE2F27D077
:10436000660F771F881FBB1F261737074807AB0745
:10437000B0E809F0BB0B802DBF01FF2793585F4FBA
:104380002AF09E3F510568F0B6C000C15F3FECF3D4
:10439000983EDCF3869577956795B795F7959F5F7F
:1043A000C9F7880F911D9695879597F90895E1E0D3
:1043B000660F771F881FBB1F621773078407BA0732
:1043C00020F0621B730B840BBA0BEE1F88F7E0958D
:1043D000089504D06894B111D9C00895BCD088F074
:1043E0009F5790F0B92F9927B751A0F0D1F0660FE1
:1043F000771F881F991F1AF0BA95C9F712C0B130FC
:1044000081F0C3D0B1E00895C0C0672F782F88270E
:10441000B85F39F0B93FCCF3869577956795B3953A
:10442000D9F73EF490958095709561957F4F8F4FA9
:104430009F4F0895E89409C097FB3EF490958095AE
:10444000709561957F4F8F4F9F4F9923A9F0F92F5A
:1044500096E9BB279395F695879577956795B795D8
:10446000F111F8CFFAF4BB0F11F460FF1BC06F5FBE
:104470007F4F8F4F9F4F16C0882311F096E911C0D0
:10448000772321F09EE8872F762F05C0662371F0F1
:1044900096E8862F70E060E02AF09A95660F771F05
:1044A000881FDAF7880F9695879597F90895990FE1
:1044B0000008550FAA0BE0E8FEEF16161706E807EE
:1044C000F907C0F012161306E407F50798F0621B0F
:1044D000730B840B950B39F40A2661F0232B242BE4
:1044E000252B21F408950A2609F4A140A6958FEF03
:1044F000811D811D089597F99F6780E870E060E055
:1045000008959FEF80EC089500240A94161617066C
:1045100018060906089500240A94121613061406B4
:1045200005060895092E0394000C11F4882352F017
:10453000BB0F40F4BF2B11F460FF04C06F5F7F4FCF
:104540008F4F9F4F089557FD9058440F551F59F0B6
:104550005F3F71F04795880F97FB991F61F09F3F70
:1045600079F087950895121613061406551FF2CF99
:104570004695F1DF08C0161617061806991FF1CFE9
:1045800086957105610508940895E894BB27662710
:104590007727CB0197F908958ADF08F48FEF089504
:1045A0000BD0C0CFB1DF28F0B6DF18F0952309F0AB
:1045B000A2CFA7CF1124EACFC6DFA0F3959FD1F3F6
:1045C000950F50E0551F629FF001729FBB27F00DC1
:1045D000B11D639FAA27F00DB11DAA1F649F662716
:1045E000B00DA11D661F829F2227B00DA11D621F65
:1045F000739FB00DA11D621F839FA00D611D221F1F
:10460000749F3327A00D611D231F849F600D211D02
:10461000822F762F6A2F11249F5750408AF0E1F0A5
:1046200088234AF0EE0FFF1FBB1F661F771F881FEE
:1046300091505040A9F79E3F510570F05CCFA6CF36
:104640005F3FECF3983EDCF3869577956795B795D9
:10465000F795E7959F5FC1F7FE2B880F911D969503
:10466000879597F9089523DF880B990B089597FB99
:10467000072E16F4009407D077FD09D00E949723E7
:1046800007FC05D03EF4909581959F4F0895709555
:1046900061957F4F0895A1E21A2EAA1BBB1BFD0155
:1046A0000DC0AA1FBB1FEE1FFF1FA217B307E40711
:1046B000F50720F0A21BB30BE40BF50B661F771F69
:1046C000881F991F1A9469F7609570958095909549
:1046D0009B01AC01BD01CF010895052E97FB1EF48F
:1046E00000940E94842357FD07D00E944B2307FCAF
:1046F00003D04EF40C948423509540953095219529
:104700003F4F4F4F5F4F08959095809570956195FD
:104710007F4F8F4F9F4F08950E94B123A59F900D0B
:10472000B49F900DA49F800D911D11240895AA1B84
:10473000BB1B51E107C0AA1FBB1FA617B70710F08C
:10474000A61BB70B881F991F5A95A9F780959095BE
:10475000BC01CD010895EE0FFF1F0590F491E02DEF
:104760000994A29FB001B39FC001A39F700D811D4A
:104770001124911DB29F700D811D1124911D08956A
:10478000CF93DF938230910510F482E090E0E091C6
:104790008104F091820420E030E0A0E0B0E03097A6
:1047A00039F14081518148175907B8F04817590726
:1047B00071F482819381109729F013969C938E93C4
:1047C00012972CC0909382048093810427C02115F6
:1047D000310531F04217530718F0A901DB0101C080
:1047E000EF019A01BD01DF010280F381E02DD7CFF7
:1047F00021153105F9F0281B390B2430310580F4DF
:104800008A819B816115710521F0FB01938382836D
:1048100004C09093820480938104FE01329644C0C8
:10482000FE01E20FF31F81939193225031093983E6
:1048300028833AC020917F0430918004232B41F4D7
:1048400020910201309103013093800420937F0472
:1048500020910001309101012115310541F42DB75E
:104860003EB74091040150910501241B350BE091A6
:104870007F04F0918004E217F307A0F42E1B3F0B96
:104880002817390778F0AC014E5F5F4F24173507C2
:1048900048F04E0F5F1F5093800440937F04819334
:1048A000919302C0E0E0F0E0CF01DF91CF91089555
:1048B000CF93DF93009709F487C0FC0132971382EE
:1048C0001282C0918104D0918204209781F42081CA
:1048D0003181280F391F80917F04909180048217C5
:1048E000930779F5F0938004E0937F046DC0DE01B7
:1048F00020E030E0AE17BF0750F412964D915C9166
:1049000013979D014115510509F1DA01F3CFB383E6
:10491000A28340815181840F951F8A179B0771F4F0
:104920008D919C911197840F951F0296918380839E
:1049300012968D919C911397938382832115310553
:1049400029F4F0938204E09381043EC0D9011396C8
:10495000FC93EE9312974D915D91A40FB51FEA174A
:10496000FB0779F480819181840F951F0296D9010C
:1049700011969C938E938281938113969C938E9330
:104980001297E0E0F0E08A819B81009719F0FE0128
:10499000EC01F9CFCE01029628813981820F931F55
:1049A00020917F04309180042817390769F43097EB
:1049B00029F4109282041092810402C013821282A0
:1049C000D0938004C0937F04DF91CF9108958F929C
:1049D0009F92AF92BF92CF92DF92EF92FF92CF93CE
:1049E000DF93EC01688179818A819B816115710572
:1049F0008105910521F464E279ED8BE597E02DE1E5
:104A000033EF41E050E00E946D2349015A019B01C0
:104A1000AC01A7EAB1E40E948C236B017C01ACEEEF
:104A2000B4EFA50194010E949426C60ED71EE81E7D
:104A3000F91EF7FE06C081E0C81AD108E10880E837
:104A4000F80AC882D982EA82FB82C701B6019F7741
:104A5000DF91CF91FF90EF90DF90CF90BF90AF901C
:104A60009F908F9008950E94E724089586E091E03A
:104A70000E94E724089560930601709307018093D4
:104A80000801909309010895A0E0B0E0EAE4F5E29E
:104A90000C949D26EC01CB01209719F40E94C023B1
:104AA000B8C0FE01E60FF71F9E0122503109E21740
:104AB000F30708F4ACC0D9010D911C9111970617AA
:104AC0001707B8F00530110508F49FC0A80144503D
:104AD00051094617570708F498C002501109061BE0
:104AE000170B019311936D937C93CF010E9458246F
:104AF0008CC05B01A01AB10A4E01800E911EA091DC
:104B00008104B0918204612C712C60E070E01097F8
:104B100009F449C0A815B905C9F5ED90FC901197A5
:104B2000670142E0C40ED11CCA14DB0478F14701CE
:104B30008A189B08640142E0C40ED11C1296BC90F6
:104B400012971396AC91B5E0CB16D10440F0B28227
:104B5000A38391828082D9018D939C9309C00E5FBB
:104B60001F4F0E0D1F1DF90111830083EB2DFA2F2E
:104B70006115710531F0DB011396FC93EE931297EA
:104B800044C0F0938204E09381043FC06D917C9116
:104B900011976616770608F43B01BD0112960D9039
:104BA000BC91A02DB4CF60917F04709180046815F2
:104BB0007905E9F468167906D0F440910001509126
:104BC00001014115510541F44DB75EB760910401F3
:104BD00070910501461B570BE417F507C0F4F093DD
:104BE0008004E0937F04F901918380830EC00E94CA
:104BF000C0237C01009759F0A801BE010E94132632
:104C0000CE010E945824C70104C0CE0102C080E03A
:104C100090E0CDB7DEB7EEE00C94B92681E090E0ED
:104C2000F8940C94D026FB01DC0102C001900D9297
:104C300041505040D8F70895FB01DC0101900D92DE
:104C40000020E1F708950F931F93CF93DF93EC01BA
:104C50008B01009731F46115710519F480E090E043
:104C600038C06EE070E081E090E00E946E26FC01AA
:104C70000097A1F380E883830115110571F0138774
:104C8000028781E883838091830490918404892B37
:104C900021F4F0938404E09383042097C9F0D18732
:104CA000C08783818260838380918504909186048C
:104CB000892B71F4F0938604E09385048091870436
:104CC00090918804892B21F4F0938804E093870461
:104CD000CF01DF91CF911F910F9108950F931F93F3
:104CE000CF93DF93869F8001879F100D969F100DB5
:104CF0001124C8010E94C023EC01009729F0A801EB
:104D000060E070E00E948A26CE01DF91CF911F9172
:104D10000F910895DC0101C06D9341505040E0F7C0
:104D20000895B7FF0C948C230E948C23821B930B55
:104D300008952F923F924F925F926F927F928F923F
:104D40009F92AF92BF92CF92DF92EF92FF920F931A
:104D50001F93CF93DF93CDB7DEB7CA1BDB0B0FB624
:104D6000F894DEBF0FBECDBF09942A8839884888E1
:104D70005F846E847D848C849B84AA84B984C88477
:104D8000DF80EE80FD800C811B81AA81B981CE0F6E
:104D9000D11D0FB6F894DEBF0FBECDBFED01089553
:104DA00013E0CCEED3E004C0FE010E94AD232296B6
:0A4DB000CE3ED107C9F7F894FFCFFB
:104DBA000000890480000100000028FFDD963616F5
:104DCA0003B928B38E4A070000A8280A62B8070068
:104DDA0000B4BD16BD164C616B65205761746572CF
:104DEA003A20004F757473696465204169723A20EC
:104DFA0000496E736964652050756D70686F7573CC
:104E0A00653A20005E00BC007701000000004C0EED
:104E1A001E191E191E191E19720E840ECD0E960E1B
:104E2A00510E540E570E5A0E5D0E4E0E640E670E3C
:104E3A006A0E6D0E700E000000001E19130F140F7B
:104E4A001E191E19150F190F1D0F05000404000065
:104E5A0000002D0F340F380F3C0F880F150F190F54
:104E6A001D0F000000009B0F1E191E191E191E1986
:104E7A00720E840ECD0E960E510E540E570E5A0E09
:104E8A005D0E4E0E640E670E6A0E6D0E700E0D0EDE
:104E9A00131516191A1C232526292A2C3234000028
:104EAA0000004B168415C8140215AB14720E49156E
:104EBA00CD0E960E510E540E570E5A0E5D0E4E0E14
:104ECA00640E670E6A0E6D0EAD14000000004D19D7
:104EDA004C1B201939192B19A9190D0A006E616E7C
:0C4EEA0000696E66006F7666002E000006
:00000001FF
