:100000000C9431020C9459020C9459020C9459022C
:100010000C9459020C9459020C9459020C945902F4
:100020000C9459020C9459020C9459020C945902E4
:100030000C9459020C9459020C9459020C945902D4
:100040000C94BF280C9459020C94A92B0C94DB2B14
:100050000C9459020C9459020C9459020C945902B4
:100060000C9459020C945902BB1DB918271DC21CCF
:10007000FA1CF01CEB1C6E1C54656D70657261748B
:10008000757265207265717565737420726563653C
:10009000697665643B20726573706F6E64696E6724
:1000A0002E2E2E004572726F723A20756E61626C50
:1000B0006520746F20636F6D6D756E696361746523
:1000C00020776974682073656E736F72200030004A
:1000D0002062757420636F756C64206E6F74206489
:1000E000657465637420616464726573732E204364
:1000F0006865636B20706F77657220616E64206342
:1001000061626C696E6700466F756E642067686F28
:10011000737420646576696365206174200045729C
:10012000726F7220696E2073657474696E672074D3
:10013000656D7020707265636973696F6E3B2072C4
:1001400065717565737465640020776974682061F2
:100150006464726573733A2000466F756E64206440
:1001600065766963652000204F6E6557697265206A
:10017000646576696365732E00466F756E64200052
:10018000496E7469616C697A696E672074656D7017
:10019000657261747572652073656E736F72732E0C
:1001A0002E2E00646F6E652E004572726F723A20BB
:1001B000756E61626C6520746F20696E7469616C24
:1001C000697A65206D6573683B2072657472796920
:1001D0006E672E2E2E00496E697469616C697A69AA
:1001E0006E6720726164696F2E2E2E00005EBCE285
:1001F000613FDD83C29C7E20A3FD1F419DC3217F03
:10020000FCA2401E5F01E3BD3E6082DC237D9FC1F6
:10021000421CFEA0E1BF5D0380DE3C62BEE0025CEA
:10022000DF81633D7C22C09E1D43A1FF4618FAA4D6
:1002300027799BC584DA3866E5BB5907DB856739C2
:10024000BAE406581947A5FB7826C49A653BD987B6
:10025000045AB8E6A7F91B45C6987A24F8A6441AAA
:1002600099C7257B3A6486D85B05E7B98CD2306E96
:10027000EDB3510F4E10F2AC2F7193CD114FADF382
:10028000702ECC92D38D6F31B2EC0E50AFF1134D76
:10029000CE90722C6D33D18F0C52B0EE326C8ED06A
:1002A000530DEFB1F0AE4C1291CF2D73CA94762856
:1002B000ABF517490856B4EA6937D58B5709EBB542
:1002C00036688AD495CB2977F4AA4816E9B7550B36
:1002D00088D6346A2B7597C94A14F6A8742AC8962A
:1002E000154BA9F7B6E80A54D7896B3511121314C8
:1002F00015160A0B0C0D0E0F000102030405000079
:1003000000080002010000030407000000000000D4
:10031000000001020408102040800102040810209F
:10032000010204081020040404040404040402026A
:100330000202020203030303030300000000230080
:100340002600290000000000250028002B000000E6
:100350000000240027002A0000407A10F35A00A071
:10036000724E18090010A5D4E80000E8764817007E
:1003700000E40B54020000CA9A3B000000E1F505BE
:10038000000080969800000040420F000000A08608
:1003900001000000102700000000E803000000003A
:1003A0006400000000000A000000000001000000DE
:1003B00000002C76D888DC674F0823DFC1DFAE59F8
:1003C000E1B1B796E5E3E453C63AE651997696E88B
:1003D000E6C28426EB898C9B62ED407C6FFCEFBC0F
:1003E0009C9F40F2BAA56FA5F490055A2AF75C933A
:1003F0006B6CF9676DC11BFCE0E40D47FEF520E670
:10040000B500D0ED902E0300943577050080841E52
:10041000080000204E0A000000C80C333333330FAD
:10042000986E12831141EF8D2114893BE65516CF4A
:10043000FEE6DB18D1844B381BF77C1D901DA4BB56
:10044000E424203284725E228100C9F124ECA1E50B
:100450003D27C60229102414C31654175F170B2C0E
:100460009E2C11241FBECFEFD8E0DEBFCDBF12E01F
:10047000A0E0B1E0EEE4F8E602C005900D92A63EE1
:10048000B107D9F726E0A6EEB2E001C01D92AC3369
:10049000B207E1F714E0C2E6D4E004C02297FE01FF
:1004A0000E941130C235D107C9F70E94AE2C0C94BE
:1004B00025340C9400001F93CF93DF93EC0118E0D8
:1004C0000AC040E150E088E595E00E945D2E1150A1
:1004D0002196112359F06881603198F76EEC70E035
:1004E00088E595E00E94F32C6881EBCFDF91CF91F6
:1004F0001F910895FF920F931F93CF93DF93F82ED0
:10050000082F10E0E801CC0FDD1FCC0FDD1FCC0F52
:10051000DD1FC45FDE4FBE018FE094E00E944D06F8
:100520008823F1F0BE018FE094E00E94C108F11031
:1005300006C026E636E646E65FE30E94842EF80112
:10054000EE0FFF1FEE0FFF1FEE5FFB4F6083718307
:1005500082839383DF91CF911F910F91FF90089534
:1005600064EA70E088E595E00E94F32CF801EE0F54
:10057000FF1FEA5FFE4F6081718188E595E0DF91A2
:10058000CF911F910F91FF900C945C2D0F9300E081
:1005900020E040E060E080E394E00E94922C67E07D
:1005A00082E294E00E94DA0862E274E08FE094E074
:1005B0000E94B4054AE068E080EF93E00E94590C85
:1005C00060EF73E087E193E00E94492247E153E046
:1005D00060EF73E08FEF92E00E94021E2FEF32E097
:1005E00047E153E060EF73E080EF92E00E942F1448
:1005F00068EE73E08AEE92E00F910C940817EF9288
:10060000FF920F931F93CF93DF93CDB7DEB764971D
:100610000FB6F894DEBF0FBECDBF26E040E052EC2F
:1006200061E070E088E595E00E94412B61E084E0A4
:100630000E94E72960E084E00E94252A66ED71E0CF
:1006400088E595E00E94F32C04E122E04AE06AE0AC
:10065000CE010F960E94922C45EDE42E42E0F42E3E
:10066000FA82E98289899A89AB89BC898B839C83C8
:10067000AD83BE83BE016F5F7F4F80EF92E00E942B
:10068000F11564E18FEF92E00E94462200E61AEE37
:1006900020E030E040E050E061E68FEF92E00E9421
:1006A000E0218111D3C069EA71E088E595E00E94FC
:1006B000372D0E94FF0201E022E04AE06AE0CE010D
:1006C00009960E94922CFA82E9828B859C85AD85E1
:1006D000BE858B839C83AD83BE83BE016F5F7F4FDE
:1006E00080EF92E00E942D168AEE92E00E94E716BB
:1006F00063EA71E088E595E00E94372D60E871E0DB
:1007000088E595E00E94372D8FE094E00E941F0756
:100710008FE094E00E94C30580930E0469E771E0C6
:1007200088E595E00E94F32C4AE050E060910E04C9
:1007300088E595E00E945D2E67E671E088E595E02A
:100740000E94372D80910E04882309F472C000E0C6
:1007500010E051C069E571E088E595E00E94F32C56
:100760004AE050E0B80188E595E00E94482E69E42F
:1007700071E088E595E00E94F32CCE0101960E947D
:100780005B0288E595E00E94512D4CE0BE016F5F51
:100790007F4F8FE094E00E949107BE016F5F7F4F13
:1007A0008FE094E00E94DC07F82E8CE0F816D9F078
:1007B0006EE171E088E595E00E94F32C4AE050E09C
:1007C0006CE070E088E595E00E94482E65E272E0FA
:1007D00088E595E00E941A2D4AE050E06F2D88E5EB
:1007E00095E00E94642E0F5F1F4F80910E0490E0F1
:1007F00008171907F4F4402FBE016F5F7F4F8FE099
:1008000094E00E94C6058111A5CF67E071E088E5FC
:1008100095E00E94F32C4AE050E0B80188E595E0AD
:100820000E94482E60ED70E088E595E00E94372D2B
:10083000DACF64960FB6F894DEBF0FBECDBFDF915E
:10084000CF911F910F91FF90EF90089561E084E0A8
:100850000E94252A30CF9F92AF92BF92CF92DF9213
:10086000EF92FF920F931F93CF93DF93CDB7DEB735
:10087000C651D2400FB6F894DEBF0FBECDBF0E9466
:1008800009290091E6021091E7022091E8023091D7
:10089000E902601B710B820B930B69397A43810566
:1008A000910508F003C16AEE72E0CE0181509E4FBF
:1008B0000E941917CE0181509E4F0E94D6108823A6
:1008C00009F4CDC000E010E0EE24EA94F12C16C04B
:1008D000C701801B910B181619060CF0D3C060E0FD
:1008E00071E06C0F7D1F600F711F41E050E0CE0181
:1008F00081509E4F0E94F010080F191F4EEE52E0DB
:1009000060E070E0CE0181509E4F0E94DD1318160A
:100910001906F4F2CE0181509E4F0E94A21068E5A4
:1009200072E0CE0193950E94B5319A838983892B19
:1009300009F4ADC068E872E0CE0101967C010E9426
:100940009D3168E872E0C7010E949D3164E372E066
:100950000E949431892B09F09AC08FE094E00E94A4
:10096000500868E770E088E595E00E94372D81E542
:10097000E6E2F1E0D70101900D928A95E1F7FE01E0
:10098000EE5AFF4F8EEADF011D928A95E9F78091BA
:100990000E04882309F440C0912C7CE7A72EB12CCB
:1009A00003C093949816C0F5892D0E947A02C92C31
:1009B000D12CF601EE0FFF1FEA5FFE4F60817181BF
:1009C000C7010E948931F601EE0FFF1FEE0FFF1FD6
:1009D000EE5FFB4F60817181828193818E01035FA5
:1009E0001D4F25E040E00E943830B801C7010E9449
:1009F000893180910E04282F30E021503109C21630
:100A0000D3067CF6F70101900020E9F73197B18217
:100A1000A0829394981640F2F70101900020E9F724
:100A20003197AF014E195F098DE09AE0A0E0808315
:100A30009183A283C150DE4FE881F981CF5FD1401D
:100A40004E5F5F4F0280F381E02DB701CE018150F0
:100A50009E4F0995CE0181509E4F0E94B710CA5EED
:100A6000DD4F0FB6F894DEBF0FBECDBFDF91CF9143
:100A70001F910F91FF90EF90DF90CF90BF90AF90BC
:100A80009F900895CE0181509E4F0E94A2104DE18B
:100A900050E06AE372E0CE0181509E4F0E944B12FB
:100AA000CE0181509E4F0E94B710D9CF0E940929D4
:100AB0006093E6027093E7028093E8029093E90264
:100AC0008FEF92E00E94CB1F811111C060E084E0A3
:100AD0000E94252A40E65AEE60E070E08FEF92E037
:100AE0000E94582161E084E00E94252ADCCE61E06A
:100AF00084E00E94252AD7CECF93CFB7F894809177
:100B00003604811125C0E0E3F3E08491ECE1F3E0E9
:100B10009491E82FF0E0EE0FFF1FE25BFC4FA591F0
:100B2000B4918C918923D1F061E08AE00E94E72999
:100B30008CB580618CBD8CB580648CBD61E08DE02E
:100B40000E94E72961E08BE00E94E729809136044A
:100B50008F5F80933604CFBFCF91089561E08AE024
:100B60000E94252AE1CF0895FC0183EB95E0928B4A
:100B7000818B768365831482108289E0818381E092
:100B8000828383830895FC0184810895EF92FF920C
:100B90000F931F93CF93DF93EC018B01E42E8D8194
:100BA0009E810E942E0AF12C41E0B8018D819E8128
:100BB0000E943D0A882329F0FE1459F0F394EF14A3
:100BC00098F780E0DF91CF911F910F91FF90EF9008
:100BD000089567E0C8010E94EC0AF8019781891323
:100BE000EDCF81E0EFCFEF92FF920F931F93CF9362
:100BF000DF938C01EB01F42EE52EFC0185819681BB
:100C00000E940909811109C090E0892FDF91CF91DD
:100C10001F910F91FF90EF900895BE01F80185811B
:100C200096810E94020A40E06EEBF8018581968170
:100C30000E94AE09CF2DDE2D89E0F82EF8018581C6
:100C400096810E94E6098993FA94C1F7F80185819B
:100C500096810E94090991E08130B1F6892FDF91D8
:100C6000CF911F910F91FF90EF900895CF93DF9355
:100C7000EA010E94F305811104C080E0DF91CF9169
:100C8000089568E0CE010E94EC0A91E02885821365
:100C900090E0892FDF91CF910895CF93DF93CDB767
:100CA000DEB729970FB6F894DEBF0FBECDBFAE01F9
:100CB0004F5F5F4F0E94360629960FB6F894DEBF4D
:100CC0000FBECDBFDF91CF910895CF93DF93CDB706
:100CD000DEB729970FB6F894DEBF0FBECDBFAE01C9
:100CE0004F5F5F4F0E943606882351F08D818F330E
:100CF00099F0A0F08F3571F08F3711F48CE001C0BE
:100D000080E029960FB6F894DEBF0FBECDBFDF910D
:100D1000CF9108958BE0F5CF8AE0F3CF8F3181F743
:100D200089E0EFCFEF92FF920F931F93CF93DF9362
:100D3000EC018B017A018D819E810E940909B80125
:100D40008D819E810E94020A40E06EE48D819E8129
:100D50000E94AE0940E0F70162818D819E810E9470
:100D6000AE0940E0F70163818D819E810E94AE094A
:100D7000F8018081803139F040E0F70164818D8194
:100D80009E810E94AE098D819E810E940909B80151
:100D90008D819E810E94020A488168E48D819E8136
:100DA0000E94AE0964E170E080E090E00E94392981
:100DB0008881882331F06AE070E080E090E00E9452
:100DC00039298D819E81DF91CF911F910F91FF90E5
:100DD000EF900C940909EF92FF921F93CF93DF934A
:100DE00000D0CDB7DEB77C01FC0185819681698397
:100DF0007A830E94090969817A81F7018581968148
:100E00000E94020A40E064EBF701858196810E940E
:100E1000AE09F701858196810E948309182FF70199
:100E2000858196810E94090981E0111180E00F906F
:100E30000F90DF91CF911F91FF90EF900895FF9257
:100E40000F931F93CF93DF93CDB7DEB761970FB6A4
:100E5000F894DEBF0FBECDBF8C01FC018581968169
:100E60000E942E0AF801148208C067E0CE010A969B
:100E70000E94EC0A99898917B9F041E0BE01665FCA
:100E80007F4FF801858196810E943D0A8111EDCF47
:100E900061960FB6F894DEBF0FBECDBFDF91CF9144
:100EA0001F910F91FF900895F8018081882359F1D7
:100EB000AE014F5F5F4FBE01665F7F4FC8010E946A
:100EC000F305F801F1808A85803181F0BE01665F0B
:100ED0007F4FC8010E9465068F1558F4F801818183
:100EE000F801818384818F5F8483C7CF8CE08F1565
:100EF000A8F38A85803199F0BE01665F7F4FC801F3
:100F00000E946506EDCFBE01665F7F4FC8010E945B
:100F1000EB06882369F281E0F8018083C9CF8CE079
:100F2000DFCFDF92EF92FF920F931F93CF93DF9368
:100F3000CDB7DEB729970FB6F894DEBF0FBECDBF91
:100F40007C018B01D42EAE014F5F5F4F0E943606AD
:100F50008823C1F0F8018081803119F1FBE0DF16B0
:100F600029F18CE0D81629F1EAE0DE16E1F08FE1F4
:100F70008D83AE014F5F5F4FB801C7010E9492069B
:100F800081E001C080E029960FB6F894DEBF0FBE65
:100F9000CDBFDF91CF911F910F91FF90EF90DF9028
:100FA000089581E0F0CF8FE38D83E3CF8FE58D83CC
:100FB000E0CF8FE78D83DDCFFB012081203111F45D
:100FC0008CE008950C9465064F925F926F927F9229
:100FD0008F929F92AF92BF92EF92FF920F931F93C7
:100FE000CF93DF93CDB7DEB729970FB6F894DEBF66
:100FF0000FBECDBF8C017A016950633058F5E62FE2
:10100000F0E0EE0FFF1FE657FD4F80809180E11466
:10101000F10421F0F8018381811121C0B4018827F6
:1010200077FD8095982F0E94392929960FB6F8945C
:10103000DEBF0FBECDBFDF91CF911F910F91FF900B
:10104000EF90BF90AF909F908F907F906F905F9048
:101050004F9008959EEE892E92E0992ED8CF8081F0
:101060008111DCCF0E9409292B013C01AA2497FCA5
:10107000A094BA2CAE014F5F5F4FB701C8010E9428
:10108000F30589818111D1CF0E9409296819790955
:101090008A099B09641575058605970530F6EACF20
:1010A000CF93DF93EC018D819E810E9409098D8190
:1010B0009E810E942A0A488164E48D819E810E945B
:1010C000AE098A81811103C0DF91CF91089540E07C
:1010D00050E06981CE01DF91CF910C94E4070F932A
:1010E0001F93CF93DF93CDB7DEB729970FB6F89450
:1010F000DEBF0FBECDBF8B01AE014F5F5F4F0E94C1
:1011000036068823D9F1298130E0220F331F220FC0
:10111000331F220F331F8A8190E0982F8827990F61
:10112000990F990F282B392BF8018081803161F0BC
:10113000C90129960FB6F894DEBF0FBECDBFDF916F
:10114000CF911F910F910895688570E08F81AB0159
:10115000481B5109CA019695982F8827979587951E
:101160000E94D92FCB014097207F220F331F220FDF
:10117000331F220F331F820F931FDBCF80E894EEC3
:10118000D8CF0E946F08813824EE920774F0BC011A
:10119000882777FD8095982F0E94EA2E20E030E086
:1011A00040E05CE30E94762F089560E070E08EEFEF
:1011B00092EC08951F93CF93DF93EC01162F60E01C
:1011C000812F0E94E729612F70E0FB01EE5EFC4F4A
:1011D000E491E883FB01EA5DFC4FE491F0E0EE0F5F
:1011E000FF1FE65CFC4F859194919A8389831B864F
:1011F0001D861C861A86FE013A9627E030E02150B3
:101200003109129221153105D1F7DF91CF911F914C
:101210000895FF920F931F93CF93DF93FC010081FA
:10122000C181D281F8948981F02EF0948F21898335
:1012300078941CE702C0115021F182E090E00E94F6
:10124000722998819023B9F3F8948A818F218A8337
:101250008981802B8983789480EE91E00E947229A5
:10126000F89489818F21898386E490E00E94722915
:101270008881802311E061F478948AE991E00E94EA
:101280007229812FDF91CF911F910F91FF900895C7
:1012900010E0F2CF1F93CF93DF93FC011081C18147
:1012A000D28160FD18C0F8949A81812F809589239E
:1012B0008A838981812B898381E490E00E9472294D
:1012C0008A81812B8A83789485E090E0DF91CF91A9
:1012D0001F910C947229F8949A81812F809589230B
:1012E0008A838981812B89838AE090E00E94722918
:1012F0008A81812B8A83789487E390E0DF91CF9174
:101300001F910C9472290F931F93CF93DF93FC01CD
:101310001081C181D281F8948981812B89838A814E
:10132000012F009580238A8383E090E00E94722938
:101330008981802389838AE090E00E947229C88194
:10134000789485E390E00E9472291C2381E009F4DF
:1013500080E0DF91CF911F910F910895DF92EF927E
:10136000FF920F931F93CF93DF938C01E62ED42E21
:10137000C8E0D0E0FF24F39461E08F2D8E2109F4C2
:1013800060E0C8010E944A09FF0C2197A9F7D1101B
:1013900015C0F894D8011196ED91FC9112979181A6
:1013A0008C918095892381831196ED91FC91129700
:1013B00092818C918095892382837894DF91CF915B
:1013C0001F910F91FF90EF90DF900895EF92FF92A1
:1013D0000F931F93CF93DF938C01C8E0D0E0E12CF3
:1013E000FF24F394C8010E9483098111EF28FF0CA8
:1013F0002197C1F78E2DDF91CF911F910F91FF9013
:10140000EF900895CF92DF92FF920F931F93CF93A7
:10141000DF931F92CDB7DEB78C01F62E40E065E575
:1014200079830E94AE09CF2C7981D72E98E0F92ECE
:10143000F60161916F0140E0C8010E94AE09FA9483
:10144000B9F70F90DF91CF911F910F91FF90DF902F
:10145000CF90089540E06CEC0C94AE09FC0113862B
:101460001586148612863A9627E030E0215031091D
:10147000129221153105D1F708958F929F92BF9254
:10148000CF92DF92EF92FF920F931F93CF93DF9350
:101490001F92CDB7DEB74C016B01DC011D968C911C
:1014A000882391F0F40113861586148680E00F904E
:1014B000DF91CF911F910F91FF90EF90DF90CF9030
:1014C000BF909F908F900895C40149830E9409099D
:1014D00049818823B9F1442309F478C040E060EFE2
:1014E000C4010E94AE0911E0F12CB12CEE24E3946A
:1014F00016C0081761F1F401EF0DF11D8381912FE2
:10150000909589238383602FC4010E944A09E39444
:10151000110F11F4F39411E0B7E0BF15B0F1C4015D
:101520000E948309082FC4010E948309013009F732
:10153000813059F1F401EF0DF11D8381812B8383FB
:1015400001E0E1CFF401138615861486B0CFD401F3
:101550001B968C91E81678F4F401EF0DF11D838150
:10156000812359F700E0B8E0BE1518F0D4011C96AD
:10157000EC92BE2CC3CF01E0E81200E0EF2DF0E0CA
:10158000E80DF91D002379F3D8CFE0E4EE1508F05B
:1015900089CFD4011B96BC921B97B11003C081E088
:1015A0001D968C93D40113962C911397222309F442
:1015B00079CFF601149680E090E001C02D9121933F
:1015C000019688309105D1F781E071CF40E06CEE53
:1015D000C4010E94AE0987CF2FEF260F662361F06A
:1015E000DC0180E09D919827E92FF0E0E451FE4F67
:1015F00084912150B8F7089580E008952CB52F7D8F
:101600002CBD2CB5237F2CBD2CB52C7F2CBD2DB52E
:1016100021602DBDFC0181810E94252A85E090E09A
:101620000C9472291F93CF93DF93EC01162F60E087
:101630000E94FE0A1F711EBD00000DB407FEFDCF03
:101640008EB58FEF8EBD00000DB407FEFDCF1EB529
:1016500061E0CE010E94FE0A812FDF91CF911F91A0
:101660000895EF92FF921F93CF93DF9300D01F92C4
:10167000CDB7DEB77C01162F60E029834A835B83F8
:101680000E94FE0A612F6F7160626EBD00005B8177
:101690004A8129810DB407FEFDCF1EB59FEF920F41
:1016A000222351F0FA0121912EBD00000DB407FE56
:1016B000FDCF2EB59150B8F761E0C7010E94FE0A38
:1016C000812F0F900F900F90DF91CF911F91FF907E
:1016D000EF900895EF92FF921F93CF93DF931F92A5
:1016E000CDB7DEB77C01162F60E049830E94FE0A69
:1016F000612F6F7160626EBD000049810DB407FEFD
:10170000FDCF1EB54EBD00000DB407FEFDCF8EB55A
:1017100061E0C7010E94FE0A812F0F90DF91CF91F7
:101720001F91FF90EF900895AF92BF92DF92EF92DA
:10173000FF920F931F93CF93DF9300D0CDB7DEB707
:101740005C01D62EFC018581042F841708F4082F34
:10175000F501968191113CC0E82EE01A1FEF1E0D95
:1017600060E0C50129837A830E94FE0A29812EBD8B
:1017700000007A810DB407FEFDCFFEB49FEF900FFD
:10178000002359F0ED2DF72F21912EBD00000DB44F
:1017900007FEFDCF2EB59150B8F7EE2041F01EBCEC
:1017A00000000DB407FEFDCF9EB51150C0F761E0FB
:1017B000C5010E94FE0A8F2D0F900F90DF91CF91EF
:1017C0001F910F91FF90EF90DF90BF90AF90089521
:1017D0001FEFE12CC5CFAF92BF92DF92EF92FF9245
:1017E0000F931F93CF93DF931F92CDB7DEB75C01AA
:1017F000D62EFC018581042F841708F4082FF501EB
:10180000968191113CC0E82EE01A1FEF1E0D60E09A
:10181000C50179830E94FE0A81E68EBD00007981B0
:101820000DB407FEFDCFFEB49FEF900F002361F0D3
:10183000ED2DF72F3FEF3EBD00000DB407FEFDCFAD
:101840002EB521939150B8F7EE2049F09FEF9EBD41
:1018500000000DB407FEFDCF2EB51150C0F761E0BA
:10186000C5010E94FE0A8F2D0F90DF91CF911F912D
:101870000F91FF90EF90DF90BF90AF9008951FEF12
:10188000E12CC5CF1F93CF93DF93EC01162F60E0BF
:101890000E94FE0A1EBD00000DB407FEFDCF1EB55E
:1018A00061E0CE010E94FE0A812FDF91CF911F914E
:1018B0000895FC0160834183148280E2858316824F
:1018C00085E0848717820895462F6E3708F04DE72C
:1018D00065E00C946A0BCF93DF93EC0188819981CA
:1018E000891719F060E00E94252A8D859E850E9447
:1018F00072296DE1CE010E94120B81FF08C08D8517
:101900009E850E94722961EECE010E94420C60E029
:10191000CE010E94120B482F4E7F60E0CE010E9444
:101920006A0B62E0CE010E94120BE8EFF2E0E49154
:1019300021E030E001C0220FEA95EAF7822B482F20
:1019400062E0CE01DF91CF910C946A0BCF93DF93CD
:10195000EC0160E00E94120B81FF03C0DF91CF9188
:101960000895482F426060E0CE010E946A0B65E056
:1019700070E080E090E0DF91CF910C9439290F93D3
:10198000CF93DF93EC012223A1F020EBCE010E9444
:10199000940B002351F088819981891731F061E01F
:1019A000DF91CF910F910C94252ADF91CF910F9168
:1019B000089520EAEBCFDF92EF92FF920F931F93EF
:1019C000CF93DF93EC017B01142FD22E06C06FEF73
:1019D000CE010E94420C84FD16C06FEFCE010E9422
:1019E000420C80FDF4CF01E02D2D412FB701CE0137
:1019F0000E94BF0C81E0DF91CF911F910F91FF906A
:101A0000EF90DF90089540E167E0CE010E946A0BFD
:101A100080E0DF91CF911F910F91FF90EF90DF90C9
:101A2000089567E10E94120B8695817008958F9248
:101A30009F92AF92BF92CF92DF92EF92FF92CF939D
:101A4000DF93EC014A015B01211151C00E94092979
:101A50006B017C0106C06FEFCE010E94420C84FD39
:101A600019C067E1CE010E94120B84FFF4CF888178
:101A700099818917D1F160E00E94252A81E0DF91E8
:101A8000CF91FF90EF90DF90CF90BF90AF909F905D
:101A90008F90089540E167E0CE010E946A0B888133
:101AA0009981891751F060E00E94252A88819981E7
:101AB000891719F061E00E94252A0E9409296C19F2
:101AC0007D098E099F09681579058A059B0548F2ED
:101AD00088819981891719F060E00E94252A61EEBA
:101AE000CE010E94420C80E0CACF81E0C8CF0E94A4
:101AF0006B0C88819981891709F4A8CF61E00E9455
:101B0000252AA4CF1F93CF93DF93EC0160E00E94BE
:101B1000FE0A80E68EBD00000DB407FEFDCF8EB537
:101B20008FEF8EBD00000DB407FEFDCF1EB561E046
:101B3000CE010E94FE0A113258F062EECE010E94E0
:101B4000420C62E070E080E090E00E94392910E0F1
:101B5000812FDF91CF911F9108950F931F93CF9302
:101B6000DF93EC018B0167E10E94120B80FD13C033
:101B700001151105B1F06FEFCE010E94420C90E00B
:101B8000959587958770F801808381E0DF91CF91EB
:101B90001F910F91089580E0DF91CF911F910F91D8
:101BA000089581E0DF91CF911F910F91089560E03A
:101BB00070E00C94AD0DCF93DF93EC010E94EB0B22
:101BC00040E767E0CE01DF91CF910C946A0BEF9272
:101BD000FF920F931F93CF93DF93CDB7DEB7289774
:101BE0000FB6F894DEBF0FBECDBF7C0109831A8308
:101BF0002B833C834D835E836F837887FC01248530
:101C0000AE014F5F5F4F6AE00E94310BF701248500
:101C1000AE014F5F5F4F60E1C7010E94310BF701DA
:101C2000458161E1C7010E946A0B28960FB6F894BE
:101C3000DEBF0FBECDBFDF91CF911F910F91FF90FF
:101C4000EF900895BF92CF92DF92EF92FF920F93A1
:101C50001F93CF93DF93CDB7DEB728970FB6F894D5
:101C6000DEBF0FBECDBF6C01B62EE982FA820B83B8
:101C70001C832D833E834F835887662309F443C01A
:101C800096E0961780F428960FB6F894DEBF0FBE44
:101C9000CDBFDF91CF911F910F91FF90EF90DF901B
:101CA000CF90BF900895E1E06E1709F444C0062F6D
:101CB00010E0F801EE50FD4F649121E0AE014F5F5E
:101CC0005F4FC6010E94310BF801E451FD4F649152
:101CD000F6014581C6010E946A0B62E0C6010E94BE
:101CE000120BF801E850FD4F049121E030E0002E86
:101CF00001C0220F0A94EAF7822B482F62E0C60146
:101D00000E946A0BC0CFFC01448550E0CE010196D1
:101D10007C01BC01C60107960E9480310B2D10E0AA
:101D2000F801EE50FD4F6491F6012485A701C6012C
:101D30000E94310BC9CFCE0101967C01EFCF1F93DA
:101D4000CF93DF93EC01162F62E00E94120BE12F7C
:101D5000F0E0E850FD4FE49141E050E001C0440F55
:101D6000EA95EAF74095482362E0CE01DF91CF91F2
:101D70001F910C946A0BCF93DF93EC010E94A60C89
:101D800060E0CE010E94120B482F416060E0CE015E
:101D90000E946A0B40E767E0CE010E946A0B8881CF
:101DA0009981891719F061E00E94252A8F81882383
:101DB00089F02C85AE01495F5F4F6AE0CE010E9439
:101DC000310B6DE1CE010E94120B81FD0DC0DF9140
:101DD000CF91089560E0CE010E949F0E6DE1CE018B
:101DE0000E94120B81FFF3CF61EECE01DF91CF9104
:101DF0000C94420CCF93DF93EC0160E00E94FE0A4A
:101E000080E58EBD00000DB407FEFDCF8EB583E7E3
:101E10008EBD00000DB407FEFDCF8EB561E0CE0192
:101E2000DF91CF910C94FE0ACF93DF93EC016DE12B
:101E30000E94120B482F44606DE1CE010E946A0B94
:101E40006CE1CE010E94120B482F4F636CE1CE0172
:101E50000E946A0B81E08E83DF91CF910895EF920B
:101E6000FF921F93CF93DF931F92CDB7DEB77C0114
:101E7000162F673038F00F90DF91CF911F91FF90B0
:101E8000EF90089561E049830E94120B498141114E
:101E900012C041E050E001C0440F1A95EAF74095A6
:101EA000482361E0C7010F90DF91CF911F91FF9010
:101EB000EF900C946A0B41E050E0012E01C0440FFA
:101EC0000A94EAF7482BEDCFFF920F931F93CF931D
:101ED000DF93EC018B0166E00E94120B877DF82EE8
:101EE00002301105F1F00130110531F105E510E086
:101EF00020E030E00D871E872F87388B4F2D66E05E
:101F0000CE010E946A0B66E0CE010E94120B91E0A6
:101F1000F81290E0892FDF91CF911F910F91FF90E0
:101F200008958062F82E0BE910E020E030E00D8784
:101F30001E872F87388BE2CF8860F82E01E410E0EF
:101F400020E030E00D871E872F87388BD7CF1F9377
:101F5000CF93DF93EC0188819981891751F061E07B
:101F60000E94E72989819881981719F061E00E9401
:101F7000E7290E947C0588819981891719F060E022
:101F80000E94252A61E0CE010E94FE0A65E070E011
:101F900080E090E00E9439294CE060E0CE010E9490
:101FA0006A0B4FE564E0CE010E946A0B62E070E0CC
:101FB000CE010E94640F882311F081E08C8366E0DB
:101FC000CE010E94120B182F60E070E0CE010E943B
:101FD000640FCE010E94FA0E40E06DE1CE010E9436
:101FE0006A0B40E06CE1CE010E946A0B40E767E0BB
:101FF000CE010E946A0B4CE465E0CE010E946A0BA0
:1020000062EECE010E94420C61EECE010E94420CB3
:10201000CE010E94A60C60E0CE010E94120B482F58
:102020004E7F60E0CE010E946A0B115081E01E3F9E
:1020300008F080E0DF91CF911F91089520E1629F29
:10204000B00111244F70462B64E00C946A0B0C9481
:1020500009290F9300E020E040E060E087E394E08E
:102060000E94922C0F910895DC01ED91FC91008C5F
:10207000F18DE02D099591E089270895DC011C96EA
:10208000ED91FC911D97309731F08181811105C050
:10209000808184FD02C080E0089581E0089580E0A1
:1020A00090E0089580E090E00895FC012485358556
:1020B0002115310551F0FB01448555854115510528
:1020C00021F081E02417350709F080E00895CF93CF
:1020D000DF931F92CDB7DEB7DC01ED91FC91008854
:1020E000F189E02D41E050E0BE016F5F7F4F09951F
:1020F00097FD06C0898190E00F90DF91CF91089500
:102100008FEF9FEFF9CFCF93DF93EC01E881F98157
:102110000480F581E02D0995892B89F02C853D857A
:10212000F901EC51FF4F80819181820F931FFC01D7
:10213000E358FF4F808190E0DF91CF9108958FEFBA
:102140009FEFFACFCF93DF93EC01E881F981068806
:10215000F789E02D0995882339F0EC85FD851182FA
:10216000EA51FF4F11821082DF91CF910895DC0177
:102170001C96ED91FC911D97309769F020812223E8
:1021800051F01182DF01AA51BF4F1D921C9226FD12
:1021900007C020622083FC01158614860C947E16ED
:1021A0001082FC01158614860C947E16CF93DF9363
:1021B000EC010E947E16EC85FD85309769F08081E8
:1021C00086FF06C08181811103C0DF91CF91089500
:1021D00081E0DF91CF91089580E0DF91CF91089564
:1021E000CF92DF92EF92FF920F931F93CF93DF93E3
:1021F00000D0CDB7DEB78C017B01DC01ED91FC9105
:102200000688F789E02D49835A83099549815A81C7
:10221000882309F473C0D8011C96ED91FC911D9799
:102220008181882309F46AC0DF01AA51BF4F2D9133
:102230003C916A012C153D0508F456C0DF01AC51F4
:10224000BF4F2D913C91B90163587F4F6E0F7F1F97
:10225000A601C7010E948031D8011C96ED91FC9126
:102260001D97DF01AA51BF4F8D919C9111978C1939
:102270009D0911969C938E9312972D913C911197E5
:102280002C0D3D1D11963C932E93892B09F511823F
:102290001D921C928081A82FAF709EE1A99FD00152
:1022A0001124A85FB94F59969C9194FF1FC0982F95
:1022B0009076E1F480688083D8011C96ED91FC91C2
:1022C0001D9712861386148615868181882371F0E6
:1022D000C6010F900F90DF91CF911F910F91FF904A
:1022E000EF90DF90CF9008956901A8CF808186FF9D
:1022F000EFCF1082F80115861486EACF8FEF9FEF9B
:10230000E8CFCF93DF93EC010E947E16E881F9813C
:102310000688F789E02DCE010995882329F0EC8500
:10232000FD858181811105C080E090E0DF91CF9132
:102330000895EA51FF4F80819181DF91CF910895F7
:10234000FC011382128248EE53E060E070E04483A7
:1023500055836683778384E992E091838083158631
:1023600014860895FC01CB011382128248EE53E0DB
:1023700060E070E0448355836683778324E932E02C
:10238000318320839587848708957F928F929F92CF
:10239000AF92BF92CF92DF92EF92FF920F931F9373
:1023A000CF93DF93EC014B015A010E9409290E944F
:1023B0007E16209709F441C0850188E6A816B1046D
:1023C00008F050C0E12CF12CFE01E851FF4F6F01E5
:1023D0007724739402C00E947E168881982F90768D
:1023E00079F584FF2DC08B819C819801280F391FBE
:1023F0002836310580F7F60120812111ECCF469671
:10240000B4016E0D7F1DA8018C0F9D1F0E948031AD
:102410007A822B813C81200F311F3C832B83E00E7D
:10242000F11EEA14FB0408F585010E191F09083690
:10243000110588F207E610E0CECF88EEC82ED12C29
:10244000F60110828FEF9FEFDF91CF911F910F91D7
:10245000FF90EF90DF90CF90BF90AF909F908F90C4
:102460007F90089507E610E0ADCFC901EDCFCF937F
:10247000DF931F92CDB7DEB7698341E050E0BE0124
:102480006F5F7F4FFC01848595850E94C5110F9079
:10249000DF91CF910895FC01848595850C94C51139
:1024A00080913D04882319F080E090E0089580E158
:1024B00080933D0410923E0410923F041092240534
:1024C00010922305109222051092210510924104CA
:1024D00010924004109225058DE394E008950F9327
:1024E0001F93CF93DF93E0910606F0910706C48D0A
:1024F000D58D209709F4CAC08091030681FF1FC0C3
:10250000DE01A751BF4F8C91882331F01A821986C2
:102510001C821B8211971C928091FB059091FC05F7
:10252000892B09F470C08881982F907609F475C0C2
:1025300087FD3BC0DF91CF911F910F91089584FDDE
:1025400026C087FD24C085FD22C080FDE7C08C70B9
:1025500009F4CFC08A818111CEC08881982F9076EE
:1025600029F49985992311F087FDF0C085FFE0CF0C
:102570008A81811141C01882E0910606F091070618
:10258000158E148E80E1809303068881D1CF1A8244
:10259000898181113AC01882E0910606F091070600
:1025A000158E148E888187FFC5CF99859111C2CF72
:1025B000807609F0BFCF8091030682608093030686
:1025C000E0910606F0910706818D8F7E818F81E074
:1025D00089874EE154E160E070E04E875F87688B49
:1025E000798B0E9409296A8B7B8B8C8B9D8B6A87E8
:1025F0007B878C879D879ECFE0910606F09107062A
:10260000818D8061818F888193CF848195819B8327
:102610008A83888180648883C3CF818D8061818F24
:1026200088818F77888319860E9409296A877B872A
:102630008C879D876A8B7B8B8C8B9D8B8E010A513F
:102640001F4FF80180819181329720813181820F63
:10265000931F83589F4F6091040670910506409127
:10266000FB055091FC058C0F9D1F0E9480318091CD
:10267000FB059091FC05F80120813181820F931FA9
:102680009183808381E08983888152CF8091030682
:1026900086FF50CF0E945012EC01009709F44ACFF8
:1026A000E0910606F0910706958F848F25CF4E8521
:1026B0005F85688979894C505E4F6F4F7F4F4935F0
:1026C000FBE15F076105710520F048E55BE160E033
:1026D00070E04E875F87688B798B809103068260FC
:1026E00080930306E0910606F0910706818D8F7EA8
:1026F000818F88813BCF6B817C817093FC056093D7
:10270000FB05CE0146960E94EE1D81E0FE01E851D8
:10271000FF4F80833196808388810ACF88818F77AD
:1027200088831A8219861C821B82FE01E851FF4FA2
:1027300010820E9409296A877B878C879D876A8B14
:102740007B8B8C8B9D8B8091030601CF0E94092986
:102750000A851B852C853D85601B710B820B930BB5
:102760000E851F8528893989061717072807390715
:1027700008F0BFCF0E9409296A877B878C879D87D5
:102780000E9409290A891B892C893D89601B710BCC
:10279000820B930B603375478105910508F487CF51
:1027A00019861882E0910606F0910706158E148EA0
:1027B00080E2809303068881BBCE8F929F92AF9276
:1027C000BF92CF92DF92EF92FF92CF93DF93EC0113
:1027D0004A015B010E9409296B017C010DC00E9426
:1027E00009296C197D098E099F0986169706A80686
:1027F000B906E8F00E947E16E881F9810480F5812F
:10280000E02DCE010995181619064CF7E881F981DB
:102810000480F581E02DCE01DF91CF91FF90EF9004
:10282000DF90CF90BF90AF909F908F90099480E001
:1028300090E0DF91CF91FF90EF90DF90CF90BF902D
:10284000AF909F908F9008950F9300E020E040E0BC
:1028500060E087E295E00E94922C0F910895FC01C0
:102860007183608353834283358324830895AF92B9
:10287000BF92CF92DF92EF92FF920F931F93CF936D
:10288000DF936C01EB015A0179016D81DC01149633
:102890008D919C9115970E944622D6011296ED913A
:1028A000FC91139707A0F0A5E02D82859385909366
:1028B0003506809334062A8130E0322F22278B811F
:1028C000282B8C8190E0982F88274D81842B3227EC
:1028D0002327322730933106209330069827892703
:1028E00098279093330680933206F701228130E0D7
:1028F000322F22278381282B848190E0982F8827EC
:102900004581842B322723273227309329062093B1
:10291000280698278927982790932B0680932A06C4
:10292000D80112962C91129730E0322F222713965D
:102930008C911397282B14968C91149790E0982FD4
:10294000882715964C91842B3227232732273093E2
:102950002D0620932C0698278927982790932F06D9
:1029600080932E06F50142815381648175814093E5
:102970002F055093300560933105709332054EE377
:1029800050E060E070E0C60107960E946A17DF9190
:10299000CF911F910F91FF90EF90DF90CF90BF905C
:1029A000AF900C947D18EF92FF920F931F93CF93EB
:1029B000DF93CDB7DEB768970FB6F894DEBF0FBED2
:1029C000CDBF7B01B901A5EDB2E0BA83A983F801BF
:1029D00002811381248135810B831C832D833E83E7
:1029E000B887AF83FB010281138124813581098778
:1029F0001A872B873C87BE87AD87FA0142815381B6
:102A0000648175814F87588B698B7A8BBC8BAB8BBC
:102A1000F70142815381648175814D8B5E8B6F8B91
:102A2000788F8E010F5F1F4F9E01295F3F4FAE01D0
:102A3000435F5F4FBE016D5E7F4F0E943714689603
:102A40000FB6F894DEBF0FBECDBFDF91CF911F91BF
:102A50000F91FF90EF9008958F929F92AF92BF9247
:102A6000CF92DF92EF92FF920F931F93CF93DF935A
:102A7000CDB7DEB76E970FB6F894DEBF0FBECDBFF1
:102A80007C016B015A01490100E02FEF4FEF6FEF1E
:102A9000CE0149960E94922C25ED32E03A8329839B
:102AA0008B8D9C8DAD8DBE8D8B839C83AD83BE83C2
:102AB00038872F83F40182819381A481B58189872E
:102AC0009A87AB87BC873E872D87F50182819381EA
:102AD000A481B5818F87988BA98BBA8B3C8B2B8B6C
:102AE000F60142815381648175814D8B5E8B6F8BC2
:102AF000788F8E010F5F1F4F9E01295F3F4FAE0100
:102B0000435F5F4FBE016D5E7F4FC7010E94D314CC
:102B10006E960FB6F894DEBF0FBECDBFDF91CF919A
:102B20001F910F91FF90EF90DF90CF90BF90AF90EB
:102B30009F908F900895CF92DF92EF92FF920F9324
:102B40001F93CF93DF93CDB7DEB768970FB6F89496
:102B5000DEBF0FBECDBFDB0112960D911D912D91F1
:102B60003C9115970D8B1E8B2F8B388FE5EDF2E086
:102B7000FA83E98361E0688FCD88DE88EF88F88C7E
:102B8000CB82DC82ED82FE82F887EF83DA01129637
:102B90004D915D916D917C91159749875A876B870F
:102BA0007C87FE87ED870F87188B298B3A8B9E01D8
:102BB0002F5F3F4FAE01495F5F4FBE01635F7F4FA5
:102BC0000E942C1568960FB6F894DEBF0FBECDBFDD
:102BD000DF91CF911F910F91FF90EF90DF90CF90F9
:102BE00008950F931F93CF93DF93CDB7DEB762970E
:102BF0000FB6F894DEBF0FBECDBFFB0142815381FB
:102C0000648175814F87588B698B7A8BE5EDF2E093
:102C1000FA83E98321E02A8B0F85188929893A896B
:102C20000B831C832D833E83F887EF8349875A8764
:102C30006B877C87AE014F5F5F4FBE01695F7F4F3F
:102C40000E949B1562960FB6F894DEBF0FBECDBFF3
:102C5000DF91CF911F910F910895FB01228130E008
:102C6000322F22278381282B848190E0982F882778
:102C70004581842B3227232732273093290620933E
:102C8000280698278927982790932B0680932A0651
:102C90000895CF93DF93CDB7DEB728970FB6F8949A
:102CA000DEBF0FBECDBF1C821B828091240190919C
:102CB00025019C012F5F3F4F309325012093240174
:102CC0009E838D8383E88F832091FB053091FC05E3
:102CD0004091340650913506BE016F5F7F4F809161
:102CE000F2029091F3020E94B62828960FB6F8944B
:102CF000DEBF0FBECDBFDF91CF9108958091F2026C
:102D00009091F3020E94ED25833859F18091FB05E3
:102D10009091FC05892B51F081E00E9498188091D8
:102D2000FB059091FC05892BD1F4089587EF92E083
:102D30000E949017892BC9F387EF92E00E947A17BF
:102D400088E096E0909307068093060682E00E9452
:102D500098188091FB059091FC05892B31F30C9418
:102D60004916E091F202F091F30207A0F0A5E02DE0
:102D7000308521853093FB052093FC05832F922F0E
:102D8000C9CF0C947E160F9300E020E040E060E095
:102D900083E395E00E94922C8DE295E00F910C94D4
:102DA000882CCF93DF931F92CDB7DEB76983DC0108
:102DB000ED91FC910280F381E02D41E050E0BE01F5
:102DC0006F5F7F4F09950F90DF91CF910895FC01C0
:102DD000848195810E9487180C947E16E0913D04B1
:102DE000E4FF0FC0EF702EE1E29FF0011124E85FD5
:102DF000F94F24813581FC01848195812817390799
:102E000019F080E090E008958DE394E00C94C511F2
:102E1000CF93DF93EC01CB011B821A8224EB32E0CB
:102E2000398328830E94EA1D9D838C83DF91CF9193
:102E300008950F931F93CF93DF93EC018B010E94B2
:102E40007E1680913E04882381F040913D0444FD2C
:102E500015C046FF0AC020913F0430914004F8019C
:102E60008481958128173907C9F0CE010E94A011ED
:102E7000CE01DF91CF911F910F910895E42FEF7054
:102E80008EE1E89FF0011124E85FF94F248135813C
:102E9000F8018481958128173907D9F66DE374E02C
:102EA000CE010E94B211E4CF0F9300E020E040E099
:102EB00060E089E395E00E94922C0F9108950F93B2
:102EC00000E020E040E060E08FE395E00E94922C7B
:102ED0000F910895CF93DF93EC014C835D836E8354
:102EE0007F830E942710688379838A839B83DF9185
:102EF000CF9108950F931F93FC014081518162810E
:102F000073810481158126813781400F511F621F13
:102F1000731F40835183628373831F910F910895C0
:102F20000F931F93CF93DF93EC010E94271008812A
:102F300019812A813B81601B710B820B930B41E04D
:102F400050E00C811D812E813F816017710782073F
:102F5000930710F440E050E0CA01DF91CF911F9138
:102F60000F91089541505109460F571F6417750777
:102F7000E0F4FB01208130E0322F2227A1812A0FCB
:102F8000311D820F931F8217930708F40196329622
:102F9000E417F50778F39B0120953095240F351F32
:102FA0002E7F2E5F3F4F620F731F6417750709F066
:102FB0000895FB01208130E0322F2227820F931FDA
:102FC00082179307A8F7019608950F931F93CF9345
:102FD000DF930091340610913506F801C381D0E0EB
:102FE0006497228130E0322F2227C20FD31FB8010D
:102FF000645F7F4F48E050E09E01280F311DC901FA
:103000000E94B217B8016C5E7F4FAE010E94B217EA
:10301000009739F48FEF9FEFDF91CF911F910F91C0
:103020000895982789279827DF91CF911F910F91B5
:103030000895FC015381560F50930206872F99275C
:103040004281480F40930106A181A0930006E081D0
:10305000E093FF05242F30E02817390728F4AF5FED
:10306000A0930006AA23C1F0852F90E0772786174A
:10307000970788F44F5F4093010641110CC080917F
:1030800000068F5F80930006811105C08091FF05C7
:103090008F5F8093FF050895EF5FE093FF05E4CF16
:1030A0002091060630910706BC01C90108960E94CE
:1030B0001918E0910606F09107068091FF058087B8
:1030C00080910006818780910106828780910206A7
:1030D00083870895609134067091350644E150E08D
:1030E00080E090E00E94B217009719F48FEF9FEFF5
:1030F00008959827892798270895109227061092F7
:1031000026061092210681E08093480508951092CA
:1031100048052091260630912706232B21F081E0D7
:103120008093480508959093270680932606089576
:10313000EF92FF920F931F93CF93DF9300910606B8
:1031400010910706C0913406D09135069E01285D86
:103150003F4F30930506209304063093FE052093DD
:10316000FD05833099F08230D9F08881853409F4E7
:103170009BC01092FC051092FB0510920306DF9194
:10318000CF911F910F91FF90EF900895F801818DDD
:103190008F70833071F780899189892B51F7E5C051
:1031A00080914C058F5F80934C05811113C08091F5
:1031B0004B058F5F80934B0581110CC080914A05B0
:1031C0008F5F80934A05811105C0809149058F5F0B
:1031D000809349051092FC051092FB05109237066A
:1031E00010923606F801218D822F8D7F853009F4EB
:1031F000B0C0222309F4BDCFF80180899189892BC1
:1032000009F4AFC0828D9FEF980F928F8111B1CFDB
:10321000838D8A3009F48EC19FEF920F923008F4AB
:1032200086C1853008F07EC198E0082E01C0990F54
:103230000A94EAF7F801928F8F5F838F2F70243002
:1032400009F437C108F088C1213009F4A8C123303E
:1032500009F08FCF84E0809303060E946F122091C3
:103260003606309137068091FD059091FE059093CA
:10327000050680930406232B09F422C1F8018089F6
:103280009189009709F41CC188969093FC0580935E
:10329000FB05C0913406D091350688E189A3E09002
:1032A0003006F090310680C00A8110E0102F002710
:1032B0008B81080F111D8091FB059091FC058017F3
:1032C000910708F456CF1093FC050093FB058E81FF
:1032D0008F7309F04ECF8F8181114BCFE090300674
:1032E000F0903106E114F10409F0C0C0809132067B
:1032F00090913306892B09F0B9C00E946A18019693
:1033000009F037CF8985863009F46AC1813009F028
:1033100030CF8C89883009F02CCF1C8A8E899F8908
:10332000873F2FEF920708F450C209969F8B8E8B30
:103330008C859D85998B888B8E859F859B8B8A8BB1
:10334000FD86EC8680913206909133069F878E87AA
:1033500014CF828D8F5F828F883709F00ACF118E4C
:1033600008CF2F70233009F004CF88E08093030644
:103370000E946F122091030625FF89C01092370624
:1033800010923606F801118EC0913406D0913506A0
:1033900084E189A3E0903006F090310688E290E065
:1033A0009093FC058093FB0580E588A3F801808558
:1033B0008C8F81858D8F82858E8F83858F8F84857D
:1033C000888F8585898F86858A8F87858B8F86E014
:1033D0008987848195819D8B8C8B868197819F8B3A
:1033E0008E8BFD86EC8680913206909133069F8706
:1033F0008E8780819181998B888B828193819B8B31
:103400008A8B818D84FF2EC01BA21AA280E488873C
:103410008091FB059091FC059A838B831FA21EA2CD
:103420001DA21CA286E00E94E517809590959DA3A1
:103430008CA385E4888319821F821E8280914D05AA
:1034400090914E05019690934E0580934D059C8377
:103450008D831B861A860E946A18809590959B879B
:103460008A878BCE1AA28DE58BA3D0CF88899989C4
:10347000E816F90609F07DCE2A893B89809132064B
:10348000909133062817390709F073CE36CF24FF01
:103490002CC0109237061092360681E090E0F801B9
:1034A000918B808B84E0818F138EC0913406D091F4
:1034B000350681E189A3E0903006F09031066ECFA9
:1034C0008091030681FF55CE88E290E09093FC0541
:1034D0008093FB05C0913406D091350680E189A325
:1034E000E0903006F09031065FCF809136069091E3
:1034F00037060097C9F0F80120FF67C0118A108ACB
:10350000F801228933892817390728F430933706C0
:1035100020933606C901F801918B808B9C01F8013C
:10352000138EA1CE90E886CE20E030E0F8CF833035
:1035300009F077CEF801118E80E8809303060E948F
:103540006F12C0913406D091350684E189A3E090D2
:103550003006F090310622CF263009F4AACF283069
:1035600009F007CEA6CF41A5443009F020C1309321
:1035700047052093480582A590E0982F882723A52A
:10358000822B90934605809345058836910510F06F
:1035900087E690E0F801938B828B958B848B82E198
:1035A00089A382E088A784E089A71AA687E68BA76B
:1035B0008CE290E09093FC058093FB0580E688A365
:1035C000E0903006F0903106F1CE20893189211546
:1035D000310509F495CF30933706209336069FCFF7
:1035E00086E00E94E517019609F0C3CD40912106BF
:1035F000442351F02E893F8980910C0690910D064D
:103600002817390709F4E5C059A1852F8F73823037
:1036100009F44AC052FDADCD84E189A388E290E06F
:103620009093FC058093FB0580E588A38B8D9F8D8F
:103630009B8F3A8D9E8D9A8F3E8F298D9D8D998F70
:103640002D8F988D909348054C8D488F9C8F8F5F60
:103650008F8F81110CC081E0830F8E8F811107C085
:1036600081E0820F8D8F811102C09F5F9C8F8C89BA
:103670009D8990934605809345052E893F893D8B12
:103680002C8B9F8B8E8B8C859D85998B888B8E85C3
:103690009F859B8B8A8BFD86EC868091320690916C
:1036A00033069F878E87B2CE8E899F899093460579
:1036B00080934505109248052091260630912706F3
:1036C0008217930721F081E080934805A3CF44231C
:1036D00009F47DC2473009F477C200E010E081E0D0
:1036E000809348050115110509F443CD1093070691
:1036F0000093060688E0F801828F808F168A84E0A6
:10370000878B138E8E899F89958384838C899D896D
:10371000978386838C859D85918380838E859F8505
:103720009383828381E0818F809149058487809192
:103730004A05858780914B05868780914C05878750
:1037400081E090E0918B808B8B8D83878A8D82873F
:10375000898D8187888D808781E090E00E94501854
:10376000C0913406D091350628A1822F807F90E049
:10377000813591050CF413CF10924805822F829564
:103780008F7090E00597880F991F880F991F3091CF
:10379000470520E010C0EC0FFD1F30A5332309F4CE
:1037A0000EC2313009F409C2323009F4DCCE41A531
:1037B000442331F0240FE22FF0E0E817F9075CF31F
:1037C0003093470520934805EACE08969F8B8E8B51
:1037D000AFCD2C893D8980910E0690910F06281758
:1037E000390709F011CF2C853D858091080690910D
:1037F00009062817390709F007CF2E853F858091E4
:103800000A0690910B062817390709F0FDCE88E0CB
:1038100096E090930706809306061092030699A1FE
:1038200092FDC3C188A182958F70880F880F809305
:103830004805081B1109045111091093FC05009358
:10384000FB05842F8F70823079F0012B19F4892FBA
:10385000837071F0288D809110062817F9F080E1AF
:1038600089A308E016E09ACD892F8F73823169F71A
:1038700094FF07C0609118067091190661157105D3
:10388000E9F4842F8F7090E0FC013197E830F10566
:1038900008F06FCCEC5CFF4F0C940F30298D8091B9
:1038A00011062813DCCF2A8D809112062813D7CF5A
:1038B0002B8D809113062813D2CFDACF84E196E0C6
:1038C0000E941918C0913406D09135063C8D809124
:1038D000FF05381779F040912106D3CF8091030678
:1038E00080FF47CC1092210680E1809303060E945E
:1038F0006F123FCC2D8D809100062813ECCF9E8D4A
:10390000809101069813E7CF8F8D409102068413B2
:10391000E2CF3093140620931506909316068093F9
:10392000170680912306811121C020911E068091E7
:10393000200690912206891B922F96959695969532
:10394000891B280F20931E0687FD819590911F06E5
:10395000392F36953695931B980F90931F06822F1B
:10396000869586958695890F8093200681E08093C1
:103970000306809120068093220610921906109269
:103980001806A9CF8091FB059091FC05009731F0B6
:103990000E945018C0913406D091350689A180FF4D
:1039A0004AC08091030680FF42C087E080932106D1
:1039B00010922206109219061092180681E090E0EB
:1039C0000E94501880E1809303060E946F12C091FC
:1039D0003406D0913506E0903006F09031063FCFA6
:1039E0008091030680FFC5CB87E08093210610926B
:1039F0002206BFCB8091FB059091FC05009731F02A
:103A00000E945018C0913406D091350689A180FDDE
:103A100008C08091FB059091FC05892B09F4A9CB86
:103A2000DACF87E08093210610922206C7CF86E086
:103A300080932106C3CF8091030680FFEACF85E003
:103A400080932106109219061092180692CB89A134
:103A500080FF33C044FD31C0809118069091190653
:103A6000892B09F086CB8091FB059091FC0501968E
:103A70000E94501820910306822F806180930306D4
:103A80008091FB059091FC05892B19F02261209310
:103A900003060E946F1281E090E0909319068093D4
:103AA000180688E08093210610922306C091340600
:103AB000D091350608E016E0FCCC85FD41C0809130
:103AC000FB059091FC05009769F044FD0BC0209127
:103AD00003062260209303060E945018C09134060A
:103AE000D09135068AA190E0982F88272BA1820FCC
:103AF000911D909346058093450520911C063091B9
:103B00001D062817390710F0892B21F4309346053C
:103B100020934505809145059091460590931B069D
:103B200080931A0680910306837009F422CB1092C9
:103B30003706109236060E946F1208E016E01ACC83
:103B40002EA130E0322F22278FA1282B809104064E
:103B500090910506820F931F9093050680930406AB
:103B60008091FB059091FC05821B930B9093FC05C3
:103B70008093FB05A8CF8091030680FFFACA83E0FB
:103B80008093210680E48093030610921906109218
:103B900018068091FB059091FC05009741F222E404
:103BA000209303060E945018C2CF1092210680E293
:103BB000809303060E946F12DCCA2F5FFCCD109227
:103BC000470520934805EBCC08E016E088CD08E0D7
:103BD00016E088CD9827892798270895709337068F
:103BE000609336061616170664F42091FD05309191
:103BF000FE058217930729F0AB01BC01C9010C94A3
:103C000080310895FC01778366835187408708954A
:103C1000CF92DF92EF92FF920F931F93CF93DF9398
:103C2000CDB7DEB729970FB6F894DEBF0FBECDBF74
:103C30008C016987DC0112968C91129781111CC04E
:103C400015964C914423A9F0F801A381B4815985BC
:103C50008C91851759F1CD01039620E007C0DC0156
:103C60000396FC0133973081351701F12F5F241340
:103C7000F6CF8FEF9FEF0BC0D8018D919C918432CE
:103C80009940B9F38985811117C080E090E02996A9
:103C90000FB6F894DEBF0FBECDBFDF91CF911F915D
:103CA0000F91FF90EF90DF90CF90089511968C9137
:103CB000119712969C91EBCF1C821B82809124015C
:103CC000909125019C012F5F3F4F30932501209358
:103CD00024019E838D8384EC8F8322E030E0AE014B
:103CE000475F5F4FBE016F5F7F4FF8018085918511
:103CF0000E94B628882309F4BCCF0E9409296B01D1
:103D00007C010CC00E9409296C197D098E099F094C
:103D1000673971058105910508F0ABCFD801189678
:103D20008D919C9119970E94ED25843C59F7D801FB
:103D30001896ED91FC9119972785308937FD02C0BF
:103D4000C901A5CF8EEF9FEFA2CFCF92DF92EF9266
:103D5000FF920F931F93CF93DF93CDB7DEB72A97D0
:103D60000FB6F894DEBF0FBECDBF8C017A8769878E
:103D7000262F372F2F3F8FEF380709F47FC02115EB
:103D8000310531F1F80180819181009791F57581BC
:103D90007723D9F0A381B48111968D919C911297CC
:103DA0002817390709F46FC0CD01039660E00AC0F7
:103DB000DC010396FC0132974081518124173507BD
:103DC00009F461C06F5F6713F3CF8FEF9FEF02C0FD
:103DD00080E090E02A960FB6F894DEBF0FBECDBF0C
:103DE000DF91CF911F910F91FF90EF90DF90CF90D7
:103DF00008958432994049F31C821B8280912401EA
:103E0000909125019C012F5F3F4F30932501209316
:103E100024019E838D8386EC8F8322E030E0AE0107
:103E2000475F5F4FBE016F5F7F4FD80118968D913E
:103E30009C9119970E94B628882339F20E9409297B
:103E40006B017C010CC00E9409296C197D098E0947
:103E50009F09653F71408105910508F0B6CFF801D3
:103E6000808591850E94ED25863C69F7D8011896DA
:103E7000ED91FC91199787859089ACCFD801129666
:103E80008C9190E0A7CF8C9190E0A4CFCF92DF925D
:103E9000FF920F931F93CF93DF9300D0CDB7DEB780
:103EA0008C01FC01808591850E94ED25F82EF8019A
:103EB000208131812432394089F083ECF816C9F031
:103EC000F801828181110AC0F4ECFF16D1F186EC71
:103ED000F81609F452C0E5ECFE1679F08F2D0F901C
:103EE0000F90DF91CF911F910F91FF90DF90CF90B6
:103EF000089581E0F8018287F1CFF801A085B185AE
:103F00007581772359F38381948160E003C06F5FEB
:103F1000671720F7262F30E0F901EE0FFF1FE20FA1
:103F2000F31FE80FF91F4181528117962D913C91A3
:103F300018974217530759F712821182F8017581B9
:103F4000E6CFF801C084D184F601878190859287FD
:103F500081876785C8010E94081E9A838983B601FC
:103F6000695F7F4F22E030E0AE014F5F5F4FF801A5
:103F7000808591850E94B628B1CFF801C084D18494
:103F8000F6018781908592878187678570E0C801F7
:103F90000E94A51EE2CFEF92FF920F931F93CF9343
:103FA000DF93CDB7DEB728970FB6F894DEBF0FBE0C
:103FB000CDBF8C01FC01808191818432994009F44C
:103FC0003FC053E0F52E62E8E62E06C0F80180817E
:103FD000918184329940A1F1C8010E94461FF801E5
:103FE000868197810E94110D81113DC0F801808565
:103FF0009185FC0122A520FD36C01C821B822091E8
:10400000240130912501A9014F5F5F4F5093250195
:10401000409324013E832D83EF8220E030E040E096
:1040200050E0BE016F5F7F4F0E94B62881111BC018
:1040300067E670E080E090E00E943929FA9431F65A
:10404000F801868197810E946B0C80E028960FB65C
:10405000F894DEBF0FBECDBFDF91CF911F910F91BE
:10406000FF90EF90089581E0F1CF6F927F928F9251
:104070009F92AF92BF92CF92DF92EF92FF920F93F7
:104080001F93CF93DF93CDB7DEB760970FB6F89449
:10409000DEBF0FBECDBF7C0180E490E09C878B87A4
:1040A00080912401909125019C012F5F3F4F309317
:1040B0002501209324019E878D8782EC8F87062F10
:1040C00020E030E040E050E0BE01675F7F4FD70165
:1040D00018968D919C9119970E9488280E94092911
:1040E0004B015C01D12C0EC00E9409296819790985
:1040F0008A099B09683371058105910510F5B3E0C4
:10410000BD1510F1F701808591850E94ED25823C57
:1041100059F7ED2DF0E0EE0FFF1F81E090E08C0FDE
:104120009D1FE80FF91FD70118968D919C91199743
:10413000DC0117968D919C91189791838083D3947D
:10414000D3CFDD2009F44AC0712CC12C73EC672E4B
:104150006F86F7018281888BE72DF0E0EE0FFF1F5D
:1041600081E090E08C0F9D1FE80FF91F0081118105
:104170001C870B8720E030E040E050E0BE01675F25
:104180007F4FD70118968D919C9119970E948D278A
:104190000E9409294B015C0109C0F70180859185C6
:1041A0000E94ED25C82EF0E88F1779F10E940929A9
:1041B000681979098A099B09613E71058105910594
:1041C00060F365E070E080E090E00E94392973942C
:1041D0007D1408F4BDCF80E8C816C9F010E0812F27
:1041E00060960FB6F894DEBF0FBECDBFDF91CF91C2
:1041F0001F910F91FF90EF90DF90CF90BF90AF9005
:104200009F908F907F906F9008957D2CDACFD7018B
:104210001896ED91FC911997878590890097F1F296
:10422000368512962C913213D9CFD70111969C93D3
:104230008E9316968D919C9117970E946B0C6AE055
:1042400070E080E090E00E943929F70140815181BF
:104250006FEF808591850E941E241C861B8681E855
:104260008F8707E006C063E070E080E090E00E9486
:10427000392920E030E040E050E0BE01675F7F4F29
:10428000F701808591850E94B628182F8111A7CF4C
:10429000015049F744E259E06FEFF70180859185BD
:1042A0000E941E2424E239E0D7012D933C9397CF3E
:1042B0007F928F929F92AF92BF92CF92DF92EF92B6
:1042C000FF920F931F93CF93DF93EC016A017B0161
:1042D0008E819F810E94D70D882381F080E090E03D
:1042E000DF91CF911F910F91FF90EF90DF90CF90D2
:1042F000BF90AF909F908F907F9008958E819F8107
:104300000E946B0CE885F98582A5826082A76AE02D
:1043100070E080E090E00E94392944E259E06FEFBC
:10432000888599850E941E2484E299E09983888378
:104330000E9409294B015C01712C10E00DEC32C088
:104340000E940929681979098A099B09C616D706A6
:10435000E806F90618F2272D30E02F5F3F4F812F36
:1043600090E00196289FB001299F700D389F700D35
:104370001124675E7F4F660F771F882777FD809532
:10438000982F0E9439291F5F137081E0870D809F4D
:10439000712C11247694769476949AE0799E801903
:1043A0001124782E612FCE010E943520882341F2FE
:1043B000E885F98582A58D7F82A78881998190CF34
:1043C0008F929F92AF92BF92CF92DF92EF92FF9225
:1043D0000F931F93CF93DF931F92CDB7DEB74C019E
:1043E0005A0168017901FC018681978169830E94E5
:1043F000A70FF401828169818823D9F184E299E0D1
:1044000091838083F401638B868197810E94640C81
:10441000B501F401868197810E94640FF4018085C3
:10442000918521E0FC0121A7F40122812223B9F02A
:10443000B701A601C4010E94582121E0892BB9F0DF
:10444000822F0F90DF91CF911F910F91FF90EF90EE
:10445000DF90CF90BF90AF909F908F900895F40120
:10446000408151816FEF0E941E2421E0E9CF20E0BE
:10447000E7CF86E090E069830E945930F40194838D
:1044800083831582118210826981BCCFFC01628313
:104490000895FC0170AB67A7C59697AB86ABDF01AB
:1044A000AE5BBF4F0F968D939C930C9790A787A3FD
:1044B0000895CF92DF92EF92FF920F931F93CF93C5
:1044C000DF93EC017B010CA910E008501109FB01FE
:1044D00046818CE6840F833078F0483CB1F0433855
:1044E00009F48BC080E0DF91CF911F910F91FF9075
:1044F000EF90DF90CF900895443909F443C08BE6E4
:10450000840F823010F0483C69F76E0150E4C50E0C
:10451000D11CF601808191819801280F391F213922
:10452000310508F080C02FAD2223E1F2463921F099
:10453000F70137812313D6CF4CAD5DADF701248150
:1045400035814217530771F6FE01EE5BFF4F208164
:104550003181A801BE01615F7F4F820F931F0E94CE
:104560008031F60180819181800F911F918380833A
:10457000F7018681863909F46BC08FAD81508FAF0A
:1045800081E0B1CFF70167816B3908F04CC02CADE9
:104590003DADF701848195812817390709F44EC094
:1045A000F8E16F9F900111248EA99FA9AE01481BCD
:1045B000590BCA018B539F4F82179307BCF1DE0141
:1045C000D896FE01379688E001900D928A95E1F722
:1045D000FE01EE5BFF4FBE01615F7F4FA80180814E
:1045E00091810E948031FE01E05CFF4F11830083C6
:1045F0008FAD81508FAF81E076CFDE01D896FE017E
:10460000379688E001900D928A95E1F7FE01EE5B06
:10461000FF4FCE010F9691838083C05CDF4F1983DB
:10462000088382E060CF1FAE80E05DCF8AA5816005
:104630008AA78FA598A90E946B0CC1CF48AD59AD30
:10464000808191814817590709F0AACF81E04BCFAB
:104650001FAEF70187818EAF833809F043CF82E028
:1046600042CF0F931F93CF93FB01DC01AC52BF4F9E
:104670002D913C9111971296CC914281423068F075
:104680002081318181E08383C0E031832083C28334
:1046900081E0CF911F910F91089540815181DC01FC
:1046A000A952BF4F6D917C918A0106231723DC012B
:1046B000D2968D919C91D3970817190731F7CB01AA
:1046C00080959095880F991F880F991F880F991FC3
:1046D00084239523892B51F49A01C5E031832083EB
:1046E000C28381E0CF911F910F9108959B01220F0A
:1046F000331F220F331F220F331F2760242335233C
:10470000C5E0C3CFDC01D2962D913C91D397211502
:104710003105E1F1E0E04FEF5FEF440F551F440F2B
:10472000551F440F551FEF5FB90164237523672B95
:10473000A1F7DC01D196EC9340955095FC01E9522C
:10474000FF4F51834083569547955695479556950B
:1047500047953397BA0162237323718360834115B0
:10476000510579F0369527953695279536952795F5
:104770005695479556954795569547954115510538
:1047800089F7FC01EA52FF4F20830895FC0111AA2A
:10479000E952FF4F11821082339711821082F1CFBC
:1047A000CF93DF93CDB7DEB728970FB6F894DEBF6F
:1047B0000FBECDBF2CEC29832A832B832C832D8322
:1047C0001E821F821886009711F121E0662369F08E
:1047D000FC01E770FF27E654FD4F3081E1E0F0E097
:1047E000EC0FFD1FE20FF11D30839695879596958E
:1047F0008795969587952F5F009741F7611107C0C0
:10480000E22FF0E0E754FD4F80818A8306C0E62F57
:10481000F0E0E654FD4F8081898329813A814B8104
:104820005C816D817E818F81988528960FB6F89482
:10483000DEBF0FBECDBFDF91CF910895BF92CF9263
:10484000DF92EF92FF920F931F93CF93DF93EC01D0
:104850006A0141155105A1F0842F8770863008F058
:1048600076C0CA0105C0282F2770263008F06FC017
:10487000969587959695879596958795009799F73C
:10488000DBAACAAA8FA598A9FC0120812F3F09F4B1
:104890005EC0FC0121812F3F09F459C06F3F21F018
:1048A0000E94640C8FA598A940E060E00E942F0F41
:1048B0008FA598A90E94140FEAA9FBA99F01ABEA52
:1048C000BAEA0E9415309695879596958795AC0122
:1048D000440F551F480F591F440F551FE41BF50B7C
:1048E0006E2F660F6B5F45E08FA598A90E941E1082
:1048F00009E110E020E030E009831A832B833C8338
:104900008BE490E09E838D83CE010E94822395E00C
:10491000B92E6B2DC6010E94D02379018A019B011B
:10492000AC016B2D8FA598A90E94220EBA94FFEFBF
:10493000BF12EFCF8FA598A9DF91CF911F910F9153
:10494000FF90EF90DF90CF90BF900C94BB0EDF9163
:10495000CF911F910F91FF90EF90DF90CF90BF907C
:1049600008959F92AF92BF92CF92DF92EF92FF9203
:104970000F931F93CF93DF93EC01CB01F22E642FA3
:104980000E94D0238901B42E952ED62EA72EE82E74
:10499000C92E8AA582FF43C0FF20D1F140E060E02C
:1049A0008FA598A90E942F0F2B2D392D4D2D5A2DF3
:1049B0006E2D7C2D8FA598A90E94E70D2F2D4CA957
:1049C000BE01695F7F4F8FA598A90E94DB0CF82E6E
:1049D0008AA582FD10C049815A816B817C8120E0CB
:1049E0008FA598A90E94170DF82E40E060E08FA5D2
:1049F00098A90E942F0F8F2DDF91CF911F910F91BA
:104A0000FF90EF90DF90CF90BF90AF909F90089570
:104A100041E060E08FA598A90E942F0FC5CF8FA518
:104A200098A90E946B0CB8CF7F928F929F92AF9201
:104A3000BF92CF92DF92EF92FF920F931F93CF938B
:104A4000DF9300D000D0CDB7DEB78C017B01D42E30
:104A5000FC01358561157105A1F0862F87708630C0
:104A600008F048C0CB0105C0282F2770263008F079
:104A700041C09695879596958795969587950097C9
:104A800099F73154CC24C3943F3790F519821A8298
:104A90001B821C82FA82E982DB82BE016F5F7F4F3C
:104AA000C8010E94312369817A812C814B81C80120
:104AB0000E94B124782EF1E0DF16F1F0711041C0B0
:104AC000712CF80182A582FF6EC0872D0F900F9088
:104AD0000F900F90DF91CF911F910F91FF90EF906A
:104AE000DF90CF90BF90AF909F908F907F90089570
:104AF000C12CCCCF80E0EACF772011F389819A8155
:104B00008E159F05F1F6CC20E1F281ECF801858746
:104B100087819085928781879A838983DB821C8233
:104B2000BE016F5F7F4FC8010E94312388E0F8010A
:104B300084AB69817A812C814B81C8010E94B124A8
:104B4000C0CF89819A818E159F0509F4BACFDD20E7
:104B500019F0F3E0DF12B5CFCC2009F4B2CFF801A1
:104B600082A582FD26C0F80187A590A90E94BB0EF0
:104B70000E9409294B015C01C8010E94ED25813C7E
:104B800009F49FCF0E940929681979098A099B09AC
:104B9000F801C580D680E12CF12CC616D706E806B0
:104BA000F90650F78DCF87A590A90E94BB0E872DDF
:104BB0008DCF418152816381748120E087A590A9C6
:104BC0000E94170DF80182A58B7F82A740E060E06C
:104BD00087A590A90E942F0FC6CF7F928F929F9298
:104BE000AF92BF92CF92DF92EF92FF920F931F93FB
:104BF000CF93DF931F92CDB7DEB78C01DC019A967D
:104C00006C9161FD10C060FF17C1DC01D6962D913B
:104C10003C91D797C5968217930708F43FC06E7FE3
:104C2000D8019A966C937801B7E0EB0EF11CA4E2E0
:104C30008A2EA9E09A2E5801E6EDAE0EB11CCC24C6
:104C4000C394D12CD8019F96ED91FC91D09780818F
:104C50008F3F21F181818F3F09F1BE016F5F7F4F4F
:104C6000CF010E94AD0D8823C9F0F80187A590A956
:104C70000E94820D482FD801D4968C938830F0F48E
:104C80006AE070E080E090E00E943929D8019F96A8
:104C9000ED91FC91D09780818F3FE1F680E00F90FD
:104CA000DF91CF911F910F91FF90EF90DF90CF9008
:104CB000BF90AF909F908F907F900895B701F801BB
:104CC00087A590A90E94DB0DD80119966D917C9162
:104CD0001A976115710509F44CC0862F87708630CC
:104CE00008F0B0CFCB0105C0282F2770263008F080
:104CF000A9CF9695879596958795969587950097D0
:104D000099F7D8011D962C911D97D2968D919C9163
:104D1000D39768177907E1F160347105A1F5223C5A
:104D200009F04FC0F80122A523FD8CCF8432F9E0B1
:104D30009F0709F487CFD80117962D913C911897BA
:104D40001A963C932E93199718969C938E931797C7
:104D5000F501608170E080E090E00E943929D8017F
:104D600019966D917C911A9742E0C8010E94142512
:104D700069CFD8011D962C911D97D2968D919C914B
:104D8000D397892B29F041E0C8010E9414255ACFFE
:104D9000223809F457CF203809F45AC0233C09F4CB
:104DA00068C0D80199968C91882311F127FD24C001
:104DB000B701C8010E945922823009F043CF83E82D
:104DC0006ECFB701C8010E945922782EF801808168
:104DD000882349F021A9211119C060E070E044E066
:104DE000C8010E94142592E079122CCF83E857CF96
:104DF000213CF1F681EC53CF8CE6820F8330C0F278
:104E0000283CB1F22338A1F2822F49CF30E0215063
:104E10003109B901660F771F620F731FC60102C007
:104E2000880F991F6A95E2F7BC01660F771F660F1E
:104E3000771F660F771FD3CFFC0126A937A9C59628
:104E4000A901481B590B493751050CF4ECCEE3CEB0
:104E50006432794089F0F8019286818642E064E20A
:104E600079E0C8010E9414256AE070E080E090E0DB
:104E700074CF6115710529F4F80181A5811196CFD0
:104E800097CFF801708767831286118640E060E053
:104E900070E0C8010E941425D5CEEF92FF920F93C7
:104EA0001F93CF93DF93EC017B01BA018AA99BA9E1
:104EB000F70191838083DE01179688E001900D92BF
:104EC0008A95E1F721153105C9F4F7010833110579
:104ED000F1F08281938180349105E9F043E0081775
:104EE000190751F0B801CE01DF91CF911F910F91B9
:104EF000FF90EF900C94142542E0F4CFA901CE016D
:104F00000F960E948031F7010833110511F7628175
:104F1000738140E0E8CF44E0E2CF2F923F924F927E
:104F20005F926F927F928F929F92AF92BF92CF9239
:104F3000DF92EF92FF920F931F93CF93DF93EC01D9
:104F40007B015A016901480105C0CE010E94ED258F
:104F500087FD0FC00E9409294BA45CA46DA47EA408
:104F600064197509860997096931710581059105EB
:104F700060F388EC90E00E94722989E1C816D104A0
:104F800008F49CC0E1E9CE16D10408F067C0960190
:104F9000ABEABAEA0E941530929582958F70892704
:104FA0009F7089279C01220F331F280F391F220F62
:104FB000331F220F331F220F331F41E0C216D306C7
:104FC00009F440E09601ABEABAEA0E9415309295E6
:104FD00082958F7089279F708927742E780EF7012C
:104FE000828193818034910539F08AA584608AA7F3
:104FF0008FA598A90E946B0CF7012680512C612C7B
:1050000015E9412E04E9302E1FC03682F8E16F9E6B
:10501000A00111249601241B350B2931310510F014
:1050200028E130E088E0820F8CAB4A0D5B1D8401E3
:10503000B701CE010E944D27182F882319F17A94C9
:105040006394512C772041F1F7017782F1E07F16CC
:1050500081F1F7016620C9F24682D8CF80E0DF9166
:10506000CF911F910F91FF90EF90DF90CF90BF9065
:10507000AF909F908F907F906F905F904F903F90F8
:105080002F90089562E070E080E090E00E9439295E
:10509000539482E08515B0F6F70126828AA582FD39
:1050A00021C08B7F8AA71123C9F2711013C081E040
:1050B000D6CF86E9F70186832782A8CF88E08C0DBA
:1050C0008CAB84019601A501B701CE010E944D274A
:1050D0008111EDCF0E9409296BA77CA78DA79EA700
:1050E00080E0BDCF49815A816B817C8120E08FA512
:1050F00098A90E94170D182F8FA598A90E94BB0E82
:1051000040E060E08FA598A90E942F0F8AA5C9CF23
:105110000F931F93E0E4F0E0DB011396FC93EE9312
:105120001297DC01D296ED91FC91D397DB01ED93C0
:10513000FC930023A1F010E001501109F801EE0FDB
:10514000FF1FE00FF11F01E010E002C0000F111F70
:10515000EA95E2F70E948D271F910F91089500E0D4
:1051600010E00E948D271F910F9108950F931F93B8
:1051700008E310E00E948D271F910F9108951F9260
:105180000F920FB60F9211242F933F938F939F93FB
:10519000AF93BF938091500590915105A091520516
:1051A000B091530530914F0523E0230F2D3768F15F
:1051B00026E8230F0296A11DB11D20934F05809371
:1051C000500590935105A0935205B09353058091DB
:1051D000540590915505A0915605B091570501963B
:1051E000A11DB11D8093540590935505A0935605BC
:1051F000B0935705BF91AF919F918F913F912F91A0
:105200000F900FBE0F901F9018950196A11DB11D14
:10521000D4CF2FB7F89460915005709151058091CB
:105220005205909153052FBF08953FB7F894809190
:10523000540590915505A0915605B091570526B596
:10524000A89B05C02F3F19F00196A11DB11D3FBFBE
:105250006627782F892F9A2F620F711D811D911D4E
:10526000660F771F881F991F660F771F881F991F6A
:1052700008958F929F92AF92BF92CF92DF92EF925A
:10528000FF926B017C010E9415294B015C01C11446
:10529000D104E104F104E9F00E94C1160E9415292D
:1052A000681979098A099B09683E7340810591054F
:1052B00070F321E0C21AD108E108F10888EE880EE7
:1052C00083E0981EA11CB11CC114D104E104F104B7
:1052D00029F7FF90EF90DF90CF90BF90AF909F9015
:1052E0008F9008958230910538F0880F991F880FAC
:1052F000991F05970197F1F70895789484B5826016
:1053000084BD84B5816084BD85B5826085BD85B569
:10531000816085BDEEE6F0E0808181608083E1E818
:10532000F0E0108280818260808380818160808350
:10533000E0E8F0E0808181608083E1EBF0E0808153
:1053400084608083E0EBF0E0808181608083EAE725
:10535000F0E08081846080838081826080838081AE
:10536000816080838081806880831092C10008956D
:105370008330E9F038F0873069F0883011F18430FB
:1053800079F008958130C9F0823081F484B58F7D41
:1053900084BD08958091B0008F778093B000089508
:1053A000809180008F7D8093800008950895809182
:1053B00080008F7780938000089584B58F7784BDB7
:1053C00008958091B0008F7D8093B0000895CF93B1
:1053D000DF9390E0FC01EE5EFC4F2491FC01EA5D5E
:1053E000FC4F84918823B9F090E0880F991FFC014D
:1053F000E25BFC4FA591B4918C5B9C4FFC01C59185
:10540000D4919FB7662351F06230A1F0F8948C914B
:10541000822B8C939FBFDF91CF910895F8948C914C
:10542000209582238C938881822388839FBFDF917C
:10543000CF910895F8948C91322F309583238C93DB
:105440008881822B88839FBFE6CF0F931F93CF93D2
:10545000DF931F92CDB7DEB7282F30E0F901E2507D
:10546000FD4F8491F901EE5EFC4F0491F901EA5D74
:10547000FC4F1491112399F081111BC0E12FF0E032
:10548000EE0FFF1FEC5BFC4FA591B4918FB7F89422
:105490009C9161110AC0009590239C938FBF0F903F
:1054A000DF91CF911F910F910895902B9C938FBF07
:1054B000F6CF69830E94B8296981E0CFFC01818D14
:1054C000228D90E0805C9F4F821B91098F739927FA
:1054D0000895FC01918D828D981731F0828DE80F2F
:1054E000F11D858D90E008958FEF9FEF0895FC01E9
:1054F000918D828D981761F0828DDF01A80FB11D0B
:105500005D968C91928D9F5F9F73928F90E008952E
:105510008FEF9FEF089581E09CE2892B49F080E0B6
:1055200090E0892B29F00E94012C81110C9400003D
:105530000895FC01848DDF01A80FB11DA35ABF4F50
:105540002C91848D90E001968F739927848FA68982
:10555000B7892C93A089B1898C9180648C93938DA9
:10556000848D981308950288F389E02D80818F7DC2
:1055700080830895CF93DF93EC01888D8823B9F061
:10558000EA89FB89A889B989808185FF0DC00FB69A
:1055900007FCFACF808185FFF7CF8C9185FFF4CF90
:1055A000CE010E94992AECCF8C9186FFF0CFDF913B
:1055B000CF910895CF92DF92FF920F931F93CF93D5
:1055C000DF931F92CDB7DEB76C0181E0D60158960C
:1055D0008C9358975B969C915B975C968C915C97AB
:1055E0009817D1F1F601038D10E00F5F1F4F0F7375
:1055F0001127F02E03C00FB607FE20C0F601848DE0
:10560000F816C9F3838DE80FF11DE35AFF4F60834D
:10561000D6015B960C935B975296ED91FC91539754
:1056200080818062808381E090E00F90DF91CF9154
:105630001F910F91FF90DF90CF900895D601509663
:10564000ED91FC915197808185FFD8CFC601698388
:105650000E94992A6981D2CF5096ED91FC91519781
:10566000808185FFBFCFD6015696ED91FC9157976B
:1056700060835096ED91FC91519780818064808386
:10568000D2CFBF92CF92DF92EF92FF920F931F93F0
:10569000CF93DF93EC016A017B01B22EE889F9898F
:1056A00082E08083411581EE580761057105A9F0FC
:1056B00060E079E08DE390E0A70196010E94ED2F74
:1056C000215031094109510956954795379527953C
:1056D0008901211580E13807A0F0E889F989108255
:1056E00060E874E88EE190E0A70196010E94ED2F3A
:1056F000215031094109510956954795379527950C
:105700008901EC85FD851083EE85FF850083188E69
:10571000EC89FD89B082EA89FB8980818061808380
:10572000EA89FB89808188608083EA89FB8980819E
:1057300080688083EA89FB8980818F7D8083DF9107
:10574000CF911F910F91FF90EF90DF90CF90BF907E
:1057500008951F920F920FB60F9211242F938F93DB
:105760009F93EF93FF93E0916805F0916905808125
:10577000E0916E05F0916F0582FD1BC02081809144
:1057800071058F5F8F7390917205891741F0E091D9
:105790007105F0E0E85AFA4F258F80937105FF916B
:1057A000EF919F918F912F910F900FBE0F901F90AF
:1057B00018958081F4CF1F920F920FB60F9211248B
:1057C0002F933F934F935F936F937F938F939F9309
:1057D000AF93BF93EF93FF9388E595E00E94992ADA
:1057E000FF91EF91BF91AF919F918F917F916F91B9
:1057F0005F914F913F912F910F900FBE0F901F908F
:10580000189588E595E00E945E2A21E0892B09F42D
:1058100020E0822F089510925B0510925A0588EEC1
:1058200093E0A0E0B0E080935C0590935D05A093C9
:105830005E05B0935F0585EC92E0909359058093E7
:10584000580585EC90E0909365058093640584ECA1
:1058500090E0909367058093660580EC90E09093CC
:1058600069058093680581EC90E090936B058093C7
:105870006A0582EC90E090936D0580936C0586EC50
:1058800090E090936F0580936E05109271051092D1
:10589000720510927305109274050895AF92BF922D
:1058A000CF92DF92EF92FF920F931F93CF93DF93EC
:1058B0005C018B01C0E0D0E0E12CF12CF501EC0F94
:1058C000FD1F4AE050E06281C8010E945D2E6C011C
:1058D0006EE2C8010E94302D8C0D9D1DE80EF91E50
:1058E0002196C330D10551F74AE050E0F5016581BA
:1058F000C8010E945D2E8E0D9F1DDF91CF911F91DB
:105900000F91FF90EF90DF90CF90BF90AF900895F0
:1059100025ED32E0FC013183208312821382148250
:10592000158208950F93FC0185ED92E091838083A9
:1059300062834383248305830F91089585ED92E06C
:105940009093F6058093F5051092F7051092F805EF
:105950001092F9051092FA05089508950E947D2984
:105960000E94AD2C0E94FF020E942B048BE89AE259
:10597000892B29F00E948B2A0E942B04FBCF0E94C6
:105980002B040E942B04FBCFCF92DF92EF92FF9269
:105990000F931F93CF93DF937C016A01411551054B
:1059A000F9F08B01C0E0D0E004C02196CC16DD06F2
:1059B00069F0D8016D918D01D701ED91FC910190B5
:1059C000F081E02DC7010995892B79F7CE01DF9190
:1059D000CF911F910F91FF90EF90DF90CF9008959E
:1059E000C0E0D0E0F3CFEF92FF920F931F93CF93DD
:1059F000DF938C017B01FB016491C0E0D0E0611179
:105A000008C010C02196FE01EE0DFF1D64916623B3
:105A100049F0F801A081B181ED91FC91C80109958F
:105A2000892B81F7CE01DF91CF911F910F91FF90CC
:105A3000EF9008956115710581F0DB010D90002054
:105A4000E9F7AD0141505109461B570BDC01ED91BF
:105A5000FC910280F381E02D099480E090E00895AC
:105A6000DC01ED91FC910190F081E02D09940F9300
:105A70001F93CF93DF93EC010E94F32C8C01E881FC
:105A8000F9810280F381E02D42E050E065E572E0AB
:105A9000CE010995800F911FDF91CF911F910F913A
:105AA0000895DC01ED91FC910280F381E02D42E04C
:105AB00050E065E572E009940F931F93CF93DF9355
:105AC000EC016115710511F1FB0101900020E9F76E
:105AD000AF0141505109461B570BE881F981028003
