:100000000C942A020C9452020C9452020C94520248
:100010000C9452020C9452020C9452020C94520210
:100020000C9452020C9452020C9452020C94520200
:100030000C9452020C9452020C9452020C945202F0
:100040000C94ED1A0C9452020C94EB190C94C519F3
:100050000C9452020C9452020C9452020C945202D0
:100060000C9452020C945202E115F71701160E1768
:1000700037175617601702174572726F723A20755C
:100080006E61626C6520746F20636F6D6D756E6953
:100090006361746520776974682073656E736F722D
:1000A000200054656D7065726174757265207265AB
:1000B00071756573742072656365697665643B204C
:1000C000726573706F6E64696E672E2E2E00005E0F
:1000D000BCE2613FDD83C29C7E20A3FD1F419DC326
:1000E000217FFCA2401E5F01E3BD3E6082DC237DD8
:1000F0009FC1421CFEA0E1BF5D0380DE3C62BEE00A
:10010000025CDF81633D7C22C09E1D43A1FF461837
:10011000FAA427799BC584DA3866E5BB5907DB85E5
:100120006739BAE406581947A5FB7826C49A653B97
:10013000D987045AB8E6A7F91B45C6987A24F8A6C9
:10014000441A99C7257B3A6486D85B05E7B98CD2F7
:10015000306EEDB3510F4E10F2AC2F7193CD114FA5
:10016000ADF3702ECC92D38D6F31B2EC0E50AFF157
:10017000134DCE90722C6D33D18F0C52B0EE326C89
:100180008ED0530DEFB1F0AE4C1291CF2D73CA94B7
:100190007628ABF517490856B4EA6937D58B570965
:1001A000EBB536688AD495CB2977F4AA4816E9B717
:1001B000550B88D6346A2B7597C94A14F6A8742A49
:1001C000C896154BA9F7B6E80A54D7896B350001D4
:1001D000020304051112131415160A0B0C0D0E0F51
:1001E0000000000023002600290004040404040485
:1001F00004040202020202020303030303030102D6
:1002000004081020408001020408102001020408A4
:10021000102000000000250028002B00000000082E
:1002200000020100000304070000000000000000BD
:1002300000000000240027002A00300020627574AE
:1002400020636F756C64206E6F74206465746563E1
:100250007420616464726573732E20436865636BF8
:1002600020706F77657220616E64206361626C69D3
:100270006E6700466F756E642067686F73742064E4
:10028000657669636520617420004572726F722023
:10029000696E2073657474696E672074656D702073
:1002A000707265636973696F6E3B20726571756505
:1002B0007374656400207769746820616464726592
:1002C00073733A2000466F756E64206465766963C7
:1002D000652000204F6E65576972652064657669F8
:1002E0006365732E00466F756E642000496E7469F5
:1002F000616C697A696E672074656D70657261748E
:100300007572652073656E736F72732E2E2E006486
:100310006F6E652E004572726F723A20756E616263
:100320006C6520746F20696E7469616C697A6520F0
:100330006D6573683B207265747279696E672E2EE5
:100340002E00496E697469616C697A696E67207202
:100350006164696F2E2E2E0000407A10F35A00A0BF
:10036000724E18090010A5D4E80000E8764817007E
:1003700000E40B54020000CA9A3B000000E1F505BE
:10038000000080969800000040420F000000A08608
:1003900001000000102700000000E803000000003A
:1003A0006400000000000A000000000001000000DE
:1003B00000002C76D888DC674F0823DFC1DFAE59F8
:1003C000E1B1B796E5E3E453C63AE651997696E88B
:1003D000E6C28426EB898C9B62ED407C6FFCEFBC0F
:1003E0009C9F40F2BAA56FA5F490055A2AF75C933A
:1003F0006B6CF9676DC11BFCE0E40D47FEF520E670
:10040000B500D0ED902E0300943577050080841E52
:10041000080000204E0A000000C80C333333330FAD
:10042000986E12831141EF8D2114893BE65516CF4A
:10043000FEE6DB18D1844B381BF77C1D901DA4BB56
:10044000E424203284725E228100C9F124ECA1E50B
:100450003D277E2011241FBECFEFD8E0DEBFCDBFE9
:1004600012E0A0E0B1E0ECE3F4E502C005900D92EB
:10047000A43EB107D9F726E0A4EEB2E001C01D9278
:10048000A633B207E1F712E0CAE2D2E004C0219736
:10049000FE010E94D425C932D107C9F70E94FF216D
:1004A0000C941C2A0C940000CF93DF93EC01E8819C
:1004B000F9810688F789E02D0995882339F0EC85C4
:1004C000FD851182EA51FF4F11821082DF91CF9199
:1004D0000895CF93DF93EC01E881F9810480F581E1
:1004E000E02D0995892B71F0EC85FD85DF01AC517C
:1004F000BF4F8D919C91E80FF91FE358FF4F80810A
:1005000090E002C08FEF9FEFDF91CF910895CF93DE
:10051000DF931F92CDB7DEB7DC01ED91FC9100882F
:10052000F189E02D41E050E0BE016F5F7F4F0995FA
:1005300097FD03C0898190E002C08FEF9FEF0F907D
:10054000DF91CF910895FC014485558541155105F2
:1005500051F0FB01248535852115310521F081E01D
:100560004217530709F080E0089580E090E0089575
:1005700080E090E00895DC011C96ED91FC911D97C0
:10058000309739F08181811106C080818295817018
:10059000089580E0089581E00895DC01ED91FC91DB
:1005A000008CF18DE02D099591E08927089508953B
:1005B000CF92DF92EF92FF920F931F93CF93DF932F
:1005C00000D0CDB7DEB78C017B01DC01ED91FC9151
:1005D0000688F789E02D49835A83099549815A8114
:1005E000882309F46CC0F801A485B58511968C9117
:1005F0001197882309F463C0FD01EA51FF4F808100
:1006000091816A018C159D0508F46C01FD01EC5186
:10061000FF4F2081318123583F4FBD01620F731F6F
:10062000A601C7010E944727D8011C96ED91FC91B5
:100630001D97DF01AA51BF4F8D919C9111978C1985
:100640009D0911969C938E9312972D913C91119731
:100650002C0D3D1D11963C932E93892B71F5118223
:100660001D921C928081A82FAF709EE1A99FD0019E
:100670001124A35FB94F59969C9194FF0EC0982FF7
:10068000907659F480688083D8011C96ED91FC9196
:100690001D971286138614861586D8011C96ED9137
:1006A000FC911D978181811108C0808186FF05C062
:1006B00010821D961C921E921C97C60102C08FEFDD
:1006C0009FEF0F900F90DF91CF911F910F91FF90AF
:1006D000EF90DF90CF900895CF92DF92EF92FF924C
:1006E0000F931F938091A5039091A6030E9414116C
:1006F000833869F4E091A503F091A60307A0F0A563
:10070000E02D808591859093ED058093EC05809197
:10071000EC059091ED05892B89F081E00E94B912DA
:100720008091EC059091ED05892BD9F11F910F91E6
:10073000FF90EF90DF90CF900C940A180E94E11A7E
:10074000C090AA03D090AB03E090AC03F090AD034F
:100750000091AE031091AF032091B0033091B1032B
:10076000AB01BC014C195D096E097F0940175107A7
:1007700062077307B0F0D901C8018C0D9D1DAE1D35
:10078000BF1D8093AA039093AB03A093AC03B093D7
:10079000AD038DE096E09093F4058093F30582E03D
:1007A000BDCF1F910F91FF90EF90DF90CF900895F4
:1007B000CF93DF93EC010E946C03E881F9810688F6
:1007C000F789E02DCE010995882351F0EC85FD8550
:1007D0008181882329F0EA51FF4F8081918102C0F5
:1007E00080E090E0DF91CF910895CF93DF93EC010B
:1007F0000E946C03EC85FD85309729F0808186FF8F
:1008000004C0818103C080E001C081E0DF91CF910D
:100810000895CF93DF93DC011C96ED91FC911D9719
:10082000309779F09081992361F01182EF01CA51DC
:10083000DF4F1982188296FF02C0108202C09062B8
:1008400090831D961C921E921C97DF91CF910C9461
:100850006C030F931F93CF93DF93E091F305F09117
:10086000F405C48DD58D8091EE05209701F586FFA6
:100870006BC190910005911167C190E190930005C3
:1008800010920105109202051092E7051092E605FC
:100890001092E5051092E4051092040510920305EC
:1008A0001092E80520E035E0358F248FE90181FFC3
:1008B0004FC0DE01A751BF4F8C91882331F01A82BF
:1008C00019861C821B8211971C928091EC059091D5
:1008D000ED05892B09F4ECC08881807609F0E8C029
:1008E000818D8061818F88818F77888319860E94AE
:1008F000E11A6A877B878C879D876A8B7B8B8C8BC1
:100900009D8B8E010A511F4FF80120813181329752
:1009100080819181820F931F83589F4F6091F105D1
:100920007091F2054091EC055091ED058C0F9D1FE3
:100930000E9447272091EC053091ED05F801808158
:100940009181820F931F9183808381E08983B0C05E
:1009500084FD04C087FD02C085FF10C01A82898112
:10096000882341F0848195819B838A838881806478
:10097000888301C01882158E148E9AC080FF15C01E
:1009800088818F7788831A8219861C821B82FE01D8
:10099000E851FF4F10820E94E11A6A877B878C879B
:1009A0009D876A8B7B8B8C8B9D8B8091EE058C70E9
:1009B00009F466C08A81882309F14B815C815093D8
:1009C000ED054093EC05BE016A5E7F4F5093EB0549
:1009D0004093EA05141615064CF48091EF059091AA
:1009E000F0056817790711F00E94472781E0FE01A2
:1009F000E851FF4F8083319680835AC08881982FB9
:100A00009076F1F599859923D9F187FF39C00E9435
:100A1000E11A0A851B852C853D85DC01CB01801BF5
:100A2000910BA20BB30B0E851F85288939890817F6
:100A300019072A073B0708F465C022C08E859F85E9
:100A4000A889B9898C509E4FAF4FBF4F8935FBE1C4
:100A50009F07A105B10520F088E59BE1A0E0B0E08B
:100A60008E879F87A88BB98B8091EE0582608093DB
:100A7000EE05E091F305F091F405818D8F7E818F75
:100A8000888185FF15C08A8181110BC01882E09191
:100A9000F305F091F405158E148E80E18093EE0538
:100AA00007C0E091F305F091F405818D8061818F9D
:100AB000888187FF49C09985911146C0807609F0E9
:100AC00043C08091EE0582608093EE05E091F305CE
:100AD000F091F405818D8F7E818F81E089878EE191
:100AE00094E1A0E0B0E08E879F87A88BB98B0E942D
:100AF000E11A6A8B7B8B8C8B9D8B6A877B878C87BB
:100B00009D8722C00E94E11A6A877B878C879D8718
:100B10000E94E11A0A891B892C893D89DC01CB01DD
:100B2000801B910BA20BB30B80339547A105B10538
:100B300008F484CF19861882E091F305F091F4054A
:100B4000158E148E80E2AACFDF91CF911F910F9165
:100B500008957F928F929F92AF92BF92CF92DF9231
:100B6000EF92FF920F931F93CF93DF93EC016B01F2
:100B70007A018A014836510510F007E610E00E941C
:100B8000E11A812C912C5E01E8EEAE0EB11C7724A7
:100B900073940E946C03209781F18881982F90763E
:100BA00061F584FF2AC08B819C819801280F391F31
:100BB0002836310570F7F50120812111EACF4696DC
:100BC000B601680D791DA8018C0F9D1F0E94472753
:100BD0007A828B819C81800F911F9C838B83800EF6
:100BE000911E8E149F0470F48701081919090836A4
:100BF000110578F207E610E0CCCFC851DF4F18821C
:100C00008FEF9FEFDF91CF911F910F91FF90EF90AA
:100C1000DF90CF90BF90AF909F908F907F9008957E
:100C2000FC01848595850C94A905CF93DF931F92D1
:100C3000CDB7DEB7698341E050E0BE016F5F7F4F03
:100C4000FC01848595850E94A9050F90DF91CF91C5
:100C500008952CB52F7D2CBD2CB5237F2CBD2CB534
:100C60002C7F2CBD2DB521602DBDFC0181810E9402
:100C70001D1A8FE090E00197F1F708951F93CF932D
:100C8000DF93EC01162F60E00E9429061EBD0000D4
:100C90000DB407FEFDCF1EB561E0CE010E9429060E
:100CA000812FDF91CF911F910895FF920F931F9392
:100CB000CF93DF931F92CDB7DEB78C01F62E60E0A5
:100CC00049830E9429068F2D8F7180628EBD00009E
:100CD00049810DB407FEFDCFFEB44EBD00000DB43A
:100CE00007FEFDCF8EB561E0C8010E9429068F2D59
:100CF0000F90DF91CF911F910F91FF900895FF9278
:100D00000F931F93CF93DF9300D01F92CDB7DEB721
:100D10008C01F62E60E029834A835B830E942906BA
:100D20008F2D8F7180628EBD00005B814A81298189
:100D30000DB407FEFDCFFEB4FA01215040F08191C1
:100D40008EBD00000DB407FEFDCF8EB5F6CF61E07D
:100D5000C8010E9429068F2D0F900F900F90DF91F0
:100D6000CF911F910F91FF9008950F931F93CF93F1
:100D70008C01C62F60E00E942906CF71CEBD000015
:100D80000DB407FEFDCF8EB58FEF8EBD00000DB404
:100D900007FEFDCFCEB561E0C8010E9429068C2F69
:100DA000CF911F910F910895EF92FF920F931F9390
:100DB000CF938C017B0166E00E94B506C82FC77DEA
:100DC00082E0E816F10431F4C0628BE990E0A0E023
:100DD000B0E00DC0EA94EF2829F085E590E0A0E0AE
:100DE000B0E005C0C86081E490E0A0E0B0E0F801A8
:100DF00085879687A787B08B4C2F66E0C8010E9435
:100E0000550666E0C8010E94B50691E0C81390E05F
:100E1000892FCF911F910F91FF90EF900895CF935D
:100E2000DF93EC0160E00E94B50681FD0EC0482F03
:100E3000426060E0CE010E94550665E070E080E00F
:100E400090E0DF91CF910C94A51ADF91CF91089596
:100E5000CF93DF93EC0188819981891719F060E0C5
:100E60000E941D1A8D859E858230910538F0880F6D
:100E7000991F880F991F05970197F1F76DE1CE0132
:100E80000E94B50681FF10C08D859E858230910538
:100E900038F0880F991F880F991F05970197F1F770
:100EA00061EECE010E943E0660E0CE010E94B506D2
:100EB000482F4E7F60E0CE010E94550662E0CE01D1
:100EC0000E94B506EEECF1E0E49141E050E001C093
:100ED000440FEA95EAF7482B62E0CE01DF91CF910B
:100EE0000C945506CF93DF93EC010E940F0760E04E
:100EF000CE010E94B506482F416060E0CE010E94FD
:100F0000550640E767E0CE010E9455068881998129
:100F1000891719F061E00E941D1A8F81882349F01A
:100F20002C85AE01495F5F4F6AE0CE010E947F06CB
:100F300014C062E0CE010E94B506EEECF1E0E4914F
:100F400021E030E001C0220FEA95EAF72095422F18
:100F5000482362E0CE010E9455066DE1CE010E9459
:100F6000B50681FF06C061EECE01DF91CF910C94F2
:100F70003E06DF91CF910895DC01E0E0615038F04A
:100F80008D91E827F0E0E253FF4FE491F7CF8E2FE9
:100F90000895FC0190810180F281E02DF894818117
:100FA000892B81832281892F809528232283A7E0A2
:100FB000B0E01197F1F7218182238183A3E2B0E0B1
:100FC0001197F1F780817894EFECF0E03197F1F729
:100FD000982381E009F480E00895FC01908101806C
:100FE000F281E02D892F809560FF12C0F894228154
:100FF000822382838181892B8183A3E2B0E01197D0
:10100000F1F78281982B9283789487ED90E011C05C
:10101000F8942281822382838181892B8183AFEF9F
:10102000B0E01197F1F78281982B928378948FE04A
:1010300090E00197F1F70895CF92DF92EF92FF923F
:101040000F931F93CF93DF931F92CDB7DEB76C0141
:10105000E62E08E010E0FF24F39461E08F2D8E214E
:1010600009F460E0C60149830E94ED07FF0C0150BE
:10107000110949810115110581F7411115C0F89435
:10108000D6011196ED91FC91129791818C918095EA
:10109000892381831196ED91FC91129792818C9115
:1010A00080958923828378940F90DF91CF911F914F
:1010B0000F91FF90EF90DF90CF900895CF92DF9245
:1010C000EF92FF920F931F93CF93DF931F92CDB7B1
:1010D000DEB78C01F62E40E065E579830E941C089E
:1010E000CF2C7981D72E760188E0E80EF11CF6012D
:1010F00061916F0140E0C8010E941C08CE14DF041A
:10110000B1F70F90DF91CF911F910F91FF90EF906A
:10111000DF90CF900895FC0190810180F281E02D55
:10112000F8948181292F20958223818378948DE7FB
:1011300043E050E0815021F1DA011197F1F730815D
:101140003923C1F3F8948281822382838181892BA0
:1011500081837894ABE7B7E01197F1F7F894818138
:1011600028232183A3E1B1E01197F1F7808198232F
:1011700081E009F080E07894E3E6F6E03197F1F75A
:1011800008956115710579F0FB0101900020E9F7E0
:101190003197AF01461B570BDC01ED91FC910280AA
:1011A000F381E02D099480E090E008955F926F92C2
:1011B0007F928F929F92AF92BF92CF92DF92EF92E7
:1011C000FF920F931F93CF93DF93CDB7DEB7C95A2A
:1011D000D1400FB6F894DEBF0FBECDBF0E94E11A1A
:1011E0000091F0021091F1022091F2023091F3028D
:1011F000DC01CB01801B910BA20BB30B89399A4305
:10120000A105B105A8F10E94E11A6093F002709364
:10121000F1028093F2029093F30294E0F92E22E817
:10122000E22EFA94FF2009F486C28091B2039091D5
:10123000B3038432994009F47EC28091BA0390913D
:10124000BB030E94141167E18091B8039091B90328
:101250000E94B50681FD08C08091BA039091BB033E
:10126000FC0122A520FF43C261E084E00E941D1A18
:101270000E946C0380910105882321F18091000573
:1012800084FD0EC086FF1EC020910205309103052B
:101290008091A1039091A2032817390799F433C0D4
:1012A000E82FEF702EE1E29FF0011124E35FF94F88
:1012B000448155812091A1033091A2034217530725
:1012C00009F721C0CD56DE4F19821882C359D1408B
:1012D00088EE93E0A0E0B0E0CB56DE4F88839983A0
:1012E000AA83BB83C559D1408EE191E0CF56DE4F32
:1012F00099838883C159D140C356DE4F1982188221
:10130000CD59D14022C0CD56DE4F19821882C35923
:10131000D14088EE93E0A0E0B0E0CB56DE4F88836A
:101320009983AA83BB83C559D1408EE191E0CF5602
:10133000DE4F99838883C159D14080E095E0C35640
:10134000DE4F99838883CD59D140CE018F569E4F71
:101350000E94F503882309F4C4C100E010E080E98D
:10136000E82EFF24F3940E94E11A4B015C01CE01A8
:101370008F569E4F0E94D8031816190684F00E94BB
:10138000E11ADC01CB0188199909AA09BB098F3E32
:101390009240A105B10508F50E946C03E8CFCE018B
:1013A0008F569E4F0E94D80318161906B4F4C70131
:1013B000801B910B18161906A4F461E070E06C0F05
:1013C0007D1F600F711F41E050E0CE018F569E4F90
:1013D0000E94D802080F191FC6CF00E010E021E0DC
:1013E00003C001E010E020E0CE018F569E4FC755AC
:1013F000DE4F2883C95AD1400E945402C755DE4FA0
:101400002881C95AD140222309F44DC16BE871E00B
:10141000CE0101967C010E946427C156DE4F99835C
:101420008883CF59D140892BB9F063ED72E0CE01AA
:1014300081569E4F0E949E2763ED72E0CE01815639
:101440009E4F0E949E276FE871E00E945B27892BC8
:1014500031F002E010E027C103E010E024C18091E8
:10146000E1039091E2030E948B0840E06CEC8091D4
:10147000E1039091E2030E941C084091DC0364E4C4
:101480008091E1039091E2030E941C088091DE03A9
:101490008823A9F0E091DD03E950E33040F4F0E067
:1014A000EE0FFF1FE65CFE4F6081718102C06EEEA1
:1014B00072E0072E000C880B990B0E94A51A82EA95
:1014C00090E00E944E0C81E5E5E9F1E0D701019042
:1014D0000D928A95E1F7512C1CE7612E712C8091B9
:1014E0000B06581608F0C5C0C52CD12C8601F3E0B8
:1014F000000F111FFA95E1F700501F4FBE01615612
:101500007E4FC8010E942C0C5601AA0CBB1CAA0CD1
:10151000BB1C4601880C991C882309F46DC0BE01D0
:1015200061567E4FC8010E942C0C8823D9F1C15608
:10153000DE4F6881CF59D14098E0699FB0011124F6
:10154000C056DE4F2881C05AD14030E0322F2227CA
:10155000330F330F330F262B372BF8018081803167
:1015600021F5CA55DE4F6881C65AD14070E0CB558F
:10157000DE4F8881C55AD140AB01481B5109CA01D1
:101580009695982F8827979587950E949E2560515C
:101590007109207F53E0220F331F5A95E1F7620F44
:1015A000731F04C060E874EE01C0B901613854EEE5
:1015B00075076CF0072E000C880B990B0E944926CA
:1015C00020E030E040E05CE30E94D52604C060E00B
:1015D00070E08EEF92ECE2E05E1206C020E030E0B8
:1015E00040E75FE30E94DA25F501EC51FD4F60838F
:1015F00071838283938313C088E790E00E94BF0BBE
:10160000F401E05CFE4F608171818AEF92E00E94FC
:10161000C10863EE71E08AEF92E00E94C108F40114
:10162000E05CFE4F60817181C7010E945027F50187
:10163000EC51FD4F60817181828193818E01015651
:101640001E4F25E040E00E947E27B801C7010E949E
:10165000502780910B0690E00197C816D9063CF4FC
:10166000F70101900020E9F731977182608253946D
:1016700036CFF70101900020E9F731978DE09AE02D
:10168000A0E080839183A283F70101900020E9F715
:101690003197AF014E195F09B701CE018F569E4FAA
:1016A0000E94100619C00230110561F003301105C7
:1016B00031F00130110549F466EE71E008C068E1CF
:1016C00072E005C06DE372E002C06CE872E0CE012A
:1016D0008F569E4F0E94C108CE018F569E4F0E948A
:1016E00009048091DB03811133C0A89531C01C82AD
:1016F0001B822091180130911901A9014F5F5F4FA2
:1017000050931901409318013E832D83EF8208E323
:1017100010E020E030E040E050E0BE016F5F7F4F1E
:101720000E94791D8111A0CD67E670E080E090E015
:101730000E94A51A76CD8091B8039091B9030E94BA
:10174000280760E084E00E941D1A0E94220F8CCDC1
:10175000C755DE4F0FB6F894DEBF0FBECDBFDF9189
:10176000CF911F910F91FF90EF90DF90CF90BF909E
:10177000AF909F908F907F906F905F9008950F93A0
:101780001F93CF93DF938C01C0E0D0E0F801EC0F02
:10179000FD1F6491662371F0E091FA02F091FB0263
:1017A0000190F081E02D8AEF92E00995892B11F0EC
:1017B0002196ECCFCE01DF91CF911F910F9108952B
:1017C000AF92BF92CF92DF92EF92FF920F931F934F
:1017D000CF93DF938B01BC018091E1039091E203F1
:1017E0000E945E0840E06EEB8091E1039091E2037D
:1017F0000E941C08E801680189E0C80ED11CA09075
:10180000E103B090E20388E0E82EF12C01E010E063
:10181000C5010E94C9078111102B000F81E0E81A51
:10182000F108B1F71993CC15DD0549F78091E10373
:101830009091E2030E948B0891E0813009F090E0E2
:10184000892FDF91CF911F910F91FF90EF90DF9043
:10185000CF90BF90AF9008950F931F93CF93DF93D6
:101860008C01EB018091E1039091E2030E948B08CF
:10187000882369F0BE01C8010E94E00B882339F07B
:1018800068E0CE010E94BC0791E02885821390E0B9
:10189000892FDF91CF911F910F910895CF93DF93FF
:1018A0000E94BF0BEC0163EE71E08AEF92E00E94B0
:1018B000C1088C0F9D1FDF91CF910895CF93DF93C7
:1018C000CDB7DEB729970FB6F894DEBF0FBECDBFF8
:1018D000BE016F5F7F4F0E942C0C882389F08D81A1
:1018E0008F3361F020F48F3159F489E00CC08F35CB
:1018F00019F08F3739F004C08BE005C08AE003C0CF
:1019000080E001C08CE029960FB6F894DEBF0FBED0
:10191000CDBFDF91CF9108950F931F93CF93DF93A6
:101920000091F8021091F902F801C281D0E0DC2F99
:10193000CC278381C80FD11DB801645F7F4F48E079
:1019400050E0CE010E970E948112AE014451510920
:10195000B8016C5E7F4F0E948112009721F098279A
:101960008927982702C08FEF9FEFDF91CF911F91BA
:101970000F9108951F93CF93DF93EC01162F61E031
:101980000E94B506482F112311F0416001C04E7F1F
:1019900061E0CE01DF91CF911F910C9455064F92DB
:1019A0005F926F927F928F929F92AF92BF92CF92EF
:1019B000DF92EF92FF92CF93DF93EC014A015B013C
:1019C0000E94E11A6B017C01240135018FE5480E6C
:1019D000511C611C711C67E1CE010E94B50684FD9B
:1019E00044C06FEFCE010E943E0684FF2CC040E150
:1019F00067E0CE010E94550688819981891719F008
:101A000060E00E941D1A88819981891719F061E0B0
:101A10000E941D1A0E94E11ADC01CB018C199D095C
:101A2000AE09BF0988159905AA05BB0560F0888134
:101A30009981891719F060E00E941D1A61EECE01AC
:101A40000E943E0610C00E94E11ADC01CB018C19F5
:101A50009D09AE09BF09481659066A067B0608F0BB
:101A6000BACF81E0898B80E008C08881998189178D
:101A700019F060E00E941D1A81E0DF91CF91FF9084
:101A8000EF90DF90CF90BF90AF909F908F907F901E
:101A90006F905F904F900895AF92BF92CF92DF9278
:101AA000EF92FF920F931F93CF93DF931F92CDB7C7
:101AB000DEB75C01D62EE72EFC018585811105C0BD
:101AC000C5010E948B08811106C0F5011386158699
:101AD000148680E065C040E060EFC5010E941C08EC
:101AE00001E0F12CC12C11E0C5010E94C907682F4B
:101AF000C50169830E94C9076981613019F4813089
:101B0000B9F433C04F2D50E068131BC0F501838535
:101B1000181730F4E40FF51F8381802349F402C0C5
:101B2000181731F060E0193058F4F501148708C037
:101B3000F501EF0DF11D8381802B838361E009C0E6
:101B4000C12EF501E40FF51F9381802F8095892325
:101B50008383C5010E94ED071F5F000F11F4F3940A
:101B600001E0F7E0FF1508F0BFCF113408F4ADCF66
:101B7000F501C386C11002C081E08587F50183812C
:101B8000882309F4A2CFD5011396ED2DFE2D9501E2
:101B9000255F3F4F8D918193A217B307D9F781E05D
:101BA0000F90DF91CF911F910F91FF90EF90DF90F9
:101BB000CF90BF90AF900895FC01248130E0322F88
:101BC00022278581282B322723273227A4EFB2E052
:101BD0009281892F90E0982F88274381842B982722
:101BE0008927982711969C938E9313963C932E9356
:101BF000129708957F928F929F92AF92BF92CF9249
:101C0000DF92EF92FF920F931F93CF93DF93CDB7A5
:101C1000DEB728970FB6F894DEBF0FBECDBFFC012C
:101C20009B012115310559F0822F8770863008F00D
:101C3000F5C0A3E036952795AA95E1F7F2CF62AB00
:101C400073AB87A590A9DC012C912F3F09F4E6C066
:101C5000DC0111962C912F3F09F4E0C0E72EF62EFF
:101C60008F0160E00E94BA0CF801C7A4D0A86DE112
:101C7000C6010E94B506482F44606DE1C6010E946E
:101C800055066CE1C6010E94B506482F4F636CE112
:101C9000C6010E94550681E0D60116968C93F80184
:101CA00082A993A966E070E00E948A25482F440F1C
:101CB0004B5FF0E14F9FA0011124456064E0D80123
:101CC0009F968D919C91D0970E94550689E190E056
:101CD000A0E0B0E0F80181839283A383B4838BE416
:101CE00090E09683858382A993A940E02FEF3FEF90
:101CF000B90168237923672B39F073E0220F331F72
:101D00007A95E1F74F5FF4CFF80141AB209530951C
:101D1000E952FF4F3183208363E0369527956A951A
:101D2000E1F73397A90148235923518340832115B3
:101D3000310559F043E0969587954A95E1F753E0D0
:101D4000369527955A95E1F7F2CFF801EA52FF4F01
:101D5000808386E0782E88248394912C7A94FFEFF8
:101D60007F1609F454C0672D8F2D9E2D0E94371BBE
:101D7000D8019F96CD90DC90D09729833A834B83EE
:101D80005C836D837E838F839887A72CB12C711021
:101D90000BC0F601448550E0BE016F5F7F4FC60166
:101DA00007960E94472703C0F1E07F1208C0F501A3
:101DB000E652FE4F6491D6011C962C9105C0F501A8
:101DC000E652FE4F649121E0AE014F5F5F4FC601C6
:101DD0000E947F06F501EC52FE4F6491F6014581A9
:101DE000C6010E94550662E0C6010E94B506F501D3
:101DF000E253FE4FE491940101C0220FEA95EAF705
:101E0000482F422B62E0C6010E945506A7CFD80199
:101E10009F968D919C91D0970E94720728960FB63D
:101E2000F894DEBF0FBECDBFDF91CF911F910F9110
:101E3000FF90EF90DF90CF90BF90AF909F908F90EA
:101E40007F9008952F923F924F925F926F927F9270
:101E50008F929F92AF92BF92CF92DF92EF92FF92BA
:101E60000F931F93CF93DF93CDB7DEB761970FB674
:101E7000F894DEBF0FBECDBF67E18091B8039091AB
:101E8000B9030E94B50680FD03C080E090E06EC1FA
:101E90008091B8039091B9030E942807E091BA039A
:101EA000F091BB0382A5826082A76AE070E080E0C7
:101EB00090E00E94A51A64E279E08091BA039091C3
:101EC000BB030E94FA0D84E299E09093B3038093E0
:101ED000B2030E94E11A2B013C01C12CE12C90E4D9
:101EE000292E312C3C862B86809118019091190166
:101EF0009C012F5F3F4F30931901209318019E875B
:101F00008D8782EC8F878091BA039091BB03FC018F
:101F100022A933A93A872987EE2089F02E2D30E0B7
:101F200021503109A901440F551F240F351F01E02D
:101F300010E002C0000F111F2A95E2F702C000E076
:101F400010E020E030E040E050E0BE01675F7F4FEE
:101F50000E94791D0E94E11A4B015C01F12C8091D5
:101F6000BA039091BB030E941411823C89F4FE01D4
:101F70003196EF0DF11DEF0DF11DA091BA03B09157
:101F8000BB0317968D919C91189791838083F3944E
:101F90000E94E11ADC01CB0188199909AA09BB0941
:101FA000C897A105B10520F4F3E0FF15C0F633C0D2
:101FB000F11031C00E94E11ADC01CB0184199509AE
:101FC000A609B70981369A4EA105B10508F05DCF83
:101FD0002C2D30E02F5F3F4F8E2D90E00196289FF3
:101FE000B001299F700D389F700D1124675E7F4FDF
:101FF000660F771F072E000C880B990B0E94A51AFD
:1020000081E08E0D8370E82E81E08C0D6AE00E94E5
:102010007E25C92E67CFD12C198ADF1408F03FC066
:1020200023EC2F878091B403888BFE013196ED0D50
:10203000F11DED0DF11D008111811C870B8720E042
:1020400030E040E050E0BE01675F7F4F8091BA030F
:102050009091BB030E94791D0E94E11A4B015C0123
:102060000E94E11ADC01CB0188199909AA09BB0970
:10207000813E9105A105B10550F48091BA0390917C
:10208000BB030E941411898B803851F7DF2C65E067
:1020900070E080E090E00E94A51AD394BECF8989B9
:1020A000803809F087CFE091BA03F091BB038785B0
:1020B0009089009709F47ECF36852091B4033213BE
:1020C00079CF9093B3038093B2038091B80390913A
:1020D000B9030E9428076AE070E080E090E00E9467
:1020E000A51A6091B2037091B3038091BA039091E5
:1020F000BB030E94FA0D1C861B86E1E8EF8787E090
:10210000F82E08E310E020E030E040E050E0BE01AF
:10211000675F7F4F8091BA039091BB030E94791D46
:10212000811119C0FA94F1100FC064E279E0809136
:10213000BA039091BB030E94FA0D84E299E0909358
:10214000B3038093B20336CF63E070E080E090E0A9
:102150000E94A51AD6CFE091BA03F091BB0382A5E5
:102160008D7F82A78091B2039091B30361960FB6E1
:10217000F894DEBF0FBECDBFDF91CF911F910F91BD
:10218000FF90EF90DF90CF90BF90AF909F908F9097
:102190007F906F905F904F903F902F900895CF93D6
:1021A000DF931F92CDB7DEB76983DC01ED91FC911F
:1021B0000280F381E02D41E050E0BE016F5F7F4F70
:1021C00009950F90DF91CF910895E0910005E4FF0C
:1021D00013C0EF702EE1E29FF0011124E35FF94F8D
:1021E00024813581FC01848195812817390721F4E8
:1021F00080E095E00C94A90580E090E00895FC0152
:102200008481958120912B0630912C06232B41F45B
:1022100010922D0690932C0680932B060C946C0341
:1022200081E080932D06FACF3F924F925F926F929A
:102230007F928F929F92AF92BF92CF92DF92EF9256
:10224000FF920F931F93CF93DF93EC019AA5892FF1
:10225000827091FD13C09E012B5C3F4F4EA95FA978
:1022600090FD06C0BA01621B730B6937710534F02B
:102270002417350708F433C19E7F9AA777247A94F0
:1022800060E6662E8E01095F1F4F71E6572EEE2421
:10229000E394F12C6E0186EDC80ED11CF4E2AF2E52
:1022A000F9E0BF2E8FA498A8F40180818F3F11F42C
:1022B00080E015C1F40181818F3FD1F367E1C40152
:1022C0000E94B50680FDF4CF6FEFC4010E943E0668
:1022D0008FA498A860E0C4010E9429066EBC00008B
:1022E0000DB407FEFDCF8EB57EBC00000DB407FE19
:1022F000FDCF4EB461E0C4010E94290690E294151E
:1023000058F462EEC4010E943E0662E070E080E094
:1023100090E00E94A51A412C4CAAE7E0E41538F0A1
:102320006AE070E080E090E00E94A51ABBCF8FA425
:1023300098A8F4013580341408F4432CF401868104
:10234000811102C0341801C0312C60E0C4010E9428
:1023500029065EBC00000DB407FEFDCF8EB5F80166
:102360004A948FEF481661F07EBC00000DB407FE62
:10237000FDCF8EB58193F4CF0DB407FEFDCF8EB5A2
:102380003A949FEF391619F07EBC0000F5CF61E05A
:10239000C4010E94290640E767E0C4010E94550677
:1023A00069857A85CB01009759F0282F2770263050
:1023B00008F078CF53E0969587955A95E1F7F3CFDB
:1023C0008D852AA93BA962177307E1F5823809F4C4
:1023D00069CF803881F464327940D1F0BA86A98619
:1023E00042E064E279E0CE010E947E1C6AE070E087
:1023F00080E090E040C0833C59F46115710541F0E4
:1024000078876F831A86198640E060E070E063C0C9
:1024100099A5992319F087FF0CC002C0813C49F4AB
:102420009CE6980F933028F0883C19F0833809F027
:1024300056C0B801CE010E94621E823009F032CF30
:1024400083E84DC06034710509F044C0823CC9F492
:102450008AA583FD27CF2432F9E03F0709F422CF74
:102460008F8198859A87898738872F83F6016081C5
:1024700070E080E090E00E94A51A69857A8542E0CC
:102480002AC0B801CE010E94621E982E888188233E
:10249000E9F029A9222379F030E021503109C9015E
:1024A000880F991F280F391FB70102C0660F771FC9
:1024B0002A95E2F702C060E070E083E0660F771FC4
:1024C0008A95E1F744E0CE010E947E1CF2E09F1263
:1024D000E9CEB6CF41E0CE010E947E1CE3CEDF9173
:1024E000CF911F910F91FF90EF90DF90CF90BF9011
:1024F000AF909F908F907F906F905F904F903F90A4
:102500000895FB0141505109460F571FE417F50785
:1025100078F4208130E0322F22276181260F311D8F
:10252000820F931F8217930708F401963296EECF1D
:10253000E417F50751F4208130E0322F2227820F73
:10254000931F8217930708F4019608956091F8028B
:102550007091F90244E150E080E090E00E94811225
:10256000009721F098278927982708958FEF9FEFEC
:102570000895CF92DF92EF92FF920F931F93CF9324
:10258000DF930091F3051091F405C091F802D0910A
:10259000F9026E0128E2C20ED11CD092F205C0925F
:1025A000F105D092F005C092EF05833081F4D80197
:1025B00059968C9159978F70833009F018C55096B1
:1025C0008D919C915197892B09F011C57FC0823064
:1025D00009F082C0809101068F5F8093010681110E
:1025E00013C0809100068F5F8093000681110CC09C
:1025F0008091FF058F5F8093FF05811105C0809159
:10260000FE058F5F8093FE051092ED051092EC059C
:102610001092EB051092EA05F801818D982F9D7FAD
:10262000953041F4828D8F5F828F883709F0DFC447
:10263000118EDDC4882309F4DAC420893189232B63
:1026400009F440C0928D2FEF290F228F9111CFC432
:10265000938D9A3031F02FEF280F223050F49330C1
:1026600041F4F801118E80E88093EE050E94290460
:1026700057C3953038F428E0092E01C0220F0A9480
:10268000EAF701C020E8D8015A962C935A979F5F29
:102690005B969C938F70843009F4E1C260F48130C2
:1026A00009F4CEC1833009F0A2C484E08093EE0522
:1026B0000E94290476C3863009F4D1C2883009F01B
:1026C00096C4CDC28F70833009F091C488E08093A6
:1026D000EE050E94290419C38881853409F087C456
:1026E000EA80F12CFE2CEE248B81E80EF11C809107
:1026F000EC059091ED058E159F0508F478C4F092D5
:10270000ED05E092EC058E818F7309F070C48F8126
:1027100081116DC400912E0610912F06011511052F
:1027200031F48091300690913106892B81F08889AF
:1027300099890817190709F05AC42A893B89809199
:102740003006909131062817390709F050C40E94CD
:10275000A612019609F04BC48985863021F181309B
:1027600009F045C48C89883009F041C41C8A8E89DF
:102770009F89873FEFEF9E0710F0099601C00896EA
:102780009F8B8E8B8C859D85998B888B8E859F8565
:102790009B8B8A8B1D870C87809130069091310628
:1027A0009F878E8728C40E948C0C019609F01FC455
:1027B0009091260689A1992329F14E895F8920915C
:1027C00011063091120642175307E1F44C895D89D6
:1027D00020911306309114064217530799F44C8543
:1027E0005D8520910D0630910E064217530751F476
:1027F0004E855F8520910F063091100642175307D2
:1028000009F433C1282F2F73223019F082FDEFC352
:1028100015C02E893F893093FD052093FC0540911A
:102820002B0650912C062417350709F0EFC39111A0
:102830004BC010922D060DE016E050C084E189A334
:1028400088E290E09093ED058093EC0580E588A305
:102850003B8D8F8D8B8F2A8D8E8D8A8F2E8F998DAC
:102860008D8D898F9D8F888D80932D064C8D488FFF
:102870008C8F3F5F3F8F31110AC02F5F2E8F211148
:1028800006C09F5F9D8F911102C08F5F8C8F8C89D6
:102890009D899093FD058093FC052E893F893D8B92
:1028A0002C8B9F8B8E8B8C859D85998B888B8E85B1
:1028B0009F859B8B8A8B1D870C878091300690911A
:1028C00031069F878E8764C3973019F000E010E0CF
:1028D00002C00DE016E081E080932D060115110580
:1028E00009F485C31093F4050093F30588E0D8013B
:1028F0005A968C935A9758968C93589756961C9242
:10290000569784E057968C9357975B961C925B97EB
:102910008E899F8915969C938E9314978C899D8997
:1029200017969C938E9316978C859D8511969C93F4
:102930008E938E859F8513969C938E93129781E03C
:1029400059968C9359978091FE051C968C931C97F1
:102950008091FF051D968C931D97809100061E9611
:102960008C931E97809101061F968C931F9781E090
:1029700090E051969C938E9350978B8D1B968C93E1
:102980001B978A8D1A968C931A97898D19968C931A
:102990001997888D18968C9381E090E00E94E7212A
:1029A000A091F802B091F90290968C919097982F8F
:1029B000907F913508F444C010922D0682958F7057
:1029C00090E00597880F991F880F991F2091FB05AC
:1029D00030912D06E32FF0E0E817F9077CF5EA0FB8
:1029E000FB1F20A5211103C01092FB0529C0213037
:1029F00011F43F5F20C02230D1F441A54430B9F436
:102A00002093FB0582A590E0982F882723A5822B91
:102A10009093FD058093FC058836910510F087E6BC
:102A200090E0F801938B828B958B848B09C041A534
:102A3000442321F0340F30932D06CACF2093FB0599
:102A4000E091F802F091F90282E181A382E080A78F
:102A500084E081A712A687E683A78CE290E090939A
:102A6000ED058093EC0580E63EC22DE036E0309324
:102A7000F4052093F3051092EE0582FF04C0109236
:102A8000260680E2C6C128A122952F70220F220FB0
:102A900020932D06E21AF1088701045111091093C1
:102AA000ED050093EC059F70923021F4982F9F73F1
:102AB0009231D1F00115110519F4982F9370A1F0FE
:102AC000288D909115062913FBC1298D909116062A
:102AD0002913F6C12A8D909117062913F1C12B8D68
:102AE000909118062913ECC184FF5BC060911D060C
:102AF00070911E066115710509F453C089E196E0D5
:102B00000E94B121E091F802F091F902348D809198
:102B1000F705381346C0258D8091F805281341C06C
:102B2000968D8091F90598133CC0878D4091FA05E8
:102B3000841337C03093190620931A0690931B060E
:102B400080931C0680912806811120C09091230655
:102B50008091250620912706821B292F26952695F0
:102B60002695821B980F9093230687FD81952091CF
:102B70002406322F36953695231B820F8093240628
:102B8000969596959695890F8093250681E080937A
:102B9000EE05809125068093270610921E0610925E
:102BA0001D0620912606E22FEF708E2F90E0FC018B
:102BB0003197E830F10508F01AC2EC5CFF4F0C9435
:102BC000D4258091EE0580FF12C283E08093260613
:102BD00080E48093EE0510921E0610921D060115EA
:102BE000110531F082E48093EE05C8010E94E721CF
:102BF0001092EB051092EA050E9429040DE016E000
:102C000084C0E091F802F091F90281A180FF2EC00A
:102C100024FD2CC080911D0690911E06892B09F081
:102C2000E6C1C70143970E94E7218091EE05982FE6
:102C300090619093EE05012B19F082618093EE056F
:102C40000E94290481E090E090931E0680931D0667
:102C500088E080932606109228060DE016E0E091A9
:102C6000F802F091F90281E181A332C185FF12C01F
:102C700086A190E0982F882737A1832BC80ED91EF4
:102C8000D092F205C092F105081B190B1093ED05C7
:102C90000093EC054091EC055091ED05411551056F
:102CA00051F024FD08C09091EE0592609093EE05DE
:102CB000CA010E94E721E091F802F091F90282A195
:102CC00090E0982F882723A1820F911D9093FD05F6
:102CD0008093FC05209121063091220628173907A0
:102CE00010F0892B21F43093FD052093FC05809191
:102CF000FC059091FD059093200680931F0680911E
:102D0000EE05837009F473C173CF8091EE0585FFE2
:102D10000DC01092EB051092EA05D80159961C924D
:102D2000E091F802F091F90284E19ECF84FF0DC09A
:102D30001092EB051092EA0581E090E0F801918B8A
:102D4000808B84E0818F138E8ACF2091EA053091A9
:102D5000EB052115310519F180FF05C0D801519609
:102D60001C921E925097F80180899189009799F4DE
:102D7000828993898217930720F49093EB058093BF
:102D8000EA058091EA059091EB05D80151969C9354
:102D90008E93509704C09093EB058093EA05F80159
:102DA000138E8091EF059091F0059093F20580933A
:102DB000F1058091EA059091EB05892B91F0D801FE
:102DC00050968D919C915197009759F088969093C9
:102DD000ED058093EC05E091F802F091F90288E1AD
:102DE0000FC08091EE0581FF02C188E290E09093D0
:102DF000ED058093EC05E091F802F091F90280E195
:102E000081A36CC08091EE0580FFF1C01092260670
:102E100080E18093EE050E942904E9C001151105A7
:102E200019F0C8010E94E721E091F802F091F9023F
:102E300091A18091EE0590FF10C080FF0AC087E04D
:102E4000809326061092270610921E0610921D06E9
:102E500020C086E0809326061CC080FF24C085E049
:102E60008093260610921E0610921D06C0C0011502
:102E7000110519F0C8010E94E721E091F802F091D4
:102E8000F90281A180FF0FC087E08093260610928F
:102E9000270681E090E00E94E72180E18093EE0523
:102EA0000E9429040DC0012B59F4A1C08091EE05A8
:102EB00080FF9DC087E0809326061092270697C06A
:102EC000E091F802F091F90280E181A30DE016E0B3
:102ED00088E290E09093ED058093EC05E091F80294
:102EE000F091F90280E580A3E091F802F091F902F7
:102EF000D80118968C911897848F19968C911997F0
:102F0000858F1A968C911A97868F1B968C911B979A
:102F1000878F1C968C911C97808F1D968C911D9786
:102F2000818F1E968C911E97828F1F968C911F9772
:102F3000838F86E0818714968D919C911597958B50
:102F4000848B16968D919C911797978B868B809189
:102F50002E0690912F069587848780913006909158
:102F60003106978786878D919C911197918B808BE5
:102F700012968D919C911397938B828B59968C917D
:102F800084FF03C013A212A203C012A28DE583A383
:102F9000C091F802D091F90280E488878091EC0515
:102FA0009091ED059A838B831FA21EA21DA21CA2E5
:102FB0000E948C0C809590959DA38CA385E48883BA
:102FC00019821F821E828091F5059091F605019667
:102FD0009093F6058093F5059C838D831B861A8656
:102FE0000E94A612809590959B878A8704C01092B4
:102FF000ED051092EC051092EE05DF91CF911F9137
:103000000F91FF90EF90DF90CF90089591E0909313
:103010002D06FCCB0F931F93CF93DF93CDB7DEB775
:1030200028970FB6F894DEBF0FBECDBF1C821B825F
:1030300080911801909119019C012F5F3F4F3093AF
:103040001901209318019E838D8383E88F8320913B
:10305000EC053091ED054091F8025091F90208E33A
:1030600010E0BE016F5F7F4F8091A5039091A60392
:103070000E94791D28960FB6F894DEBF0FBECDBF13
:10308000DF91CF911F910F910895FC01918D828D59
:10309000981761F0828DDF01A80FB11D5D968C91AC
:1030A000928D9F5F9F73928F90E008958FEF9FEFB7
:1030B0000895FC01918D828D981731F0828DE80F73
:1030C000F11D858D90E008958FEF9FEF0895FC012D
:1030D000918D228D892F90E0805C9F4F821B9109FA
:1030E0008F73992708958AEF92E00E94671821E074
:1030F000892B09F420E0822F0895FC01848DDF01E3
:10310000A80FB11DA35ABF4F2C91848D90E001965A
:103110008F739927848FA689B7892C93A089B18949
:103120008C9180648C93938D848D981306C0028853
:10313000F389E02D80818F7D80830895EF92FF9247
:103140000F931F93CF93DF93EC0181E0888F9B8DCA
:103150008C8D981305C0E889F989808185FD24C08C
:10316000F62E0B8D10E00F5F1F4F0F731127E02E0F
:103170008C8DE8120CC00FB607FCFACFE889F989EC
:10318000808185FFF5CFCE010E947D18F1CF8B8D18
:10319000FE01E80FF11DE35AFF4FF0820B8FEA8921
:1031A000FB898081806207C0EE89FF896083E8899E
:1031B000F98980818064808381E090E0DF91CF9104
:1031C0001F910F91FF90EF900895CF93DF93EC0143
:1031D000888D8823C9F0EA89FB89808185FD05C037
:1031E000A889B9898C9186FD0FC00FB607FCF5CF71
:1031F000808185FFF2CFA889B9898C9185FFEDCFB9
:10320000CE010E947D18E7CFDF91CF91089580E035
:1032100090E0892B29F00E94731881110C94000012
:1032200008953FB7F8948091070690910806A09101
:103230000906B0910A0626B5A89B05C02F3F19F0D4
:103240000196A11DB11D3FBFBA2FA92F982F882726
:10325000820F911DA11DB11DBC01CD0142E0660F81
:10326000771F881F991F4A95D1F70895CF93DF9351
:10327000DC01FB01EC01CC52DF4F688179812296A1
:103280009881828140815181823028F0BA0181E0A9
:10329000838390E027C0ED01C952DF4F2881398137
:1032A000EA01C223D323D2960D90BC91A02DCA1758
:1032B000DB07C1F4C9018095909563E0880F991FE1
:1032C0006A95E1F784239523892B51F083E0220F3F
:1032D000331F8A95E1F72760BA016223732301C087
:1032E000BA0195E071836083928381E0DF91CF9191
:1032F00008958F929F92AF92BF92CF92DF92EF92FA
:10330000FF920F931F93CF93DF937C01EB016C012E
:1033100082E0C80ED11C4701E5E08E0E911C00E052
:1033200010E0F60141916F0150E060E070E02AE0AA
:10333000CE010E9435205C01E881F9810190F08185
:10334000E02D6EE2CE0109958A0D9B1D080F191F15
:10335000C814D90431F7F701458150E060E070E00E
:103360002AE0CE010E943520800F911FDF91CF917E
:103370001F910F91FF90EF90DF90CF90BF90AF9093
:103380009F908F9008950E9442271F920F920FB630
:103390000F9211242F933F934F935F936F937F93DB
:1033A0008F939F93AF93BF93EF93FF938AEF92E036
:1033B0000E947D18FF91EF91BF91AF919F918F91E6
:1033C0007F916F915F914F913F912F910F900FBE21
:1033D0000F901F9018951F920F920FB60F92112405
:1033E0002F938F939F93EF93FF93E0910A03F091B4
:1033F0000B038081E0911003F091110382FD12C054
:103400009081809113038F5F8F7320911403821733
:1034100051F0E0911303F0E0E650FD4F958F80935B
:10342000130301C08081FF91EF919F918F912F91A4
:103430000F900FBE0F901F90189590E0FC01E45E76
:10344000FD4F3491FC01E250FE4F2491FC01E65106
:10345000FE4FE491EE2309F43BC0332339F13330BE
:1034600091F038F43130A9F0323001F584B58F7D18
:1034700012C0373091F03830A1F03430B9F4809177
:1034800080008F7D03C0809180008F7780938000C3
:103490000DC084B58F7784BD09C08091B0008F774F
:1034A00003C08091B0008F7D8093B000F0E0EE0FFC
:1034B000FF1FEE5EFD4FA591B4918FB7F894EC918C
:1034C000611103C020952E2301C02E2B2C938FBF9A
:1034D0000895CF93DF9390E0FC01E250FE4F2491DA
:1034E000FC01E651FE4F8491882361F190E0880F42
:1034F000991FFC01E05DFD4FC591D491FC01EE5E8A
:10350000FD4FA591B491611109C09FB7F8948881CE
:10351000209582238883EC912E230BC0623061F4C6
:103520009FB7F8943881822F809583238883EC910C
:103530002E2B2C939FBF06C08FB7F894E8812E2BBB
:1035400028838FBFDF91CF9108958F929F92AF9282
:10355000BF92CF92DF92EF92FF926B017C010E94AB
:1035600011194B015C01C114D104E104F10401F112
:103570000E946C030E941119DC01CB018819990982
:10358000AA09BB09883E9340A105B10560F321E07B
:10359000C21AD108E108F10888EE880E83E0981E6F
:1035A000A11CB11CC114D104E104F10419F7DBCF53
:1035B000FF90EF90DF90CF90BF90AF909F908F9053
:1035C00008952FB7F89460910306709104068091D6
:1035D0000506909106062FBF08951F920F920FB611
:1035E0000F9211242F933F938F939F93AF93BF9389
:1035F0008091030690910406A0910506B0910606FD
:103600003091020623E0230F2D3720F40196A11DEF
:10361000B11D05C026E8230F0296A11DB11D209300
:1036200002068093030690930406A0930506B093C8
:1036300006068091070690910806A0910906B091B0
:103640000A060196A11DB11D8093070690930806F6
:10365000A0930906B0930A06BF91AF919F918F91F5
:103660003F912F910F900FBE0F901F901895CF9301
:10367000DF93CDB7DEB728970FB6F894DEBF0FBE45
:10368000CDBFAC019CEC99839A839B839C839D83E3
:103690001E821F8218869A01E1E021153105C9F0CA
:1036A000611103C04115510569F4D901A770BB2709
:1036B000AC57BE4F8C91A1E0B0E0AC0FBD1FAE0F78
:1036C000B11D8C9383E0369527958A95E1F7EF5FDE
:1036D000E4CF611102C0452B39F4E62FF0E0EC573E
:1036E000FE4F8081898305C0F0E0ED57FE4F808159
:1036F0008A8329813A814B815C816D817E818F81B2
:10370000988528960FB6F894DEBF0FBECDBFDF9127
:10371000CF9108954F925F926F927F929F92AF9256
:10372000BF92CF92DF92EF92FF920F931F93CF93AE
:10373000DF93CDB7DEB729970FB6F894DEBF0FBE83
:10374000CDBF8C01CB01D22E642F0E94371B922E4D
:10375000A32E2A013B01B82EC92EF80182A582FDB5
:1037600004C087A590A90E942807F80187A590A901
:10377000DD2011F060E001C061E00E94BA0CF801A8
:10378000E7A4F0A89982AA824B825C826D827E8235
:10379000BF82C886F7012485AE014F5F5F4F6AE0A4
:1037A000C7010E947F06F7012485AE014F5F5F4F7E
:1037B00060E1C7010E947F06F701458161E1C70111
:1037C0000E945506F801B4A8E7A4F0A80E94E11AE7
:1037D0002B013C016FEFC7010E943E0680FF1EC017
:1037E0006FEFC7010E943E0684FF06C040E167E01C
:1037F000C7010E94550610C00E94E11ADC01CB01EE
:1038000084199509A609B70980369105A105B10566
:1038100008F381E0F701818B20E044C0D11002C0A1
:1038200020EA01C020EBF701D580CD2CBD1408F4AF
:10383000CB2CF7018681811102C0DC1801C0D12C8C
:1038400060E0C70129870E94290629852EBD000056
:103850000DB407FEFDCF8EB5F8013796CA948FEFF1
:10386000C81661F081918EBD00000DB407FEFDCF3A
:103870008EB5F4CF0DB407FEFDCF8EB5DA94EFEF21
:10388000DE1619F01EBC0000F5CF61E0C7010E94F2
:103890002906F70180819181891719F061E00E9462
:1038A0001D1A21E0F80182A582FD11C041815281DB
:1038B0006381748187A590A90E94CF0C282F60E0B6
:1038C000F80187A590A929870E94BA0C2985822F23
:1038D00029960FB6F894DEBF0FBECDBFDF91CF9112
:1038E0001F910F91FF90EF90DF90CF90BF90AF901E
:1038F0009F907F906F905F904F900895CF92DF924E
:10390000EF92FF920F931F93CF93DF9300D000D0DD
:10391000CDB7DEB7FC0195859B012115310561F01E
:10392000822F8770863030F483E0369527958A950C
:10393000E1F7F3CF80E097C09154EE24E3949F37F2
:1039400008F0E12CF42E6B018F0119821A821B8280
:103950001C827A8369834B83BE016F5F7F4FCF01E7
:103960000E94361969817A812C814B81C8010E949D
:103970008A1BF1E0FF1227C0811102C0F12C6AC03E
:1039800089819A818C159D0501F5EE20F1F081EC7D
:10399000F801858787819085928781879A838983BB
:1039A000FB821C82BE016F5F7F4FC8010E943619E7
:1039B00088E0F80184AB69817A812C814B81C80150
:1039C0000E948A1B02C08823C9F289819A818C15C2
:1039D0009D0519F4FF24F3943DC0FF2019F0F3E096
:1039E000FF12F8CFEE20B1F3F80182A582FF11C0DB
:1039F000418152816381748187A590A90E94CF0C77
:103A0000F80182A58B7F82A760E087A590A90E941C
:103A1000BA0CF80187A590A90E9472070E94E11ACA
:103A20006B017C01C8010E941411813C99F20E9433
:103A3000E11AAB01BC014C195D096E097F09F8015F
:103A400085819681A0E0B0E084179507A607B707A7
:103A500048F794CFF80182A582FD04C087A590A9FC
:103A60000E9472078F2D0F900F900F900F90DF9193
:103A7000CF911F910F91FF90EF90DF90CF9008951D
:103A8000EF92FF920F931F93CF93DF93EC017B0193
:103A9000BA018AA99BA9F70191838083DE01179659
:103AA00088E001900D928A95E1F72115310529F002
:103AB000A901CE010F960E944727F7016281738109
:103AC0000833110561F06034710511F444E001C060
:103AD00043E00617170709F442E0B80101C040E0CF
:103AE000CE01DF91CF911F910F91FF90EF900C9439
:103AF0007E1C2F923F924F925F926F927F928F9295
:103B00009F92AF92BF92CF92DF92EF92FF920F936C
:103B10001F93CF93DF93EC017B015A0169014801A8
:103B20000E94E11A4BA45CA46DA47EA4DC01CB012D
:103B300084199509A609B7094997A105B10528F483
:103B4000CE010E94141187FFEBCF8BE193E0019728
:103B5000F1F789E1C816D104B0F488E08C0D8CAB84
:103B600084019601A501B701CE010E94401D182FC6
:103B7000882311F011E092C00E94E11A6BA77CA784
:103B80008DA79EA78BC0E1E9CE16D10408F085C0B1
:103B9000C60168E170E00E948A2521E0892B09F4C2
:103BA00020E0C60168E170E00E948A25722E760E40
:103BB000F701828193818034910539F08AA5846070
:103BC0008AA78FA598A90E942807F7014680512C43
:103BD000612C84E9282E96E9392EF7017782F1E0ED
:103BE0007F1204C0F7013682478208C0611003C00B
:103BF000F701268203C085E9F7018683E8E16E9E1E
:103C0000A00111249601241B350B2931310510F038
:103C100028E130E088E0820F8CAB4A0D5B1D840107
:103C2000B701CE010E94401D182F81110BC062E028
:103C300070E080E090E00E94A51A5394F2E0F51540
:103C400060F606C07A946394772011F0512CC5CFAA
:103C5000F70146828AA582FF12C049815A816B8191
:103C60007C818FA598A90E94CF0C182F8FA598A9A9
:103C70000E94720760E08FA598A90E94BA0C8AA5DD
:103C80008B7F8AA7112349F0772009F473CF0E9414
:103C9000E11A6BA77CA78DA79EA710E0812FDF916B
:103CA000CF911F910F91FF90EF90DF90CF90BF9039
:103CB000AF909F908F907F906F905F904F903F90CC
:103CC0002F900895CF92DF92EF92FF920F931F9360
:103CD000CF93DF93EC017B010CA910E00850110990
:103CE000FB0196818CE6890F833020F0983C09F027
:103CF00065C003C0943909F44CC08BE6890F82304B
:103D000018F0983C09F072C06E0150E4C50ED11C49
:103D1000F60120813181A801420F531F413951051D
:103D200010F01FAE63C08FAD882309F491C096399F
:103D300021F0F7019781891359C04CAD5DADF701B2
:103D4000848195814817590709F050C0FE01EE5B48
:103D5000FF4F80819181A801BE01615F7F4F820F7B
:103D6000931F0E944727F60180819181080F191F38
:103D700011830083F7018681863921F08FAD815050
:103D80008FAF1AC01FAEF70187818EAF833871F5F0
:103D90002BC0F70187818B3920F64CAD5DADF70163
:103DA000248135814217530719F548AD59AD20815B
:103DB000318142175307E1F481E04AC09338B1F4EE
:103DC000DE01D896FE01379688E001900D928A9523
:103DD000E1F7FE01EE5BFF4FCE010F9691838083EA
:103DE000C05CDF4F1983088382E032C080E030C0BE
:103DF000F8E18F9FC00111242EA93FA9AE01421BFB
:103E0000530B9A012B533F4F281739073CF48AA5CF
:103E100081608AA78FA598A90E942807DE01D896FD
:103E2000FE01379688E001900D928A95E1F7FE0138
:103E3000EE5BFF4FBE01615F7F4FA80180819181E2
:103E40000E944727FE01E05CFF4F1183008396CF5D
:103E5000DF91CF911F910F91FF90EF90DF90CF9066
:103E60000895CF92DF92EF92FF920F931F93CF931B
:103E7000DF936C017A018B01C0E0D0E0CE15DF0545
:103E800089F0D8016D918D01D601ED91FC910190E1
:103E9000F081E02DC6010995892B11F47E0102C045
:103EA0002196ECCFC701DF91CF911F910F91FF9029
:103EB000EF90DF90CF900895CF92DF92EF92FF9234
:103EC0001F93CF93DF93CDB7DEB7C254D1090FB69E
:103ED000F894DEBF0FBECDBFFC0172813381248117
:103EE00085817FAF21963FAF219722962FAF2297F2
:103EF00011E023961FAF23972396CCACDDACEEAC3C
:103F0000FFAC2397CBAADCAAEDAAFEAA79AF3AAF01
:103F10002BAF8CAF7DA73EA72FA718ABCDA4DEA4F7
:103F2000EFA4F8A8CFA2D8A6E9A6FAA61EABCBA804
:103F3000DCA8EDA8FEA8C9A2DAA2EBA2FCA27B8FA6
:103F40003C8F2D8F8E8F1AA7AFA158A549A591E060
:103F5000AD8B5E8B4F8B988F1CA3C9A0DAA0EBA012
:103F6000FCA0CF86D88AE98AFA8A79873A872B8794
:103F70008C87252F342F1A8B6F854889998981E08A
:103F80006B834C839D838E834A85BB858C8593EAA6
:103F9000E92E93E0F92EF701C480D580F6018283E3
:103FA000F701C280D380F601C7A0D0A4F601C28475
:103FB000D384D092F902C092F802EEE2F6E050E02B
:103FC000572B5427452754275183408390E09B2B40
:103FD00098278927982793838283E4EFF2E0822F42
:103FE00090E09A2B92278927982791838083832FAB
:103FF00090E0916093838283E2E3F6E08FEF9FEF9E
:10400000918380838FEF90E0938382839C818D8165
:10401000E7E9F3E062839383848315838EE390E082
:10402000A0E0B0E0F70183879487A587B6870E9458
:10403000E11AF701678370878187928710922C06B7
:1040400010922B061092260610932D06CE5BDF4FA2
:104050000FB6F894DEBF0FBECDBFDF91CF911F9199
:10406000FF90EF90DF90CF9008954F925F926F9204
:104070007F92EF92FF920F931F93CF93DF93CDB771
:10408000DEB7A1970FB6F894DEBF0FBECDBF7C019F
:10409000FA01CB0119A2223008F42AE08E010F5D4B
:1040A0001F4F422E512C612C712CBF01A301920194
:1040B0000E94B225F901CA01015011096A3014F4B5
:1040C000605D01C0695CD8016C93232B242B252BE8
:1040D00061F7B801C7010E94C108A1960FB6F89414
:1040E000DEBF0FBECDBFDF91CF911F910F91FF902B
:1040F000EF907F906F905F904F9008958CE791E0E4
:104100009093F0038093EF031092F1031092F20367
:104110001092F3031092F4031092FD021092FC022D
:1041200048EE53E060E070E04093FE025093FF02DF
:1041300060930003709301032AE431E03093FB02A3
:104140002093FA0225EC30E0309307032093060316
:1041500024EC30E0309309032093080320EC30E096
:1041600030930B0320930A0321EC30E030930D03CE
:1041700020930C0322EC30E030930F0320930E03C6
:1041800026EC30E0309311032093100310921303B8
:104190001092140310921503109216039093F603D5
:1041A0008093F5031092F7031092F8031092F9032D
:1041B0001092FA039093FC038093FB031092FD038B
:1041C0001092FE031092FF031092000490930204D9
:1041D00080930104109203041092040410920504C9
:1041E000109206049093980380939703109299037A
:1041F00010929A0310929B0310929C0390930804D0
:10420000809307041092090410920A0410920B0480
:1042100010920C0490930E0480930D0410920F04DE
:104220001092100410921104109212049093FB0447
:104230008093FA041092FC041092FD041092FE0484
:104240001092FF0460E087E00E94691AE5E0F2E066
:10425000E491E093EC04E1EFF1E0E491F0E0EE0FA3
:10426000FF1FE052FE4F859194919093EE0480934E
:10427000ED041092F7041092F9041092F804E7EF9D
:10428000F4E0129284E0EF3EF807D9F787ED92E070
:104290009093EE038093ED038CEE94E09093E20311
:1042A0008093E1031092E0031092DC0389E0809395
:1042B000DD0381E08093DE038093DF038AEC93E0EB
:1042C00028E02093CA032AE02093CB031092CE0368
:1042D00020E22093CF031092D00325E02093D60351
:1042E0001092D10323E134E090934304809342047D
:1042F00048E454E050934A044093490447E554E0AD
:1043000050935604409355044BE454E050933B04BF
:1043100040933A049093B9038093B8033093BB035E
:104320002093BA039093A4038093A3033093A6032E
:104330002093A50382EB93E09093A8038093A703B7
:104340001092A00310929F038AE691E090939E033F
:1043500080939D0383E098EE9093A2038093A10342
:104360000895FC012381260F2093FA05A72FBB2770
:1043700092819A0F9093F90531813093F80540812D
:104380004093F705E92FF0E0EA17FB0748F481E0D6
:10439000830F8093F805811103C04F5F4093F705A9
:1043A00030E077272617370788F49F5F9093F90549
:1043B00091110CC08091F8058F5F8093F8058111F1
:1043C00005C08091F7058F5F8093F7050895CF931F
:1043D000DF93C091F305D091F405BC01CE0108969E
:1043E0000E94B121E7EFF5E080818887818189878C
:1043F00082818A8783818B87DF91CF910895CF93C4
:10440000DF93CDB7DEB761970FB6F894DEBF0FBE6E
:10441000CDBF789484B5826084BD84B5816084BD4D
:1044200085B5826085BD85B5816085BD80916E0052
:10443000816080936E001092810080918100826083
:1044400080938100809181008160809381008091C0
:1044500080008160809380008091B10084608093AF
:10446000B1008091B00081608093B00080917A00AB
:10447000846080937A0080917A00826080937A00D1
:1044800080917A00816080937A0080917A008068C0
:1044900080937A001092C1000FB6F894A89580918D
:1044A0006000886180936000109260000FBE61E040
:1044B00084E00E94691A60E084E00E941D1AE09185
:1044C0000A03F0910B0312E01083E0910603F091D0
:1044D00007031082E0910803F091090380E18083D3
:1044E00010921203E0910E03F0910F0386E0808397
:1044F000E0910C03F0910D03808180618083E09155
:104500000C03F0910D03808188608083E0910C039F
:10451000F0910D03808180688083E0910C03F0911D
:104520000D0380818F7D808382E493E00E94BF0B26
:104530008CE791E09A8389838AE08B838C831D8347
:1045400014E11E83CE0101960E945C1F1093B403F8
:104550000091B8031091B903F80180819181891706
:1045600019F061E00E94691AF80181819081981721
:1045700019F061E00E94691AFFB6F89480910C0668
:10458000811127C0E4EFF1E08491E8E0F2E094913A
:10459000E82FF0E0EE0FFF1FE05DFD4FA591B49115
:1045A000EC91E92321F461E08AE00E941D1A61E0A8
:1045B0008AE00E94691A8CB580618CBD8CB58064DC
:1045C0008CBD61E08DE00E94691A61E08BE00E9481
:1045D000691A80910C068F5F80930C06FFBEF8016C
:1045E00080819181891719F060E00E941D1A61E0B5
:1045F000C8010E94290665E070E080E090E00E941A
:10460000A51A4CE060E0C8010E9455064FE564E041
:10461000C8010E94550662E070E0C8010E94D406FD
:10462000882319F081E0F801848366E0C8010E94C4
:10463000B50660E070E0C8010E94D40660E0C801E1
:104640000E94290680E58EBD00000DB407FEFDCF57
:104650008EB583E78EBD00000DB407FEFDCF8EB58D
:1046600061E0C8010E94290640E06DE1C8010E9496
:10467000550640E06CE1C8010E94550640E767E03E
:10468000C8010E9455064CE465E0C8010E94550629
:1046900062EEC8010E943E0661EEC8010E943E061D
:1046A000C8010E940F0760E0C8010E94B506482FAC
:1046B0004E7F60E0C8010E9455068091B4038823B4
:1046C00039F084E299E09093B3038093B20304C07D
:1046D0001092B3031092B20381E68093C50341E6C2
:1046E00065E08091B8039091B9030E94550662E09D
:1046F00070E08091B8039091B9030E94D406809134
:10470000BA039091BB0321E0FC0121A72091B403DF
:10471000222331F00E94220F892B09F4E9C006C040
:104720006091B2037091B3030E94FA0D61E084E0DE
:104730000E941D1A8CE791E09A8389838AE08B831B
:104740008C8382E08D8381E08E83CE0101960E946E
:10475000DC0D8DE993E00E94FF108FE093E00E9452
:104760004E0C8CEE92E00E944E0CE091E103F09131
:10477000E203138615861486DF011B9633961E927C
:10478000AE17BF07E1F71092E0038E01065F1F4FDF
:10479000EE24E394B8018091E1039091E2030E943A
:1047A0004C0D882309F45CC067E0C8010E94BC0777
:1047B00099898913EFCF8091DC03811125C0809105
:1047C000E1039091E2030E948B08B8018091E1031C
:1047D0009091E2030E945E0840E064EB8091E10367
:1047E0009091E2030E941C088091E1039091E20302
:1047F0000E94C907F82E8091E1039091E2030E9484
:104800008B08FF2009F489C08091E1039091E203B5
:104810000E948B08882331F0BE016F5F7F4FC80173
:104820000E94E00BF090DD038A85803109F498C086
:10483000C8010E945E0C8F1518F48091DD0308C03A
:104840008A85803111F48CE003C0C8010E945E0C9F
:104850008093DD038091E0038F5F8093E0039ACF24
:104860008091E00380930B0685EE92E00E94BF0BDF
:1048700040910B0650E060E070E02AE08AEF92E0A1
:104880000E94352083ED92E00E944E0CF12C88E0CE
:10489000E82EE00E9FE7B92E80910B06F816C8F4BB
:1048A000E091E103F091E203138615861486DF019F
:1048B0001B9633961E92AE17BF07E1F7D12CB801B5
:1048C0008091E1039091E2030E944C0D811128C078
:1048D00034C099E288E10FB6F894A89580936000FF
:1048E0000FBE909360000E94D6080E940719FBCF6C
:1048F00085E193E00E944E0C9DE088E10FB6F894AC
:10490000A895809360000FBE9093600068EE73E0FE
:1049100080E090E00E94A51A0DCFE092DC0374CFF6
:10492000DF1007C067E0C8010E94BC07998989179A
:10493000E1F0D394FD1408F0C2CF83E792E00E9427
:10494000BF0B4F2D50E060E070E02AE08AEF92E06C
:104950000E9435208CE392E00E944E0CF3949CCF91
:104960008CE08F1508F469CF6ECF85EC92E00E9441
:10497000BF0B4F2D50E060E070E02AE08AEF92E03C
:104980000E94352085EB92E00E94BF0B6801460132
:10499000F6018081803120F48AE392E00E94BF0B0F
:1049A000FFEFCF1ADF0AF401408150E060E070E0D1
:1049B00020E18AEF92E00E943520EC10E8CF63EE10
:1049C00071E08AEF92E00E94C108BE016F5F7F4FE5
:1049D000C8010E942C0C882309F461C08A858031AB
:1049E00009F45DC0BD828091E1039091E2030E94D1
:1049F0008B08B8018091E1039091E2030E945E0868
:104A000040E06EE48091E1039091E2030E941C0873
:104A100040E06B818091E1039091E2030E941C08C9
:104A200040E06C818091E1039091E2030E941C08B8
:104A30008A85803141F040E06D818091E103909161
:104A4000E2030E941C088091E1039091E2030E941E
:104A50008B08B8018091E1039091E2030E945E0807
:104A60004091DC0368E48091E1039091E2030E94AD
:104A70001C0864E170E080E090E00E94A51A80913B
:104A8000DC03882331F06AE070E080E090E00E946F
:104A9000A51A8091E1039091E2030E948B088A8518
:104AA000803109F45BCFC8010E945E0CD82EFCE077
:104AB0008F1709F453CF8AE892E00E94BF0B2AE0D7
:104AC0004CE050E060E070E08AEF92E00E94352018
:104AD00065ED72E08AEF92E00E94C1084D2D50E032
:104AE00060E070E02AE08AEF92E00E94352063EEF9
:104AF00071E08AEF92E00E94C10830CF991B79E003
:104B000004C0991F961708F0961B881F7A95C9F75D
:104B100080950895AA1BBB1B51E107C0AA1FBB1FAC
:104B2000A617B70710F0A61BB70B881F991F5A9539
:104B3000A9F780959095BC01CD01089597FB072EAC
:104B400016F4009407D077FD09D00E948A2507FC4F
:104B500005D03EF4909581959F4F0895709561958D
:104B60007F4F0895A1E21A2EAA1BBB1BFD010DC0A9
:104B7000AA1FBB1FEE1FFF1FA217B307E407F5070D
:104B800020F0A21BB30BE40BF50B661F771F881FE9
:104B9000991F1A9469F760957095809590959B017F
:104BA000AC01BD01CF010895EE0FFF1F0590F491F8
:104BB000E02D09945058BB27AA270E94F2250C9497
:104BC0009B260E948D2638F00E94942620F039F40E
:104BD0009F3F19F426F40C948A260EF4E095E7FB27
:104BE0000C948426E92F0E94AC2658F3BA1762076A
:104BF00073078407950720F079F4A6F50C94CE2668
:104C00000EF4E0950B2EBA2FA02D0B01B9019001E7
:104C10000C01CA01A0011124FF27591B99F0593F2B
:104C200050F4503E68F11A16F040A22F232F342F73
:104C30004427585FF3CF469537952795A795F040C1
:104C40005395C9F77EF41F16BA0B620B730B840BD6
:104C5000BAF09150A1F0FF0FBB1F661F771F881F8E
:104C6000C2F70EC0BA0F621F731F841F48F48795E6
:104C700077956795B795F7959E3F08F0B0CF9395D8
:104C8000880F08F09927EE0F979587950895E89477
:104C900009C097FB3EF490958095709561957F4F84
:104CA0008F4F9F4F9923A9F0F92F96E9BB27939532
:104CB000F695879577956795B795F111F8CFFAF442
:104CC000BB0F11F460FF1BC06F5F7F4F8F4F9F4F73
:104CD00016C0882311F096E911C0772321F09EE8D1
:104CE000872F762F05C0662371F096E8862F70E037
:104CF00060E02AF09A95660F771F881FDAF7880F11
:104D00009695879597F9089597F99F6780E870E0E1
:104D100060E008959FEF80EC089500240A94161631
:104D2000170618060906089500240A941216130699
:104D3000140605060895092E0394000C11F4882327
:104D400052F0BB0F40F4BF2B11F460FF04C06F5F43
:104D50007F4F8F4F9F4F089557FD9058440F551F19
:104D600059F05F3F71F04795880F97FB991F61F0ED
:104D70009F3F79F087950895121613061406551F64
:104D8000F2CF4695F1DF08C0161617061806991FD0
:104D9000F1CF86957105610508940895E894BB27C5
:104DA00066277727CB0197F908950E94E8260C948F
:104DB0009B260E948D2638F00E94942620F0952391
:104DC00011F00C9484260C948A2611240C94CF267E
:104DD0000E94AC2670F3959FC1F3950F50E0551FCC
:104DE000629FF001729FBB27F00DB11D639FAA2740
:104DF000F00DB11DAA1F649F6627B00DA11D661F8F
:104E0000829F2227B00DA11D621F739FB00DA11DAF
:104E1000621F839FA00D611D221F749F3327A00D69
:104E2000611D231F849F600D211D822F762F6A2F05
:104E300011249F5750409AF0F1F088234AF0EE0F6A
:104E4000FF1FBB1F661F771F881F91505040A9F797
:104E50009E3F510580F00C9484260C94CF265F3F32
:104E6000E4F3983ED4F3869577956795B795F795D3
:104E7000E7959F5FC1F7FE2B880F911D969587954B
:104E800097F9089581E090E0F8940C941C2AFB01B6
:104E9000DC0102C001900D9241505040D8F70895B6
:104EA000FB01DC010D900020E9F7119701900D92B4
:104EB0000020E1F70895FB01DC018D91019080193C
:104EC0000110D9F3990B0895FB0151915523A9F0D5
:104ED000BF01DC014D9145174111E1F759F4CD01B6
:104EE0000190002049F04D9140154111C9F3FB019B
:104EF0004111EFCF81E090E001970895EF920F9379
:104F00001F93CF93DF93E80147FD02C034E001C057
:104F100034E1E42F440FFF0BF7FF03C0F195E19557
:104F2000F109E32E022F2E2FAE010E94B627CE01EB
:104F3000DF91CF911F910F91EF900895FC01A08117
:104F4000B181AD01109681F03D91FB0101900316F6
:104F50000110E1F7C9F7002011F4D00102C01E9240
:104F60001196FC01A083B183CA0108954F925F920C
:104F70006F927F929F92AF92BF92CF92DF92EF9209
:104F8000FF920F931F93CF93DF93CDB7DEB729978F
:104F90000FB6F894DEBF0FBECDBF6A01122FB02E40
:104FA0002BE3201720F0FF24F394F00E02C0BCE3A3
:104FB000FB2E0F2D27E0AE014F5F5F4F0E9444296B
:104FC000AC018981982F9970913031F0E1FC06C0D5
:104FD000E0FE06C090E205C09DE203C09BE201C076
:104FE00090E0EE2DE07183FF3CC0911102C083E0A0
:104FF00001C084E0811718F4212F281B01C020E094
:10500000E1110BC0F601822F30E2882319F03193B1
:105010008150FBCFC20ED11C20E0992329F0D6018C
:105020009C93F60131966F01C6010396E2FE0AC019
:105030003EE4D6013C9341E411964C9311971296AD
:105040003C9306C03EE6F601308341E6418332835D
:10505000FC01322F40E2332309F442C04193315026
:10506000FACF82FF44C0911102C083E001C084E006
:10507000811718F4212F281B01C020E0E1110BC07B
:10508000F601822F30E2882319F031938150FBCF53
:10509000C20ED11C20E0992329F0D6019C93F60181
:1050A00031966F01C6010396E2FE0BC039E4D601CA
:1050B0003C933EE411963C93119736E412963C9350
:1050C00007C039E6F60130833EE6318336E63283A7
:1050D000FC01322F40E2332319F041933150FBCFD2
:1050E000FC01E20FF11D10828EEF9FEFB7C0F1E0DF
:1050F000911101C0F0E06F2F70E01416150624F432
:105100009A012F5F3F4F02C021E030E0260F371F8A
:10511000BB2029F06B2D70E06F5F7F4F02C060E015
:1051200070E0260F371F612F70E0261737071CF439
:10513000121B212F01C020E03E2D387159F4D601F9
:10514000322F60E2332319F06D933150FBCFC20E42
:10515000D11C20E0FF2331F0D6019C93B6016F5F94
:105160007F4F6B01E1110BC0F601922F30E39923C1
:1051700019F031939150FBCFC20ED11C20E09F2D2E
:10518000940F3A81782F7071A72E84FF03C03133BA
:1051900009F49150191624F4993018F098E001C0E0
:1051A00091E0E42F852F57FF02C0E0E080E06E2FF2
:1051B000782FE0E0F0E0AEE29A2E3A01691A710829
:1051C0002A01461A570A0B2D10E011950195110975
:1051D0006F3F8FEF780729F4D6019C92C6010196A4
:1051E0006C014617570784F0661677066CF47F014A
:1051F000E40CF51CA1E0B0E0AC0FBD1FEA0EFB1EF5
:10520000D7011196BC9002C090E3B92E615071098C
:105210003196C60101967C016017710724F0D60112
:10522000BC926C01D5CF6417750741F4363320F476
:10523000353321F4A11002C081E3B82EF601B0820B
:10524000F701822F90E2882319F091938150FBCFD0
:10525000F701E20FF11D108280E090E029960FB671
:10526000F894DEBF0FBECDBFDF91CF911F910F919C
:10527000FF90EF90DF90CF90BF90AF909F907F9086
:105280006F905F904F900895283008F027E0332703
:10529000DA01990F311D87FD916000966105710556
:1052A00039F432602E5F3D9330E32A95E1F708959B
:1052B0009F3F30F080387105610509F03C5F3C5F2D
:1052C0003D93913008F08068911DDF93CF931F9339
:1052D0000F93FF92EF92192F987F9695E92F96954D
:1052E0009695E90FFF27EE54FC4F99273327EE24BC
:1052F000FF24A701E70105900894079428F4360FCE
:10530000E71EF81E491F511D660F771F881F991F42
:105310000694A1F70590079428F4E70EF81E491F9C
:10532000561FC11D770F881F991F661F0694A1F78E
:105330000590079428F4F80E491F561FC71FD11D6A
:10534000880F991F661F771F0694A1F70590079491
:1053500020F4490F561FC71FD81F990F661F771FCC
:10536000881F0694A9F784911095177041F0D6957F
:10537000C79557954795F794E7941A95C1F7E8E5CF
:10538000F3E068941590159135916591959105908C
:105390007FE27395E118F10A430B560BC90BD00954
:1053A000C0F7E10CF11E431F561FC91FD01D7EF42C
:1053B000703311F48A95E6CFE894015030F0080F6D
:1053C0000AF40027021708F4202F2395022F7A33BE
:1053D00028F079E37D932A95E9F710C07D932A950B
:1053E00089F6069497956795379517951794E11860
:1053F000F10A430B560BC90BD00998F023957E9107
:1054000073957A3308F070E37C932013B8F77E919C
:1054100070617D9330F0839571E37D9370E32A95FD
:10542000E1F71124EF90FF900F911F91CF91DF9141
:0C543000992787FD90950895F894FFCF10
:10543C0028FFDD96361603B928B38E4A070000A85C
:10544C00280A62B8070000B401000000000015062D
:10545C001006D803870269025402B802B502D802BA
:10546C000904BB02F503A302CD025E00BC00770168
:10547C00AC02B902C702000000009E18311F671869
:10548C0045185918E51800000000C319311FC3193D
:10549C00C319C319C31900000000CF10E510FF1089
:1054AC0000000000C319311F000000007919000032
:1054BC000000C319C33C33CE3EE3EC474554002FE8
:1054CC0074656D7000485454502F312E3120323099
:1054DC0030204F4B200D0A436F6E74656E742D5443
:1054EC007970653A20746578742F706C61696E20E0
:1054FC000D0A436F6E6E656374696F6E3A20636C50
:10550C006F7365200D0A526566726573683A2035B3
:10551C00200D0A0D0A00485454502F312E312034DE
:10552C00333120526571756573742048656164650B
:10553C0072204669656C647320546F6F204C6172E5
:10554C006765200D0A0D0A00485454502F312E3136
:10555C0020343035204D6574686F64204E6F742094
:10556C00416C6C6F776564200D0A0D0A0048545429
:10557C00502F312E3120353031204E6F7420496D33
:10558C00706C656D656E746564200D0A0D0A4F6E46
:10559C006C792074656D7065726174757265282FF5
:1055AC0074656D70292072657175657374732073E1
:1055BC007570706F727465642E0D0A0048545450E7
:1055CC002F312E312035323020556E6B6E6F776E49
:1055DC00204572726F72200D0A0D0A004C616B65CA
:1055EC002057617465723A20004F75747369646555
:1055FC00204169723A2000496E74616B65205069D4
:10560C0070653A2000206275742072656365697656
:04561C0065642000A1
:00000001FF
