:100000000C94F0010C943F130C9466130C9418029A
:100010000C9418020C9418020C9418020C941802F8
:100020000C9418020C9418020C9418020C942111D0
:100030000C9418020C9418020C9418020C941802D8
:100040000C948D130C9418020C948E160C94C016FC
:100050000C9418020C9418020C9418020C941802B8
:100060000C9418020C9418024572726F723A207246
:1000700065637646726F6D41636B004572726F7295
:100080002073656E64696E6720726573706F6E733E
:1000900065287329004572726F722073656E6469FA
:1000A0006E6720726573706F6E73652873290054D4
:1000B000656D7065726174757265733A00646F6E18
:1000C000652E0052657175657374696E672074657D
:1000D0006D7065726174757265732E2E2E00207CB2
:1000E00020547970653A00207C20526573703A0084
:1000F000207C2069643A00476F74206D65737361DA
:1001000067652066726F6D203A2030780050726FFC
:1001100063657373696E672072656365697665648C
:10012000206D6573736167652E004572726F723A58
:1001300020756E61626C6520746F20636F6D6D75E4
:100140006E696361746520776974682073656E7386
:100150006F72200020430030002062757420636FAE
:10016000756C64206E6F74206465746563742061BF
:100170006464726573732E20436865636B20706FCF
:1001800077657220616E64206361626C696E6700DE
:10019000466F756E642067686F7374206465766956
:1001A000636520617420005265736F6C7574696FAC
:1001B0006E2061637475616C6C7920736574207452
:1001C0006F3A200053657474696E67207265736FAF
:1001D0006C7574696F6E20746F2000207769746885
:1001E00020616464726573733A2000466F756E64B3
:1001F0002064657669636520004F4646004F4E00D7
:10020000506172617369746520706F7765722069DF
:10021000733A2000204F6E655769726520646576D9
:10022000696365732E00466F756E642000496E74B5
:1002300069616C697A696E672074656D7065726159
:10024000747572652073656E736F72732E2E2E0037
:10025000646F6E652E00526164696F20696E697407
:10026000206661696C656400496E697469616C69D6
:100270007A696E6720726164696F2E2E2E00005EAF
:10028000BCE2613FDD83C29C7E20A3FD1F419DC374
:10029000217FFCA2401E5F01E3BD3E6082DC237D26
:1002A0009FC1421CFEA0E1BF5D0380DE3C62BEE058
:1002B000025CDF81633D7C22C09E1D43A1FF461886
:1002C000FAA427799BC584DA3866E5BB5907DB8534
:1002D0006739BAE406581947A5FB7826C49A653BE6
:1002E000D987045AB8E6A7F91B45C6987A24F8A618
:1002F000441A99C7257B3A6486D85B05E7B98CD246
:10030000306EEDB3510F4E10F2AC2F7193CD114FF3
:10031000ADF3702ECC92D38D6F31B2EC0E50AFF1A5
:10032000134DCE90722C6D33D18F0C52B0EE326CD7
:100330008ED0530DEFB1F0AE4C1291CF2D73CA9405
:100340007628ABF517490856B4EA6937D58B5709B3
:10035000EBB536688AD495CB2977F4AA4816E9B765
:10036000550B88D6346A2B7597C94A14F6A8742A97
:10037000C896154BA9F7B6E80A54D7896B35000023
:100380000008000201000003040700000000000054
:10039000000001020408102040800102040810201F
:1003A00001020408102004040404040404040202EA
:1003B0000202020203030303030300000000230000
:1003C0002600290000000000250028002B00000066
:1003D0000000240027002A00D004E30CF016FC04DF
:1003E00011241FBECFEFD8E0DEBFCDBF12E0A0E0EA
:1003F000B1E0ECE6F0E402C005900D92AC33B10739
:10040000D9F724E0ACE3B2E001C01D92A938B207ED
:10041000E1F713E0CEEDD3E004C02297FE010E9485
:10042000061DC83DD107C9F70E9434170C94292036
:100430000C940000CF93C82FE091E203F091E30306
:100440000190F081E02D682F82EE93E009958C2FCA
:10045000992787FD9095CF91089560E070E08AE13B
:1004600092E00C947C1FFF920F931F93CF93DF9326
:10047000EC0188E0F82E8E018881803130F467E548
:1004800071E082EE93E00E948117219640E150E0F6
:10049000F801608182EE93E00E94B918FA9459F74E
:1004A000DF91CF911F910F91FF900895CF93DF932C
:1004B00010923C0226E040E052EC61E070E082EEF7
:1004C00093E00E942C160E942D0268E672E082EEF4
:1004D00093E00E9481178DE392E00E94060B811148
:1004E00008C066E572E082EE93E0DF91CF910C9454
:1004F000BD1743E050E062E070E088E493E00E94C2
:10050000C7116AE588E493E00E94C01168E873E1CE
:100510008DE392E00E94620E60E572E082EE93E06D
:100520000E94BD176DE272E082EE93E00E94BD175B
:100530008CEA93E00E9415078CEA93E00E94620522
:1005400090E09093AB038093AA0366E272E082EEA0
:1005500093E00E9481176091AA037091AB034AE077
:1005600050E082EE93E00E948C1864E172E082EE2B
:1005700093E00E94BD1760E072E082EE93E00E947B
:1005800081178CEA93E00E947308882319F06DEFBD
:1005900071E002C069EF71E082EE93E00E94BD1746
:1005A000C0E0D0E08091AA039091AB03C817D907AF
:1005B0000CF067C04C2F62EA73E08CEA93E00E9473
:1005C0007405882309F448C06BEE71E082EE93E075
:1005D0000E9481174AE050E0BE0182EE93E00E9443
:1005E0008C186BED71E082EE93E00E94811782EA35
:1005F00093E00E94330282EE93E00E94B91764EC0C
:1006000071E082EE93E00E9481174AE050E06CE0D6
:1006100070E082EE93E00E9494184CE062EA73E08E
:100620008CEA93E00E949F0667EA71E082EE93E015
:100630000E94811762EA73E08CEA93E00E94E3066D
:100640004AE050E0682F82EE93E00E94B91882EEF3
:1006500093E00E94B91713C060E971E082EE93E065
:100660000E9481174AE050E0BE0182EE93E00E94B2
:100670008C1869E571E082EE93E00E94BD17219627
:1006800091CFDF91CF910895BF92CF92DF92EF92F9
:10069000FF920F931F93CF93DF93B82EC82FD0E014
:1006A0008E0123E0000F111F2A95E1F7065F1E4F10
:1006B000B8018CEA93E00E94FA05882309F43FC050
:1006C000B8018CEA93E00E948D086B017C01B110A7
:1006D00008C026E636E646E65FE30E94721A6B0122
:1006E0007C01FE01EE0FFF1FEE0FFF1FEC57FC4FCA
:1006F000C082D182E282F38286E08C9FB0018D9F1E
:10070000700D112460577C4F82EE93E00E94A41775
:1007100022E030E0B701A60182EE93E00E94AB191F
:1007200064E571E082EE93E0DF91CF911F910F912C
:10073000FF90EF90DF90CF90BF900C94BD176AE2CE
:1007400071E082EE93E00E94811786E08C9FB001F9
:100750008D9F700D112460577C4F82EE93E0DF91E6
:10076000CF911F910F91FF90EF90DF90CF90BF90AE
:100770000C94CF17CF92DF92EF92FF920F931F93BB
:10078000CF93DF93CDB7DEB760970FB6F894DEBF97
:100790000FBECDBF8DE392E00E949B0A882309F42F
:1007A000EAC06DE071E082EE93E00E94BD1787E041
:1007B0008F87C12CD12CE12CF12C00E010E09E01A0
:1007C000205F3F4FAE01415F5F4FBE01685F7F4FCB
:1007D0008DE392E00E945F0F882309F4C6C067EFA3
:1007E00070E082EE93E00E94811740E150E068895A
:1007F00082EE93E00E94B91860EF70E082EE93E021
:100800000E9481176A8582EE93E00E94B21767EE1C
:1008100070E082EE93E00E9481174AE050E0688524
:1008200082EE93E00E94B9186EED70E082EE93E0E4
:100830000E948117698582EE93E00E94E11763ECC4
:1008400070E082EE93E00E9481178CEA93E00E94B0
:10085000F9076DEB70E082EE93E00E94BD176FEA3E
:1008600070E082EE93E00E94BD178091AA03909100
:10087000AB030817190734F4802F0E9444030F5F5D
:100880001F4FF3CF98858985911154C0843509F0A5
:1008900051C091E099838A8380918403909185036C
:1008A000A0918603B09187038C839D83AE83BF8321
:1008B0008CE48B83288947E0BE016F5F7F4F8DE317
:1008C00092E00E948A0E182F40918803509189036C
:1008D00060918A0370918B034C835D836E837F8369
:1008E0008FE48B83288947E0BE016F5F7F4F8DE3E4
:1008F00092E00E948A0E182B40918C0350918D0338
:1009000060918E0370918F034C835D836E837F8330
:1009100089E48B83288947E0BE016F5F7F4F8DE3B9
:1009200092E00E948A0E111126C0811124C065E94F
:1009300070E01DC091E099838A838AE58B8380E013
:1009400090E0A0ECBFE78C839D83AE83BF832889B2
:1009500047E0BE016F5F7F4F8DE392E00E948A0EF9
:10096000811109C06BE770E002C068E670E082EEBA
:1009700093E00E94BD1764E670E080E090E00E9482
:10098000061460960FB6F894DEBF0FBECDBFDF91A0
:10099000CF911F910F91FF90EF90DF90CF9008952E
:1009A00067E08FEB93E00E94CA096FEB73E08CEA7B
:1009B00093E00E94530566E271E080E993E00E94B3
:1009C0005B1A63E371E086E993E00E945B1A61E4DD
:1009D00071E08CE993E00E945B1A2FEC33E04AE06F
:1009E00068E088E493E00E94851140E768E473E0E2
:1009F0008DE392E00C944F0E8CE993E00E94ED1988
:100A000086E993E00E94ED1980E993E00C94ED19DA
:100A1000CF93CFB7F8948091CE03811127C0E0EB3C
:100A2000F3E08491ECE9F3E09491E82FF0E0EE0F2D
:100A3000FF1FE253FC4FA591B4918C91892321F4BF
:100A400061E08AE00E94E81461E08AE00E94AF144D
:100A50008CB580618CBD8CB580648CBD61E08DE00F
:100A60000E94AF1461E08BE00E94AF148091CE032E
:100A70008F5F8093CE03CFBFCF9108959FB7F89437
:100A80008091CE03882319F081508093CE0380910A
:100A9000CE03811105C08CB58F7B8CBD1092CD0328
:100AA0009FBF08950895FC0182E595E0928B818BAC
:100AB000768365831482108289E0818381E082835A
:100AC00083830895FC0184810895CF93DF93EB0124
:100AD00067E0CE010E948A0A91E02F81821390E0A4
:100AE000892FDF91CF910895EF92FF920F931F937B
:100AF000CF93DF93EC018B01E42E8D819E810E94C8
:100B0000B809F12C41E0B8018D819E810E94ED0968
:100B1000882359F0FE1006C0B801CE010E94650579
:100B2000811104C0F394EF1468F780E0DF91CF9156
:100B30001F910F91FF90EF900895CF92DF92EF9267
:100B4000FF920F931F93CF93DF9300D0CDB7DEB703
:100B50006C01F42EE52EFC018581968169837A83F0
:100B60000E94910869817A81882311F1F6018581BB
:100B700096810E948C0940E06EEBF601858196819A
:100B80000E942E090F2D1E2D89E0F82EF601858179
:100B900096810E947009F80181938F01FA94B1F750
:100BA000F601858196810E94910891E0813009F0DB
:100BB00090E0892F0F900F90DF91CF911F910F91AF
:100BC000FF90EF90DF90CF900895CF93DF93EA01ED
:100BD0000E949D05882351F068E0CE010E948A0A98
:100BE00091E02885821390E0892F01C080E0DF9199
:100BF000CF910895CF93DF93CDB7DEB729970FB686
:100C0000F894DEBF0FBECDBFAE014F5F5F4F0E94B5
:100C1000E50529960FB6F894DEBF0FBECDBFDF9174
:100C2000CF910895EF92FF920F931F93CF93DF938D
:100C3000EC018B017A018D819E810E949108B8019F
:100C40008D819E810E948C0940E06EE48D819E81A1
:100C50000E942E0940E0F70162818D819E810E94F1
:100C60002E0940E0F70163818D819E810E942E094B
:100C7000F8018081803139F040E0F70164818D8195
:100C80009E810E942E098D819E810E949108B8014B
:100C90008D819E810E948C09488168E48D819E81AE
:100CA0000E942E0964E170E080E090E00E9406144A
:100CB0008881882331F06AE070E080E090E00E9453
:100CC00006148D819E81DF91CF911F910F91FF902E
:100CD000EF900C949108EF92FF921F93CF93DF93C4
:100CE00000D0CDB7DEB77C01FC0185819681698398
:100CF0007A830E94910869817A81F70185819681C2
:100D00000E948C0940E064EBF701858196810E9486
:100D10002E09F701858196810E940309182FF7019A
:100D2000858196810E94910881E0111180E00F90E9
:100D30000F90DF91CF911F91FF90EF900895EF9268
:100D4000FF920F931F93CF93DF93CDB7DEB72A9710
:100D50000FB6F894DEBF0FBECDBF7C018B01242FF0
:100D6000AE014F5F5F4F2A870E94E5052A858823E1
:100D7000D1F0F80180818031C1F02B3041F02C306E
:100D800021F02A3031F48FE305C08FE703C08FE5EF
:100D900001C08FE18D83AE014F5F5F4FB801C70186
:100DA0000E94120602C080E001C081E02A960FB6C0
:100DB000F894DEBF0FBECDBFDF91CF911F910F9191
:100DC000FF90EF900895CF93DF93CDB7DEB72997CB
:100DD0000FB6F894DEBF0FBECDBFFB0120812031DE
:100DE000D1F0AE014F5F5F4F0E94E505882379F097
:100DF0008D818F3351F020F48F3149F489E00CC09C
:100E00008F3539F08F3739F002C08AE005C080E0B5
:100E100003C08BE001C08CE029960FB6F894DEBFCA
:100E20000FBECDBFDF91CF910895FF920F931F9317
:100E3000CF93DF93CDB7DEB761970FB6F894DEBFDF
:100E40000FBECDBF8C01FC01858196810E94B8093F
:100E5000F801148241E0BE01665F7F4FF801858191
:100E600096810E94ED098823D1F1BE01665F7F4F14
:100E7000C8010E946505882369F3F801808181110A
:100E800008C0BE01665F7F4FC8010E946B068111DA
:100E900022C0AE014F5F5F4FBE01665F7F4FC8014A
:100EA0000E949D05F801F180BE01665F7F4FC80179
:100EB0000E94E3068F1518F4F801818106C0BE0177
:100EC000665F7F4FC8010E94E306F8018183848139
:100ED0008F5F8483BFCF81E0F8018083DACF619692
:100EE0000FB6F894DEBF0FBECDBFDF91CF911F913B
:100EF0000F91FF900895CF93DF93CDB7DEB7299779
:100F00000FB6F894DEBF0FBECDBFAE014F5F5F4F8F
:100F10000E949D0581E09981911101C080E0299690
:100F20000FB6F894DEBF0FBECDBFDF91CF9108950D
:100F30008F929F92AF92BF92CF92DF92EF92FF92E9
:100F40000F931F93CF93DF93EC018A0169506330B5
:100F500048F4E62FF0E0EE0FFF1FEC5AFE4F8080C2
:100F6000918004C09EEE892E92E0992E0115110504
:100F700001F18B818823E9F0888181111AC00E94D8
:100F8000D7136B017C01AA2497FCA094BA2CB8015A
:100F9000CE010E947B0781111FC00E94D7136819E0
:100FA00079098A099B096C157D058E059F05A0F4BA
:100FB000EECFB401882777FD8095982FDF91CF91F0
:100FC0001F910F91FF90EF90DF90CF90BF90AF9067
:100FD0009F908F900C940614DF91CF911F910F91E9
:100FE000FF90EF90DF90CF90BF90AF909F908F9049
:100FF0000895CF93DF93EC018D819E810E9491082B
:101000008D819E810E94B409488164E48D819E8116
:101010000E942E098A81882341F040E050E06981D6
:10102000CE01DF91CF910C949807DF91CF91089575
:10103000FA01208148E0249F90011124818190E0F1
:10104000982F8827990F990F990F282B392BDB019F
:101050008C918031C1F4678170E08681AB01481BBF
:101060005109CA019695982F8827979587950E94D0
:10107000901C60517109207F53E0220F331F5A9555
:10108000E1F7260F371FC9010895EF92FF920F93E2
:101090001F93CF93DF93CDB7DEB729970FB6F894A0
:1010A000DEBF0FBECDBF8C017B01AE014F5F5F4F36
:1010B0000E94E505882341F0AE014F5F5F4FB70105
:1010C000C8010E94180802C080E894EE29960FB665
:1010D000F894DEBF0FBECDBFDF91CF911F910F916E
:1010E000FF90EF900895FC0180810895813824EEEF
:1010F000920774F0BC01882777FD8095982F0E9495
:10110000751B20E030E040E05CE30E94291C08955C
:1011100060E070E08EEF92EC08950E9445080C9418
:101120007608FF920F931F93CF93DF93FC0100810A
:10113000C181D281F8948981F02EF0948F21898326
:1011400078941DE7115029F182E090E00E9440144C
:1011500088818023B9F3F8948A818F218A838981D9
:10116000802B8983789480EE91E00E944014F8945B
:1011700089818F21898386E490E00E9440148881D0
:10118000802311E009F010E078948AE991E00E9450
:101190004014812FDF91CF911F910F91FF900895FF
:1011A0001F93CF93DF93FC011081C181D281912FD6
:1011B000909560FF12C0F8948A8189238A8389817F
:1011C000812B89838AE090E00E9440148A81812BE0
:1011D0008A83789487E390E011C0F8948A81892308
:1011E0008A838981812B898381E490E00E94401465
:1011F0008A81812B8A83789485E090E0DF91CF917A
:101200001F910C9440140F931F93CF93DF93FC0115
:101210001081C181D281F8948981812B89838A814F
:10122000012F009580238A8383E090E00E94401480
:101230008981802389838AE090E00E944014C881DC
:10124000789485E390E00E9440141C2381E009F427
:1012500080E0DF91CF911F910F910895CF92DF929F
:10126000EF92FF920F931F93CF93DF931F92CDB70F
:10127000DEB76C01E62E08E010E0FF24F39461E095
:101280009F2D9E2109F460E0C60149830E94D00889
:10129000FF0C0150110949810115110581F7411118
:1012A00015C0F894D6011196ED91FC911297918199
:1012B0008C918095892381831196ED91FC911297F1
:1012C00092818C9180958923828378940F90DF910D
:1012D000CF911F910F91FF90EF90DF90CF900895E5
:1012E000EF92FF920F931F93CF93DF938C01C8E08F
:1012F000D0E0F12CEE24E394C8010E94030981118F
:10130000FE28EE0C2197C1F78F2DDF91CF911F9111
:101310000F91FF90EF900895CF92DF92FF920F937D
:101320001F93CF93DF931F92CDB7DEB78C01F62EBC
:1013300040E065E579830E942E09CF2C7981D72E74
:1013400088E0F82EF60161916F0140E0C8010E942B
:101350002E09FA94B9F70F90DF91CF911F910F9159
:10136000FF90DF90CF90089540E06CEC0C942E0934
:10137000FC0113861586148627E030E0DF01A20FFA
:10138000B31F13961C922115310519F02150310914
:10139000F5CF08951F93CF93DF93EC01162F60E0F4
:1013A000812F0E94AF14612F70E0FB01EE56FC4FBD
:1013B000E491E883FB01EA55FC4FE491F0E0EE0F85
:1013C000FF1FE654FC4F859194919A838983CE0147
:1013D000DF91CF911F910C94B809AF92BF92CF9239
:1013E000DF92EF92FF920F931F93CF93DF931F92A1
:1013F000CDB7DEB75C01D62EE72EFC0185858111C5
:1014000064C0C50149830E9491084981811105C0CA
:10141000F50113861586148671C0442319F040E047
:1014200060EF02C040E06CEEC5010E942E0901E0B1
:10143000F12CC12C11E0C5010E940309682FC501E0
:1014400069830E9403096981613019F48130B9F41C
:1014500033C02F2D30E068131BC0F50183851817AA
:1014600030F4E20FF31F8381802349F402C0181780
:1014700031F060E0193058F4F501148708C0F50127
:10148000EF0DF11D8381802B838361E009C0C12EA4
:10149000F501E20FF31F8381902F909589238383B9
:1014A000C5010E94D0081F5F000F11F4F39401E002
:1014B000F7E0FF1508F0BFCF113438F0F501C3860F
:1014C000C11009C081E0858706C0F5011386158625
:1014D000148680E013C0F50183818823B1F3ED2DDC
:1014E000FE2D80E090E0D501A80FB91F13962C9136
:1014F0002193019688309105B1F781E00F90DF913B
:10150000CF911F910F91FF90EF90DF90CF90BF9000
:10151000AF900895DC0180E0615038F0ED91E8274C
:10152000F0E0E258FD4F8491F7CF0895FC017183FC
:10153000608342830895DC018D919C91DC01ED91E3
:10154000FC910280F381E02D0994DC018D919C9146
:10155000DC01ED91FC910484F585E02D0994DC011A
:101560008D919C91DC01ED91FC910088F189E02D39
:101570000994DC018D919C91DC01ED91FC91048832
:10158000F589E02D0994EF92FF920F931F93CF936B
:10159000DF931F92CDB7DEB77C018B01622F4983A9
:1015A0000E94B90AD7018D919C91DC01ED91FC91CB
:1015B0000680F781E02D4981B8010F90DF91CF912E
:1015C0001F910F91FF90EF900994DC018D919C91F8
:1015D000DC01ED91FC910688F789E02D09941F93B9
:1015E000CF93DF93EC01162F88819981DC01ED9177
:1015F000FC910288F389E02D0995612FCE010E94AC
:10160000E50A1A83DF91CF911F9108951F93CF931D
:10161000DF93EC0188819981DC01ED91FC910190CF
:10162000F081E02D0995182F882321F06A81CE01E1
:101630000E94EF0A812FDF91CF911F910895DC0165
:101640008D919C91DC01ED91FC91008CF18DE02D50
:101650000994DC018D919C91DC01ED91FC91028C4F
:10166000F38DE02D0994DC018D919C91DC01ED91CD
:10167000FC91068CF78DE02D0994DC018D919C91F5
:10168000DC01ED91FC9100A0F1A1E02D0994DC01B9
:101690008D919C91DC01ED91FC9102A0F3A1E02DD4
:1016A0000994DC018D919C91DC01ED91FC9104A0E9
:1016B000F5A1E02D0994AF92BF92CF92DF92EF9205
:1016C000FF920F931F93CF93DF93EC015901888111
:1016D0009981DC01ED91FC910480F581E02D099563
:1016E000882309F1A114B10429F0CE010E943D0B19
:1016F000F50180830115110529F0CE010E94330BFD
:10170000D8018C93E114F10429F0CE010E94470B1B
:10171000F7018083C114D10441F0CE010E94510B26
:10172000D6018C9302C080E001C081E0DF91CF91AF
:101730001F910F91FF90EF90DF90CF90BF90AF90EF
:10174000089581E00895FC0165830895FC01648398
:101750000895FC0162870895FC0163870895FC01E8
:10176000648708954095FC0125854223462B4587D3
:101770000895FC0186810895FC0187810895FC018C
:1017800080850895FC018185089580E00895CF93B8
:10179000DF93EC01E881F9810280F381E02DCE0135
:1017A0000995811103C00E943D13F4CFDF91CF91C1
:1017B0000895CF93DF93EC018A819B81039719F4FD
:1017C0000E943D13F9CF81E0DF91CF9108958F9270
:1017D0009F92AF92BF92CF92DF92EF92FF92CF9300
:1017E000DF93EC016B010E94D7134B015C01E12CEC
:1017F000F12C0E94D713681979098A099B096C1585
:101800007D058E059F0560F4E881F9810280F381F2
:10181000E02DCE010995811105C00E943D13E9CF4D
:1018200080E001C081E0DF91CF91FF90EF90DF90E9
:10183000CF90BF90AF909F908F9008958F929F927E
:10184000AF92BF92CF92DF92EF92FF92CF93DF934E
:10185000EC016B010E94D7134B015C01E12CF12CD0
:101860000E94D713681979098A099B096C157D05AF
:101870008E059F0538F48A819B81039729F40E9485
:101880003D13EECF80E001C081E0DF91CF91FF906A
:10189000EF90DF90CF90BF90AF909F908F90089582
:1018A000FC018EE591E091838083138212828FEF99
:1018B00084838287838714861586108A1786128A06
:1018C000118A148A138A089508950895FC01758376
:1018D00064830895FC01778366830895FC01738314
:1018E00062830895FC018AE891E091838083738389
:1018F0006283558344833783268308956EBD000039
:101900000DB407FEFDCF8EB508958CB580688CBDF3
:1019100008958CB58F778CBD08950C943E052CB539
:10192000982F93702C7F922B9CBD9DB582FB8827AE
:1019300080F99E7F982B9DBD0895CF93FC01268151
:1019400037812115310579F02130310541F0223000
:10195000310539F02330310531F49CE005C094E0C5
:1019600003C098E001C090E08CB5837F892B8CBDCB
:1019700084819581019719F48CB5806202C08CB581
:101980008F7D8CBD8281938101978430910528F4ED
:10199000FC01E656FE4FC08101C0C1E08C2F0E94C1
:1019A0008F0C0E9408058C2FCF910C948F0CCF9335
:1019B000DF93EC010E94720C82EA91E099838883A4
:1019C000DF91CF91089520E030E040E050E060E00A
:1019D00070E08FEC93E00C94D70CCF93DF93EC0185
:1019E0008D899E89DC01ED91FC910680F781E02DC7
:1019F000099561E08F890E94AF1461E08F890E9490
:101A0000E81464E670E080E090E00E94061481E053
:101A1000DF91CF910895EF92FF920F931F93CF9391
:101A2000DF931F92CDB7DEB77C018A0169830E94E4
:101A3000500C86EB91E0F70191838083168B058B28
:101A40006981678B0F90DF91CF911F910F91FF906C
:101A5000EF9008950F931F93CF93DF93EC01062F20
:101A60001FB7F89460E08F890E94E8148D899E89E1
:101A7000DC01ED91FC910190F081E02D602F099542
:101A8000082F61E08F890E94E8141FBF802FDF912B
:101A9000CF911F910F9108950F931F93CF93DF93D1
:101AA000EC01062F1FB7F89460E08F890E94E814BC
:101AB0008D899E89DC01ED91FC910190F081E02DF2
:101AC000602F09958D899E89DC01ED91FC91019033
:101AD000F081E02D60E00995082F61E08F890E9478
:101AE000E8141FBF802FDF91CF911F910F910895B0
:101AF000EF92FF920F931F93CF93DF931F92CDB777
:101B0000DEB77C01162F0FB7F89460E0DC01579622
:101B10008C9149830E94E814F70185899689DC013C
:101B2000ED91FC910190F081E02D612F0995182F26
:101B3000F70185899689DC01ED91FC910190F08196
:101B4000E02D4981642F099561E0F70187890E94A2
:101B5000E8140FBF812F0F90DF91CF911F910F914C
:101B6000FF90EF900895AF92BF92DF92EF92FF92B5
:101B70000F931F93CF93DF9300D0CDB7DEB78C01C7
:101B8000D62EF22EEFB6F89460E0DC0157968C91D9
:101B900049835A830E94E814F80185899689DC01FB
:101BA000ED91FC910190F081E02D6D2D0995D82EDD
:101BB0004981A42E5A81B52EF40EFA1479F0F80159
:101BC00085899689DC01ED91FC910190F081E02DF1
:101BD00060E00995F50181935F01EFCF61E0D801E5
:101BE00057968C910E94E814EFBE8D2D0F900F90A8
:101BF000DF91CF911F910F91FF90EF90DF90BF90F9
:101C0000AF900895AF92BF92DF92EF92FF920F9341
:101C10001F93CF93DF9300D0CDB7DEB78C01D62EC4
:101C2000F22EEFB6F89460E0DC0157968C91498370
:101C30005A830E94E814F80185899689DC01ED91A8
:101C4000FC910190F081E02D6D2D0995D82E4981F0
:101C5000A42E5A81B52EF40EFA1471F0F80185897C
:101C60009689D5016D915D01DC01ED91FC910190AA
:101C7000F081E02D0995F0CF61E0F80187890E949D
:101C8000E814EFBE8D2D0F900F90DF91CF911F9133
:101C90000F91FF90EF90DF90BF90AF900895CF939A
:101CA000DF93EC010E94960A1B821C821D821E8219
:101CB0001F8288EC90E09987888783E08A87DF918C
:101CC000CF910895FC017187608708950F931F934A
:101CD000CF93DF9300D0CDB7DEB78C014A830E944B
:101CE0001F0B40E060E8C8010E94290B81E2898354
:101CF0002A8141E0BE016F5F7F4FC8010E94C30A85
:101D0000C8010E94A50A0F900F90DF91CF911F91FB
:101D10000F9108952F923F924F925F926F927F9210
:101D20008F929F92AF92BF92CF92DF92EF92FF92EB
:101D30000F931F93CF93DF9300D000D000D0CDB787
:101D4000DEB75C014B014E83222EFC0137803394B9
:101D5000378280E031E0380F3D83F5019285981796
:101D600008F491C0632DC5010E941F0B40E860E09C
:101D7000C5010E94290B222D4E81B401C5010E948C
:101D8000C30AC5010E94A50AFFEF2F1609F47DC002
:101D90002D81223060F0F50183819481A581B68187
:101DA0000196A11DB11D83839483A583B6830E94F0
:101DB000D7132B013C01F5010085118520E031E0AE
:101DC00040E050E060E070E0CB010E94D1199B013F
:101DD000AC01D8010E94E51C20E031E040E050E079
:101DE0000E94C61C200F311F420E531E611C711C25
:101DF0000E94D713A3019201261B370B480B590BE6
:101E0000CA01B9011216130614061506C4F5C50158
:101E10000E94AF0A882381F19E012F5F3F4F690125
:101E2000AE014E5F5F4F7A018E010D5F1F4F2D5F38
:101E30003F4F40E050E060E070E0C5010E945B0B66
:101E40008823D1F04C81898142110AC02B81F50190
:101E50009281291305C087FF03C09A819315A9F0C9
:101E600087FD0AC06A81F501E40FF11D83856813BF
:101E700003C0C5010E94660E0E943D13B9CF0E94A7
:101E80003D138D8167CF80E001C081E026960FB6BB
:101E9000F894DEBF0FBECDBFDF91CF911F910F91A0
:101EA000FF90EF90DF90CF90BF90AF909F908F907A
:101EB0007F906F905F904F903F902F9008952F925A
:101EC0003F924F925F926F927F928F929F92AF92CA
:101ED000BF92CF92DF92EF92FF920F931F93CF9317
:101EE000DF93CDB7DEB728970FB6F894DEBF0FBEED
:101EF000CDBF5C0119012801470136014F83588786
:101F00006D837E830E949B0A4F8158856D817E81FF
:101F1000882329F1CE0101966C01DE0112967D0124
:101F20008E010D5F1F4F9E012C5F3F4FC5010E9428
:101F30005B0B182F882399F0898187FD10C08B8156
:101F40008F3F29F04C816A81C5010E94660E8A810B
:101F50009C81F501E90FF11D2385821302C010E079
:101F600017C02114310411F0D1019C934114510484
:101F700019F09B81D2019C938114910411F0D4013A
:101F80008C936114710419F09981D3019C93838718
:101F9000812F28960FB6F894DEBF0FBECDBFDF911C
:101FA000CF911F910F91FF90EF90DF90CF90BF9056
:101FB000AF909F908F907F906F905F904F903F90E9
:101FC0002F900895CF93DF93EC018F890E941E1507
:101FD00021E0892B09F420E08A8D8227DF91CF91BF
:101FE0000895FC01808D0C94E814FC01238D622778
:101FF000818D0C94E814CF93DF93EC018A819B814F
:10200000029761F060E0CE010E94F50F60E0CE0122
:102010000E94F10F82E090E09B838A83DF91CF9151
:102020000895862F86958695887098E0980F891771
:1020300049F0E82FF0E0E252FE4F2081621719F0DC
:102040008F5FF5CF80E008951F93CF93DF93EC016E
:102050000E94E20F882319F09F8D9F5F9F8F9E8DB6
:10206000891771F098A1903518F42BE030E002C088
:102070002DE130E098A1290F311D28A38E8F03C0D8
:1020800088A18C5E88A388A1803A08F46EC08AA1DA
:102090009BA1969587959BA38AA38F8D853028F069
:1020A0008AA19BA198609BA38AA388A1805A88A338
:1020B0001F8E89A1882309F446C08CA18F5F8CA351
:1020C0008C3008F452C06AA17BA16F73CE010E94CC
:1020D0001110182F6AA17BA146E0769567954A9565
:1020E000E1F7CE010E94111090E1199F9001112497
:1020F000822BBE0167597F4FFB019081DE01A859F9
:10210000BF4F9923B1F0FB01908121E0290F20837B
:10211000AE01490F511DFA0185A3FB0190818C91FD
:10212000981778F019A281E08C8FCE010E94FB0FE6
:1021300008C08C939C91973090F09C91943478F4E3
:10214000E2CF1CA212C08AA19BA188339B4069F4F4
:1021500081E089A31CA2C759DF4F188206C019A2CB
:102160008F8598890196988B8F87DF91CF911F91EA
:102170000895CF92DF92EF92FF920F931F93CF9328
:10218000DF93EC018C0104591F4FF801808191E02D
:10219000980F9083811136C06E01FAE6CF0ED11CE4
:1021A000F6018081EF56FF4F9081891748F0CE01EC
:1021B0000E94FB0F8B899C8901969C8B8B8B22C084
:1021C000FE01E80FF11DE359FF4F608170E07E01D1
:1021D000FBE6EF0EF11CF701808191E0980F9083F0
:1021E00002C0759567958A95E2F76170CE010E94ED
:1021F000F10FF7018081863028F01082F60180818E
:102200008F5F8083F8018081883008F01082DF9131
:10221000CF911F910F91FF90EF90DF90CF90089595
:10222000FC01228133812430310511F40C942410F7
:10223000FC01228133812330310511F40C94B91053
:1022400008951F920F920FB60F9211242F933F9370
:102250004F935F936F937F938F939F93AF93BF93AE
:10226000EF93FF938091D7039091D8030E941011B0
:10227000FF91EF91BF91AF919F918F917F916F915E
:102280005F914F913F912F910F900FBE0F901F9034
:1022900018958CE10895DF92EF92FF920F931F93B0
:1022A000CF93DF93EC017B018A01E881F981028001
:1022B000F381E02D0995D82E8823F1F0E114F10483
:1022C000C9F001151105B1F08A8D282F30E0235097
:1022D0003109F801408150E04217530714F084504F
:1022E0008083F801408150E0BE01615E7F4FC701ED
:1022F0000E946C1F1BAE1A8E8D2DDF91CF911F9106
:102300000F91FF90EF90DF9008951F93CF93DF938D
:10231000EC01162F642FA9010E940B0D82EF91E0B2
:10232000998388831BAE8CE0888F198FDF91CF91C2
:102330001F9108956F7160620C94780DCF93DF93B5
:10234000EC018A819B81019771F040E060E0CE0151
:102350000E949A1160E0898D0E94E81481E090E06B
:102360009B838A8301C080E0DF91CF9108956FEF56
:102370000C942A0D61EE0C942A0D62EE0C942A0D39
:10238000462F4F7765E00E949A1181E00895440F2F
:10239000551F46706230710511F4406204C061300F
:1023A000710509F44860416066E00E949A1181E07D
:1023B0000895CF93DF93EC018A819B81029769F0A6
:1023C000488D60E0CE010E949A1160E0898D0E94E4
:1023D000E81482E090E09B838A83DF91CF91089597
:1023E0001F93CF93DF93EC018A819B810397D1F4F4
:1023F000CE010E94B711182F807319F40E943D136B
:10240000F7CF14FF03C0CE010E94BA11CE010E9483
:10241000D91140E367E0CE010E949A1115FB88278D
:1024200080F901C080E0DF91CF911F910895CF9393
:10243000DF93EC018A819B81049771F0488D4360A2
:1024400060E0CE010E949A1161E0898D0E94E8143B
:1024500084E090E09B838A83DF91CF910895CF93AE
:10246000DF93EC018A819B810397B9F060E0898D4D
:102470000E94E81440E367E0CE010E949A11488D63
:10248000426060E0CE010E949A1161E0898D0E9455
:10249000E81483E090E09B838A83DF91CF910895D5
:1024A0001F93CF93DF93EC01142F4D3100F58A85F4
:1024B0008B8F8B858C8F8C858D8F8D858E8F50E04B
:1024C000CE014F960E946C1F24E0210FAE01455EA5
:1024D0005F4F60EBCE010E94020ECE010E942F12D0
:1024E0008B899C8901969C8B8B8B81E001C080E05D
:1024F000DF91CF911F910895FC01828D8430C8F047
:10250000838D8683848D8783858D8087868D818763
:102510008581811107C096818481981719F0868181
:102520008F3F39F4818992890196928B818B81E06A
:1025300083AF08950F931F93CF93DF93EC011BADEF
:10254000111134C02A813B812330310581F10E9471
:10255000171267E1CE010E944C0D80FD28C060E695
:10256000CE010E944C0D082F813248F0CE010E940E
:10257000BD111BAE1A8ECE010E94D91118C040E4C5
:1025800067E0CE010E949A11202FAE01455E5F4F99
:1025900061E6CE010E94B30D0A8FCE010E947C122B
:1025A0008BAD882319F0CE010E94D9111BAD812F6C
:1025B000DF91CF911F910F9108951F93CF93DF93D8
:1025C000EC018D899E89DC01ED91FC910684F785F3
:1025D000E02D60E070E00995CE010E94ED0C182F0F
:1025E000811102C010E044C061E0898D0E94AF14E7
:1025F00060E0898D0E94E81440E767E0CE010E9408
:102600009A114FE36CE1CE010E949A1145E06DE111
:10261000CE010E949A116DE1CE010E944C0D8530D1
:10262000A9F4CE010E94D911CE010E94BA11CE01A7
:102630000E94BD1162E0CE010E94C01143E050E053
:1026400061E070E0CE010E94C71112C043E760E56F
:10265000CE010E94780D45E06DE1CE010E949A11F5
:102660006DE1CE010E944C0D853009F0BBCFD9CF72
:10267000812FDF91CF911F910895089508951F92A2
:102680000F920FB60F9211242F933F934F935F93A6
:102690006F937F938F939F93AF93BF93EF93FF932A
:1026A000E0912201F09123010995FF91EF91BF91F3
:1026B000AF919F918F917F916F915F914F913F91DA
:1026C0002F910F900FBE0F901F9018951F920F9291
:1026D0000FB60F9211242F933F934F935F936F93F5
:1026E0007F938F939F93AF93BF93EF93FF93E0916B
:1026F0002401F09125010995FF91EF91BF91AF91D0
:102700009F918F917F916F915F914F913F912F9109
:102710000F900FBE0F901F9018951F920F920FB63B
:102720000F9211242F933F938F939F93AF93BF9357
:102730008091DA039091DB03A091DC03B091DD037B
:102740003091D90323E0230F2D3720F40196A11DEA
:10275000B11D05C026E8230F0296A11DB11D2093CF
:10276000D9038093DA039093DB03A093DC03B09347
:10277000DD038091DE039091DF03A091E003B0912F
:10278000E1030196A11DB11D8093DE039093DF0349
:10279000A093E003B093E103BF91AF919F918F911C
:1027A0003F912F910F900FBE0F901F9018952FB74C
:1027B000F8946091DA037091DB038091DC039091CF
:1027C000DD032FBF08953FB7F8948091DE03909109
:1027D000DF03A091E003B091E10326B5A89B05C0FB
:1027E0002F3F19F00196A11DB11D3FBF6627782F1D
:1027F000892F9A2F620F711D811D911D42E0660F76
:10280000771F881F991F4A95D1F708958F929F923D
:10281000AF92BF92CF92DF92EF92FF926B017C0159
:102820000E94E3134B015C01C114D104E104F104E3
:10283000F1F00E943D130E94E313681979098A0997
:102840009B09683E73408105910570F321E0C21A2F
:10285000D108E108F10888EE880E83E0981EA11CDB
:10286000B11CC114D104E104F10429F7DDCFFF90BC
:10287000EF90DF90CF90BF90AF909F908F90089592
:102880008230910538F0880F991F880F991F05979E
:102890000197F1F70895789484B5826084BD84B57A
:1028A000816084BD85B5826085BD85B5816085BD4B
:1028B000EEE6F0E0808181608083E1E8F0E0108264
:1028C000808182608083808181608083E0E8F0E0A5
:1028D000808181608083E1EBF0E08081846080838F
:1028E000E0EBF0E0808181608083EAE7F0E08081C6
:1028F0008460808380818260808380818160808326
:102900008081806880831092C1000895833081F0B7
:1029100028F4813099F08230A1F008958730A9F031
:102920008830B9F08430D1F4809180008F7D03C06D
:10293000809180008F7780938000089584B58F7791
:1029400002C084B58F7D84BD08958091B0008F77DB
:1029500003C08091B0008F7D8093B0000895CF9325
:10296000DF9390E0FC01EE56FC4F2491FC01EA5508
:10297000FC4F8491882349F190E0880F991FFC0156
:10298000E253FC4FA591B4918C539C4FFC01C5912F
:10299000D4919FB7611108C0F8948C91209582233F
:1029A0008C93888182230AC0623051F4F8948C9110
:1029B000322F309583238C938881822B888304C0A7
:1029C000F8948C91822B8C939FBFDF91CF910895C7
:1029D0000F931F93CF93DF931F92CDB7DEB7282FAE
:1029E00030E0F901E258FC4F8491F901EE56FC4FBA
:1029F0001491F901EA55FC4F04910023C9F0882392
:102A000021F069830E9486146981E02FF0E0EE0FC7
:102A1000FF1FEC53FC4FA591B4919FB7F8948C9194
:102A2000611103C01095812301C0812B8C939FBF3E
:102A30000F90DF91CF911F910F910895CF93DF9366
:102A4000282F30E0F901E258FC4F8491F901EE564D
:102A5000FC4FD491F901EA55FC4FC491CC2391F07D
:102A600081110E948614EC2FF0E0EE0FFF1FE65458
:102A7000FC4FA591B4912C912D2381E090E021F49D
:102A800080E002C080E090E0DF91CF9108950E9445
:102A9000671FFC01818D228D90E0805C9F4F821B1F
:102AA00091098F7399270895FC01918D828D981754
:102AB00031F0828DE80FF11D858D90E008958FEF44
:102AC0009FEF0895FC01918D828D981761F0828DA2
:102AD000DF01A80FB11D5D968C91928D9F5F9F7352
:102AE000928F90E008958FEF9FEF089586EE96E124
:102AF000892B49F080E090E0892B29F00E94E616AE
:102B000081110C9400000895FC01848DDF01A80F51
:102B1000B11DA35ABF4F2C91848D90E001968F7305
:102B20009927848FA689B7892C93A089B1898C9124
:102B300080648C93938D848D981306C00288F389EA
:102B4000E02D80818F7D80830895CF93DF93EC010A
:102B5000888D8823C9F0EA89FB89808185FD05C0BD
:102B6000A889B9898C9186FD0FC00FB607FCF5CFF7
:102B7000808185FFF2CFA889B9898C9185FFEDCF3F
:102B8000CE010E948415E7CFDF91CF910895CF92B7
:102B9000DF92FF920F931F93CF93DF931F92CDB7D6
:102BA000DEB76C0181E0D60158968C9358975B96FE
:102BB0009C915B975C968C915C97981307C050969C
:102BC000ED91FC915197808185FD2EC0F601038D1A
:102BD00010E00F5F1F4F0F731127F02EF601848D49
:102BE000F81211C00FB607FCF9CFD6015096ED913F
:102BF000FC915197808185FFF1CFC60169830E94C6
:102C000084156981EBCF838DE80FF11DE35AFF4FE7
:102C10006083D6015B960C935B975296ED91FC9185
:102C20005397808180620CC0D6015696ED91FC913D
:102C3000579760835096ED91FC9151978081806405
:102C4000808381E090E00F90DF91CF911F910F91F1
:102C5000FF90DF90CF900895BF92CF92DF92EF92D6
:102C6000FF92CF93DF93EC016A017B01B22EE889DA
:102C7000F98982E08083411581EE5807610571056D
:102C8000A1F060E079E08DE390E0A70196010E9459
:102C9000A41C215031094109510956954795379592
:102CA0002795211580E1380798F0E889F989108285
:102CB00060E874E88EE190E0A70196010E94A41CF0
:102CC0002150310941095109569547953795279566
:102CD000EC85FD853083EE85FF852083188EEC8999
:102CE000FD89B082EA89FB89808180618083EA89DD
:102CF000FB89808188608083EA89FB898081806884
:102D00008083EA89FB8980818F7D8083DF91CF91E9
:102D1000FF90EF90DF90CF90BF9008951F920F9299
:102D20000FB60F9211242F938F939F93EF93FF93DE
:102D3000E091F203F091F3038081E091F803F091C8
:102D4000F90382FD12C090818091FB038F5F8F7326
:102D50002091FC03821751F0E091FB03F0E0EE516B
:102D6000FC4F958F8093FB0301C08081FF91EF9111
:102D70009F918F912F910F900FBE0F901F901895DC
:102D80001F920F920FB60F9211242F933F934F93E0
:102D90005F936F937F938F939F93AF93BF93EF93C3
:102DA000FF9382EE93E00E948415FF91EF91BF9113
:102DB000AF919F918F917F916F915F914F913F91D3
:102DC0002F910F900FBE0F901F90189582EE93E0F9
:102DD0000E94491521E0892B09F420E0822F0895F3
:102DE0001092E5031092E40388EE93E0A0E0B0E0D7
:102DF0008093E6039093E703A093E803B093E9037D
:102E00008EE192E09093E3038093E20385EC90E0FF
:102E10009093EF038093EE0384EC90E09093F103A2
:102E20008093F00380EC90E09093F3038093F2039F
:102E300081EC90E09093F5038093F40382EC90E0B2
:102E40009093F7038093F60386EC90E09093F90358
:102E50008093F8031092FB031092FC031092FD0381
:102E60001092FE03089508950E944B140E94331798
:102E70000E945602C6E7D5E10E94BA032097E1F30B
:102E80000E947615F9CFCF92DF92EF92FF920F93C7
:102E90001F93CF93DF937C016A01EB0100E010E008
:102EA0000C151D0571F06991D701ED91FC91019010
:102EB000F081E02DC7010995892B19F00F5F1F4F95
:102EC000EFCFC801DF91CF911F910F91FF90EF904D
:102ED000DF90CF9008956115710581F0DB010D90B1
:102EE0000020E9F7AD0141505109461B570BDC01A9
:102EF000ED91FC910280F381E02D099480E090E057
:102F00000895EF92FF920F931F93CF93DF938C015D
:102F10007B01C0E0D0E0F701EC0FFD1F6491662358
:102F200059F0F801A081B181ED91FC91C80109959A
:102F3000892B11F02196EFCFCE01DF91CF911F9118
:102F40000F91FF90EF900895DC01ED91FC91DB0172
:102F500014964D915C9115976D917C910280F3814F
:102F6000E02D0994DC01ED91FC910190F081E02DC0
:102F700009946AE272E00C946B170F931F93CF933E
:102F8000DF93EC010E9481178C01CE010E94B917DA
:102F9000800F911FDF91CF911F910F9108950F9393
:102FA0001F93CF93DF93EC010E94A4178C01CE01F5
:102FB0000E94B917800F911FDF91CF911F910F9140
:102FC00008950F931F93CF93DF93EC010E94B217E4
:102FD0008C01CE010E94B917800F911FDF91CF9114
:102FE0001F910F9108958F929F92AF92BF92DF929F
:102FF000EF92FF920F931F93CF93DF93CDB7DEB77E
:10300000A1970FB6F894DEBF0FBECDBF7C01F42FA1
:10301000D52ECB0119A2223008F42AE08E010F5DD3
:103020001F4F822E912CA12CB12C6F2F7D2DA5012D
:1030300094010E94A41CF22FD32ECA010150110941
:103040006A3014F4E0E301C0E7E3E60FD801EC9343
:10305000232B242B252B49F7B801C7010E946B179E
:10306000A1960FB6F894DEBF0FBECDBFDF91CF9112
:103070001F910F91FF90EF90DF90BF90AF909F90C6
:103080008F900895CF92DF92EF92FF920F931F934C
:10309000CF93DF93EC016A017B012115310579F4AF
:1030A000E881F9810190F081E02D642FDF91CF91CB
:1030B0001F910F91FF90EF90DF90CF9009942A30ED
:1030C0003105E9F477FF1AC06DE20E94B2178C0156
:1030D00044275527BA014C195D096E097F092AE07A
:1030E000CE010E94F317800F911FDF91CF911F91A6
:1030F0000F91FF90EF90DF90CF9008952AE0B701F5
:10310000A601CE01DF91CF911F910F91FF90EF901B
:10311000DF90CF900C94F3179A01AB01662757FD0F
:103120006095762F0C9442180F931F93CF93DF93E3
:10313000EC019A01AB01662757FD6095762F0E943E
:1031400042188C01CE010E94B917800F911FDF91A8
:10315000CF911F910F9108952115310541F4DC01A4
:10316000ED91FC910190F081E02D642F09940C9475
:10317000F3179A01462F50E060E070E00C94AC1811
:103180004F925F926F927F928F929F92AF92BF9277
:10319000CF92DF92EF92FF920F931F93CF93DF9323
:1031A000EC016A017B01B22E9A01AB01C701B601A5
:1031B0000E948C1C882319F06DE272E027C0260162
:1031C0003701E89477F82FEF3FEF4FE75FE7C30150
:1031D000B2010E948C1C81110DC02FEF3FEF4FE711
:1031E0005FE7C301B2010E94D61A18161CF461E30E
:1031F00072E00CC02FEF3FEF4FE75FE4C701B6016D
:103200000E94251C1816ACF465E372E0CE01DF9134
:10321000CF911F910F91FF90EF90DF90CF90BF90D3
:10322000AF909F908F907F906F905F904F900C9495
:103230006B172FEF3FEF4FE75FECC701B6010E941E
:10324000D61A87FDE1CF20E030E0A901C701B60121
:103250000E94D61A87FF0AC06DE2CE010E94B21703
:103260008C01F7FAF094F7F8F09402C000E010E057
:10327000A12C60E070E080E09FE3AB1441F020E01F
:1032800030E040E251E40E94DA1AA394F6CF9B01A9
:10329000AC01C701B6010E94721A6B017C010E9449
:1032A000471B2B013C010E94731B9B01AC01C70112
:1032B000B6010E94711A6B017C012AE0B301A201E0
:1032C000CE010E94F317080F191FBB2039F069E3E4
:1032D00072E0CE010E946B17080F191F7B2C77201C
:1032E00041F120E030E040E251E4C701B6010E9424
:1032F000291C6B017C010E94421B4B01AA2497FCF4
:10330000A094BA2C2AE030E0B501A401CE010E94BD
:103310004218080F191FC501B4010E94751B9B01BB
:10332000AC01C701B6010E94711A6B017C017A944D
:10333000D6CFC801DF91CF911F910F91FF90EF90F1
:10334000DF90CF90BF90AF909F908F907F906F90C5
:103350005F904F9008950C94C018CF93DF9300D0E6
:1033600000D0CDB7DEB79B01AC01611571058105B9
:10337000910569F069833A834B835C830E948F1EB9
:1033800029813A814B815C810E94C61C03C060E0A8
:1033900070E0CB010F900F900F900F90DF91CF91C5
:1033A0000895CF92DF92EF92FF926B017C0162173A
:1033B00073078407950764F4CA01B9016C197D0984
:1033C0008E099F090E94AD196C0D7D1D8E1D9F1DDC
:1033D000FF90EF90DF90CF900895FC018081918164
:1033E0000C94B11DCF93DF93EC01888199810097F4
:1033F00011F00E94B11D198218821D821C821B824D
:103400001A82DF91CF9108950F931F93CF93DF938B
:10341000EC018B016F5F7F4F888199810E949D1E17
:10342000009731F0998388831B830A8381E001C070
:1034300080E0DF91CF911F910F910895CF93DF939B
:10344000EC0188819981892B29F08A819B818617DB
:10345000970760F4CE010E94041A882341F08C8102
:103460009D81892B19F4E881F981108281E0DF9137
:10347000CF910895EF92FF920F931F93CF93DF9315
:10348000EC017B018A01BA010E941E1A811104C05D
:10349000CE010E94F21907C01D830C83B7018881F9
:1034A00099810E94751FCE01DF91CF911F910F91DD
:1034B000FF90EF900895FC01118210821382128216
:1034C000158214826115710559F0FB0101900020ED
:1034D000E9F7AF0141505109461B570B0C943A1ABA
:1034E00008955058BB27AA270ED075C166D130F079
:1034F0006BD120F031F49F3F11F41EF45BC10EF448
:10350000E095E7FB51C1E92F77D180F3BA17620745
:1035100073078407950718F071F49EF58FC10EF4B8
:10352000E0950B2EBA2FA02D0B01B90190010C01D3
:10353000CA01A0011124FF27591B99F0593F50F4EB
:10354000503E68F11A16F040A22F232F342F442743
:10355000585FF3CF469537952795A795F04053953B
:10356000C9F77EF41F16BA0B620B730B840BBAF00B
:103570009150A1F0FF0FBB1F661F771F881FC2F776
:103580000EC0BA0F621F731F841F48F4879577958A
:103590006795B795F7959E3F08F0B3CF9395880F41
:1035A00008F09927EE0F979587950895D9D008F4DC
:1035B00081E008950CD00FC107D140F0FED030F06B
:1035C00021F45F3F19F0F0C0511139C1F3C014D19B
:1035D00098F39923C9F35523B1F3951B550BBB27DA
:1035E000AA2762177307840738F09F5F5F4F220F87
:1035F000331F441FAA1FA9F333D00E2E3AF0E0E880
:1036000030D091505040E695001CCAF729D0FE2FCB
:1036100027D0660F771F881FBB1F2617370748075D
:10362000AB07B0E809F0BB0B802DBF01FF27935813
:103630005F4F2AF09E3F510568F0B6C000C15F3F62
:10364000ECF3983EDCF3869577956795B795F795FB
:103650009F5FC9F7880F911D9695879597F90895F3
:10366000E1E0660F771F881FBB1F6217730784078F
:10367000BA0720F0621B730B840BBA0BEE1F88F79E
:10368000E095089504D06894B111D9C00895BCD0D4
:1036900088F09F5790F0B92F9927B751A0F0D1F03B
:1036A000660F771F881F991F1AF0BA95C9F712C0C5
:1036B000B13081F0C3D0B1E00895C0C0672F782F3A
:1036C0008827B85F39F0B93FCCF386957795679531
:1036D000B395D9F73EF490958095709561957F4F9D
:1036E0008F4F9F4F0895E89409C097FB3EF4909543
:1036F0008095709561957F4F8F4F9F4F9923A9F0CB
:10370000F92F96E9BB279395F69587957795679559
:10371000B795F111F8CFFAF4BB0F11F460FF1BC09D
:103720006F5F7F4F8F4F9F4F16C0882311F096E930
:1037300011C0772321F09EE8872F762F05C06623DE
:1037400071F096E8862F70E060E02AF09A95660F97
:10375000771F881FDAF7880F9695879597F9089550
:10376000990F0008550FAA0BE0E8FEEF1616170692
:10377000E807F907C0F012161306E407F50798F0FA
:10378000621B730B840B950B39F40A2661F0232B13
:10379000242B252B21F408950A2609F4A140A6958F
:1037A0008FEF811D811D089597F99F6780E870E074
:1037B00060E008959FEF80EC089500240A941616A7
:1037C000170618060906089500240A94121613060F
:1037D000140605060895092E0394000C11F488239D
:1037E00052F0BB0F40F4BF2B11F460FF04C06F5FB9
:1037F0007F4F8F4F9F4F089557FD9058440F551F8F
:1038000059F05F3F71F04795880F97FB991F61F062
:103810009F3F79F087950895121613061406551FD9
:10382000F2CF4695F1DF08C0161617061806991F45
:10383000F1CF86957105610508940895E894BB273A
:1038400066277727CB0197F908958ADF08F48FEF71
:1038500008950BD0C0CFB1DF28F0B6DF18F0952364
:1038600009F0A2CFA7CF1124EACFC6DFA0F3959F1E
:10387000D1F3950F50E0551F629FF001729FBB2757
:10388000F00DB11D639FAA27F00DB11DAA1F649F03
:103890006627B00DA11D661F829F2227B00DA11DB6
:1038A000621F739FB00DA11D621F839FA00D611D3C
:1038B000221F749F3327A00D611D231F849F600D5D
:1038C000211D822F762F6A2F11249F5750408AF096
:1038D000E1F088234AF0EE0FFF1FBB1F661F771F22
:1038E000881F91505040A9F79E3F510570F05CCF62
:1038F000A6CF5F3FECF3983EDCF38695779567950E
:10390000B795F795E7959F5FC1F7FE2B880F911D3F
:103910009695879597F9089523DF880B990B08955D
:1039200097FB072E16F4009407D077FD09D00E946C
:10393000F01C07FC05D03EF4909581959F4F0895AB
:10394000709561957F4F0895A1E21A2EAA1BBB1BAB
:10395000FD010DC0AA1FBB1FEE1FFF1FA217B3075B
:10396000E407F50720F0A21BB30BE40BF50B661F71
:10397000771F881F991F1A9469F760957095809535
:1039800090959B01AC01BD01CF010895052E97FBD9
:103990001EF400940E94DD1C57FD07D00E94A41C59
:1039A00007FC03D04EF40C94DD1C509540953095E7
:1039B00021953F4F4F4F5F4F08959095809570959B
:1039C00061957F4F8F4F9F4F08950E940A1DA59FBD
:1039D000900DB49F900DA49F800D911D112408950A
:1039E000AA1BBB1B51E107C0AA1FBB1FA617B70725
:1039F00010F0A61BB70B881F991F5A95A9F7809541
:103A00009095BC01CD010895EE0FFF1F0590F49134
:103A1000E02D0994A29FB001B39FC001A39F700D38
:103A2000811D1124911DB29F700D811D1124911DC6
:103A30000895CF93DF938230910510F482E090E0F7
:103A4000E0918104F091820420E030E0A0E0B0E059
:103A5000309739F14081518148175907B8F048171C
:103A6000590771F482819381109729F013969C93E2
:103A70008E9312972CC0909382048093810427C068
:103A80002115310531F04217530718F0A901DB0168
:103A900001C0EF019A01BD01DF010280F381E02D39
:103AA000D7CF21153105F9F0281B390B243031050A
:103AB00080F48A819B816115710521F0FB0193835C
:103AC000828304C09093820480938104FE01329625
:103AD00044C0FE01E20FF31F8193919322503109FC
:103AE000398328833AC020917F0430918004232BAE
:103AF00041F420910201309103013093800420931E
:103B00007F0420910001309101012115310541F41C
:103B10002DB73EB74091040150910501241B350B90
:103B2000E0917F04F0918004E217F307A0F42E1BCC
:103B30003F0B2817390778F0AC014E5F5F4F241711
:103B4000350748F04E0F5F1F5093800440937F0469
:103B50008193919302C0E0E0F0E0CF01DF91CF913B
:103B60000895CF93DF93009709F487C0FC01329743
:103B700013821282C0918104D0918204209781F433
:103B800020813181280F391F80917F04909180041A
:103B90008217930779F5F0938004E0937F046DC05A
:103BA000DE0120E030E0AE17BF0750F412964D91D1
:103BB0005C9113979D014115510509F1DA01F3CF8D
:103BC000B383A28340815181840F951F8A179B077D
:103BD00071F48D919C911197840F951F029691839A
:103BE000808312968D919C911397938382832115E4
:103BF000310529F4F0938204E09381043EC0D90199
:103C00001396FC93EE9312974D915D91A40FB51FFF
:103C1000EA17FB0779F480819181840F951F029642
:103C2000D90111969C938E938281938113969C93D4
:103C30008E931297E0E0F0E08A819B81009719F063
:103C4000FE01EC01F9CFCE01029628813981820F65
:103C5000931F20917F04309180042817390769F45D
:103C6000309729F4109282041092810402C01382CA
:103C70001282D0938004C0937F04DF91CF91089586
:103C80008F929F92AF92BF92CF92DF92EF92FF926C
:103C9000CF93DF93EC01688179818A819B816115E3
:103CA00071058105910521F464E279ED8BE597E0DA
:103CB0002DE133EF41E050E00E94C61C49015A015A
:103CC0009B01AC01A7EAB1E40E94E51C6B017C01F9
:103CD000ACEEB4EFA50194010E94ED1FC60ED71EF5
:103CE000E81EF91EF7FE06C081E0C81AD108E108F7
:103CF00080E8F80AC882D982EA82FB82C701B6014D
:103D00009F77DF91CF91FF90EF90DF90CF90BF90A2
:103D1000AF909F908F9008950E94401E089586E076
:103D200091E00E94401E0895609306017093070180
:103D300080930801909309010895A0E0B0E0E3EAC0
:103D4000FEE10C94F61FEC01CB01209719F40E94C0
:103D5000191DB8C0FE01E60FF71F9E012250310960
:103D6000E217F30708F4ACC0D9010D911C9111972B
:103D700006171707B8F00530110508F49FC0A80111
:103D8000445051094617570708F498C002501109CA
:103D9000061B170B019311936D937C93CF010E9427
:103DA000B11D8CC05B01A01AB10A4E01800E911E9C
:103DB000A0918104B0918204612C712C60E070E0CC
:103DC000109709F449C0A815B905C9F5ED90FC9004
:103DD0001197670142E0C40ED11CCA14DB0478F1CC
:103DE00047018A189B08640142E0C40ED11C129658
:103DF000BC9012971396AC91B5E0CB16D10440F06D
:103E0000B282A38391828082D9018D939C9309C051
:103E10000E5F1F4F0E0D1F1DF90111830083EB2D47
:103E2000FA2F6115710531F0DB011396FC93EE93C7
:103E3000129744C0F0938204E09381043FC06D91D7
:103E40007C9111976616770608F43B01BD01129626
:103E50000D90BC91A02DB4CF60917F04709180042F
:103E600068157905E9F468167906D0F440910001E7
:103E7000509101014115510541F44DB75EB7609174
:103E8000040170910501461B570BE417F507C0F4B8
:103E9000F0938004E0937F04F901918380830EC046
:103EA0000E94191D7C01009759F0A801BE010E94D3
:103EB0006C1FCE010E94B11DC70104C0CE0102C01B
:103EC00080E090E0CDB7DEB7EEE00C94122081E008
:103ED00090E0F8940C942920FB01DC0102C00190D1
:103EE0000D9241505040D8F70895FB01DC0101903C
:103EF0000D920020E1F708950F931F93CF93DF9366
:103F0000EC018B01009731F46115710519F480E023
:103F100090E038C06EE070E081E090E00E94C71F42
:103F2000FC010097A1F380E883830115110571F06E
:103F30001387028781E883838091830490918404AE
:103F4000892B21F4F0938404E09383042097C9F033
:103F5000D187C0878381826083838091850490911B
:103F60008604892B71F4F0938604E0938504809194
:103F7000870490918804892B21F4F0938804E093BE
:103F80008704CF01DF91CF911F910F9108950F9377
:103F90001F93CF93DF93869F8001879F100D969F7D
:103FA000100D1124C8010E94191DEC01009729F081
:103FB000A80160E070E00E94E31FCE01DF91CF9185
:103FC0001F910F910895DC0101C06D934150504045
:103FD000E0F70895B7FF0C94E51C0E94E51C821BD6
:103FE000930B08952F923F924F925F926F927F9220
:103FF0008F929F92AF92BF92CF92DF92EF92FF92F9
:104000000F931F93CF93DF93CDB7DEB7CA1BDB0BA4
:104010000FB6F894DEBF0FBECDBF09942A88398849
:1040200048885F846E847D848C849B84AA84B98450
:10403000C884DF80EE80FD800C811B81AA81B9815C
:10404000CE0FD11D0FB6F894DEBF0FBECDBFED0170
:10405000089513E0CEEDD3E004C0FE010E94061DDA
:0C4060002296C03ED107C9F7F894FFCFAC
:10406C000000890480000100000028FFDD96361650
:10407C0003B928B38E4A070000A8280A62B80700C3
:10408C0000B43E133E134C616B652057617465722E
:10409C003A20004F757473696465204169723A2047
:1040AC0000496E736964652050756D70686F757327
:1040BC00653A20005E00BC00770100000000A10BF7
:1040CC004715471547154715C70BD90B1E0CE70BA2
:1040DC00A60BA90BAC0BAF0BB20BA30BB90BBC0B08
:1040EC00BF0BC20BC50B000000004715640C650C20
:1040FC0047154715660C6A0C6E0C0500040400008D
:10410C0000007E0C850C890C9D0C8D0C660C6A0CC9
:10411C006E0C00000000ED0C4715471547154715B0
:10412C00C70BD90B1E0CE70BA60BA90BAC0BAF0BDB
:10413C00B20BA30BB90BBC0BBF0BC20BC50B0D0EFB
:10414C00131516191A1C232526292A2C3234000083
:10415C000000DD129A124B1150124911C70BF011CD
:10416C001E0CE70BA60BA90BAC0BAF0BB20BA30BE6
:10417C00B90BBC0BBF0BC20B9E1100000000C71586
:10418C004317491562155415A5150D0A006E616E7D
:0C419C0000696E66006F7666002E000061
:00000001FF
