:100000000C94A1010C94C9010C94C9010C94C90170
:100010000C94C9010C94C9010C94C9010C94C90138
:100020000C94C9010C94C9010C94C9010C94C90128
:100030000C94C9010C94C9010C94C9010C94C90118
:100040000C9457310C94C9010C948A340C94BC3430
:100050000C94C9010C94C9010C94C9010C94C901F8
:100060000C94C9010C94C9014E220A227621C920A0
:10007000F7202421F22069224F75747374616E6435
:10008000696E6720003A002E002E002E0052656D2A
:100090006F74652049502F506F727420004C6F634D
:1000A000616C20506F72742000436F6E6E656374D4
:1000B000696F6E206E6F20005265636569766564B6
:1000C0003A200030002062757420636F756C6420E4
:1000D0006E6F742064657465637420616464726516
:1000E00073732E20436865636B20706F7765722091
:1000F000616E64206361626C696E6700466F756E45
:10010000642067686F737420646576696365206135
:100110007420002077697468206164647265737369
:100120003A2000466F756E642064657669636520C9
:10013000004F4646004F4E0050617261736974650E
:1001400020706F7765722069733A2000204F6E65CA
:100150005769726520646576696365732E00466F22
:10016000756E642000496E7469616C697A696E67A6
:100170002074656D70657261747572652073656E4B
:10018000736F72732E2E2E00646F6E652E00457293
:10019000726F723A20756E61626C6520746F2069AF
:1001A0006E7469616C697A65206D65736800496E6B
:1001B000697469616C697A696E6720726164696FDC
:1001C0002E2E2E00005EBCE2613FDD83C29C7E20AD
:1001D000A3FD1F419DC3217FFCA2401E5F01E3BD23
:1001E0003E6082DC237D9FC1421CFEA0E1BF5D0317
:1001F00080DE3C62BEE0025CDF81633D7C22C09E0B
:100200001D43A1FF4618FAA427799BC584DA3866F6
:10021000E5BB5907DB856739BAE406581947A5FBE2
:100220007826C49A653BD987045AB8E6A7F91B45D6
:10023000C6987A24F8A6441A99C7257B3A6486D8CA
:100240005B05E7B98CD2306EEDB3510F4E10F2ACB6
:100250002F7193CD114FADF3702ECC92D38D6F31A2
:10026000B2EC0E50AFF1134DCE90722C6D33D18F96
:100270000C52B0EE326C8ED0530DEFB1F0AE4C128A
:1002800091CF2D73CA947628ABF517490856B4EA76
:100290006937D58B5709EBB536688AD495CB297762
:1002A000F4AA4816E9B7550B88D6346A2B7597C956
:1002B0004A14F6A8742AC896154BA9F7B6E80A544A
:1002C000D7896B351112131415160A0B0C0D0E0F6E
:1002D0000001020304050000000800020100000301
:1002E00004070000000000000000010204081020C4
:1002F00040800102040810200102040810200404B8
:1003000004040404040402020202020203030303BD
:100310000303000000002300260029000000000065
:10032000250028002B0000000000240027002A00E0
:10033000DE017A121C174E19DF19EA19EC347F35E9
:10034000290211241FBECFEFD8E0DEBFCDBF11E0E0
:10035000A0E0B1E0E2E3F9E702C005900D92AE380B
:10036000B107D9F725E0AEE8B1E001C01D92A3398D
:10037000B207E1F713E0C0E4D3E004C02297FE0126
:100380000E94D339C033D107C9F70E948F350C942E
:100390008C3C0C940000CF93C82FE091A904F091FD
:1003A000AA040190F081E02D682F89EA94E0099574
:1003B0008C2F992787FD9095CF9108950F9300E09A
:1003C00020E040E060E08FE793E00E94733567E053
:1003D00081E793E00E94820761E773E08EE593E096
:1003E0000E94420568E071E083E493E00E945F3977
:1003F00065E171E089E493E00E945F3963E271E0B6
:100400008FE493E00E945F394AE068E081E393E083
:100410000E946C0C61E373E08FEB91E00E942F2748
:100420004FEB51E061E373E087EA91E00E94F32231
:1004300027EA31E04FEB51E061E373E088E991E0B6
:100440000E94271768EE73E082E991E00F910C9407
:1004500093198FE493E00E94AA3989E493E00E9403
:10046000AA3983E493E00C94AA39EF92FF920F9398
:100470001F93CF93DF93CDB7DEB762970FB6F89493
:10048000DEBF0FBECDBF26E040E052EC61E070E081
:1004900089EA94E00E94223460E070E08BEC91E005
:1004A0000E94EE3B61E083E00E94863260E083E0E0
:1004B0000E94C4326EEA71E089EA94E00E94D2356B
:1004C00004E022E04AE06AE0CE010D960E94733516
:1004D0006BE7E62E61E0F62EFA82E9828F85988935
:1004E000A989BA898B839C83AD83BE83BE016F5F6C
:1004F0007F4F88E991E00E94AF1768E288E991E0B8
:100500000E94A31700E61AEE20E030E042E050E03F
:1005100068E287EA91E00E94C626882309F4D6C0E3
:1005200002E022E04AE06AE0CE0107960E947335BD
:10053000FA82E98289859A85AB85BC858B839C8309
:10054000AD83BE83BE016F5F7F4F88E991E00E945B
:10055000BE1882E991E00E94721968E871E089EAA8
:1005600094E00E94ED3765E671E089EA94E00E942C
:10057000ED378EE593E00E9451058EE593E00E94F1
:10058000070680935D036EE571E089EA94E00E94BE
:10059000D2354AE050E060915D0389EA94E00E9420
:1005A00000366CE471E089EA94E00E94ED3768E37C
:1005B00071E089EA94E00E94D2358EE593E00E94D2
:1005C0001107882309F47BC065E371E089EA94E0B0
:1005D0000E94ED3780915D03882309F457C0E12C18
:1005E000F12C4E2D65E573E08EE593E00E940A063E
:1005F000882379F163E271E089EA94E00E94D235C0
:100600004AE050E0B70189EA94E00E947A3663E15B
:1006100071E089EA94E00E94D23505E513E00CC050
:1006200040E150E089EA94E00E9400360F5F1F4FDE
:10063000F3E00D351F07B9F1F8016081603180F7F3
:1006400063EC70E089EA94E00E94D235F8016081A1
:10065000E7CF6CEF70E089EA94E00E94D2354AE07F
:1006600050E0B70189EA94E00E947A3665EC70E0C8
:1006700089EA94E00E94ED378FEFE81AF80A80913A
:100680005D0390E0E816F9060CF4ABCF62960FB666
:10069000F894DEBF0FBECDBFDF91CF911F910F91B8
:1006A000FF90EF90089589EA94E00E9421384CE091
:1006B00065E573E08EE593E00E949006DDCF61E38F
:1006C00071E089EA94E00E94ED3784CF6EE871E032
:1006D00089EA94E00E94ED3723CFFF920F931F9396
:1006E000CF93DF93CDB7DEB7CD50D1400FB6F8949E
:1006F000DEBF0FBECDBF0E94A13100918E011091CF
:100700008F012091900130919101601B710B820B40
:10071000930B613375478105910508F0CAC062E902
:1007200071E0CE0193950E94A419CE0193950E9489
:10073000241381110DC0C35FDE4F0FB6F894DEBFE6
:100740000FBECDBFDF91CF911F910F91FF90089504
:1007500061E083E00E94C432809175059091760536
:10076000892B09F494C069EA70E089EA94E00E9458
:10077000D2354AE050E060E089EA94E00E944A38CD
:100780006DE970E089EA94E00E94D23580915D05C0
:1007900090915E050E94DB224AE050E0BC0189EAAC
:1007A00094E00E94D5386DE870E089EA94E00E94F8
:1007B000D2358091590590915A050E94DB224AE07A
:1007C00050E0692F70E089EA94E00E9474376BE88A
:1007D00070E089EA94E00E94D235809159059091A9
:1007E0005A050E94DB2299274AE050E0BC0189EAC1
:1007F00094E00E94743769E870E089EA94E00E940E
:10080000D23580915B0590915C050E94DB224AE025
:1008100050E0692F70E089EA94E00E94743767E83D
:1008200070E089EA94E00E94D23580915B05909156
:100830005C050E94DB2299274AE050E0BC0189EA6E
:1008400094E00E94743765E870E089EA94E00E94C1
:10085000D23580915F05909160050E94DB224AE0CD
:1008600050E0BC0189EA94E00E94D53868E770E066
:1008700089EA94E00E94D2358091690590916A05D9
:10088000892BA1F560E289EA94E00E942C38CE0120
:1008900093950E9432148C01009751F5CE019395E7
:1008A0000E94F01268EB70E089EA94E00E94ED3754
:1008B00042CF0E94A13160938E0170938F0180938B
:1008C00090019093910187EA91E00E943724811171
:1008D00026CF60E083E00E94C43240E65AEE60E03A
:1008E00070E087EA91E00E943E2619CF6AE2CBCF02
:1008F000AC01BE016F5F7F4FCE0193950E94A113A3
:10090000CE0193950E94F01268EB70E089EA94E0C2
:100910000E94ED37F12C20E030E0E1E0F0E0EC0F58
:10092000FD1FE20FF31F608189EA94E00E94F93510
:10093000F3942F2D30E02017310778F3FCCECF93BE
:10094000CFB7F89480918503811125C0E8E0F3E0EA
:100950008491E4EFF2E09491E82FF0E0EE0FFF1FB6
:10096000EA5DFC4FA591B4918C918923D1F061E0AF
:100970008AE00E9486328CB580618CBD8CB5806423
:100980008CBD61E08DE00E94863261E08BE00E94C8
:100990008632809185038F5F80938503CFBFCF918F
:1009A000089561E08AE00E94C432E1CF0895CF92B9
:1009B000DF92EF92FF920F931F93CF93DF93CDB708
:1009C000DEB729970FB6F894DEBF0FBECDBF7C010E
:1009D0008B01FC01858196810E94AD07811110C0B9
:1009E00080E029960FB6F894DEBF0FBECDBFDF9131
:1009F000CF911F910F91FF90EF90DF90CF900895CE
:100A0000B801F701858196810E94CD0840E06EEB28
:100A1000F701858196810E9419088E010F5F1F4F93
:100A20006E01FAE0CF0ED11CF701858196810E94FC
:100A30008C08F80181938F01EC15FD05A9F7F701EA
:100A4000858196810E94AD07813051F668E0CE0124
:100A500001960E94C00A99858913C2CF8D818F3378
:100A600079F048F08F3529F08F3709F0B9CF8CE055
:100A7000B8CF8BE0B6CF8F3109F0B2CF89E0B1CFDC
:100A80008AE0AFCFFC0186ED94E0928B818B768378
:100A900065831482108289E0818381E0828383836D
:100AA0000895AF92BF92CF92DF92EF92FF920F9391
:100AB0001F93CF93DF93CDB7DEB761970FB6F8944E
:100AC000DEBF0FBECDBF7C01FC01858196810E94F7
:100AD0006609F70114828E01065F1F4F580107C097
:100AE00067E0C8010E94C00A99898917D1F041E0E6
:100AF000B801F701858196810E9472098111F0CFBA
:100B000061960FB6F894DEBF0FBECDBFDF91CF91D7
:100B10001F910F91FF90EF90DF90CF90BF90AF901B
:100B20000895F7018081882309F448C0F701858181
:100B300096810E94AD0781111FC0F701D1808A857F
:100B4000803171F0B801C7010E94D7048D1558F4A7
:100B5000F7018181F701818384818F5F8483C7CF0F
:100B60008CE08D15A8F38A85803109F448C0B8015E
:100B7000C7010E94D704EECFB801F70185819681A5
:100B80000E94CD0840E06EEBF701858196810E94BE
:100B90001908CE0101966C018501F70185819681C6
:100BA0000E948C08F60181936F01EA15FB05A9F7F5
:100BB000F701858196810E94AD07BFCF858196811F
:100BC0000E94AD07B801F701858196810E94CD088A
:100BD00040E064EBF701858196810E941908F701D6
:100BE000858196810E94EE0781110BC0F7018581F6
:100BF00096810E94AD0781E0F701808397CF8CE05A
:100C0000A9CFF701858196810E94AD078FCFFC01A6
:100C100084810895EF92FF920F931F93CF93DF93F8
:100C2000EC018B01E42E8D819E810E946609F12CDE
:100C300041E0B8018D819E810E947209882329F0CC
:100C4000FE1459F0F394EF1498F780E0DF91CF9100
:100C50001F910F91FF90EF90089567E0C8010E94E7
:100C6000C00AF80197818913EDCF81E0EFCFEF92B1
:100C7000FF920F931F93CF93DF93EC018B017A01C7
:100C80008D819E810E94AD07B8018D819E810E9459
:100C9000CD0840E06EE48D819E810E94190840E0FD
:100CA000F70162818D819E810E94190840E0F70161
:100CB00063818D819E810E941908F80180818031B5
:100CC00039F040E0F70164818D819E810E9419080E
:100CD0008D819E810E94AD07B8018D819E810E9409
:100CE000CD08488168E48D819E810E94190864E1E5
:100CF00070E080E090E00E94AD318881882331F07F
:100D00006AE070E080E090E00E94AD318D819E81CC
:100D1000DF91CF911F910F91FF90EF900C94AD0751
:100D20009F92AF92BF92CF92DF92EF92FF920F937A
:100D30001F93CF93DF93CDB7DEB729970FB6F89403
:100D4000DEBF0FBECDBF7C015B01942EFC0185810F
:100D500096810E94AD07811113C080E029960FB6DD
:100D6000F894DEBF0FBECDBFDF91CF911F910F91E1
:100D7000FF90EF90DF90CF90BF90AF909F9008953D
:100D8000B501F701858196810E94CD0840E06EEBA8
:100D9000F701858196810E9419088E010F5F1F4F10
:100DA0006E01FAE0CF0ED11CF701858196810E9479
:100DB0008C08F80181938F01EC15FD05A9F7F70167
:100DC000858196810E94AD07813039F668E0CE01B9
:100DD00001960E94C00A99858913BFCFF5018081D1
:100DE0008031E9F0FBE09F16B9F08CE0981689F0AD
:100DF000EAE09E1659F08FE18D83AE014F5F5F4FA1
:100E0000B501C7010E94370681E0A8CF8FE38D832B
:100E1000F4CF8FE78D83F1CF8FE58D83EECF81E027
:100E20009DCFFC0180810895BF92CF92DF92EF9217
:100E3000FF920F931F93CF93DF937C01B62E08E0B0
:100E400010E0DD24D3941FC0D701CC901196CD9132
:100E5000DC911297F8949A818C2D809589238A834E
:100E600089818C2989838AE090E00E9440328A81BE
:100E70008C298A83789487E390E00E944032DD0CCD
:100E80000150110901F18D2D8B21F1F6F701C08080
:100E9000C181D281F8949A818C2D809589238A838F
:100EA00089818C29898381E490E00E9440328A8183
:100EB0008C298A83789485E090E00E944032DD0C92
:100EC0000150110901F7F894D7011196ED91FC91A9
:100ED000129791818C918095892381831196ED9150
:100EE000FC91129792818C918095892382837894CA
:100EF000DF91CF911F910F91FF90EF90DF90CF90F6
:100F0000BF9008951F93CF93DF93EC01162F60E0FD
:100F1000812F0E948632612F70E0FB01E651FD4F68
:100F2000E491E883FB01E250FD4FE491F0E0EE0F25
:100F3000FF1FEE5EFC4F859194919A8389831B86F7
:100F40001D861C861A86239687E0FE0111928A95DB
:100F5000E9F7DF91CF911F910895FF920F931F93AF
:100F6000CF93DF93FC010081C181D281F894898104
:100F7000F02EF0948F21898378941CE702C01150E1
:100F800021F182E090E00E94403298819023B9F3F1
:100F9000F8948A818F218A838981802B8983789430
:100FA00080EE91E00E944032F89489818F218983FC
:100FB00086E490E00E9440328881802311E061F451
:100FC00078948AE991E00E944032812FDF91CF919D
:100FD0001F910F91FF90089510E0F2CF0F931F9390
:100FE000CF93DF93FC011081C181D281F894898174
:100FF000812B89838A81012F009580238A8383E056
:1010000090E00E9440328981802389838AE090E0C9
:101010000E944032C881789485E390E00E9440327B
:101020001C2381E009F480E0DF91CF911F910F91A3
:101030000895AF92BF92CF92DF92EF92FF920F93FB
:101040001F93CF93DF937C01A62EB42E08E010E00F
:10105000DD24D3941FC0D701CC901196CD91DC91A3
:101060001297F8949A818C2D809589238A8389819F
:101070008C2989838AE090E00E9440328A818C2901
:101080008A83789487E390E00E944032DD0C01501F
:10109000110901F18D2D8A21F1F6F701C080C1817E
:1010A000D281F8949A818C2D809589238A838981B5
:1010B0008C29898381E490E00E9440328A818C29C6
:1010C0008A83789485E090E00E944032DD0C0150E4
:1010D000110901F7B11015C0F894D7011196ED91DF
:1010E000FC91129791818C9180958923818311962F
:1010F000ED91FC91129792818C9180958923828346
:101100007894DF91CF911F910F91FF90EF90DF9036
:10111000CF90BF90AF900895AF92BF92CF92DF92E1
:10112000EF92FF920F931F93CF93DF937C0108E020
:1011300010E0A12CBB24B394F701D080C181D281EF
:10114000F89499819D2999839A81CD2CC0949C21F2
:101150009A8383E090E00E94403299819C21998398
:101160008AE090E00E944032C881CD21789485E3E6
:1011700090E00E944032C111AB28BB0C0150110914
:10118000D9F68A2DDF91CF911F910F91FF90EF90AB
:10119000DF90CF90BF90AF9008956F927F928F9223
:1011A0009F92AF92BF92CF92DF92EF92FF920F93F6
:1011B0001F93CF93DF931F92CDB7DEB77C01162F1D
:1011C00065E579830E941407C12E7981D72E98E0B6
:1011D000992ED6018D906D0108E010E0BB24B394E8
:1011E00026C0F701A08061807280F894D301129626
:1011F0009C9112978A2D8095892312968C93129731
:1012000011968C9111978A2911968C938AE090E01F
:101210000E944032F30182818A298283789487E395
:1012200090E00E944032BB0C0150110939F18B2D26
:101230008821B9F6D701AC9011966D907C901297E9
:10124000F894F30192818A2D80958923828381818C
:101250008A29818381E490E00E944032D301129672
:101260008C9112978A2912968C93789485E090E05D
:101270000E944032BB0C01501109C9F6F894D70105
:101280001196ED91FC91129791818C918095892313
:1012900081831196ED91FC91129792818C918095AA
:1012A0008923828378949A9409F093CF0F90DF91E9
:1012B000CF911F910F91FF90EF90DF90CF90BF9053
:1012C000AF909F908F907F906F900895FC01138650
:1012D000158614861286339687E0DF011D928A9563
:1012E000E9F708957F928F929F92AF92BF92CF922B
:1012F000DF92EF92FF920F931F93CF93DF93EC0156
:101300007B01B42E8D85882391F01B861D861C865B
:1013100080E0DF91CF911F910F91FF90EF90DF90D0
:10132000CF90BF90AF909F908F907F900895C8808E
:1013300009811A81F894F8018181AC2CA0948A214A
:10134000818378942CE7D22E02C0DA94F1F282E005
:1013500090E00E944032F80180818C21B1F3F89432
:10136000F80182818A21828381818C29818378940A
:1013700080EE91E00E944032F894F80181818A2148
:10138000818386E490E00E944032F80110811C21A4
:1013900078948AE991E00E9440321111B6CFBB20C7
:1013A00009F4E9C060EFCE010E941407DD24D39454
:1013B000C12CA12CBB24B39434C0882009F4A3C051
:1013C000E72DE1708E2EFE01EC0DF11D83819D2D28
:1013D000909589238383988009811A8181107BC02D
:1013E000F894F8019281892D8095892382838181E7
:1013F0008929818381E490E00E944032F801828152
:1014000089298283789485E090E00E944032B394E9
:10141000DD0C19F4C394DD24D394F7E0FC1508F433
:101420008BC0988009811A81F894F80181818929FB
:1014300081838281892C80948821828383E090E05B
:101440000E944032F8018181882181838AE090E006
:101450000E944032F80180818921772473948111A0
:1014600001C0712C789485E390E00E94403298800E
:1014700009811A81F894F801818189298183828107
:10148000892C80948821828383E090E00E944032FE
:10149000F8018181882181838AE090E00E944032B6
:1014A000F8018081892188248394811101C0812CD5
:1014B000789485E390E00E944032F1E07F127DCF86
:1014C0008F16D1F1FE01EC0DF11D83818D298383EF
:1014D000988009811A81F894F8019281892D80956C
:1014E000892382838181892981838AE090E00E9417
:1014F0004032F801828189298283789487E390E0E1
:101500000E94403284CF8B85B81660F4FE01EC0D4A
:10151000F11D83818D21C9F688E08B1508F0BC860A
:10152000AB2C54CF91E0B81290E0EC2DF0E0EC0F32
:10153000FD1F992389F3C9CF80E48B1508F0E5CE10
:10154000AB86A11002C081E08D878B81882309F4CE
:10155000DCCEF70180838C8181838D8182838E81B3
:1015600083838F81848388858583898586838A8523
:10157000878381E0CECE6CEECE010E94140716CF99
:101580002FEF260F662361F0DC0180E09D91982704
:10159000E92FF0E0EC53FE4F84912150B8F7089505
:1015A00080E008951F93CF93DF93EC01162F8CB545
:1015B0008F7D8CBD8CB5837F8CBD8CB58C7F8CBDB5
:1015C0008DB581608DBD60E089810E94C43285E067
:1015D00090E00E9440321F711EBD00000DB407FE56
:1015E000FDCF8EB58FEF8EBD00000DB407FEFDCF91
:1015F0001EB59CB59F7D9CBD9CB5937F9CBD9CB545
:101600009C7F9CBD9DB591609DBD61E089810E94DC
:10161000C43285E090E00E944032812FDF91CF916B
:101620001F910895EF92FF921F93CF93DF9300D005
:101630001F92CDB7DEB77C01162F8CB58F7D8CBD88
:101640008CB5837F8CBD8CB58C7F8CBD8DB5816056
:101650008DBD60E0F701818129834A835B830E940D
:10166000C43285E090E00E944032612F6F71606269
:101670006EBD00005B814A8129810DB407FEFDCF5C
:101680001EB59FEF920F222351F0FA0121912EBD3A
:1016900000000DB407FEFDCF2EB59150B8F79CB5F4
:1016A0009F7D9CBD9CB5937F9CBD9CB59C7F9CBD44
:1016B0009DB591609DBD61E0F70181810E94C432BA
:1016C00085E090E00E944032812F0F900F900F90A4
:1016D000DF91CF911F91FF90EF900895EF92FF92CD
:1016E0001F93CF93DF931F92CDB7DEB77C01162FE8
:1016F0008CB58F7D8CBD8CB5837F8CBD8CB58C7F7C
:101700008CBD8DB581608DBD60E0F701818149831D
:101710000E94C43285E090E00E944032612F6F71D8
:1017200060626EBD000049810DB407FEFDCF1EB59D
:101730004EBD00000DB407FEFDCF8EB59CB59F7D5C
:101740009CBD9CB5937F9CBD9CB59C7F9CBD9DB56D
:1017500091609DBD61E0F70181810E94C43285E006
:1017600090E00E944032812F0F90DF91CF911F9126
:10177000FF90EF900895AF92BF92DF92EF92FF92A9
:101780000F931F93CF93DF9300D0CDB7DEB75C01EB
:10179000D62EFC018581042F841708F4082FF5014B
:1017A000968191115EC0E82EE01A1FEF1E0D8CB5D8
:1017B0008F7D8CBD8CB5837F8CBD8CB58C7F8CBDB3
:1017C0008DB581608DBD60E0F501818129837A83CB
:1017D0000E94C43285E090E00E94403229812EBDF3
:1017E00000007A810DB407FEFDCFFEB49FEF900F8D
:1017F000002359F0ED2DF72F21912EBD00000DB4DF
:1018000007FEFDCF2EB59150B8F7EE2041F01EBC7B
:1018100000000DB407FEFDCF9EB51150C0F79CB57A
:101820009F7D9CBD9CB5937F9CBD9CB59C7F9CBDC2
:101830009DB591609DBD61E0F50181810E94C4323A
:1018400085E090E00E9440328F2D0F900F90DF9145
:10185000CF911F910F91FF90EF90DF90BF90AF90CD
:1018600008951FEFE12CA3CF1F93CF93DF93EC01DB
:10187000162F8CB58F7D8CBD8CB5837F8CBD8CB5C0
:101880008C7F8CBD8DB581608DBD60E089810E94AB
:10189000C43285E090E00E9440321EBD00000DB4CD
:1018A00007FEFDCF1EB59CB59F7D9CBD9CB5937F6B
:1018B0009CBD9CB59C7F9CBD9DB591609DBD61E02C
:1018C00089810E94C43285E090E00E944032812FDD
:1018D000DF91CF911F910895FC01608341831482B1
:1018E00080E28583168285E0848717820895462FDB
:1018F0006E3708F04DE765E00C946E0BEF92FF92A7
:101900000F931F93CF93DF931F92CDB7DEB77C0168
:10191000FC0180819181891759F061E00E94863233
:10192000F70181819081981719F061E00E94863259
:101930000E949F04F70180819181891719F060E06E
:101940000E94C4328CB58F7D8CBD8CB5837F8CBDDD
:101950008CB58C7F8CBD8DB581608DBD61E0F7014C
:1019600081810E94C43285E090E00E94403265E0AF
:1019700070E080E090E00E94AD314CE060E0C70193
:101980000E946E0B4FE564E0C7010E946E0B66E09B
:10199000C7010E94D20A582F577D50620BE910E010
:1019A00020E030E0F701058716872787308B452F29
:1019B00066E0C70159830E946E0B66E0C7010E9472
:1019C000D20A5981581303C081E0F701848366E08D
:1019D000C7010E94D20A182F66E0C7010E94D20AEE
:1019E00045E550E060E070E0F7014587568767877E
:1019F000708B482F477D66E0C7010E946E0B66E042
:101A0000C7010E94D20A9CB59F7D9CBD9CB5937F67
:101A10009CBD9CB59C7F9CBD9DB591609DBD60E0CB
:101A2000F70181810E94C43285E090E00E9440323B
:101A300080E58EBD00000DB407FEFDCF8EB583E7B7
:101A40008EBD00000DB407FEFDCF8EB59CB59F7D09
:101A50009CBD9CB5937F9CBD9CB59C7F9CBD9DB55A
:101A600091609DBD61E0F70181810E94C43285E0F3
:101A700090E00E94403240E06DE1C7010E946E0B91
:101A800040E06CE1C7010E946E0B40E767E0C701D0
:101A90000E946E0B4CE465E0C7010E946E0B62EE83
:101AA000C7010E94340C61EEC7010E94340C60E053
:101AB000C7010E94D20A81FD0CC0482F426060E03D
:101AC000C7010E946E0B65E070E080E090E00E942C
:101AD000AD3160E0C7010E94D20A482F4E7F60E01E
:101AE000C7010E946E0B115081E01E3F08F080E09C
:101AF0000F90DF91CF911F910F91FF90EF9008957C
:101B0000FF920F931F93CF93DF93EC0160E00E944D
:101B1000D20A81FD0CC0482F426060E0CE010E94D5
:101B20006E0B65E070E080E090E00E94AD3160E017
:101B3000CE010E94D20A482F416060E0CE010E948F
:101B40006E0B40E767E0CE010E946E0B88819981A1
:101B5000891719F061E00E94C4328F81882309F44B
:101B60004DC0FC848E01095F1F4F8CB58F7D8CBDED
:101B70008CB5837F8CBD8CB58C7F8CBD8DB5816021
:101B80008DBD60E089810E94C43285E090E00E94B2
:101B900040328AE28EBD00000DB407FEFDCF8EB547
:101BA0008FEF8F0DFF2051F0F80191919EBD000045
:101BB0000DB407FEFDCF9EB58150B8F78CB58F7D73
:101BC0008CBD8CB5837F8CBD8CB58C7F8CBD8DB569
:101BD00081608DBD61E089810E94C43285E090E022
:101BE0000E9440326DE1CE010E94D20A81FD1FC0E9
:101BF000DF91CF911F910F91FF90089562E0CE0188
:101C00000E94D20AE0EDF2E0E49141E050E001C030
:101C1000440FEA95EAF74095482362E0CE010E941E
:101C20006E0B6DE1CE010E94D20A81FFE1CF61EE21
:101C3000CE01DF91CF911F910F91FF900C94340C46
:101C4000CF93DF93EC0188819981891719F060E0C7
:101C50000E94C4328D859E850E9440326DE1CE0186
:101C60000E94D20A81FF08C08D859E850E94403265
:101C700061EECE010E94340C60E0CE010E94D20AD7
:101C8000482F4E7F60E0CE010E946E0B62E0CE01D5
:101C90000E94D20AE0EDF2E0E49121E030E001C0E0
:101CA000220FEA95EAF7822B482F62E0CE01DF91FE
:101CB000CF910C946E0BCF92DF92EF92FF920F9325
:101CC0001F93CF93DF93EC018B01E42ED22EFF24E0
:101CD000FA948CB58F7D8CBD8CB5837F8CBD8CB513
:101CE0008C7F8CBD8DB581608DBD60E089810E9447
:101CF000C43285E090E00E944032FEBC00000DB48A
:101D000007FEFDCFCEB48CB58F7D8CBD8CB5837FA7
:101D10008CBD8CB58C7F8CBD8DB581608DBD61E037
:101D200089810E94C43285E090E00E944032C0FE6A
:101D30003FC08CB58F7D8CBD8CB5837F8CBD8CB541
:101D40008C7F8CBD8DB581608DBD60E089810E94E6
:101D5000C43285E090E00E944032FEBC00000DB429
:101D600007FEFDCFCEB48CB58F7D8CBD8CB5837F47
:101D70008CBD8CB58C7F8CBD8DB581608DBD61E0D7
:101D800089810E94C43285E090E00E944032C4FE06
:101D9000A0CF40E167E0CE010E946E0B80E0DF91B2
:101DA000CF911F910F91FF90EF90DF90CF9008950A
:101DB000D1100FC020EA4E2DB801CE010E94BB0BFE
:101DC00088819981891739F061E00E94C43281E0ED
:101DD000E6CF20EBF0CF81E0E2CF67E10E94D20AAC
:101DE0008695817008957F928F929F92AF92BF9255
:101DF000CF92DF92EF92FF921F93CF93DF93EC018C
:101E00004A015B0121117FC00E94A1316B017C015D
:101E100077247A9467E1CE010E94D20A84FD5CC0E7
:101E20008CB58F7D8CBD8CB5837F8CBD8CB58C7F44
:101E30008CBD8DB581608DBD60E089810E94C4320A
:101E400085E090E00E9440327EBC00000DB407FEA9
:101E5000FDCF1EB58CB58F7D8CBD8CB5837F8CBDC1
:101E60008CB58C7F8CBD8DB581608DBD61E0898125
:101E70000E94C43285E090E00E94403214FFCACF35
:101E800040E167E0CE010E946E0B8881998189173D
:101E900051F060E00E94C43288819981891719F05D
:101EA00061E00E94C4320E94A1316C197D098E0943
:101EB0009F09681579058A059B0508F4ABCF8881D1
:101EC0009981891719F060E00E94C43261EECE0159
:101ED0000E94340C80E008C088819981891789F0BC
:101EE00060E00E94C43281E0DF91CF911F91FF90AA
:101EF000EF90DF90CF90BF90AF909F908F907F90AA
:101F0000089581E0F1CF0E94200E88819981891780
:101F100009F47ACF61E00E94C43276CF1F93CF9349
:101F2000DF93EC018CB58F7D8CBD8CB5837F8CBD30
:101F30008CB58C7F8CBD8DB581608DBD60E0898155
:101F40000E94C43285E090E00E94403280E68EBD5F
:101F500000000DB407FEFDCF8EB58FEF8EBD0000E3
:101F60000DB407FEFDCF1EB59CB59F7D9CBD9CB5F5
:101F7000937F9CBD9CB59C7F9CBD9DB591609DBD94
:101F800061E089810E94C43285E090E00E94403285
:101F9000113258F062EECE010E94340C62E070E023
:101FA00080E090E00E94AD3110E0812FDF91CF9171
:101FB0001F91089567E10E94D20A8095817008956B
:101FC000FF920F931F93CF93DF93EC018B0167E197
:101FD0000E94D20A80FD41C00115110509F444C0D8
:101FE0008CB58F7D8CBD8CB5837F8CBD8CB58C7F83
:101FF0008CBD8DB581608DBD60E089810E94C43249
:1020000085E090E00E9440328FEF8EBD00000DB45D
:1020100007FEFDCFFEB49CB59F7D9CBD9CB5937F14
:102020009CBD9CB59C7F9CBD9DB591609DBD61E0B4
:1020300089810E94C43285E090E00E9440328F2D59
:1020400090E0959587958770F801808381E0DF9116
:10205000CF911F910F91FF90089580E0DF91CF9174
:102060001F910F91FF90089581E0DF91CF911F9113
:102070000F91FF900895CF92DF92EF92FF920F930E
:102080001F93CF93DF931F92CDB7DEB76C01E62E7F
:10209000FC018581042F841708F4082FF60196812E
:1020A000911160C0F82EF01A1FEF1F0D8CB58F7DB7
:1020B0008CBD8CB5837F8CBD8CB58C7F8CBD8DB574
:1020C00081608DBD60E0F601818179830E94C43218
:1020D00085E090E00E94403281E68EBD000079816B
:1020E0000DB407FEFDCF8EB58FEF800F002361F09A
:1020F000EE2DF72F2FEF2EBD00000DB407FEFDCF04
:102100009EB591938150B8F7FF2049F08FEF8EBDB7
:1021100000000DB407FEFDCF9EB51150C0F78CB581
:102120008F7D8CBD8CB5837F8CBD8CB58C7F8CBD39
:102130008DB581608DBD61E0F60181810E94C43260
:1021400085E090E00E94403240E767E0C6010F90D2
:10215000DF91CF911F910F91FF90EF90DF90CF9083
:102160000C946E0B1FEFF12CA1CFEF92FF920F9307
:102170001F93CF93DF93CDB7DEB728970FB6F894B0
:10218000DEBF0FBECDBF7C0109831A832B833C8346
:102190004D835E836F837887FC0114858CB58F7DBA
:1021A0008CBD8CB5837F8CBD8CB58C7F8CBD8DB583
:1021B00081608DBD60E081810E94C43285E090E045
:1021C0000E9440328AE28EBD00000DB407FEFDCFB2
:1021D0008EB58FEF810F1123E1F18E010F5F1F4F3D
:1021E000F80191919EBD00000DB407FEFDCF9EB594
:1021F0008150B8F78CB58F7D8CBD8CB5837F8CBD3D
:102200008CB58C7F8CBD8DB581608DBD61E0F70193
:1022100081810E94C43285E090E00E944032F70143
:102220002485A80160E1C7010E94120BF7014581D6
:1022300061E1C7010E946E0B28960FB6F894DEBFCD
:102240000FBECDBFDF91CF911F910F91FF90EF9007
:1022500008958E010F5F1F4FCDCFBF92CF92DF92B7
:10226000EF92FF920F931F93CF93DF93CDB7DEB71B
:1022700028970FB6F894DEBF0FBECDBF6C01B62E07
:10228000E982FA820B831C832D833E834F83588718
:10229000662309F475C096E0961780F428960FB669
:1022A000F894DEBF0FBECDBFDF91CF911F910F918C
:1022B000FF90EF90DF90CF90BF900895E1E06E1710
:1022C00009F476C0062F10E0F801E653FD4FF490B4
:1022D0008CB58F7D8CBD8CB5837F8CBD8CB58C7F90
:1022E0008CBD8DB581608DBD60E0F60181810E945D
:1022F000C43285E090E00E944032EF2DEF71E06241
:10230000EEBD00000DB407FEFDCF8EB589818EBDF8
:1023100000000DB407FEFDCF8EB58CB58F7D8CBD52
:102320008CB5837F8CBD8CB58C7F8CBD8DB5816069
:102330008DBD61E0F60181810E94C43285E090E0AC
:102340000E944032F801EC53FD4F6491F601458143
:10235000C6010E946E0B62E0C6010E94D20AF8011B
:10236000E053FD4FE49121E030E001C0220FEA95F7
:10237000EAF7822B482F62E0C6010E946E0B8ECFD7
:10238000FC01448550E0CE0101967C01BC01C601F0
:1023900007960E94D73B0B2D10E0F801E653FD4F46
:1023A0006491F6012485A701C6010E94120BCACFD1
:1023B000CE0101967C01EFCFCF93DF93EC016DE16D
:1023C0000E94D20A482F44606DE1CE010E946E0B3C
:1023D0006CE1CE010E94D20A482F4F636CE1CE011E
:1023E0000E946E0B81E08E83DF91CF910895EF9272
:1023F000FF921F93CF93DF931F92CDB7DEB77C017F
:10240000162F673038F00F90DF91CF911F91FF901A
:10241000EF90089561E049830E94D20A49814111F9
:1024200012C041E050E001C0440F1A95EAF7409510
:10243000482361E0C7010F90DF91CF911F91FF907A
:10244000EF900C946E0B41E050E0012E01C0440F60
:102450000A94EAF7482BEDCFFF920F931F93CF9387
:10246000DF93EC018B0166E00E94D20A877DF82E93
:1024700002301105F1F00130110531F105E510E0F0
:1024800020E030E00D871E872F87388B4F2D66E0C8
:10249000CE010E946E0B66E0CE010E94D20A91E04E
:1024A000F81290E0892FDF91CF911F910F91FF904B
:1024B00008958062F82E0BE910E020E030E00D87EF
:1024C0001E872F87388BE2CF8860F82E01E410E05A
:1024D00020E030E00D871E872F87388BD7CF20E193
:1024E000629FB00111244F70462B64E00C946E0B78
:1024F0000C94A1310F9300E020E040E060E086E81A
:1025000093E00E9473350F910895DC01ED91FC91E9
:10251000008CF18DE02D099591E089270895DC016B
:102520001C96ED91FC911D97309731F081818111BE
:1025300005C0808184FD02C080E0089581E0089597
:1025400080E090E00895FC01248535852115310552
:1025500051F0FB01448555854115510521F081E07D
:102560002417350709F080E00895CF93DF931F9279
:10257000CDB7DEB7DC01ED91FC910088F189E02D4B
:1025800041E050E0BE016F5F7F4F099597FD06C0A7
:10259000898190E00F90DF91CF9108958FEF9FEFA9
:1025A000F9CFCF93DF93EC01E881F9810480F581C5
:1025B000E02D0995892B89F02C853D85F901EC5199
:1025C000FF4F80819181820F931FFC01E358FF4FE1
:1025D000808190E0DF91CF9108958FEF9FEFFACF48
:1025E000CF93DF93EC01E881F9810688F789E02D2C
:1025F0000995882339F0EC85FD851182EA51FF4F5A
:1026000011821082DF91CF910895DC011C96ED912B
:10261000FC911D97309769F02081222351F011829F
:10262000DF01AA51BF4F1D921C9226FD07C02062F8
:102630002083FC01158614860C94DA181082FC01A4
:10264000158614860C94DA18CF93DF93EC010E9460
:10265000DA18EC85FD85309769F0808186FF06C029
:102660008181811103C0DF91CF91089581E0DF91D5
:10267000CF91089580E0DF91CF910895CF92DF92BE
:10268000EF92FF920F931F93CF93DF9300D000D070
:10269000CDB7DEB77C018B016A010E94A131D70161
:1026A000ED91FC910288F389E02DC7010995F801AD
:1026B000228130E0322F22278381282B32272327C3
:1026C00032273A832983248130E0322F22278581E3
:1026D000282B3227232732273C832B83C6010E94D5
:1026E000DB22BC01CE0101960E94471B8C010097A2
:1026F00071F0FC01818D09C00E94DA18D801599649
:102700008C91982F9F70933089F08F70A9F780E09B
:1027100090E00F900F900F900F90DF91CF911F914D
:102720000F91FF90EF90DF90CF900895F801848D86
:10273000958DD7011D969C938E931C9781E090E018
:10274000E8CFCF92DF92EF92FF920F931F93CF9338
:10275000DF9300D0CDB7DEB78C017B01DC01ED91BA
:10276000FC910688F789E02D49835A8309954981B0
:102770005A81882309F473C0D8011C96ED91FC910D
:102780001D978181882309F46AC0DF01AA51BF4FD8
:102790002D913C916A012C153D0508F456C0DF01CE
:1027A000AC51BF4F2D913C91B90163587F4F6E0FD3
:1027B0007F1FA601C7010E94D73BD8011C96ED914F
:1027C000FC911D97DF01AA51BF4F8D919C911197EC
:1027D0008C199D0911969C938E9312972D913C9183
:1027E00011972C0D3D1D11963C932E93892B09F5C5
:1027F00011821D921C928081A82FAF709EE1A99F2B
:10280000D0011124A75ABA4F59969C9194FF1FC02A
:10281000982F9076E1F480688083D8011C96ED9122
:10282000FC911D9712861386148615868181882354
:1028300071F0C6010F900F90DF91CF911F910F9112
:10284000FF90EF90DF90CF9008956901A8CF80812D
:1028500086FFEFCF1082F80115861486EACF8FEF3E
:102860009FEFE8CFCF93DF93EC010E94DA18E88165
:10287000F9810688F789E02DCE010995882329F092
:10288000EC85FD858181811105C080E090E0DF91BC
:10289000CF910895EA51FF4F80819181DF91CF91CF
:1028A0000895FF920F931F93CF93DF93F62EFC01B1
:1028B000C485D5850E94A1310E94DA18209739F18C
:1028C0008E0108511F4F02C00E94DA188881982F8C
:1028D0009076F9F484FF1DC08B819C819C012F5F51
:1028E0003F4F2836310580F7F80140814111ECCF88
:1028F000FE01E80FF91FF68A81E08A833C832B836F
:10290000C901DF91CF911F910F91FF90089508EEBB
:1029100010E0F80110828FEF9FEFDF91CF911F91B0
:102920000F91FF9008957F928F929F92AF92BF92E6
:10293000CF92DF92EF92FF920F931F93CF93DF938B
:102940004B015A01FC01C485D5850E94A1310E942A
:10295000DA18209709F441C08501F8E6AF16B104F2
:1029600008F050C0E12CF12CCE0188519F4F6C0132
:102970007724739402C00E94DA188881982F907689
:1029800079F584FF2DC08B819C819801280F391F18
:102990002836310580F7F60120812111ECCF4696CB
:1029A000B4016E0D7F1DA8018C0F9D1F0E94D73BA7
:1029B0007A822B813C81200F311F3C832B83E00ED8
:1029C000F11EEA14FB0408F585010E191F090836EB
:1029D000110588F207E610E0CECF28EEC22ED12CEA
:1029E000F60110828FEF9FEFDF91CF911F910F9132
:1029F000FF90EF90DF90CF90BF90AF909F908F901F
:102A00007F90089507E610E0ADCFC901EDCFFC013E
:102A10001382128248EE53E060E070E044835583F5
:102A2000668377838AE391E0918380831586148699
:102A30000895FC01CB011382128248EE53E060E05E
:102A400070E044835583668377832AE331E03183E2
:102A500020839587848708957F928F929F92AF926B
:102A6000BF92CF92DF92EF92FF920F931F93CF937B
:102A7000DF93EC014B015A010E94A1310E94DA1848
:102A8000209709F441C0850188E6A816B10408F032
:102A900050C0E12CF12CFE01E851FF4F6F0177246B
:102AA000739402C00E94DA188881982F907679F585
:102AB00084FF2DC08B819C819801280F391F2836F7
:102AC000310580F7F60120812111ECCF4696B40143
:102AD0006E0D7F1DA8018C0F9D1F0E94D73B7A822F
:102AE0002B813C81200F311F3C832B83E00EF11E94
:102AF000EA14FB0408F585010E191F0908361105B3
:102B000088F207E610E0CECF38EEC32ED12CF601C6
:102B100010828FEF9FEFDF91CF911F910F91FF9068
:102B2000EF90DF90CF90BF90AF909F908F907F906D
:102B3000089507E610E0ADCFC901EDCF0F931F93C5
:102B4000CF93DF93E0915705F0915805C48DD58D53
:102B5000209709F4C6C08091540581FF1FC0DE0193
:102B6000A751BF4F8C91882331F01A8219861C829D
:102B70001B8211971C9280914C0590914D05892BD9
:102B800009F46CC08881982F907609F471C087FD94
:102B900037C0DF91CF911F910F91089584FD26C01A
:102BA00087FD24C085FD22C080FDF7C08C7009F42C
:102BB000DFC08A818111DEC08881982F907629F448
:102BC0009985992311F087FD00C185FFE0CF8A81A7
:102BD00081113DC01882E0915705F0915805158E7E
:102BE000148E80E1809354058881D1CF1A82898127
:102BF000811136C01882158E148E888187FFC9CF47
:102C000099859111C6CF807609F0C3CF8091540584
:102C1000826080935405E0915705F0915805818DAD
:102C20008F7E818F81E089878EE194E1A0E0B0E022
:102C30008E879F87A88BB98B0E94A1316A8B7B8B73
:102C40008C8B9D8B6A877B878C879D87A2CFE09139
:102C50005705F0915805818D8061818F888197CFCC
:102C6000848195819B838A83888180648883C3CF94
:102C7000818D8061818F88818F77888319860E94FA
:102C8000A1316A877B878C879D876A8B7B8B8C8B36
:102C90009D8B8E010A511F4FF801808191813297DF
:102CA00020813181820F931F83589F4F609155057A
:102CB0007091560540914C0550914D058C0F9D1F0C
:102CC0000E94D73B80914C0590914D05F8012081E1
:102CD0003181820F931F9183808381E08983888172
:102CE00056CF2091540526FF54CF80918C0381113B
:102CF00050CF80E180938C0310928D0310928E034D
:102D00001092730410927204109271041092700465
:102D10001092900310928F03109274048CE893E049
:102D2000958F848F822FCCE8D3E017CF8E859F8537
:102D3000A889B9898C509E4FAF4FBF4F8935FBE1B1
:102D40009F07A105B10520F088E59BE1A0E0B0E078
:102D50008E879F87A88BB98B809154058260809362
:102D60005405E0915705F0915805818D8F7E818F34
:102D700088812BCF6B817C8170934D0560934C05CE
:102D8000CE0146960E94DF2281E0FE01E851FF4F0E
:102D90008083319680838881FACE88818F7788837B
:102DA0001A8219861C821B82FE01E851FF4F108295
:102DB0000E94A1316A877B878C879D876A8B7B8B7A
:102DC0008C8B9D8B80915405F1CE0E94A1310A8598
:102DD0001B852C853D85601B710B820B930B0E852B
:102DE0001F8528893989061717072807390708F02A
:102DF000BFCF0E94A1316A877B878C879D870E9405
:102E0000A1310A891B892C893D89601B710B820BBA
:102E1000930B603375478105910508F487CF1986B8
:102E20001882E0915705F0915805158E148E80E2B6
:102E3000809354058881ABCE0F9300E020E040E002
:102E400060E086E794E00E9473350F910895FC01DD
:102E50007183608353834283358324830895CF93A2
:102E6000DF93CDB7DEB728970FB6F894DEBF0FBE5D
:102E7000CDBF80919A0190919B010E94C02A833816
:102E8000C9F080914C0590914D05892B19F181E095
:102E90000E94DB1B20914C0530914D052115310519
:102EA00099F528960FB6F894DEBF0FBECDBFDF911F
:102EB000CF910895E0919A01F0919B0107A0F0A5B0
:102EC000E02D3085218530934C0520934D05832FCF
:102ED000922FDBCF8FE991E00E941B1A892B09F317
:102EE0008FE991E00E94051A89E595E090935805D5
:102EF0008093570582E00E94DB1B20914C053091A6
:102F00004D052115310569F21C821B828091060155
:102F100090910701AC014F5F5F4F509307014093C1
:102F200006019E838D8383E88F83409185055091B0
:102F30008605BE016F5F7F4F80919A0190919B0142
:102F40000E94FA2FAECFFC016683A281B3818C91DF
:102F5000811101C00895808191810C94770C4F926A
:102F60005F926F927F928F929F92AF92BF92CF9219
:102F7000DF92EF92FF920F931F93CF93DF93CDB722
:102F8000DEB7CE54D1090FB6F894DEBF0FBECDBF69
:102F90007C01DB0112964D915D916D917C911597AD
:102FA0002F964CAF5DAF6EAF7FAF2F9711E02F968E
:102FB0001FAF2F972F968CAD9DADAEADBFAD2F97A8
:102FC00023968CAF9DAFAEAFBFAF239729964CAF82
:102FD0005DAF6EAF7FAF299749AF5AAF6BAF7CAF94
:102FE0001CAF89AD9AADABADBCAD8FA398A7A9A717
:102FF000BAA723961FAF239723968CAD9DADAEAD98
:10300000BFAD23978DA79EA7AFA7B8AB4BAB5CAB6B
:103010006DAB7EAB00E02FEF4FEF6FEFCE014F9621
:103020000E947335C9A02AA19BA18CA1C9862A87B9
:103030009B878C871AA79FA028A599A581E09F86CA
:10304000288B998B8A8B18AB8DA59EA5AFA5B8A9A7
:103050008D8B9E8BAF8BB88F2BA93CA99DA98EA978
:103060002B8F3C8F9D8F8E8FBA840B85DC84888854
:10307000A988188F8D899E89AF89B88D8B839C8391
:10308000AD83BE83522E432E7D8C6E8C662DF70150
:10309000848195810E942C27D7011296ED91FC9195
:1030A000139707A0F0A5E02D828593859093860560
:1030B00080938505A42DB0E0B529E62DF0E0F72931
:1030C000B425AB27BA27B0938205A0938105F625D6
:1030D000EF27FE27F0938405E0938305682D70E0C9
:1030E000792978256727762770937A056093790583
:1030F0004A2D50E0516050937C0540937B052B2D69
:1031000030E03C298D2D90E0902B3B252327322762
:1031100030937E0520937D059D25892798279093E0
:10312000800580937F052B819C818D81EEE7F4E003
:1031300020839183828313834EE350E060E070E04C
:10314000C70107960E94F5190E94371BC25BDF4F2B
:103150000FB6F894DEBF0FBECDBFDF91CF911F91A8
:103160000F91FF90EF90DF90CF90BF90AF909F9026
:103170008F907F906F905F904F900895FB01228118
:1031800030E0322F22278381282B848190E0982FF2
:1031900088274581842B32272327322730937A05CD
:1031A0002093790598278927982790937C05809309
:1031B0007B050895CF93DF93CDB7DEB728970FB681
:1031C000F894DEBF0FBECDBF80919A0190919B0114
:1031D0000E94C02A8338C9F080914C0590914D051A
:1031E000892B19F181E00E94DB1B20914C05309165
:1031F0004D052115310599F528960FB6F894DEBFD7
:103200000FBECDBFDF91CF910895E0919A01F0916B
:103210009B0107A0F0A5E02D3085218530934C055A
:1032200020934D05832F922FDBCF8FE991E00E94F1
:103230001B1A892B09F38FE991E00E94051A89E591
:1032400095E0909358058093570582E00E94DB1B20
:1032500020914C0530914D052115310569F21C82F4
:103260001B828091060190910701AC014F5F5F4F77
:1032700050930701409306019E838D8383E88F83DB
:103280004091850550918605BE016F5F7F4F80910B
:103290009A0190919B010E94FA2FAECF0F9300E00C
:1032A00020E040E060E082E894E00E9473358CE723
:1032B00094E00F910C946935CF93DF931F92CDB7B3
:1032C000DEB76983DC01ED91FC910280F381E02D92
:1032D00041E050E0BE016F5F7F4F09950F90DF9195
:1032E000CF910895FC01848195810E94CA1B0C94A2
:1032F000DA18E0918C03E4FF0FC0EF702EE1E29F3B
:10330000F0011124E75AFA4F24813581FC018481B0
:1033100095812817390719F080E090E008958CE82E
:1033200093E00C942C15CF93DF93EC01CB011B821F
:103330001A822AE531E0398328830E94DB229D83AB
:103340008C83DF91CF9108950F931F93CF93DF93D9
:10335000EC018B010E94DA1880918D03882381F0A3
:1033600040918C0344FD15C046FF0AC020918E0396
:1033700030918F03F8018481958128173907C9F0AE
:10338000CE010E940715CE01DF91CF911F910F91C1
:103390000895E42FEF708EE1E89FF0011124E75AC1
:1033A000FA4F24813581F8018481958128173907E6
:1033B000D9F66CE873E0CE010E941915E4CF0F93A3
:1033C00000E020E040E060E088E894E00E9473358F
:1033D0000F9108950F9300E020E040E060E08EE858
:1033E00094E00E9473350F910895CF93DF93EC0121
:1033F0004C835D836E837F830E9478126883798318
:103400008A839B83DF91CF9108950F931F93FC01D3
:1034100040815181628173810481158126813781C8
:10342000400F511F621F731F408351836283738358
:103430001F910F9108950F931F93CF93DF93EC018A
:103440000E947812088119812A813B81601B710BCF
:10345000820B930B41E050E00C811D812E813F8156
:10346000601771078207930710F440E050E0CA012B
:10347000DF91CF911F910F9108950F931F93CF93D9
:10348000DF93A0918505B09186051296CC91129795
:10349000D0E0DC2FCC2713968C911397C80FD11D49
:1034A000CE010E978D01045F1F4FBD016D5E7F4FF2
:1034B0000617170758F5F80108C0342F252F832F5A
:1034C000922F3296E617F707B8F4208130E0322FBA
:1034D00022274181240F311D820F931FAC014F5FC2
:1034E0005F4F8217930748F3382F292F832F922F8E
:1034F0003296E617F70748F39B012A1B3B0B2D502A
:1035000031092E7F2E5F3F4F020F131F6017710787
:1035100009F452C0BD016C5E7F4F6597C60FD71F7F
:103520006C177D0758F5FB0108C0342F252F832F1A
:10353000922F3296EC17FD07B8F4208130E0322F3D
:1035400022274181240F311D820F931FAC014F5F51
:103550005F4F8217930748F3382F292F832F922F1D
:103560003296EC17FD0748F39E012A1B3B0B2551B1
:1035700031092E7F2E5F3F4F620F731FC617D7078B
:1035800049F0009789F48FEF9FEFDF91CF911F9162
:103590000F910895288130E0322F2227820F931F48
:1035A0008217930770F70196982789279827DF914C
:1035B000CF911F910F91089553962C91539730E01E
:1035C000322F2227820F931F8217930708F0A2CF72
:1035D0000196A0CFFC015381560F50935305872FBE
:1035E00099274281480F40935205A181A09351052C
:1035F000E081E0935005242F30E02817390728F4A4
:10360000AF5FA0935105AA23A1F0852F90E0772703
:103610008617970768F44F5F40935205411108C021
:10362000AF5FA0935105A11103C0EF5FE093500578
:103630000895EF5FE0935005E8CF20915705309152
:103640005805BC01C90108960E94EA1AE091570585
:10365000F0915805809150058087809151058187B0
:103660008091520582878091530583870895109237
:103670007805109277051092720581E08093970487
:1036800080E094E0909399048093980408952091A9
:10369000980430919904A0917205E0915D05F09134
:1036A0005E05A11156C02F5F3F4F21154DE734072E
:1036B00008F06DC0309399042093980410929704F9
:1036C000522F432F22E02093720520919A042093D9
:1036D000650520919B042093660520919C0420930E
:1036E000670520919D042093680527E630E030931C
:1036F0006C0520936B0530936E0520936D0521E0DA
:1037000030E030936A052093690510927405209388
:10371000730528E02093710510926F0520E1209336
:10372000700550935E0540935D057093600560934E
:103730005F05FC012081318130935A0520935905A2
:103740008281938190935C0580935B0589E595E088
:1037500008952F5F3F4F21154DE73407A8F4522FEE
:10376000432FE417F507A9F33093990420939804A5
:10377000A73031F081E08093970480E090E00895D5
:1037800021E0209397049ECF20E030E1E8CF20E0B5
:1037900030E190CF10929704209177053091780511
:1037A000232B21F081E0809397040895909378056E
:1037B000809377050895EF92FF920F931F93CF9315
:1037C000DF930091570510915805C0918505D09160
:1037D00086059E01285D3F4F309356052093550581
:1037E00030934F0520934E05833099F08230D9F005
:1037F0008881853409F448C110924D0510924C051A
:1038000010925405DF91CF911F910F91FF90EF908F
:103810000895F801818D8F70833071F780899189C7
:10382000892B51F736C080919D048F5F80939D0452
:10383000811113C080919C048F5F80939C0481113F
:103840000CC080919B048F5F80939B04811105C005
:1038500080919A048F5F80939A0410924D05109284
:103860004C051092880510928705F801218D822F52
:103870008D7F853009F4E0C1222309F4BDCFF80122
:1038800080899189892B09F0DFC12F70233009F0DD
:10389000B3CF88E0809354050E949E152091540573
:1038A00025FF27C21092880510928705F801118E16
:1038B000C0918505D091860584E189A3E0908105BA
:1038C000F090820588E290E090934D0580934C053E
:1038D00080E588A3F80180858C8F81858D8F828516
:1038E0008E8F83858F8F8485888F8585898F868548
:1038F0008A8F87858B8F86E08987848195819D8BD0
:103900008C8B868197819F8B8E8BFD86EC86809138
:103910008305909184059F878E8780819181998B03
:10392000888B828193819B8B8A8B818D84FFCAC116
:103930001BA21AA280E4888710914C0500914D05C6
:103940000A831B831FA21EA21DA21CA20E943D1A55
:10395000809590959DA38CA385E4888319821F820E
:103960001E8280919E0490919F04019690939F04E3
:1039700080939E049C838D831B861A86802F90E003
:10398000982F8827810F911D9C013B5B28173907D1
:1039900010F42F5F3F4F8C8190E0982F88274D8146
:1039A000840F911D280F391F2817390710F42F5F36
:1039B0003F4F8E8190E0982F88274F81840F911D73
:1039C000280F391F2817390710F42F5F3F4F8885BC
:1039D00090E0982F88274985840F911D280F391F63
:1039E0002817390710F42F5F3F4F8A8590E0982FF2
:1039F00088274B85840F911D280F391F28173907F9
:103A000010F42F5F3F4F8C8590E0982F88274D85CD
:103A1000840F911D280F391F2817390710F42F5FC5
:103A20003F4F8E8590E0982F88274F85840F911DFA
:103A3000280F391F2817390710F42F5F3F4F888947
:103A400090E0982F88274989840F911D280F391FEE
:103A50002817390710F42F5F3F4F8A8990E0982F7D
:103A600088274B89840F911D280F391F2817390784
:103A700010F42F5F3F4F2115310509F053C120E0AD
:103A800030E03B872A87BCCE0A8110E0102F002748
:103A90008B81080F111D80914C0590914D05801769
:103AA000910708F4A9CE10934D0500934C058E8123
:103AB0008F7309F0A1CE8F8181119ECEE090810598
:103AC000F0908205E114F10409F000C180918305B2
:103AD00090918405892B09F0F9C050E040E02A81DB
:103AE00030E0322F22278B81280F311D888190E012
:103AF000982F88276981860F911D820F931F821747
:103B0000930708F401962C8130E0322F22276D8133
:103B1000260F311DBC01620F731F6217730710F46B
:103B20006F5F7F4F2E8130E0322F22278F81280F49
:103B3000311D620F731F6217730710F46F5F7F4FA1
:103B4000288530E0322F22278985280F311D620F0A
:103B5000731F6217730710F46F5F7F4F8A8590E0C1
:103B6000982F88272B85820F911D9B01280F391FC5
:103B70002817390710F42F5F3F4F8C8590E0982F5E
:103B800088276D85860F911D280F391F2817390743
:103B900010F42F5F3F4F8E8590E0982F88276F8518
:103BA000860F911D280F391F2817390710F42F5F32
:103BB0003F4F888990E0982F88276989860F911D4B
:103BC000280F391F2817390710F42F5F3F4F8A89B4
:103BD00090E0982F88276B89860F911D280F391F39
:103BE0002817390710F42F5F3F4F2115310509F0D1
:103BF0003EC18985863009F44AC1813009F0FCCD87
:103C00008C89883009F0F8CD1C8A8E899F89873F7E
:103C10002FEF920708F433C209969F8B8E8B8C8509
:103C20009D85998B888B8E859F859B8B8A8BFD8646
:103C3000EC865E874F87E4CD828D8F5F828F8837D9
:103C400009F0DACD118ED8CD828D9FEF980F928F2B
:103C50008111D2CD838D8A3009F4CDC09FEF920FB0
:103C6000923008F4C5C0853008F0B3C098E0082E43
:103C700001C0990F0A94EAF7F801928F8F5F838F42
:103C80002F70233009F4C9C008F0A8C0213009F40E
:103C9000EAC0223009F0B0CD19A229A382E088A79A
:103CA00084E089A71AA687E68BA78CE290E0909320
:103CB0004D0580934C0580E688A3E0908105F09047
:103CC000820508CE1AA28DE58BA334CE8889998906
:103CD000E816F90609F090CD20918305309184050E
:103CE0008A899B898217930709F086CD582F492F1F
:103CF000F6CE24FF1DC0109288051092870581E042
:103D000090E0F801918B808B84E0818F138EC091BD
:103D10008505D091860581E189A3E0908105F09029
:103D20008205D0CD32272327322720953095A9CE82
:103D30008091870590918805009709F44CC0F8019F
:103D400020FF9AC0118A108AF80122893389281726
:103D5000390728F43093880520938705C901F801B5
:103D6000918B808B9C01F801138E80914E05909170
:103D70004F059093560580935505232BA9F0F80124
:103D800080899189009781F0889690934D05809362
:103D90004C05C0918505D091860588E189A3E09006
:103DA0008105F090820594CD8091540581FF24CD4A
:103DB00088E290E090934D0580934C05C091850575
:103DC000D091860580E189A3E0908105F09082057D
:103DD0007FCD90E851CF20E030E0C5CF263009F408
:103DE0009ACF283009F497CF243009F005CD93CF2E
:103DF000833009F038CFF801118E80E880935405A4
:103E00000E949E15C0918505D091860584E189A305
:103E1000E0908105F090820555CD84E080935405B3
:103E20000E949E1520918705309188059ECF41A55F
:103E3000443009F016C1309396042093970482A56C
:103E400090E0982F882723A5822B90939504809348
:103E500094048836910510F087E690E0F801938B82
:103E6000828B958B848B80E189A322E116CF2F3F33
:103E70003F4F09F0C1CCBDCE2089318921153105D4
:103E800009F462CF30938805209387056CCF0E9498
:103E90003D1A019609F0B0CC40917205442351F0CF
:103EA0002E893F8980915D0590915E05281739071D
:103EB00009F4E9C089A18F73823009F44FC089A148
:103EC00082FD9ACC84E189A388E290E090934D052D
:103ED00080934C0580E588A38B8D9F8D9B8F3A8DB9
:103EE0009E8D9A8F3E8F298D9D8D998F2D8F988DC8
:103EF000909397044C8D488F9C8F8F5F8F8F81118B
:103F00000CC081E0830F8E8F811107C081E0820F8A
:103F10008D8F811102C09F5F9C8F8C899D899093AA
:103F20009504809394042E893F893D8B2C8B9F8B25
:103F30008E8B8C859D85998B888B8E859F859B8BA1
:103F40008A8B80918105909182059D878C878091D5
:103F50008305909184059F878E87ECCC8E899F89FD
:103F60009093950480939404109297042091770580
:103F7000309178058217930721F081E080939704B0
:103F80009ECF442309F414C3473009F40EC300E064
:103F900010E081E0809397040115110509F42CCC01
:103FA000109358050093570588E0F801828F808FA1
:103FB000168A84E0878B138E8E899F8995838483EC
:103FC0008C899D89978386838C859D859183808349
:103FD0008E859F859383828381E0818F80919A046F
:103FE000848780919B04858780919C04868780913B
:103FF0009D04878781E090E0918B808B8B8D8387F8
:104000008A8D8287898D8187888D808781E090E085
:104010000E941D1BC0918505D091860528A1822F85
:10402000807F90E0813591050CF41DCF10929704AC
:10403000822F82958F7090E00597880F991F880FC7
:10404000991F3091960420E010C0EC0FFD1F30A5A1
:10405000332309F4A5C2313009F4A0C2323009F487
:10406000E6CE41A5442331F0240FE22FF0E0E8171B
:10407000F9075CF33093960420939704F4CE0896E6
:104080009F8B8E8BCCCD2C893D8980915F05909143
:1040900060052817390709F00DCF2C853D858091E3
:1040A000590590915A052817390709F003CF2E8535
:1040B0003F8580915B0590915C052817390709F0D1
:1040C000F9CE89E595E090935805809357051092B5
:1040D000540599A192FD5AC288A182958F70880FCC
:1040E000880F80939704081B11090451110910933C
:1040F0004D0500934C05842F8F70823079F0012B91
:1041000019F4892F837071F0288D8091610528172B
:10411000F9F080E189A309E515E0D4CB892F8F73ED
:10412000823169F794FF07C06091690570916A0553
:1041300061157105E9F4842F8F7090E0FC013197CF
:10414000E830F10508F058CBEC5CFF4F0C94D13906
:10415000298D809162052813DCCF2A8D809163051B
:104160002813D7CF2B8D809164052813D2CFDACFB7
:1041700085E695E00E94EA1AC0918505D0918605F2
:104180003C8D80915005381709F468C04091720544
:10419000D2CF80914C0590914D05009731F00E944F
:1041A0001D1BC0918505D091860589A180FF40C067
:1041B0008091540580FF38C087E08093720510928B
:1041C000730510926A051092690581E090E00E94E3
:1041D0001D1B80E1809354050E949E15C0918505AA
:1041E000D0918605E0908105F090820592CF809174
:1041F0004C0590914D05009731F00E941D1BC09118
:104200008505D091860589A180FD08C080914C0567
:1042100090914D05892B09F4EFCAE4CF87E0809394
:10422000720510927305D1CF86E080937205CDCFD1
:104230008091540580FFEACF85E08093720510924B
:104240006A0510926905D8CA8091540580FFD4CAC6
:1042500087E08093720510927305CECA2D8D8091F0
:104260005105281393CF9E8D8091520598138ECFC0
:104270008F8D40915305841389CF3093650520932A
:104280006605909367058093680580917405811198
:1042900021C020916F058091710590917305891B54
:1042A000922F969596959695891B280F20936F05CA
:1042B00087FD819590917005392F36953695931B22
:1042C000980F90937005822F869586958695890F15
:1042D0008093710581E080935405809171058093EE
:1042E000730510926A051092690550CF89A180FF6D
:1042F00033C044FD31C08091690590916A05892BD6
:1043000009F07ACA80914C0590914D0501960E9462
:104310001D1B20915405822F80618093540580914C
:104320004C0590914D05892B19F02261209354057D
:104330000E949E1581E090E090936A058093690544
:1043400088E08093720510927405C0918505D09124
:10435000860509E515E0DFCC85FD41C080914C055F
:1043600090914D05009769F044FD0BC020915405D4
:104370002260209354050E941D1BC0918505D09199
:1043800086058AA190E0982F88272BA1820F911D86
:10439000909395048093940420916D0530916E055F
:1043A0002817390710F0892B21F4309395042093B6
:1043B0009404809194049091950490936C0580935B
:1043C0006B0580915405837009F416CA1092880514
:1043D000109287050E949E1509E515E05FCA2EA17F
:1043E00030E0322F22278FA1282B80915505909104
:1043F0005605820F931F9093560580935505809123
:104400004C0590914D05821B930B90934D05809325
:104410004C05A8CF8091540580FF04C089A18F73FB
:10442000823179F080E2809354050E949E15E091DC
:104430005705F0915805118EC0918505D0918605DC
:104440003ECD28A1822F807F90E0813591050CF42C
:104450006AC010929704822F82958F7090E0059722
:10446000880F991F880F991F3091960420E0E22F42
:10447000F0E0E817F9070CF07FC0EC0FFD1F30A546
:10448000332309F47EC0313009F474C0323069F14D
:1044900041A5442309F470C0240FE9CF809154054D
:1044A00080FFAAC983E08093720580E4809354055D
:1044B00010926A051092690580914C0590914D0506
:1044C000009709F483CF22E4209354050E941D1B1A
:1044D0007DCF8091540580FF8FC91092720580E1D5
:1044E000809354050E949E1587C941A5443081F6EA
:1044F000309396042093970482A590E0982F882704
:1045000023A5822B9093950480939404883691057B
:1045100010F087E690E090936C0580936B05909384
:104520006E0580936D0583E080937205888D80937E
:104530006105898D809362058A8D809363058B8DDB
:104540008093640581E090E00E941D1B82E48093CB
:10455000540510926A051092690510924D0510924B
:104560004C0510928805109287050E949E1509E55A
:1045700015E094C92F5F7BCF309396042093970466
:10458000D2CF1092960420939704CDCF109272054B
:1045900080E2809354050E949E152EC92F5F65CD41
:1045A00010929604209397045ECC09E515E0F1CCB7
:1045B00009E515E0F1CC982789279827089570938D
:1045C0008805609387051616170664F420914E053A
:1045D00030914F058217930729F0AB01BC01C90147
:1045E0000C94D73B0895FC017783668351874087FD
:1045F0000895CF92DF92EF92FF920F931F93CF9384
:10460000DF93CDB7DEB729970FB6F894DEBF0FBEA4
:10461000CDBF8C016987DC0112968C9112978111B4
:104620001CC015964C914423A9F0F801A381B481D4
:1046300059858C91851759F1CD01039620E007C06B
:10464000DC010396FC0133973081351701F12F5FB0
:104650002413F6CF8FEF9FEF0BC0D8018D919C9163
:1046600084329940B9F38985811117C080E090E0C8
:1046700029960FB6F894DEBF0FBECDBFDF91CF9164
:104680001F910F91FF90EF90DF90CF9008951196BA
:104690008C91119712969C91EBCF1C821B8280917A
:1046A0000601909107019C012F5F3F4F3093070156
:1046B000209306019E838D8384EC8F8322E030E07B
:1046C000AE01475F5F4FBE016F5F7F4FF80180858E
:1046D00091850E94FA2F882309F4BCCF0E94A13152
:1046E0006B017C010CC00E94A1316C197D098E09FF
:1046F0009F09673971058105910508F0ABCFD80195
:1047000018968D919C9119970E94C02A843C59F764
:10471000D8011896ED91FC9119972785308937FDBE
:1047200002C0C901A5CF8EEF9FEFA2CFCF92DF923B
:10473000EF92FF920F931F93CF93DF93CDB7DEB726
:104740002A970FB6F894DEBF0FBECDBF8C017A87D3
:104750006987262F372F2F3F8FEF380709F47FC047
:104760002115310531F1F80180819181009791F592
:1047700075817723D9F0A381B48111968D919C9195
:1047800012972817390709F46FC0CD01039660E02E
:104790000AC0DC010396FC01329740815181241745
:1047A000350709F461C06F5F6713F3CF8FEF9FEF99
:1047B00002C080E090E02A960FB6F894DEBF0FBEEC
:1047C000CDBFDF91CF911F910F91FF90EF90DF90C0
:1047D000CF9008958432994049F31C821B828091C6
:1047E0000601909107019C012F5F3F4F3093070115
:1047F000209306019E838D8386EC8F8322E030E038
:10480000AE01475F5F4FBE016F5F7F4FD8011896C3
:104810008D919C9119970E94FA2F882339F20E945A
:10482000A1316B017C010CC00E94A1316C197D0982
:104830008E099F09653F71408105910508F0B6CF4B
:10484000F801808591850E94C02A863C69F7D801CD
:104850001896ED91FC91199787859089ACCFD80176
:1048600012968C9190E0A7CF8C9190E0A4CFAF925C
:10487000BF92DF92EF92FF920F931F93CF93DF933C
:10488000CDB7DEB728970FB6F894DEBF0FBECDBF09
:104890008C01FC01808191818432994009F45BC0D4
:1048A00053E0F52EDD24D39462E8E62E07C0F8012C
:1048B000808191818432994009F44DC0F80180854E
:1048C00091850E94C02AF80120813181243239402B
:1048D00081F0F801833C09F454C09281911109C020
:1048E000843C09F459C0863C09F472C0853C09F443
:1048F0007DC0F801868197810E94ED0E81114AC02A
:10490000F80180859185FC0122A520FD43C01C8211
:104910001B822091060130910701A9014F5F5F4F73
:1049200050930701409306013E832D83EF8220E0E0
:1049300030E040E050E0BE016F5F7F4F0E94FA2FF1
:10494000811128C067E670E080E090E00E94AD3100
:10495000FA9409F0ACCFF801868197810E94200E6D
:1049600080E028960FB6F894DEBF0FBECDBFDF9172
:10497000CF911F910F91FF90EF90DF90BF90AF907C
:104980000895D286F801868197810E94ED0E8823D2
:1049900009F4B6CF81E0E5CFF801A084B184F50138
:1049A00087819085928781876785C8010E94F92257
:1049B0009A838983B501695F7F4F22E030E0AE01C1
:1049C0004F5F5F4FF801808591850E94FA2F91CF4C
:1049D000F801A084B184F501878190859287818751
:1049E000678570E0C8010E949623E2CFA085B1855B
:1049F0007581772309F47DCF4381548160E004C041
:104A00006F5F671708F075CF862F90E0FC01EE0FFF
:104A1000FF1FE80FF91FE40FF51F21813281179660
:104A20008D919C9118972817390751F7128211829E
:104A3000F8017581E5CF6F927F928F929F92AF922E
:104A4000BF92CF92DF92EF92FF920F931F93CF937B
:104A5000DF93CDB7DEB760970FB6F894DEBF0FBE19
:104A6000CDBF7C0180E490E09C878B87809106011C
:104A7000909107019C012F5F3F4F309307012093D6
:104A800006019E878D8782EC8F87062F20E030E01D
:104A900040E050E0BE01675F7F4FD70118968D91CF
:104AA0009C9119970E94CC2F0E94A1314B015C016F
:104AB000D12C0EC00E94A131681979098A099B097D
:104AC000683371058105910510F5B3E0BD1510F14E
:104AD000F701808591850E94C02A823C59F7ED2D0F
:104AE000F0E0EE0FFF1F81E090E08C0F9D1FE80FBC
:104AF000F91FD70118968D919C911997DC01179693
:104B00008D919C91189791838083D394D3CFDD208E
:104B100009F44AC0712CC12C33EC632E6F86F70167
:104B20008281888BE72DF0E0EE0FFF1F81E090E09F
:104B30008C0F9D1FE80FF91F008111811C870B87C7
:104B400020E030E040E050E0BE01675F7F4FD701DA
:104B500018968D919C9119970E941D2E0E94A1314B
:104B60004B015C0109C0F701808591850E94C02A34
:104B7000C82EF0E88F1779F10E94A13168197909E0
:104B80008A099B09613E71058105910560F365E025
:104B900070E080E090E00E94AD3173947D1408F4E1
:104BA000BDCF80E8C816C9F010E0812F60960FB61F
:104BB000F894DEBF0FBECDBFDF91CF911F910F9153
:104BC000FF90EF90DF90CF90BF90AF909F908F902D
:104BD0007F906F9008957D2CDACFD7011896ED91D4
:104BE000FC911997878590890097F1F23685129686
:104BF0002C913213D9CFD70111969C938E93169690
:104C00008D919C9117970E94200E6AE070E080E0E1
:104C100090E00E94AD31F701408151816FEF8085B6
:104C200091850E9444271C861B8681E88F8707E0B8
:104C300006C063E070E080E090E00E94AD3120E0CB
:104C400030E040E050E0BE01675F7F4FF7018085B4
:104C500091850E94FA2F182F8111A7CF015049F793
:104C600044E259E06FEFF701808591850E94442767
:104C700024E239E0D7012D933C9397CF7F928F9216
:104C80009F92AF92BF92CF92DF92EF92FF920F93DB
:104C90001F93CF93DF93EC016A017B018E819F818B
:104CA0000E94DA0F882381F080E090E0DF91CF91BD
:104CB0001F910F91FF90EF90DF90CF90BF90AF903A
:104CC0009F908F907F9008958E819F810E94200EEB
:104CD000E885F98582A5826082A76AE070E080E0BD
:104CE00090E00E94AD3144E259E06FEF88859985EC
:104CF0000E94442784E299E0998388830E94A1312D
:104D00004B015C01712C10E00DEC32C00E94A1310E
:104D1000681979098A099B09C616D706E806F906B3
:104D200018F2272D30E02F5F3F4F812F90E0019642
:104D3000289FB001299F700D389F700D1124675E68
:104D40007F4F660F771F882777FD8095982F0E94E9
:104D5000AD311F5F137081E0870D809F712C11248E
:104D60007694769476949AE0799E80191124782E20
:104D7000612FCE010E941B25882341F2E885F98529
:104D800082A58D7F82A78881998190CF8F929F92F3
:104D9000AF92BF92CF92DF92EF92FF920F931F9349
:104DA000CF93DF931F92CDB7DEB74C015A01680154
:104DB0007901FC018681978169830E947E0CF40150
:104DC000828169818823D9F184E299E0918380838B
:104DD000F401638B868197810E94770CB501F40101
:104DE000868197810E942C12F4018085918521E0B3
:104DF000FC0121A7F40122812223B9F0B701A60109
:104E0000C4010E943E2621E0892BB9F0822F0F9029
:104E1000DF91CF911F910F91FF90EF90DF90CF9096
:104E2000BF90AF909F908F900895F4014081518181
:104E30006FEF0E94442721E0E9CF20E0E7CF86E032
:104E400090E069830E94E639F4019483838315829C
:104E5000118210826981BCCFFC0162830895FC013C
:104E600070AB67A7E153FF4F9C012B5C3F4F318331
:104E700020833C9628553F4F318320832C503109A5
:104E8000FC0130A727A308958F92AF92BF92CF92D3
:104E9000DF92EF92FF920F931F93CF93DF93CDB7E3
:104EA000DEB729970FB6F894DEBF0FBECDBF5C0109
:104EB0006A0141155105A1F0842F8770863008F0F2
:104EC000E6C0CA0105C0282F2770263008F0DFC0D1
:104ED000969587959695879596958795009799F7D6
:104EE000F501D3AAC2AA87A590A9DC012C912F3F76
:104EF00009F4CDC0DC0111962C912F3F09F4C7C0F5
:104F00006F3F29F00E94770CF50187A590A940E03A
:104F100060E00E94F711D5019F968D919C91D097EA
:104F20000E94DC11D501D296ED91FC91D3979F019F
:104F3000ABEABAEA0E94D7399695879596958795F8
:104F4000AC01440F551F480F591F440F551FE41B58
:104F5000F50B6E2F660F6B5F45E0F50187A590A9F5
:104F60000E946F1289E190E0A0E0B0E0F50181833A
:104F70009283A383B4838BE490E09683858382A994
:104F800093A9009709F4C6C060E02FEF3FEF220F0E
:104F9000331F220F331F220F331F6F5FAC014223D9
:104FA0005323452BA1F7D501D1966C9320953095CD
:104FB000F501E059FE4F31832083369527953695CC
:104FC0002795369527953397A9014823592351836F
:104FD00040832115310579F09695879596958795AB
:104FE00096958795369527953695279536952795E5
:104FF0002115310589F7F501E159FE4F808375E0F0
:105000005CEC852E89828A828B828C828D821E82C4
:105010001F821886C114D10409F463C0711149C0FC
:10502000E1E0D694C794D694C794D694C794EF5F22
:10503000C114D104B1F7F0E0E15AFE4FF080FA82DA
:10504000E9800B811C812D813E814F81588560E074
:10505000D5019F968D919C91D0970E942D11D501DD
:105060009F968D919C91D09729960FB6F894DEBFAC
:105070000FBECDBFDF91CF911F910F91FF90EF90A9
:10508000DF90CF90BF90AF908F900C94800D2996B9
:105090000FB6F894DEBF0FBECDBFDF91CF911F9149
:1050A0000F91FF90EF90DF90CF90BF90AF908F90D7
:1050B0000895C60121E0A1E0B0E0AC0FBD1FA20F32
:1050C000B11DFC01E770FF27E05AFE4F30813C9391
:1050D0009695879596958795969587952F5F0097D6
:1050E00051F7E72FF0E0E05AFE4FE080E982FA80C6
:1050F0000B811C812D813E814F815885672FF501E1
:1051000087A590A979870E942D117985715008F0A3
:1051100079CFA5CFF50111AAE059FE4F1182108277
:1051200033971182108267CF8F929F92AF92BF9276
:10513000CF92DF92EF92FF920F931F93CF93DF9363
:10514000EC017B01CCA8D12C860108501109DB01B0
:1051500016964C918CE6840F833030F1483C69F10F
:10516000433809F4DDC07E01BFECEB0EF11CF70102
:10517000A081B181CE01C5969D01281B390BC901C3
:10518000800F911F8B39910508F4A8C080E0DF9152
:10519000CF911F910F91FF90EF90DF90CF90BF9034
:1051A000AF909F908F900895443909F450C08BE6DA
:1051B000840F823010F0483CB1F66E0159EDC50EF7
:1051C000D11CD6018D919C919801280F391F21394E
:1051D000310508F0BCC04E01B8ED8B0E911CF401F6
:1051E0002081222399F2463929F0D70117963C9164
:1051F0002313CCCFFE01EB52FF4F40815181F701C9
:10520000248135814217530709F65E01FBEDAF0E8D
:10521000B11CD5012D913C91A801BE01615F7F4F6A
:10522000820F931F0E94D73BF60180819181800FEE
:10523000911F91838083D70116962C91263909F40A
:10524000A3C0F40180818150808381E0A0CFF70169
:1052500067816B3908F07BC0FE01EB52FF4F208164
:105260003181D70114968D919C9115972817390794
:1052700009F47AC034976F01F8E16F9F900111240F
:10528000FE01E153FF4F80819181AE01481B590B14
:10529000CA018B539F4F821793070CF45DC0FE0128
:1052A000379688E0D60101900D928A95E1F7FE01CC
:1052B000E552FF4FBE01615F7F4FA8018081918160
:1052C0000E94D73BFE01E752FF4F11830083C85273
:1052D000DF4F88818150888381E059CFE85CF109F4
:1052E00088E001900D928A95E1F7D701ED91FC914C
:1052F0001197118700878D919C91BE01615F7F4F4F
:10530000A8010A960E94D73BB2E0CB0ED11CF70150
:10531000808191818C0D9D1D9183808381E037CFA9
:10532000DE01AF52BF4FFE01379688E001900D922B
:105330008A95E1F7FE01E552FF4FCE010F9691836A
:105340008083C752DF4F1983088382E020CFC85281
:10535000DF4F188280E01BCF8AA581608AA78FA5C6
:1053600098A90E94200E9BCF6E01F1EDCF0ED11CAB
:10537000D6014D915C91F7018081918148175907C1
:1053800009F07ACF81E003CFD4011C92F701278185
:10539000FE01E952FF4F2083233879F18E0101533A
:1053A0001F4FF801A081B1819E012A1B3B0B2B539B
:1053B0003F4F2817390718F132968AE001900D9275
:1053C0008A95E1F7D8018D919C91F50160817181F9
:1053D000D6014D915C910A960E94D73BF60120813F
:1053E0003181265F3F4FD8018D919C911197820F9B
:1053F000931F8D939C9381E0CACE82E0C8CE8FA587
:1054000098A90E94200E8AA581608AA780E0BFCE5D
:105410007F928F929F92AF92BF92CF92DF92EF9244
:10542000FF920F931F93CF93DF93CDB7DEB72897EB
:105430000FB6F894DEBF0FBECDBF7C01D22E8CEC30
:1054400089838A838B838C838D831E821F82188637
:105450006115710509F480C0411166C0E1E07695DF
:1054600067957695679576956795EF5F61157105F8
:10547000B1F7F0E0E15AFE4F80818A8309811A81F9
:105480007B808C80BD809E80CF80A884F70182A520
:1054900082FF71C0DD2009F466C040E060E0F701E2
:1054A00087A590A90E94F711272D382D4B2D592D36
:1054B0006C2D7A2DF70187A590A90E94B5102D2D8E
:1054C000F70144A9B701695F7F4F87A590A90E94A2
:1054D0005B0ED82EF70182A582FD11C04181528159
:1054E0006381748120E087A590A90E94F30ED82ED5
:1054F00040E060E0F70187A590A90E94F7118D2D8B
:1055000028960FB6F894DEBF0FBECDBFDF91CF91C6
:105510001F910F91FF90EF90DF90CF90BF90AF90D1
:105520009F908F907F90089581E0A1E0B0E0AC0F54
:10553000BD1FA80FB11DFB01E770FF27E05AFE4F0A
:1055400090819C9376956795769567957695679506
:105550008F5F6115710549F7E42FF0E0E05AFE4FC7
:10556000808189838BCF41E060E0F70187A590A916
:105570000E94F71199CF87A590A90E94200E8ACF8B
:105580002F923F924F925F926F927F928F929F9253
:10559000AF92BF92CF92DF92EF92FF920F931F9341
:1055A000CF93DF9300D0CDB7DEB78C01DC019A96A4
:1055B0006C9161FD0FC0FC01E153FF4F20813181EF
:1055C00060FF44C1C5968217930708F445C06E7FFB
:1055D000F80162A76801F7E0CF0ED11C380183E91A
:1055E000681A8EEF780A480191E9891A9EEF990AA4
:1055F0002801A0E94A1AAEEF5A0A22242394312C3A
:10560000D8019F96ED91FC91D09780818F3F21F139
:1056100081818F3F09F1BE016F5F7F4FCF010E94F3
:10562000E00F8823C9F0F80187A590A90E948E0F8A
:10563000482FD801D4968C93883020F56AE070E02A
:1056400080E090E00E94AD31D8019F96ED91FC91F1
:10565000D09780818F3FE1F680E00F900F90DF912F
:10566000CF911F910F91FF90EF90DF90CF90BF905F
:10567000AF909F908F907F906F905F904F903F90F2
:105680002F900895B601F80187A590A90E943B10BC
:10569000D8011996ED90FC901A97E114F10409F4E1
:1056A00061C18E2D8770863008F0AACFC70105C072
:1056B000282F2770263008F0A3CF969587959695CA
:1056C000879596958795009799F7F801358562A992
:1056D00073A9E616F70609F466C0B0E4EB16F10408
:1056E00051F5323C09F078C0F80182A583FD88CFDE
:1056F0006432F9E07F0709F483CFD80117968D91C2
:105700009C9118971A969C938E93199718967C9350
:105710006E931797F401608170E080E090E00E9442
:10572000AD31D80119966D917C911A9742E0C8016C
:105730000E94CF2C65CFC70105C0282F27702630C7
:1057400008F05ECF9695879596958795969587955F
:10575000009799F7D301AD90BC90F4014081D2013C
:105760008D919C91FC01EE21FF216E177F0709F4BA
:105770009FC020E0B501C8013A830E94082A3A81FF
:10578000882321F0EA14FB0409F4AAC0D8019A96F0
:105790008C919A9782FD34CF9F968D919C91D09752
:1057A0000E94800D2DCF323809F42ACF303809F409
:1057B00056C0333C09F45DC0D80199968C9188237A
:1057C00011F137FD24C0B601C8010E94942882302F
:1057D00009F016CF83E841CFB601C8010E94942892
:1057E000F82EF8018081882349F081A9811119C020
:1057F00060E070E044E0C8010E94CF2C92E0F91212
:10580000FFCE83E82ACF313CF1F681EC26CF8CE63F
:10581000830F8330C0F2383CB1F23338A1F2832FCA
:105820001CCF90E00197BC01660F771F680F791FAE
:10583000C10102C0880F991F6A95E2F7BC01660F8B
:10584000771F660F771F660F771FD4CFC596A90104
:10585000481B590B493751050CF4BCCEB4CEB4E209
:10586000EB16B9E0FB06A1F4F80181A58111A9CFDF
:10587000AACFE114F104C1F3F801F086E7821286A1
:10588000118640E060E070E0C8010E94CF2CB8CEE5
:1058900084E299E0F8019287818742E064E279E04E
:1058A000C8010E94CF2C6AE070E080E090E037CF22
:1058B000AC0140955095440F551F440F551F440FA0
:1058C000551F4E215F21452B81F520E045E0B701B2
:1058D000C8013A830E94082A3A81882309F456CFE6
:1058E00031543F3708F052CF81ECF8018587A7810A
:1058F000B085B287A187F30160817181F401408195
:10590000F201808191817C01EA22FB22F80122A927
:1059100033A9E216F306B1F0E8E0D801D496EC938F
:1059200020E0C8010E94082A31CF5C01AA0CBB1CF0
:10593000AA0CBB1CAA0CBB1CA7E0AA2AAE20BF2045
:1059400045E017CF9C0120953095220F331F220F81
:10595000331F220F331F2A233B23232BA1F4BD0126
:1059600045E0DACFD8011D963C911D97D2968D91D6
:105970009C91D397892B09F416CFF301A080B180B5
:10598000D4014C91F6CEBC01660F771F660F771FCE
:10599000660F771F67606A237B2345E0BDCF4F9278
:1059A0005F926F927F928F929F92AF92BF92CF92AF
:1059B000DF92EF92FF920F931F93CF93DF931F928B
:1059C000CDB7DEB72C018B01542FDC011D963C9125
:1059D00061157105A1F0862F8770863008F059C0D7
:1059E000CB0105C0282F2770263008F052C09695AD
:1059F00087959695879596958795009799F7315451
:105A0000772473943F3748F56201B3E9CB1ABEEFB0
:105A1000DB0AF601E080F1805201F1E9AF1AFEEFF6
:105A2000BF0AD5014C915230B0F121E040E0B801FD
:105A3000C2010E94082A882391F066246394D2014F
:105A40009A968C919A9782FD11C09F968D919C9108
:105A5000D0970E94800D862D0AC0712CD5CF612C65
:105A6000D2019A968C919A9782FFEFCF862D0F9054
:105A7000DF91CF911F910F91FF90EF90DF90CF902A
:105A8000BF90AF909F908F907F906F905F904F905E
:105A9000089580E0ECCF4201B0E98B1ABEEF9B0A7B
:105AA000F40180819181B80168237923D201D296D3
:105AB0002D913C91D3976217730709F46DC020E0D4
:105AC000B701C20159830E94082A682E59815130BA
:105AD00059F5882321F20E151F0511F6772009F4D8
